{"abi":[{"type":"constructor","inputs":[],"stateMutability":"nonpayable"},{"type":"function","name":"addHistory","inputs":[{"name":"candidate","type":"address","internalType":"address"},{"name":"proof","type":"string","internalType":"string"},{"name":"result","type":"bool","internalType":"bool"}],"outputs":[],"stateMutability":"nonpayable"},{"type":"function","name":"getHistoryProof","inputs":[{"name":"candidate","type":"address","internalType":"address"}],"outputs":[{"name":"","type":"string[]","internalType":"string[]"}],"stateMutability":"view"},{"type":"function","name":"getHistoryResult","inputs":[{"name":"candidate","type":"address","internalType":"address"}],"outputs":[{"name":"","type":"bool[]","internalType":"bool[]"}],"stateMutability":"view"},{"type":"function","name":"owner","inputs":[],"outputs":[{"name":"","type":"address","internalType":"address"}],"stateMutability":"view"}],"bytecode":{"object":"0x6080604052348015600f57600080fd5b50600080546001600160a01b0319163317905561068b806100316000396000f3fe608060405234801561001057600080fd5b506004361061004c5760003560e01c806365f65080146100515780638c44e652146100665780638da5cb5b1461008f578063c9fec360146100ba575b600080fd5b61006461005f36600461032f565b6100da565b005b610079610074366004610409565b610172565b604051610086919061042b565b60405180910390f35b6000546100a2906001600160a01b031681565b6040516001600160a01b039091168152602001610086565b6100cd6100c8366004610409565b610261565b60405161008691906104c8565b6000546001600160a01b031633146100f157600080fd5b6001600160a01b03831660009081526001602081815260408320805492830181558352909120016101228382610596565b506001600160a01b0390921660009081526002602090815260408220805460018101825590835291819020908204018054931515601f9092166101000a91820260ff909202199093161790915550565b6001600160a01b0381166000908152600160209081526040808320805482518185028101850190935280835260609492939192909184015b828210156102565783829060005260206000200180546101c99061050d565b80601f01602080910402602001604051908101604052809291908181526020018280546101f59061050d565b80156102425780601f1061021757610100808354040283529160200191610242565b820191906000526020600020905b81548152906001019060200180831161022557829003601f168201915b5050505050815260200190600101906101aa565b505050509050919050565b6001600160a01b0381166000908152600260209081526040918290208054835181840281018401909452808452606093928301828280156102e157602002820191906000526020600020906000905b825461010083900a900460ff1615158152602060019283018181049485019490930390920291018084116102b05790505b50505050509050919050565b80356001600160a01b038116811461030457600080fd5b919050565b634e487b7160e01b600052604160045260246000fd5b8035801515811461030457600080fd5b60008060006060848603121561034457600080fd5b61034d846102ed565b9250602084013567ffffffffffffffff81111561036957600080fd5b8401601f8101861361037a57600080fd5b803567ffffffffffffffff81111561039457610394610309565b604051601f8201601f19908116603f0116810167ffffffffffffffff811182821017156103c3576103c3610309565b6040528181528282016020018810156103db57600080fd5b816020840160208301376000602083830101528094505050506104006040850161031f565b90509250925092565b60006020828403121561041b57600080fd5b610424826102ed565b9392505050565b6000602082016020835280845180835260408501915060408160051b86010192506020860160005b828110156104bc57868503603f190184528151805180875260005b8181101561048a5760208184018101518983018201520161046e565b506000602082890101526020601f19601f83011688010196505050602082019150602084019350600181019050610453565b50929695505050505050565b602080825282518282018190526000918401906040840190835b8181101561050257835115158352602093840193909201916001016104e2565b509095945050505050565b600181811c9082168061052157607f821691505b60208210810361054157634e487b7160e01b600052602260045260246000fd5b50919050565b601f82111561059157806000526020600020601f840160051c8101602085101561056e5750805b601f840160051c820191505b8181101561058e576000815560010161057a565b50505b505050565b815167ffffffffffffffff8111156105b0576105b0610309565b6105c4816105be845461050d565b84610547565b6020601f8211600181146105f857600083156105e05750848201515b600019600385901b1c1916600184901b17845561058e565b600084815260208120601f198516915b828110156106285787850151825560209485019460019092019101610608565b50848210156106465786840151600019600387901b60f8161c191681555b50505050600190811b0190555056fea26469706673582212201bc74ede534ffa5751738f6658b2cbb3aa5892814fba75fa1e0cee06969efa6164736f6c634300081a0033","linkReferences":{}},"methodIdentifiers":{"addHistory(address,string,bool)":"65f65080","getHistoryProof(address)":"8c44e652","getHistoryResult(address)":"c9fec360","owner()":"8da5cb5b"},"id":0}