{"abi":[{"type":"constructor","inputs":[{"name":"_owner","type":"address","internalType":"address"}],"stateMutability":"nonpayable"},{"type":"function","name":"createProfileDoctor","inputs":[{"name":"_idDoctor","type":"uint256","internalType":"uint256"},{"name":"_name","type":"string","internalType":"string"},{"name":"_age","type":"uint8","internalType":"uint8"}],"outputs":[],"stateMutability":"nonpayable"},{"type":"function","name":"createProfilePatient","inputs":[{"name":"_name","type":"string","internalType":"string"},{"name":"_age","type":"uint8","internalType":"uint8"}],"outputs":[],"stateMutability":"nonpayable"},{"type":"function","name":"dataTransfer","inputs":[],"outputs":[{"name":"","type":"address","internalType":"contract IDataTransfer"}],"stateMutability":"view"},{"type":"function","name":"doctorPatientRecords","inputs":[{"name":"","type":"address","internalType":"address"},{"name":"","type":"address","internalType":"address"}],"outputs":[{"name":"","type":"bool","internalType":"bool"}],"stateMutability":"view"},{"type":"function","name":"doctorRatings","inputs":[{"name":"","type":"address","internalType":"address"}],"outputs":[{"name":"totalRating","type":"uint8","internalType":"uint8"},{"name":"numberOfRatings","type":"uint8","internalType":"uint8"}],"stateMutability":"view"},{"type":"function","name":"doctors","inputs":[{"name":"","type":"uint256","internalType":"uint256"}],"outputs":[{"name":"idDoctor","type":"uint256","internalType":"uint256"},{"name":"name","type":"string","internalType":"string"},{"name":"age","type":"uint8","internalType":"uint8"},{"name":"walletAddress","type":"address","internalType":"address"},{"name":"rating","type":"uint8","internalType":"uint8"}],"stateMutability":"view"},{"type":"function","name":"getIpfsHash","inputs":[{"name":"patient","type":"address","internalType":"address"}],"outputs":[{"name":"","type":"string","internalType":"string"}],"stateMutability":"view"},{"type":"function","name":"grantAccess","inputs":[{"name":"doctor","type":"address","internalType":"address"}],"outputs":[],"stateMutability":"nonpayable"},{"type":"function","name":"owner","inputs":[],"outputs":[{"name":"","type":"address","internalType":"address"}],"stateMutability":"view"},{"type":"function","name":"patients","inputs":[{"name":"","type":"uint256","internalType":"uint256"}],"outputs":[{"name":"name","type":"string","internalType":"string"},{"name":"age","type":"uint8","internalType":"uint8"},{"name":"walletAddress","type":"address","internalType":"address"}],"stateMutability":"view"},{"type":"function","name":"profileToOwner","inputs":[{"name":"","type":"address","internalType":"address"}],"outputs":[{"name":"","type":"uint256","internalType":"uint256"}],"stateMutability":"view"},{"type":"function","name":"ratingDoctor","inputs":[{"name":"_walletAddressDoctor","type":"address","internalType":"address"},{"name":"_rating","type":"uint8","internalType":"uint8"}],"outputs":[],"stateMutability":"nonpayable"},{"type":"function","name":"renounceOwnership","inputs":[],"outputs":[],"stateMutability":"nonpayable"},{"type":"function","name":"revokeAccess","inputs":[{"name":"doctor","type":"address","internalType":"address"}],"outputs":[],"stateMutability":"nonpayable"},{"type":"function","name":"setDataTransferAddress","inputs":[{"name":"_address","type":"address","internalType":"address"}],"outputs":[],"stateMutability":"nonpayable"},{"type":"function","name":"storeRecord","inputs":[{"name":"_id","type":"uint256","internalType":"uint256"},{"name":"ipfsHash","type":"string","internalType":"string"}],"outputs":[],"stateMutability":"nonpayable"},{"type":"function","name":"transferOwnership","inputs":[{"name":"newOwner","type":"address","internalType":"address"}],"outputs":[],"stateMutability":"nonpayable"},{"type":"event","name":"AccessGranted","inputs":[{"name":"patient","type":"address","indexed":true,"internalType":"address"},{"name":"doctor","type":"address","indexed":true,"internalType":"address"}],"anonymous":false},{"type":"event","name":"AccessRevoked","inputs":[{"name":"patient","type":"address","indexed":true,"internalType":"address"},{"name":"doctor","type":"address","indexed":true,"internalType":"address"}],"anonymous":false},{"type":"event","name":"NewUser","inputs":[{"name":"patientId","type":"uint256","indexed":false,"internalType":"uint256"},{"name":"name","type":"string","indexed":false,"internalType":"string"},{"name":"age","type":"uint256","indexed":false,"internalType":"uint256"}],"anonymous":false},{"type":"event","name":"OwnershipTransferred","inputs":[{"name":"previousOwner","type":"address","indexed":true,"internalType":"address"},{"name":"newOwner","type":"address","indexed":true,"internalType":"address"}],"anonymous":false},{"type":"event","name":"RecordStored","inputs":[{"name":"patient","type":"address","indexed":true,"internalType":"address"},{"name":"ipfsHash","type":"string","indexed":false,"internalType":"string"}],"anonymous":false},{"type":"error","name":"OwnableInvalidOwner","inputs":[{"name":"owner","type":"address","internalType":"address"}]},{"type":"error","name":"OwnableUnauthorizedAccount","inputs":[{"name":"account","type":"address","internalType":"address"}]}],"bytecode":{"object":"0x6080604052348015600f57600080fd5b506040516116ca3803806116ca833981016040819052602c9160ae565b3380605157604051631e4fbdf760e01b81526000600482015260240160405180910390fd5b605881605e565b505060dc565b600080546001600160a01b038381166001600160a01b0319831681178455604051919092169283917f8be0079c531659141344cd1fd0a4f28419497f9722a3daafe3b4186f6b6457e09190a35050565b60006020828403121560bf57600080fd5b81516001600160a01b038116811460d557600080fd5b9392505050565b6115df806100eb6000396000f3fe608060405234801561001057600080fd5b506004361061010b5760003560e01c80638da5cb5b116100a2578063b873510111610071578063b8735101146102b8578063c88bde70146102cb578063cde2d23b146102de578063d8da2fa8146102f1578063f2fde38b1461031157600080fd5b80638da5cb5b146101fd57806393119a83146102225780639ad8180f14610244578063b80068621461027257600080fd5b80636efb1b84116100de5780636efb1b84146101ab578063715018a6146101cf57806385e68531146101d75780638a7d2a0c146101ea57600080fd5b80630ae5e7391461011057806317a4ad81146101255780631ccdfc32146101685780632f7009551461017b575b600080fd5b61012361011e366004610f8a565b610324565b005b610153610133366004610fac565b600860209081526000928352604080842090915290825290205460ff1681565b60405190151581526020015b60405180910390f35b6101236101763660046110b5565b6104a1565b610123610189366004610f8a565b600180546001600160a01b0319166001600160a01b0392909216919091179055565b6101be6101b93660046110fa565b6105e9565b60405161015f959493929190611163565b6101236106c5565b6101236101e5366004610f8a565b6106d9565b6101236101f83660046111a9565b6107d4565b6000546001600160a01b03165b6040516001600160a01b03909116815260200161015f565b6102356102303660046110fa565b6109f7565b60405161015f939291906111d3565b610264610252366004610f8a565b60056020526000908152604090205481565b60405190815260200161015f565b61029e610280366004610f8a565b60076020526000908152604090205460ff8082169161010090041682565b6040805160ff93841681529290911660208301520161015f565b6101236102c6366004611209565b610ac7565b60015461020a906001600160a01b031681565b6101236102ec366004611260565b610cc6565b6103046102ff366004610f8a565b610dd9565b60405161015f91906112a7565b61012361031f366004610f8a565b610eb3565b6001600160a01b03811660009081526004602052604090205460ff1661038c5760405162461bcd60e51b815260206004820152601860248201527720b2323932b9b99034b9903737ba1030903237b1ba37b91760411b60448201526064015b60405180910390fd5b600154604051630ae5e73960e01b81526001600160a01b03838116600483015290911690630ae5e73990602401600060405180830381600087803b1580156103d357600080fd5b505af11580156103e7573d6000803e3d6000fd5b50506040516001600160a01b03841692503391507f9f520b3bfc56d06f7065d10b4683b3f57ac8895d5026cd176dee95ce1454cb8d90600090a36001600160a01b0381166104705760405162461bcd60e51b8152602060048201526016602482015275496e76616c696420646f63746f72206164647265737360501b6044820152606401610383565b3360009081526008602090815260408083206001600160a01b0394909416835292905220805460ff19166001179055565b33600090815260066020526040902054156104ce5760405162461bcd60e51b8152600401610383906112ba565b6040805160608101825283815260ff831660208201523391810191909152600280546001810182556000829052825191027f405787fa12a823e0f2b7631cc41b3ba8828b3321ca811111fa75cd3aa3bb5ace0190819061052e9082611385565b506020820151600191820180546040909401516001600160a01b0316610100026001600160a81b031990941660ff90921691909117929092179091556002546000916105799161145a565b336000908152600560209081526040808320849055600690915281208054929350906105a48361146d565b91905055507fd86dca2e2544318fbca4769e2f7ea2bba8eeb0f445dd717aef0d3c84670baa418184846040516105dc93929190611486565b60405180910390a1505050565b600381815481106105f957600080fd5b6000918252602090912060039091020180546001820180549193509061061e906112fc565b80601f016020809104026020016040519081016040528092919081815260200182805461064a906112fc565b80156106975780601f1061066c57610100808354040283529160200191610697565b820191906000526020600020905b81548152906001019060200180831161067a57829003601f168201915b5050506002909301549192505060ff808216916001600160a01b0361010082041691600160a81b9091041685565b6106cd610ef1565b6106d76000610f1e565b565b6001600160a01b03811660009081526004602052604090205460ff1661073c5760405162461bcd60e51b815260206004820152601860248201527720b2323932b9b99034b9903737ba1030903237b1ba37b91760411b6044820152606401610383565b6001546040516385e6853160e01b81526001600160a01b038381166004830152909116906385e6853190602401600060405180830381600087803b15801561078357600080fd5b505af1158015610797573d6000803e3d6000fd5b50506040516001600160a01b03841692503391507f825c8be24eb0df19500f63e86c29e7d0d951e73056b889b891d85e40938d9b6e90600090a350565b60018160ff16101580156107ec575060058160ff1611155b6108305760405162461bcd60e51b81526020600482015260156024820152744f6e6c7920726174652066726f6d203120746f203560581b6044820152606401610383565b3360009081526008602090815260408083206001600160a01b038616845290915290205460ff166108b35760405162461bcd60e51b815260206004820152602760248201527f596f7520686176656e2774206265656e20747265617465642062792074686973604482015266103237b1ba37b960c91b6064820152608401610383565b6001600160a01b038216600090815260076020526040812080548392906108de90849060ff166114b2565b825460ff91821661010093840a90810290830219909116179092556001600160a01b03851660009081526007602052604090208054600194509092849261092a928492919004166114b2565b825460ff91821661010093840a90810290830219909116179092553360009081526008602090815260408083206001600160a01b03891684528252808320805460ff1916905560058252808320546007835292819020815180830190925254808616825293909304909316928201839052925090156109f157602081015181516109b491906114cb565b600383815481106109c7576109c76114fb565b906000526020600020906003020160020160156101000a81548160ff021916908360ff1602179055505b50505050565b60028181548110610a0757600080fd5b9060005260206000209060020201600091509050806000018054610a2a906112fc565b80601f0160208091040260200160405190810160405280929190818152602001828054610a56906112fc565b8015610aa35780601f10610a7857610100808354040283529160200191610aa3565b820191906000526020600020905b815481529060010190602001808311610a8657829003601f168201915b5050506001909301549192505060ff8116906001600160a01b036101009091041683565b3360009081526006602052604090205415610af45760405162461bcd60e51b8152600401610383906112ba565b6127108311610b3c5760405162461bcd60e51b815260206004820152601460248201527315185ad9481a5908199bdc9b481a1bdc1a5d185b60621b6044820152606401610383565b6040805160a0810182528481526020810184815260ff8416928201929092523360608201526000608082018190526003805460018101825591819052825191027fc2575a0e9e593c00f959f8c92f12db2869c3395a3b0502d05e2516446f71f85b81019182559251919290917fc2575a0e9e593c00f959f8c92f12db2869c3395a3b0502d05e2516446f71f85c90910190610bd79082611385565b50604082015160029091018054606084015160809094015160ff908116600160a81b0260ff60a81b196001600160a01b03909616610100026001600160a81b031990931691909416171792909216179055600354600090610c3a9060019061145a565b33600090815260056020908152604080832084905560069091528120805492935090610c658361146d565b90915550503360009081526004602052604090819020805460ff19166001179055517fd86dca2e2544318fbca4769e2f7ea2bba8eeb0f445dd717aef0d3c84670baa4190610cb890839086908690611486565b60405180910390a150505050565b6002543360009081526005602052604090205410610d305760405162461bcd60e51b815260206004820152602160248201527f596f7520617265206e6f74206120726567697374657265642070617469656e746044820152601760f91b6064820152608401610383565b60015460405163cde2d23b60e01b81526001600160a01b039091169063cde2d23b90610d629085908590600401611511565b600060405180830381600087803b158015610d7c57600080fd5b505af1158015610d90573d6000803e3d6000fd5b50505050336001600160a01b03167f9030e73d33af80bdf3d4bb5ed5de0b053a3e66e0560332ff6b5b975cf3464f4382604051610dcd91906112a7565b60405180910390a25050565b3360009081526004602052604090205460609060ff16610e3b5760405162461bcd60e51b815260206004820152601e60248201527f4f6e6c7920646f63746f72732063616e2076696577207265636f7264732e00006044820152606401610383565b600154604051631b1b45f560e31b81526001600160a01b0384811660048301529091169063d8da2fa890602401600060405180830381865afa158015610e85573d6000803e3d6000fd5b505050506040513d6000823e601f3d908101601f19168201604052610ead9190810190611532565b92915050565b610ebb610ef1565b6001600160a01b038116610ee557604051631e4fbdf760e01b815260006004820152602401610383565b610eee81610f1e565b50565b6000546001600160a01b031633146106d75760405163118cdaa760e01b8152336004820152602401610383565b600080546001600160a01b038381166001600160a01b0319831681178455604051919092169283917f8be0079c531659141344cd1fd0a4f28419497f9722a3daafe3b4186f6b6457e09190a35050565b80356001600160a01b0381168114610f8557600080fd5b919050565b600060208284031215610f9c57600080fd5b610fa582610f6e565b9392505050565b60008060408385031215610fbf57600080fd5b610fc883610f6e565b9150610fd660208401610f6e565b90509250929050565b634e487b7160e01b600052604160045260246000fd5b604051601f8201601f1916810167ffffffffffffffff8111828210171561101e5761101e610fdf565b604052919050565b600067ffffffffffffffff82111561104057611040610fdf565b50601f01601f191660200190565b600082601f83011261105f57600080fd5b813561107261106d82611026565b610ff5565b81815284602083860101111561108757600080fd5b816020850160208301376000918101602001919091529392505050565b803560ff81168114610f8557600080fd5b600080604083850312156110c857600080fd5b823567ffffffffffffffff8111156110df57600080fd5b6110eb8582860161104e565b925050610fd6602084016110a4565b60006020828403121561110c57600080fd5b5035919050565b60005b8381101561112e578181015183820152602001611116565b50506000910152565b6000815180845261114f816020860160208601611113565b601f01601f19169290920160200192915050565b85815260a06020820152600061117c60a0830187611137565b60ff95861660408401526001600160a01b0394909416606083015250921660809092019190915292915050565b600080604083850312156111bc57600080fd5b6111c583610f6e565b9150610fd6602084016110a4565b6060815260006111e66060830186611137565b60ff949094166020830152506001600160a01b0391909116604090910152919050565b60008060006060848603121561121e57600080fd5b83359250602084013567ffffffffffffffff81111561123c57600080fd5b6112488682870161104e565b925050611257604085016110a4565b90509250925092565b6000806040838503121561127357600080fd5b82359150602083013567ffffffffffffffff81111561129157600080fd5b61129d8582860161104e565b9150509250929050565b602081526000610fa56020830184611137565b60208082526022908201527f596f7520616c7265616479206861766520612070617469656e742070726f66696040820152616c6560f01b606082015260800190565b600181811c9082168061131057607f821691505b60208210810361133057634e487b7160e01b600052602260045260246000fd5b50919050565b601f82111561138057806000526020600020601f840160051c8101602085101561135d5750805b601f840160051c820191505b8181101561137d5760008155600101611369565b50505b505050565b815167ffffffffffffffff81111561139f5761139f610fdf565b6113b3816113ad84546112fc565b84611336565b6020601f8211600181146113e757600083156113cf5750848201515b600019600385901b1c1916600184901b17845561137d565b600084815260208120601f198516915b8281101561141757878501518255602094850194600190920191016113f7565b50848210156114355786840151600019600387901b60f8161c191681555b50505050600190811b01905550565b634e487b7160e01b600052601160045260246000fd5b81810381811115610ead57610ead611444565b60006001820161147f5761147f611444565b5060010190565b83815260606020820152600061149f6060830185611137565b905060ff83166040830152949350505050565b60ff8181168382160190811115610ead57610ead611444565b600060ff8316806114ec57634e487b7160e01b600052601260045260246000fd5b8060ff84160491505092915050565b634e487b7160e01b600052603260045260246000fd5b82815260406020820152600061152a6040830184611137565b949350505050565b60006020828403121561154457600080fd5b815167ffffffffffffffff81111561155b57600080fd5b8201601f8101841361156c57600080fd5b805161157a61106d82611026565b81815285602083850101111561158f57600080fd5b6115a0826020830160208601611113565b9594505050505056fea264697066735822122021201cf97f01c9237a9502c6a23c06d083b1e9ab0b3f8a45a99af27b9783897764736f6c634300081a0033","linkReferences":{}},"methodIdentifiers":{"createProfileDoctor(uint256,string,uint8)":"b8735101","createProfilePatient(string,uint8)":"1ccdfc32","dataTransfer()":"c88bde70","doctorPatientRecords(address,address)":"17a4ad81","doctorRatings(address)":"b8006862","doctors(uint256)":"6efb1b84","getIpfsHash(address)":"d8da2fa8","grantAccess(address)":"0ae5e739","owner()":"8da5cb5b","patients(uint256)":"93119a83","profileToOwner(address)":"9ad8180f","ratingDoctor(address,uint8)":"8a7d2a0c","renounceOwnership()":"715018a6","revokeAccess(address)":"85e68531","setDataTransferAddress(address)":"2f700955","storeRecord(uint256,string)":"cde2d23b","transferOwnership(address)":"f2fde38b"},"id":32}