{"abi":[{"type":"constructor","inputs":[],"stateMutability":"nonpayable"},{"type":"function","name":"createProfileDoctor","inputs":[{"name":"_idDoctor","type":"uint256","internalType":"uint256"},{"name":"_name","type":"string","internalType":"string"},{"name":"_age","type":"uint8","internalType":"uint8"}],"outputs":[],"stateMutability":"nonpayable"},{"type":"function","name":"createProfilePatient","inputs":[{"name":"_name","type":"string","internalType":"string"},{"name":"_age","type":"uint8","internalType":"uint8"}],"outputs":[],"stateMutability":"nonpayable"},{"type":"function","name":"doctors","inputs":[{"name":"","type":"uint256","internalType":"uint256"}],"outputs":[{"name":"idDoctor","type":"uint256","internalType":"uint256"},{"name":"name","type":"string","internalType":"string"},{"name":"age","type":"uint8","internalType":"uint8"},{"name":"walletAddress","type":"address","internalType":"address"},{"name":"rating","type":"uint8","internalType":"uint8"}],"stateMutability":"view"},{"type":"function","name":"owner","inputs":[],"outputs":[{"name":"","type":"address","internalType":"address"}],"stateMutability":"view"},{"type":"function","name":"patients","inputs":[{"name":"","type":"uint256","internalType":"uint256"}],"outputs":[{"name":"name","type":"string","internalType":"string"},{"name":"age","type":"uint8","internalType":"uint8"},{"name":"walletAddress","type":"address","internalType":"address"}],"stateMutability":"view"},{"type":"function","name":"profileToOwner","inputs":[{"name":"","type":"address","internalType":"address"}],"outputs":[{"name":"","type":"uint256","internalType":"uint256"}],"stateMutability":"view"},{"type":"function","name":"renounceOwnership","inputs":[],"outputs":[],"stateMutability":"nonpayable"},{"type":"function","name":"setDataTransferAddress","inputs":[{"name":"_address","type":"address","internalType":"address"}],"outputs":[],"stateMutability":"nonpayable"},{"type":"function","name":"transferOwnership","inputs":[{"name":"newOwner","type":"address","internalType":"address"}],"outputs":[],"stateMutability":"nonpayable"},{"type":"event","name":"NewUser","inputs":[{"name":"patientId","type":"uint256","indexed":false,"internalType":"uint256"},{"name":"name","type":"string","indexed":false,"internalType":"string"},{"name":"age","type":"uint256","indexed":false,"internalType":"uint256"}],"anonymous":false},{"type":"event","name":"OwnershipTransferred","inputs":[{"name":"previousOwner","type":"address","indexed":true,"internalType":"address"},{"name":"newOwner","type":"address","indexed":true,"internalType":"address"}],"anonymous":false},{"type":"error","name":"OwnableInvalidOwner","inputs":[{"name":"owner","type":"address","internalType":"address"}]},{"type":"error","name":"OwnableUnauthorizedAccount","inputs":[{"name":"account","type":"address","internalType":"address"}]}],"bytecode":{"object":"0x6080604052348015600f57600080fd5b503380603557604051631e4fbdf760e01b81526000600482015260240160405180910390fd5b603c816041565b506091565b600080546001600160a01b038381166001600160a01b0319831681178455604051919092169283917f8be0079c531659141344cd1fd0a4f28419497f9722a3daafe3b4186f6b6457e09190a35050565b610c1a806100a06000396000f3fe608060405234801561001057600080fd5b50600436106100935760003560e01c80638da5cb5b116100665780638da5cb5b146100f557806393119a83146101105780639ad8180f14610132578063b873510114610160578063f2fde38b1461017357600080fd5b80631ccdfc32146100985780632f700955146100ad5780636efb1b84146100c0578063715018a6146100ed575b600080fd5b6100ab6100a6366004610836565b610186565b005b6100ab6100bb366004610884565b6102d7565b6100d36100ce3660046108b4565b610301565b6040516100e4959493929190610913565b60405180910390f35b6100ab6103dd565b6000546040516001600160a01b0390911681526020016100e4565b61012361011e3660046108b4565b6103f1565b6040516100e493929190610959565b610152610140366004610884565b60056020526000908152604090205481565b6040519081526020016100e4565b6100ab61016e36600461098f565b6104c1565b6100ab610181366004610884565b6106c0565b33600090815260066020526040902054156101bc5760405162461bcd60e51b81526004016101b3906109e6565b60405180910390fd5b6040805160608101825283815260ff831660208201523391810191909152600280546001810182556000829052825191027f405787fa12a823e0f2b7631cc41b3ba8828b3321ca811111fa75cd3aa3bb5ace0190819061021c9082610ab1565b506020820151600191820180546040909401516001600160a01b0316610100026001600160a81b031990941660ff909216919091179290921790915560025460009161026791610b86565b3360009081526005602090815260408083208490556006909152812080549293509061029283610b9f565b91905055507fd86dca2e2544318fbca4769e2f7ea2bba8eeb0f445dd717aef0d3c84670baa418184846040516102ca93929190610bb8565b60405180910390a1505050565b6102df6106fe565b600180546001600160a01b0319166001600160a01b0392909216919091179055565b6003818154811061031157600080fd5b6000918252602090912060039091020180546001820180549193509061033690610a28565b80601f016020809104026020016040519081016040528092919081815260200182805461036290610a28565b80156103af5780601f10610384576101008083540402835291602001916103af565b820191906000526020600020905b81548152906001019060200180831161039257829003601f168201915b5050506002909301549192505060ff808216916001600160a01b0361010082041691600160a81b9091041685565b6103e56106fe565b6103ef600061072b565b565b6002818154811061040157600080fd5b906000526020600020906002020160009150905080600001805461042490610a28565b80601f016020809104026020016040519081016040528092919081815260200182805461045090610a28565b801561049d5780601f106104725761010080835404028352916020019161049d565b820191906000526020600020905b81548152906001019060200180831161048057829003601f168201915b5050506001909301549192505060ff8116906001600160a01b036101009091041683565b33600090815260066020526040902054156104ee5760405162461bcd60e51b81526004016101b3906109e6565b61271083116105365760405162461bcd60e51b815260206004820152601460248201527315185ad9481a5908199bdc9b481a1bdc1a5d185b60621b60448201526064016101b3565b6040805160a0810182528481526020810184815260ff8416928201929092523360608201526000608082018190526003805460018101825591819052825191027fc2575a0e9e593c00f959f8c92f12db2869c3395a3b0502d05e2516446f71f85b81019182559251919290917fc2575a0e9e593c00f959f8c92f12db2869c3395a3b0502d05e2516446f71f85c909101906105d19082610ab1565b50604082015160029091018054606084015160809094015160ff908116600160a81b0260ff60a81b196001600160a01b03909616610100026001600160a81b03199093169190941617179290921617905560035460009061063490600190610b86565b3360009081526005602090815260408083208490556006909152812080549293509061065f83610b9f565b90915550503360009081526004602052604090819020805460ff19166001179055517fd86dca2e2544318fbca4769e2f7ea2bba8eeb0f445dd717aef0d3c84670baa41906106b290839086908690610bb8565b60405180910390a150505050565b6106c86106fe565b6001600160a01b0381166106f257604051631e4fbdf760e01b8152600060048201526024016101b3565b6106fb8161072b565b50565b6000546001600160a01b031633146103ef5760405163118cdaa760e01b81523360048201526024016101b3565b600080546001600160a01b038381166001600160a01b0319831681178455604051919092169283917f8be0079c531659141344cd1fd0a4f28419497f9722a3daafe3b4186f6b6457e09190a35050565b634e487b7160e01b600052604160045260246000fd5b600082601f8301126107a257600080fd5b813567ffffffffffffffff8111156107bc576107bc61077b565b604051601f8201601f19908116603f0116810167ffffffffffffffff811182821017156107eb576107eb61077b565b60405281815283820160200185101561080357600080fd5b816020850160208301376000918101602001919091529392505050565b803560ff8116811461083157600080fd5b919050565b6000806040838503121561084957600080fd5b823567ffffffffffffffff81111561086057600080fd5b61086c85828601610791565b92505061087b60208401610820565b90509250929050565b60006020828403121561089657600080fd5b81356001600160a01b03811681146108ad57600080fd5b9392505050565b6000602082840312156108c657600080fd5b5035919050565b6000815180845260005b818110156108f3576020818501810151868301820152016108d7565b506000602082860101526020601f19601f83011685010191505092915050565b85815260a06020820152600061092c60a08301876108cd565b60ff95861660408401526001600160a01b0394909416606083015250921660809092019190915292915050565b60608152600061096c60608301866108cd565b60ff949094166020830152506001600160a01b0391909116604090910152919050565b6000806000606084860312156109a457600080fd5b83359250602084013567ffffffffffffffff8111156109c257600080fd5b6109ce86828701610791565b9250506109dd60408501610820565b90509250925092565b60208082526022908201527f596f7520616c7265616479206861766520612070617469656e742070726f66696040820152616c6560f01b606082015260800190565b600181811c90821680610a3c57607f821691505b602082108103610a5c57634e487b7160e01b600052602260045260246000fd5b50919050565b601f821115610aac57806000526020600020601f840160051c81016020851015610a895750805b601f840160051c820191505b81811015610aa95760008155600101610a95565b50505b505050565b815167ffffffffffffffff811115610acb57610acb61077b565b610adf81610ad98454610a28565b84610a62565b6020601f821160018114610b135760008315610afb5750848201515b600019600385901b1c1916600184901b178455610aa9565b600084815260208120601f198516915b82811015610b435787850151825560209485019460019092019101610b23565b5084821015610b615786840151600019600387901b60f8161c191681555b50505050600190811b01905550565b634e487b7160e01b600052601160045260246000fd5b81810381811115610b9957610b99610b70565b92915050565b600060018201610bb157610bb1610b70565b5060010190565b838152606060208201526000610bd160608301856108cd565b905060ff8316604083015294935050505056fea264697066735822122019eadb426678d548972d339641edb4670d85b944b52aa055351d3126e3abf60e64736f6c634300081a0033","linkReferences":{}},"methodIdentifiers":{"createProfileDoctor(uint256,string,uint8)":"b8735101","createProfilePatient(string,uint8)":"1ccdfc32","doctors(uint256)":"6efb1b84","owner()":"8da5cb5b","patients(uint256)":"93119a83","profileToOwner(address)":"9ad8180f","renounceOwnership()":"715018a6","setDataTransferAddress(address)":"2f700955","transferOwnership(address)":"f2fde38b"},"id":3}