{"abi":[{"type":"constructor","inputs":[],"stateMutability":"nonpayable"},{"type":"function","name":"createProfileDoctor","inputs":[{"name":"_idDoctor","type":"uint256","internalType":"uint256"},{"name":"_name","type":"string","internalType":"string"},{"name":"_age","type":"uint8","internalType":"uint8"}],"outputs":[],"stateMutability":"nonpayable"},{"type":"function","name":"createProfilePatient","inputs":[{"name":"_name","type":"string","internalType":"string"},{"name":"_age","type":"uint8","internalType":"uint8"}],"outputs":[],"stateMutability":"nonpayable"},{"type":"function","name":"doctors","inputs":[{"name":"","type":"uint256","internalType":"uint256"}],"outputs":[{"name":"idDoctor","type":"uint256","internalType":"uint256"},{"name":"name","type":"string","internalType":"string"},{"name":"age","type":"uint8","internalType":"uint8"},{"name":"walletAddress","type":"address","internalType":"address"},{"name":"rating","type":"uint8","internalType":"uint8"}],"stateMutability":"view"},{"type":"function","name":"getRecord","inputs":[{"name":"patient","type":"address","internalType":"address"}],"outputs":[{"name":"","type":"string","internalType":"string"}],"stateMutability":"view"},{"type":"function","name":"grantAccess","inputs":[{"name":"doctor","type":"address","internalType":"address"}],"outputs":[],"stateMutability":"nonpayable"},{"type":"function","name":"owner","inputs":[],"outputs":[{"name":"","type":"address","internalType":"address"}],"stateMutability":"view"},{"type":"function","name":"patients","inputs":[{"name":"","type":"uint256","internalType":"uint256"}],"outputs":[{"name":"name","type":"string","internalType":"string"},{"name":"age","type":"uint8","internalType":"uint8"},{"name":"walletAddress","type":"address","internalType":"address"}],"stateMutability":"view"},{"type":"function","name":"profileToOwner","inputs":[{"name":"","type":"address","internalType":"address"}],"outputs":[{"name":"","type":"uint256","internalType":"uint256"}],"stateMutability":"view"},{"type":"function","name":"renounceOwnership","inputs":[],"outputs":[],"stateMutability":"nonpayable"},{"type":"function","name":"revokeAccess","inputs":[{"name":"doctor","type":"address","internalType":"address"}],"outputs":[],"stateMutability":"nonpayable"},{"type":"function","name":"setDataTransferAddress","inputs":[{"name":"_address","type":"address","internalType":"address"}],"outputs":[],"stateMutability":"nonpayable"},{"type":"function","name":"storeRecord","inputs":[{"name":"ipfsHash","type":"string","internalType":"string"}],"outputs":[],"stateMutability":"nonpayable"},{"type":"function","name":"transferOwnership","inputs":[{"name":"newOwner","type":"address","internalType":"address"}],"outputs":[],"stateMutability":"nonpayable"},{"type":"event","name":"AccessGranted","inputs":[{"name":"patient","type":"address","indexed":true,"internalType":"address"},{"name":"doctor","type":"address","indexed":true,"internalType":"address"}],"anonymous":false},{"type":"event","name":"AccessRevoked","inputs":[{"name":"patient","type":"address","indexed":true,"internalType":"address"},{"name":"doctor","type":"address","indexed":true,"internalType":"address"}],"anonymous":false},{"type":"event","name":"NewUser","inputs":[{"name":"patientId","type":"uint256","indexed":false,"internalType":"uint256"},{"name":"name","type":"string","indexed":false,"internalType":"string"},{"name":"age","type":"uint256","indexed":false,"internalType":"uint256"}],"anonymous":false},{"type":"event","name":"OwnershipTransferred","inputs":[{"name":"previousOwner","type":"address","indexed":true,"internalType":"address"},{"name":"newOwner","type":"address","indexed":true,"internalType":"address"}],"anonymous":false},{"type":"event","name":"RecordStored","inputs":[{"name":"patient","type":"address","indexed":true,"internalType":"address"},{"name":"ipfsHash","type":"string","indexed":false,"internalType":"string"}],"anonymous":false},{"type":"error","name":"OwnableInvalidOwner","inputs":[{"name":"owner","type":"address","internalType":"address"}]},{"type":"error","name":"OwnableUnauthorizedAccount","inputs":[{"name":"account","type":"address","internalType":"address"}]}],"bytecode":{"object":"0x6080604052348015600f57600080fd5b503380603557604051631e4fbdf760e01b81526000600482015260240160405180910390fd5b603c816041565b506091565b600080546001600160a01b038381166001600160a01b0319831681178455604051919092169283917f8be0079c531659141344cd1fd0a4f28419497f9722a3daafe3b4186f6b6457e09190a35050565b611176806100a06000396000f3fe608060405234801561001057600080fd5b50600436106100cf5760003560e01c806376d91d081161008c57806393119a831161006657806393119a83146101a55780639ad8180f146101c7578063b8735101146101f5578063f2fde38b1461020857600080fd5b806376d91d081461016457806385e68531146101775780638da5cb5b1461018a57600080fd5b80630ae5e739146100d45780631ccdfc32146100e95780632f700955146100fc578063617fba041461010f5780636efb1b8414610138578063715018a61461015c575b600080fd5b6100e76100e2366004610bec565b61021b565b005b6100e76100f7366004610cf7565b61031b565b6100e761010a366004610bec565b610463565b61012261011d366004610bec565b61048d565b60405161012f9190610d95565b60405180910390f35b61014b610146366004610da8565b610567565b60405161012f959493929190610dc1565b6100e7610643565b6100e7610172366004610e07565b610657565b6100e7610185366004610bec565b610767565b6000546040516001600160a01b03909116815260200161012f565b6101b86101b3366004610da8565b610862565b60405161012f93929190610e44565b6101e76101d5366004610bec565b60056020526000908152604090205481565b60405190815260200161012f565b6100e7610203366004610e7a565b610932565b6100e7610216366004610bec565b610b31565b6001600160a01b03811660009081526004602052604090205460ff166102835760405162461bcd60e51b815260206004820152601860248201527720b2323932b9b99034b9903737ba1030903237b1ba37b91760411b60448201526064015b60405180910390fd5b600154604051630ae5e73960e01b81526001600160a01b03838116600483015290911690630ae5e73990602401600060405180830381600087803b1580156102ca57600080fd5b505af11580156102de573d6000803e3d6000fd5b50506040516001600160a01b03841692503391507f9f520b3bfc56d06f7065d10b4683b3f57ac8895d5026cd176dee95ce1454cb8d90600090a350565b33600090815260066020526040902054156103485760405162461bcd60e51b815260040161027a90610ed1565b6040805160608101825283815260ff831660208201523391810191909152600280546001810182556000829052825191027f405787fa12a823e0f2b7631cc41b3ba8828b3321ca811111fa75cd3aa3bb5ace019081906103a89082610f9c565b506020820151600191820180546040909401516001600160a01b0316610100026001600160a81b031990941660ff90921691909117929092179091556002546000916103f391611071565b3360009081526005602090815260408083208490556006909152812080549293509061041e83611084565b91905055507fd86dca2e2544318fbca4769e2f7ea2bba8eeb0f445dd717aef0d3c84670baa418184846040516104569392919061109d565b60405180910390a1505050565b61046b610b6f565b600180546001600160a01b0319166001600160a01b0392909216919091179055565b3360009081526004602052604090205460609060ff166104ef5760405162461bcd60e51b815260206004820152601e60248201527f4f6e6c7920646f63746f72732063616e2076696577207265636f7264732e0000604482015260640161027a565b60015460405163185fee8160e21b81526001600160a01b0384811660048301529091169063617fba0490602401600060405180830381865afa158015610539573d6000803e3d6000fd5b505050506040513d6000823e601f3d908101601f1916820160405261056191908101906110c9565b92915050565b6003818154811061057757600080fd5b6000918252602090912060039091020180546001820180549193509061059c90610f13565b80601f01602080910402602001604051908101604052809291908181526020018280546105c890610f13565b80156106155780601f106105ea57610100808354040283529160200191610615565b820191906000526020600020905b8154815290600101906020018083116105f857829003601f168201915b5050506002909301549192505060ff808216916001600160a01b0361010082041691600160a81b9091041685565b61064b610b6f565b6106556000610b9c565b565b60025433600090815260056020526040902054106106c15760405162461bcd60e51b815260206004820152602160248201527f596f7520617265206e6f74206120726567697374657265642070617469656e746044820152601760f91b606482015260840161027a565b600154604051630edb23a160e31b81526001600160a01b03909116906376d91d08906106f1908490600401610d95565b600060405180830381600087803b15801561070b57600080fd5b505af115801561071f573d6000803e3d6000fd5b50505050336001600160a01b03167f9030e73d33af80bdf3d4bb5ed5de0b053a3e66e0560332ff6b5b975cf3464f438260405161075c9190610d95565b60405180910390a250565b6001600160a01b03811660009081526004602052604090205460ff166107ca5760405162461bcd60e51b815260206004820152601860248201527720b2323932b9b99034b9903737ba1030903237b1ba37b91760411b604482015260640161027a565b6001546040516385e6853160e01b81526001600160a01b038381166004830152909116906385e6853190602401600060405180830381600087803b15801561081157600080fd5b505af1158015610825573d6000803e3d6000fd5b50506040516001600160a01b03841692503391507f825c8be24eb0df19500f63e86c29e7d0d951e73056b889b891d85e40938d9b6e90600090a350565b6002818154811061087257600080fd5b906000526020600020906002020160009150905080600001805461089590610f13565b80601f01602080910402602001604051908101604052809291908181526020018280546108c190610f13565b801561090e5780601f106108e35761010080835404028352916020019161090e565b820191906000526020600020905b8154815290600101906020018083116108f157829003601f168201915b5050506001909301549192505060ff8116906001600160a01b036101009091041683565b336000908152600660205260409020541561095f5760405162461bcd60e51b815260040161027a90610ed1565b61271083116109a75760405162461bcd60e51b815260206004820152601460248201527315185ad9481a5908199bdc9b481a1bdc1a5d185b60621b604482015260640161027a565b6040805160a0810182528481526020810184815260ff8416928201929092523360608201526000608082018190526003805460018101825591819052825191027fc2575a0e9e593c00f959f8c92f12db2869c3395a3b0502d05e2516446f71f85b81019182559251919290917fc2575a0e9e593c00f959f8c92f12db2869c3395a3b0502d05e2516446f71f85c90910190610a429082610f9c565b50604082015160029091018054606084015160809094015160ff908116600160a81b0260ff60a81b196001600160a01b03909616610100026001600160a81b031990931691909416171792909216179055600354600090610aa590600190611071565b33600090815260056020908152604080832084905560069091528120805492935090610ad083611084565b90915550503360009081526004602052604090819020805460ff19166001179055517fd86dca2e2544318fbca4769e2f7ea2bba8eeb0f445dd717aef0d3c84670baa4190610b239083908690869061109d565b60405180910390a150505050565b610b39610b6f565b6001600160a01b038116610b6357604051631e4fbdf760e01b81526000600482015260240161027a565b610b6c81610b9c565b50565b6000546001600160a01b031633146106555760405163118cdaa760e01b815233600482015260240161027a565b600080546001600160a01b038381166001600160a01b0319831681178455604051919092169283917f8be0079c531659141344cd1fd0a4f28419497f9722a3daafe3b4186f6b6457e09190a35050565b600060208284031215610bfe57600080fd5b81356001600160a01b0381168114610c1557600080fd5b9392505050565b634e487b7160e01b600052604160045260246000fd5b604051601f8201601f1916810167ffffffffffffffff81118282101715610c5b57610c5b610c1c565b604052919050565b600067ffffffffffffffff821115610c7d57610c7d610c1c565b50601f01601f191660200190565b600082601f830112610c9c57600080fd5b8135610caf610caa82610c63565b610c32565b818152846020838601011115610cc457600080fd5b816020850160208301376000918101602001919091529392505050565b803560ff81168114610cf257600080fd5b919050565b60008060408385031215610d0a57600080fd5b823567ffffffffffffffff811115610d2157600080fd5b610d2d85828601610c8b565b925050610d3c60208401610ce1565b90509250929050565b60005b83811015610d60578181015183820152602001610d48565b50506000910152565b60008151808452610d81816020860160208601610d45565b601f01601f19169290920160200192915050565b602081526000610c156020830184610d69565b600060208284031215610dba57600080fd5b5035919050565b85815260a060208201526000610dda60a0830187610d69565b60ff95861660408401526001600160a01b0394909416606083015250921660809092019190915292915050565b600060208284031215610e1957600080fd5b813567ffffffffffffffff811115610e3057600080fd5b610e3c84828501610c8b565b949350505050565b606081526000610e576060830186610d69565b60ff949094166020830152506001600160a01b0391909116604090910152919050565b600080600060608486031215610e8f57600080fd5b83359250602084013567ffffffffffffffff811115610ead57600080fd5b610eb986828701610c8b565b925050610ec860408501610ce1565b90509250925092565b60208082526022908201527f596f7520616c7265616479206861766520612070617469656e742070726f66696040820152616c6560f01b606082015260800190565b600181811c90821680610f2757607f821691505b602082108103610f4757634e487b7160e01b600052602260045260246000fd5b50919050565b601f821115610f9757806000526020600020601f840160051c81016020851015610f745750805b601f840160051c820191505b81811015610f945760008155600101610f80565b50505b505050565b815167ffffffffffffffff811115610fb657610fb6610c1c565b610fca81610fc48454610f13565b84610f4d565b6020601f821160018114610ffe5760008315610fe65750848201515b600019600385901b1c1916600184901b178455610f94565b600084815260208120601f198516915b8281101561102e578785015182556020948501946001909201910161100e565b508482101561104c5786840151600019600387901b60f8161c191681555b50505050600190811b01905550565b634e487b7160e01b600052601160045260246000fd5b818103818111156105615761056161105b565b6000600182016110965761109661105b565b5060010190565b8381526060602082015260006110b66060830185610d69565b905060ff83166040830152949350505050565b6000602082840312156110db57600080fd5b815167ffffffffffffffff8111156110f257600080fd5b8201601f8101841361110357600080fd5b8051611111610caa82610c63565b81815285602083850101111561112657600080fd5b611137826020830160208601610d45565b9594505050505056fea26469706673582212203a9210b5a251ccada05e62606523e91bb3ee97ee549cc512ad1daf803099e9cb64736f6c634300081a0033","linkReferences":{}},"methodIdentifiers":{"createProfileDoctor(uint256,string,uint8)":"b8735101","createProfilePatient(string,uint8)":"1ccdfc32","doctors(uint256)":"6efb1b84","getRecord(address)":"617fba04","grantAccess(address)":"0ae5e739","owner()":"8da5cb5b","patients(uint256)":"93119a83","profileToOwner(address)":"9ad8180f","renounceOwnership()":"715018a6","revokeAccess(address)":"85e68531","setDataTransferAddress(address)":"2f700955","storeRecord(string)":"76d91d08","transferOwnership(address)":"f2fde38b"},"id":3}