{"abi":[{"type":"constructor","inputs":[{"name":"_owner","type":"address","internalType":"address"}],"stateMutability":"nonpayable"},{"type":"function","name":"createProfileDoctor","inputs":[{"name":"_idDoctor","type":"uint256","internalType":"uint256"},{"name":"_name","type":"string","internalType":"string"},{"name":"_age","type":"uint8","internalType":"uint8"}],"outputs":[],"stateMutability":"nonpayable"},{"type":"function","name":"createProfilePatient","inputs":[{"name":"_name","type":"string","internalType":"string"},{"name":"_age","type":"uint8","internalType":"uint8"}],"outputs":[],"stateMutability":"nonpayable"},{"type":"function","name":"dataTransfer","inputs":[],"outputs":[{"name":"","type":"address","internalType":"contract IDataTransfer"}],"stateMutability":"view"},{"type":"function","name":"doctors","inputs":[{"name":"","type":"uint256","internalType":"uint256"}],"outputs":[{"name":"idDoctor","type":"uint256","internalType":"uint256"},{"name":"name","type":"string","internalType":"string"},{"name":"age","type":"uint8","internalType":"uint8"},{"name":"walletAddress","type":"address","internalType":"address"},{"name":"rating","type":"uint8","internalType":"uint8"}],"stateMutability":"view"},{"type":"function","name":"getIpfsHash","inputs":[{"name":"patient","type":"address","internalType":"address"}],"outputs":[{"name":"","type":"string","internalType":"string"}],"stateMutability":"view"},{"type":"function","name":"grantAccess","inputs":[{"name":"doctor","type":"address","internalType":"address"}],"outputs":[],"stateMutability":"nonpayable"},{"type":"function","name":"owner","inputs":[],"outputs":[{"name":"","type":"address","internalType":"address"}],"stateMutability":"view"},{"type":"function","name":"patients","inputs":[{"name":"","type":"uint256","internalType":"uint256"}],"outputs":[{"name":"name","type":"string","internalType":"string"},{"name":"age","type":"uint8","internalType":"uint8"},{"name":"walletAddress","type":"address","internalType":"address"}],"stateMutability":"view"},{"type":"function","name":"profileToOwner","inputs":[{"name":"","type":"address","internalType":"address"}],"outputs":[{"name":"","type":"uint256","internalType":"uint256"}],"stateMutability":"view"},{"type":"function","name":"renounceOwnership","inputs":[],"outputs":[],"stateMutability":"nonpayable"},{"type":"function","name":"revokeAccess","inputs":[{"name":"doctor","type":"address","internalType":"address"}],"outputs":[],"stateMutability":"nonpayable"},{"type":"function","name":"setDataTransferAddress","inputs":[{"name":"_address","type":"address","internalType":"address"}],"outputs":[],"stateMutability":"nonpayable"},{"type":"function","name":"storeRecord","inputs":[{"name":"_id","type":"uint256","internalType":"uint256"},{"name":"ipfsHash","type":"string","internalType":"string"}],"outputs":[],"stateMutability":"nonpayable"},{"type":"function","name":"transferOwnership","inputs":[{"name":"newOwner","type":"address","internalType":"address"}],"outputs":[],"stateMutability":"nonpayable"},{"type":"event","name":"AccessGranted","inputs":[{"name":"patient","type":"address","indexed":true,"internalType":"address"},{"name":"doctor","type":"address","indexed":true,"internalType":"address"}],"anonymous":false},{"type":"event","name":"AccessRevoked","inputs":[{"name":"patient","type":"address","indexed":true,"internalType":"address"},{"name":"doctor","type":"address","indexed":true,"internalType":"address"}],"anonymous":false},{"type":"event","name":"NewUser","inputs":[{"name":"patientId","type":"uint256","indexed":false,"internalType":"uint256"},{"name":"name","type":"string","indexed":false,"internalType":"string"},{"name":"age","type":"uint256","indexed":false,"internalType":"uint256"}],"anonymous":false},{"type":"event","name":"OwnershipTransferred","inputs":[{"name":"previousOwner","type":"address","indexed":true,"internalType":"address"},{"name":"newOwner","type":"address","indexed":true,"internalType":"address"}],"anonymous":false},{"type":"event","name":"RecordStored","inputs":[{"name":"patient","type":"address","indexed":true,"internalType":"address"},{"name":"ipfsHash","type":"string","indexed":false,"internalType":"string"}],"anonymous":false},{"type":"error","name":"OwnableInvalidOwner","inputs":[{"name":"owner","type":"address","internalType":"address"}]},{"type":"error","name":"OwnableUnauthorizedAccount","inputs":[{"name":"account","type":"address","internalType":"address"}]}],"bytecode":{"object":"0x6080604052348015600f57600080fd5b506040516111f63803806111f6833981016040819052602c9160ae565b3380605157604051631e4fbdf760e01b81526000600482015260240160405180910390fd5b605881605e565b505060dc565b600080546001600160a01b038381166001600160a01b0319831681178455604051919092169283917f8be0079c531659141344cd1fd0a4f28419497f9722a3daafe3b4186f6b6457e09190a35050565b60006020828403121560bf57600080fd5b81516001600160a01b038116811460d557600080fd5b9392505050565b61110b806100eb6000396000f3fe608060405234801561001057600080fd5b50600436106100ea5760003560e01c806393119a831161008c578063c88bde7011610066578063c88bde7014610217578063cde2d23b1461022a578063d8da2fa81461023d578063f2fde38b1461025d57600080fd5b806393119a83146101b45780639ad8180f146101d6578063b87351011461020457600080fd5b80636efb1b84116100c85780636efb1b8414610147578063715018a61461017457806385e685311461017c5780638da5cb5b1461018f57600080fd5b80630ae5e739146100ef5780631ccdfc32146101045780632f70095514610117575b600080fd5b6101026100fd366004610b56565b610270565b005b610102610112366004610c61565b610308565b610102610125366004610b56565b600180546001600160a01b0319166001600160a01b0392909216919091179055565b61015a610155366004610caf565b610459565b60405161016b959493929190610d18565b60405180910390f35b610102610535565b61010261018a366004610b56565b610549565b6000546001600160a01b03165b6040516001600160a01b03909116815260200161016b565b6101c76101c2366004610caf565b610649565b60405161016b93929190610d5e565b6101f66101e4366004610b56565b60056020526000908152604090205481565b60405190815260200161016b565b610102610212366004610d94565b610719565b60015461019c906001600160a01b031681565b610102610238366004610deb565b610918565b61025061024b366004610b56565b6109c1565b60405161016b9190610e32565b61010261026b366004610b56565b610a9b565b600154604051630ae5e73960e01b81526001600160a01b03838116600483015290911690630ae5e73990602401600060405180830381600087803b1580156102b757600080fd5b505af11580156102cb573d6000803e3d6000fd5b50506040516001600160a01b03841692503391507f9f520b3bfc56d06f7065d10b4683b3f57ac8895d5026cd176dee95ce1454cb8d90600090a350565b336000908152600660205260409020541561033e5760405162461bcd60e51b815260040161033590610e45565b60405180910390fd5b6040805160608101825283815260ff831660208201523391810191909152600280546001810182556000829052825191027f405787fa12a823e0f2b7631cc41b3ba8828b3321ca811111fa75cd3aa3bb5ace0190819061039e9082610f10565b506020820151600191820180546040909401516001600160a01b0316610100026001600160a81b031990941660ff90921691909117929092179091556002546000916103e991610fe5565b3360009081526005602090815260408083208490556006909152812080549293509061041483610ff8565b91905055507fd86dca2e2544318fbca4769e2f7ea2bba8eeb0f445dd717aef0d3c84670baa4181848460405161044c93929190611011565b60405180910390a1505050565b6003818154811061046957600080fd5b6000918252602090912060039091020180546001820180549193509061048e90610e87565b80601f01602080910402602001604051908101604052809291908181526020018280546104ba90610e87565b80156105075780601f106104dc57610100808354040283529160200191610507565b820191906000526020600020905b8154815290600101906020018083116104ea57829003601f168201915b5050506002909301549192505060ff808216916001600160a01b0361010082041691600160a81b9091041685565b61053d610ad9565b6105476000610b06565b565b6001600160a01b03811660009081526004602052604090205460ff166105b15760405162461bcd60e51b815260206004820152601860248201527f41646472657373206973206e6f74206120646f63746f722e00000000000000006044820152606401610335565b6001546040516385e6853160e01b81526001600160a01b038381166004830152909116906385e6853190602401600060405180830381600087803b1580156105f857600080fd5b505af115801561060c573d6000803e3d6000fd5b50506040516001600160a01b03841692503391507f825c8be24eb0df19500f63e86c29e7d0d951e73056b889b891d85e40938d9b6e90600090a350565b6002818154811061065957600080fd5b906000526020600020906002020160009150905080600001805461067c90610e87565b80601f01602080910402602001604051908101604052809291908181526020018280546106a890610e87565b80156106f55780601f106106ca576101008083540402835291602001916106f5565b820191906000526020600020905b8154815290600101906020018083116106d857829003601f168201915b5050506001909301549192505060ff8116906001600160a01b036101009091041683565b33600090815260066020526040902054156107465760405162461bcd60e51b815260040161033590610e45565b612710831161078e5760405162461bcd60e51b815260206004820152601460248201527315185ad9481a5908199bdc9b481a1bdc1a5d185b60621b6044820152606401610335565b6040805160a0810182528481526020810184815260ff8416928201929092523360608201526000608082018190526003805460018101825591819052825191027fc2575a0e9e593c00f959f8c92f12db2869c3395a3b0502d05e2516446f71f85b81019182559251919290917fc2575a0e9e593c00f959f8c92f12db2869c3395a3b0502d05e2516446f71f85c909101906108299082610f10565b50604082015160029091018054606084015160809094015160ff908116600160a81b0260ff60a81b196001600160a01b03909616610100026001600160a81b03199093169190941617179290921617905560035460009061088c90600190610fe5565b336000908152600560209081526040808320849055600690915281208054929350906108b783610ff8565b90915550503360009081526004602052604090819020805460ff19166001179055517fd86dca2e2544318fbca4769e2f7ea2bba8eeb0f445dd717aef0d3c84670baa419061090a90839086908690611011565b60405180910390a150505050565b60015460405163cde2d23b60e01b81526001600160a01b039091169063cde2d23b9061094a908590859060040161103d565b600060405180830381600087803b15801561096457600080fd5b505af1158015610978573d6000803e3d6000fd5b50505050336001600160a01b03167f9030e73d33af80bdf3d4bb5ed5de0b053a3e66e0560332ff6b5b975cf3464f43826040516109b59190610e32565b60405180910390a25050565b3360009081526004602052604090205460609060ff16610a235760405162461bcd60e51b815260206004820152601e60248201527f4f6e6c7920646f63746f72732063616e2076696577207265636f7264732e00006044820152606401610335565b600154604051631b1b45f560e31b81526001600160a01b0384811660048301529091169063d8da2fa890602401600060405180830381865afa158015610a6d573d6000803e3d6000fd5b505050506040513d6000823e601f3d908101601f19168201604052610a95919081019061105e565b92915050565b610aa3610ad9565b6001600160a01b038116610acd57604051631e4fbdf760e01b815260006004820152602401610335565b610ad681610b06565b50565b6000546001600160a01b031633146105475760405163118cdaa760e01b8152336004820152602401610335565b600080546001600160a01b038381166001600160a01b0319831681178455604051919092169283917f8be0079c531659141344cd1fd0a4f28419497f9722a3daafe3b4186f6b6457e09190a35050565b600060208284031215610b6857600080fd5b81356001600160a01b0381168114610b7f57600080fd5b9392505050565b634e487b7160e01b600052604160045260246000fd5b604051601f8201601f1916810167ffffffffffffffff81118282101715610bc557610bc5610b86565b604052919050565b600067ffffffffffffffff821115610be757610be7610b86565b50601f01601f191660200190565b600082601f830112610c0657600080fd5b8135610c19610c1482610bcd565b610b9c565b818152846020838601011115610c2e57600080fd5b816020850160208301376000918101602001919091529392505050565b803560ff81168114610c5c57600080fd5b919050565b60008060408385031215610c7457600080fd5b823567ffffffffffffffff811115610c8b57600080fd5b610c9785828601610bf5565b925050610ca660208401610c4b565b90509250929050565b600060208284031215610cc157600080fd5b5035919050565b60005b83811015610ce3578181015183820152602001610ccb565b50506000910152565b60008151808452610d04816020860160208601610cc8565b601f01601f19169290920160200192915050565b85815260a060208201526000610d3160a0830187610cec565b60ff95861660408401526001600160a01b0394909416606083015250921660809092019190915292915050565b606081526000610d716060830186610cec565b60ff949094166020830152506001600160a01b0391909116604090910152919050565b600080600060608486031215610da957600080fd5b83359250602084013567ffffffffffffffff811115610dc757600080fd5b610dd386828701610bf5565b925050610de260408501610c4b565b90509250925092565b60008060408385031215610dfe57600080fd5b82359150602083013567ffffffffffffffff811115610e1c57600080fd5b610e2885828601610bf5565b9150509250929050565b602081526000610b7f6020830184610cec565b60208082526022908201527f596f7520616c7265616479206861766520612070617469656e742070726f66696040820152616c6560f01b606082015260800190565b600181811c90821680610e9b57607f821691505b602082108103610ebb57634e487b7160e01b600052602260045260246000fd5b50919050565b601f821115610f0b57806000526020600020601f840160051c81016020851015610ee85750805b601f840160051c820191505b81811015610f085760008155600101610ef4565b50505b505050565b815167ffffffffffffffff811115610f2a57610f2a610b86565b610f3e81610f388454610e87565b84610ec1565b6020601f821160018114610f725760008315610f5a5750848201515b600019600385901b1c1916600184901b178455610f08565b600084815260208120601f198516915b82811015610fa25787850151825560209485019460019092019101610f82565b5084821015610fc05786840151600019600387901b60f8161c191681555b50505050600190811b01905550565b634e487b7160e01b600052601160045260246000fd5b81810381811115610a9557610a95610fcf565b60006001820161100a5761100a610fcf565b5060010190565b83815260606020820152600061102a6060830185610cec565b905060ff83166040830152949350505050565b8281526040602082015260006110566040830184610cec565b949350505050565b60006020828403121561107057600080fd5b815167ffffffffffffffff81111561108757600080fd5b8201601f8101841361109857600080fd5b80516110a6610c1482610bcd565b8181528560208385010111156110bb57600080fd5b6110cc826020830160208601610cc8565b9594505050505056fea264697066735822122078391322906e0ccf3993ae60ee52ba37b737409bcfbd092863d5da0f2cffee3164736f6c634300081a0033","linkReferences":{}},"methodIdentifiers":{"createProfileDoctor(uint256,string,uint8)":"b8735101","createProfilePatient(string,uint8)":"1ccdfc32","dataTransfer()":"c88bde70","doctors(uint256)":"6efb1b84","getIpfsHash(address)":"d8da2fa8","grantAccess(address)":"0ae5e739","owner()":"8da5cb5b","patients(uint256)":"93119a83","profileToOwner(address)":"9ad8180f","renounceOwnership()":"715018a6","revokeAccess(address)":"85e68531","setDataTransferAddress(address)":"2f700955","storeRecord(uint256,string)":"cde2d23b","transferOwnership(address)":"f2fde38b"},"id":29}