{"abi":[{"type":"constructor","inputs":[{"name":"_owner","type":"address","internalType":"address"}],"stateMutability":"nonpayable"},{"type":"function","name":"createProfileDoctor","inputs":[{"name":"_idDoctor","type":"uint256","internalType":"uint256"},{"name":"_name","type":"string","internalType":"string"},{"name":"_age","type":"uint8","internalType":"uint8"}],"outputs":[],"stateMutability":"nonpayable"},{"type":"function","name":"createProfilePatient","inputs":[{"name":"_name","type":"string","internalType":"string"},{"name":"_age","type":"uint8","internalType":"uint8"}],"outputs":[],"stateMutability":"nonpayable"},{"type":"function","name":"dataTransfer","inputs":[],"outputs":[{"name":"","type":"address","internalType":"contract IDataTransfer"}],"stateMutability":"view"},{"type":"function","name":"doctors","inputs":[{"name":"","type":"uint256","internalType":"uint256"}],"outputs":[{"name":"idDoctor","type":"uint256","internalType":"uint256"},{"name":"name","type":"string","internalType":"string"},{"name":"age","type":"uint8","internalType":"uint8"},{"name":"walletAddress","type":"address","internalType":"address"},{"name":"rating","type":"uint8","internalType":"uint8"}],"stateMutability":"view"},{"type":"function","name":"getRecord","inputs":[{"name":"patient","type":"address","internalType":"address"}],"outputs":[{"name":"","type":"string","internalType":"string"}],"stateMutability":"view"},{"type":"function","name":"grantAccess","inputs":[{"name":"doctor","type":"address","internalType":"address"}],"outputs":[],"stateMutability":"nonpayable"},{"type":"function","name":"owner","inputs":[],"outputs":[{"name":"","type":"address","internalType":"address"}],"stateMutability":"view"},{"type":"function","name":"patients","inputs":[{"name":"","type":"uint256","internalType":"uint256"}],"outputs":[{"name":"name","type":"string","internalType":"string"},{"name":"age","type":"uint8","internalType":"uint8"},{"name":"walletAddress","type":"address","internalType":"address"}],"stateMutability":"view"},{"type":"function","name":"profileToOwner","inputs":[{"name":"","type":"address","internalType":"address"}],"outputs":[{"name":"","type":"uint256","internalType":"uint256"}],"stateMutability":"view"},{"type":"function","name":"renounceOwnership","inputs":[],"outputs":[],"stateMutability":"nonpayable"},{"type":"function","name":"revokeAccess","inputs":[{"name":"doctor","type":"address","internalType":"address"}],"outputs":[],"stateMutability":"nonpayable"},{"type":"function","name":"setDataTransferAddress","inputs":[{"name":"_address","type":"address","internalType":"address"}],"outputs":[],"stateMutability":"nonpayable"},{"type":"function","name":"storeRecord","inputs":[{"name":"_id","type":"uint256","internalType":"uint256"},{"name":"ipfsHash","type":"string","internalType":"string"}],"outputs":[],"stateMutability":"nonpayable"},{"type":"function","name":"transferOwnership","inputs":[{"name":"newOwner","type":"address","internalType":"address"}],"outputs":[],"stateMutability":"nonpayable"},{"type":"event","name":"AccessGranted","inputs":[{"name":"patient","type":"address","indexed":true,"internalType":"address"},{"name":"doctor","type":"address","indexed":true,"internalType":"address"}],"anonymous":false},{"type":"event","name":"AccessRevoked","inputs":[{"name":"patient","type":"address","indexed":true,"internalType":"address"},{"name":"doctor","type":"address","indexed":true,"internalType":"address"}],"anonymous":false},{"type":"event","name":"NewUser","inputs":[{"name":"patientId","type":"uint256","indexed":false,"internalType":"uint256"},{"name":"name","type":"string","indexed":false,"internalType":"string"},{"name":"age","type":"uint256","indexed":false,"internalType":"uint256"}],"anonymous":false},{"type":"event","name":"OwnershipTransferred","inputs":[{"name":"previousOwner","type":"address","indexed":true,"internalType":"address"},{"name":"newOwner","type":"address","indexed":true,"internalType":"address"}],"anonymous":false},{"type":"event","name":"RecordStored","inputs":[{"name":"patient","type":"address","indexed":true,"internalType":"address"},{"name":"ipfsHash","type":"string","indexed":false,"internalType":"string"}],"anonymous":false},{"type":"error","name":"OwnableInvalidOwner","inputs":[{"name":"owner","type":"address","internalType":"address"}]},{"type":"error","name":"OwnableUnauthorizedAccount","inputs":[{"name":"account","type":"address","internalType":"address"}]}],"bytecode":{"object":"0x6080604052348015600f57600080fd5b50604051611250380380611250833981016040819052602c9160ae565b3380605157604051631e4fbdf760e01b81526000600482015260240160405180910390fd5b605881605e565b505060dc565b600080546001600160a01b038381166001600160a01b0319831681178455604051919092169283917f8be0079c531659141344cd1fd0a4f28419497f9722a3daafe3b4186f6b6457e09190a35050565b60006020828403121560bf57600080fd5b81516001600160a01b038116811460d557600080fd5b9392505050565b611165806100eb6000396000f3fe608060405234801561001057600080fd5b50600436106100ea5760003560e01c80638da5cb5b1161008c578063b873510111610066578063b873510114610224578063c88bde7014610237578063cde2d23b1461024a578063f2fde38b1461025d57600080fd5b80638da5cb5b146101af57806393119a83146101d45780639ad8180f146101f657600080fd5b8063617fba04116100c8578063617fba04146101475780636efb1b8414610170578063715018a61461019457806385e685311461019c57600080fd5b80630ae5e739146100ef5780631ccdfc32146101045780632f70095514610117575b600080fd5b6101026100fd366004610bb0565b610270565b005b610102610112366004610cbb565b610370565b610102610125366004610bb0565b600180546001600160a01b0319166001600160a01b0392909216919091179055565b61015a610155366004610bb0565b6104b8565b6040516101679190610d59565b60405180910390f35b61018361017e366004610d6c565b610592565b604051610167959493929190610d85565b61010261066e565b6101026101aa366004610bb0565b610682565b6000546001600160a01b03165b6040516001600160a01b039091168152602001610167565b6101e76101e2366004610d6c565b61077d565b60405161016793929190610dcb565b610216610204366004610bb0565b60056020526000908152604090205481565b604051908152602001610167565b610102610232366004610e01565b61084d565b6001546101bc906001600160a01b031681565b610102610258366004610e58565b610a4c565b61010261026b366004610bb0565b610af5565b6001600160a01b03811660009081526004602052604090205460ff166102d85760405162461bcd60e51b815260206004820152601860248201527720b2323932b9b99034b9903737ba1030903237b1ba37b91760411b60448201526064015b60405180910390fd5b600154604051630ae5e73960e01b81526001600160a01b03838116600483015290911690630ae5e73990602401600060405180830381600087803b15801561031f57600080fd5b505af1158015610333573d6000803e3d6000fd5b50506040516001600160a01b03841692503391507f9f520b3bfc56d06f7065d10b4683b3f57ac8895d5026cd176dee95ce1454cb8d90600090a350565b336000908152600660205260409020541561039d5760405162461bcd60e51b81526004016102cf90610e9f565b6040805160608101825283815260ff831660208201523391810191909152600280546001810182556000829052825191027f405787fa12a823e0f2b7631cc41b3ba8828b3321ca811111fa75cd3aa3bb5ace019081906103fd9082610f6a565b506020820151600191820180546040909401516001600160a01b0316610100026001600160a81b031990941660ff90921691909117929092179091556002546000916104489161103f565b3360009081526005602090815260408083208490556006909152812080549293509061047383611052565b91905055507fd86dca2e2544318fbca4769e2f7ea2bba8eeb0f445dd717aef0d3c84670baa418184846040516104ab9392919061106b565b60405180910390a1505050565b3360009081526004602052604090205460609060ff1661051a5760405162461bcd60e51b815260206004820152601e60248201527f4f6e6c7920646f63746f72732063616e2076696577207265636f7264732e000060448201526064016102cf565b60015460405163185fee8160e21b81526001600160a01b0384811660048301529091169063617fba0490602401600060405180830381865afa158015610564573d6000803e3d6000fd5b505050506040513d6000823e601f3d908101601f1916820160405261058c9190810190611097565b92915050565b600381815481106105a257600080fd5b600091825260209091206003909102018054600182018054919350906105c790610ee1565b80601f01602080910402602001604051908101604052809291908181526020018280546105f390610ee1565b80156106405780601f1061061557610100808354040283529160200191610640565b820191906000526020600020905b81548152906001019060200180831161062357829003601f168201915b5050506002909301549192505060ff808216916001600160a01b0361010082041691600160a81b9091041685565b610676610b33565b6106806000610b60565b565b6001600160a01b03811660009081526004602052604090205460ff166106e55760405162461bcd60e51b815260206004820152601860248201527720b2323932b9b99034b9903737ba1030903237b1ba37b91760411b60448201526064016102cf565b6001546040516385e6853160e01b81526001600160a01b038381166004830152909116906385e6853190602401600060405180830381600087803b15801561072c57600080fd5b505af1158015610740573d6000803e3d6000fd5b50506040516001600160a01b03841692503391507f825c8be24eb0df19500f63e86c29e7d0d951e73056b889b891d85e40938d9b6e90600090a350565b6002818154811061078d57600080fd5b90600052602060002090600202016000915090508060000180546107b090610ee1565b80601f01602080910402602001604051908101604052809291908181526020018280546107dc90610ee1565b80156108295780601f106107fe57610100808354040283529160200191610829565b820191906000526020600020905b81548152906001019060200180831161080c57829003601f168201915b5050506001909301549192505060ff8116906001600160a01b036101009091041683565b336000908152600660205260409020541561087a5760405162461bcd60e51b81526004016102cf90610e9f565b61271083116108c25760405162461bcd60e51b815260206004820152601460248201527315185ad9481a5908199bdc9b481a1bdc1a5d185b60621b60448201526064016102cf565b6040805160a0810182528481526020810184815260ff8416928201929092523360608201526000608082018190526003805460018101825591819052825191027fc2575a0e9e593c00f959f8c92f12db2869c3395a3b0502d05e2516446f71f85b81019182559251919290917fc2575a0e9e593c00f959f8c92f12db2869c3395a3b0502d05e2516446f71f85c9091019061095d9082610f6a565b50604082015160029091018054606084015160809094015160ff908116600160a81b0260ff60a81b196001600160a01b03909616610100026001600160a81b0319909316919094161717929092161790556003546000906109c09060019061103f565b336000908152600560209081526040808320849055600690915281208054929350906109eb83611052565b90915550503360009081526004602052604090819020805460ff19166001179055517fd86dca2e2544318fbca4769e2f7ea2bba8eeb0f445dd717aef0d3c84670baa4190610a3e9083908690869061106b565b60405180910390a150505050565b60015460405163cde2d23b60e01b81526001600160a01b039091169063cde2d23b90610a7e908590859060040161110e565b600060405180830381600087803b158015610a9857600080fd5b505af1158015610aac573d6000803e3d6000fd5b50505050336001600160a01b03167f9030e73d33af80bdf3d4bb5ed5de0b053a3e66e0560332ff6b5b975cf3464f4382604051610ae99190610d59565b60405180910390a25050565b610afd610b33565b6001600160a01b038116610b2757604051631e4fbdf760e01b8152600060048201526024016102cf565b610b3081610b60565b50565b6000546001600160a01b031633146106805760405163118cdaa760e01b81523360048201526024016102cf565b600080546001600160a01b038381166001600160a01b0319831681178455604051919092169283917f8be0079c531659141344cd1fd0a4f28419497f9722a3daafe3b4186f6b6457e09190a35050565b600060208284031215610bc257600080fd5b81356001600160a01b0381168114610bd957600080fd5b9392505050565b634e487b7160e01b600052604160045260246000fd5b604051601f8201601f1916810167ffffffffffffffff81118282101715610c1f57610c1f610be0565b604052919050565b600067ffffffffffffffff821115610c4157610c41610be0565b50601f01601f191660200190565b600082601f830112610c6057600080fd5b8135610c73610c6e82610c27565b610bf6565b818152846020838601011115610c8857600080fd5b816020850160208301376000918101602001919091529392505050565b803560ff81168114610cb657600080fd5b919050565b60008060408385031215610cce57600080fd5b823567ffffffffffffffff811115610ce557600080fd5b610cf185828601610c4f565b925050610d0060208401610ca5565b90509250929050565b60005b83811015610d24578181015183820152602001610d0c565b50506000910152565b60008151808452610d45816020860160208601610d09565b601f01601f19169290920160200192915050565b602081526000610bd96020830184610d2d565b600060208284031215610d7e57600080fd5b5035919050565b85815260a060208201526000610d9e60a0830187610d2d565b60ff95861660408401526001600160a01b0394909416606083015250921660809092019190915292915050565b606081526000610dde6060830186610d2d565b60ff949094166020830152506001600160a01b0391909116604090910152919050565b600080600060608486031215610e1657600080fd5b83359250602084013567ffffffffffffffff811115610e3457600080fd5b610e4086828701610c4f565b925050610e4f60408501610ca5565b90509250925092565b60008060408385031215610e6b57600080fd5b82359150602083013567ffffffffffffffff811115610e8957600080fd5b610e9585828601610c4f565b9150509250929050565b60208082526022908201527f596f7520616c7265616479206861766520612070617469656e742070726f66696040820152616c6560f01b606082015260800190565b600181811c90821680610ef557607f821691505b602082108103610f1557634e487b7160e01b600052602260045260246000fd5b50919050565b601f821115610f6557806000526020600020601f840160051c81016020851015610f425750805b601f840160051c820191505b81811015610f625760008155600101610f4e565b50505b505050565b815167ffffffffffffffff811115610f8457610f84610be0565b610f9881610f928454610ee1565b84610f1b565b6020601f821160018114610fcc5760008315610fb45750848201515b600019600385901b1c1916600184901b178455610f62565b600084815260208120601f198516915b82811015610ffc5787850151825560209485019460019092019101610fdc565b508482101561101a5786840151600019600387901b60f8161c191681555b50505050600190811b01905550565b634e487b7160e01b600052601160045260246000fd5b8181038181111561058c5761058c611029565b60006001820161106457611064611029565b5060010190565b8381526060602082015260006110846060830185610d2d565b905060ff83166040830152949350505050565b6000602082840312156110a957600080fd5b815167ffffffffffffffff8111156110c057600080fd5b8201601f810184136110d157600080fd5b80516110df610c6e82610c27565b8181528560208385010111156110f457600080fd5b611105826020830160208601610d09565b95945050505050565b8281526040602082015260006111276040830184610d2d565b94935050505056fea264697066735822122013b4b277e245ca20073e4f58ac123b522620d45de32ffc12ca54977c3fbc622e64736f6c634300081a0033","linkReferences":{}},"methodIdentifiers":{"createProfileDoctor(uint256,string,uint8)":"b8735101","createProfilePatient(string,uint8)":"1ccdfc32","dataTransfer()":"c88bde70","doctors(uint256)":"6efb1b84","getRecord(address)":"617fba04","grantAccess(address)":"0ae5e739","owner()":"8da5cb5b","patients(uint256)":"93119a83","profileToOwner(address)":"9ad8180f","renounceOwnership()":"715018a6","revokeAccess(address)":"85e68531","setDataTransferAddress(address)":"2f700955","storeRecord(uint256,string)":"cde2d23b","transferOwnership(address)":"f2fde38b"},"id":29}