{"abi":[{"type":"constructor","inputs":[],"stateMutability":"nonpayable"},{"type":"function","name":"createProfileDoctor","inputs":[{"name":"_idDoctor","type":"uint256","internalType":"uint256"},{"name":"_name","type":"string","internalType":"string"},{"name":"_age","type":"uint8","internalType":"uint8"}],"outputs":[],"stateMutability":"nonpayable"},{"type":"function","name":"createProfilePatient","inputs":[{"name":"_name","type":"string","internalType":"string"},{"name":"_age","type":"uint8","internalType":"uint8"}],"outputs":[],"stateMutability":"nonpayable"},{"type":"function","name":"doctors","inputs":[{"name":"","type":"uint256","internalType":"uint256"}],"outputs":[{"name":"idDoctor","type":"uint256","internalType":"uint256"},{"name":"name","type":"string","internalType":"string"},{"name":"age","type":"uint8","internalType":"uint8"},{"name":"walletAddress","type":"address","internalType":"address"},{"name":"rating","type":"uint8","internalType":"uint8"}],"stateMutability":"view"},{"type":"function","name":"owner","inputs":[],"outputs":[{"name":"","type":"address","internalType":"address"}],"stateMutability":"view"},{"type":"function","name":"patients","inputs":[{"name":"","type":"uint256","internalType":"uint256"}],"outputs":[{"name":"name","type":"string","internalType":"string"},{"name":"age","type":"uint8","internalType":"uint8"},{"name":"walletAddress","type":"address","internalType":"address"}],"stateMutability":"view"},{"type":"function","name":"profileToOwner","inputs":[{"name":"","type":"address","internalType":"address"}],"outputs":[{"name":"","type":"uint256","internalType":"uint256"}],"stateMutability":"view"},{"type":"function","name":"renounceOwnership","inputs":[],"outputs":[],"stateMutability":"nonpayable"},{"type":"function","name":"transferOwnership","inputs":[{"name":"newOwner","type":"address","internalType":"address"}],"outputs":[],"stateMutability":"nonpayable"},{"type":"event","name":"NewUser","inputs":[{"name":"patientId","type":"uint256","indexed":false,"internalType":"uint256"},{"name":"name","type":"string","indexed":false,"internalType":"string"},{"name":"age","type":"uint256","indexed":false,"internalType":"uint256"}],"anonymous":false},{"type":"event","name":"OwnershipTransferred","inputs":[{"name":"previousOwner","type":"address","indexed":true,"internalType":"address"},{"name":"newOwner","type":"address","indexed":true,"internalType":"address"}],"anonymous":false},{"type":"error","name":"OwnableInvalidOwner","inputs":[{"name":"owner","type":"address","internalType":"address"}]},{"type":"error","name":"OwnableUnauthorizedAccount","inputs":[{"name":"account","type":"address","internalType":"address"}]}],"bytecode":{"object":"0x6080604052348015600f57600080fd5b503380603557604051631e4fbdf760e01b81526000600482015260240160405180910390fd5b603c816041565b506091565b600080546001600160a01b038381166001600160a01b0319831681178455604051919092169283917f8be0079c531659141344cd1fd0a4f28419497f9722a3daafe3b4186f6b6457e09190a35050565b610bd4806100a06000396000f3fe608060405234801561001057600080fd5b50600436106100885760003560e01c806393119a831161005b57806393119a83146100f25780639ad8180f14610114578063b873510114610142578063f2fde38b1461015557600080fd5b80631ccdfc321461008d5780636efb1b84146100a2578063715018a6146100cf5780638da5cb5b146100d7575b600080fd5b6100a061009b3660046107f0565b610168565b005b6100b56100b036600461083e565b6102bb565b6040516100c695949392919061089d565b60405180910390f35b6100a0610397565b6000546040516001600160a01b0390911681526020016100c6565b61010561010036600461083e565b6103ab565b6040516100c6939291906108e3565b610134610122366004610919565b60046020526000908152604090205481565b6040519081526020016100c6565b6100a0610150366004610949565b61047b565b6100a0610163366004610919565b61067a565b336000908152600560205260409020541561019e5760405162461bcd60e51b8152600401610195906109a0565b60405180910390fd5b6040805160608101825283815260ff831660208201523391810191909152600180548082018255600091909152815160029091027fb10e2d527612073b26eecdfd717e6a320cf44b4afac2b0732d9fcbe2b7fa0cf6019081906102019082610a6b565b506020820151600191820180546040909401516001600160a01b0316610100026001600160a81b031990941660ff9092169190911792909217909155805460009161024b91610b40565b3360009081526004602090815260408083208490556005909152812080549293509061027683610b59565b91905055507fd86dca2e2544318fbca4769e2f7ea2bba8eeb0f445dd717aef0d3c84670baa418184846040516102ae93929190610b72565b60405180910390a1505050565b600281815481106102cb57600080fd5b600091825260209091206003909102018054600182018054919350906102f0906109e2565b80601f016020809104026020016040519081016040528092919081815260200182805461031c906109e2565b80156103695780601f1061033e57610100808354040283529160200191610369565b820191906000526020600020905b81548152906001019060200180831161034c57829003601f168201915b5050506002909301549192505060ff808216916001600160a01b0361010082041691600160a81b9091041685565b61039f6106b8565b6103a960006106e5565b565b600181815481106103bb57600080fd5b90600052602060002090600202016000915090508060000180546103de906109e2565b80601f016020809104026020016040519081016040528092919081815260200182805461040a906109e2565b80156104575780601f1061042c57610100808354040283529160200191610457565b820191906000526020600020905b81548152906001019060200180831161043a57829003601f168201915b5050506001909301549192505060ff8116906001600160a01b036101009091041683565b33600090815260056020526040902054156104a85760405162461bcd60e51b8152600401610195906109a0565b61271083116104f05760405162461bcd60e51b815260206004820152601460248201527315185ad9481a5908199bdc9b481a1bdc1a5d185b60621b6044820152606401610195565b6040805160a0810182528481526020810184815260ff841692820192909252336060820152600060808201819052600280546001810182559152815160039091027f405787fa12a823e0f2b7631cc41b3ba8828b3321ca811111fa75cd3aa3bb5ace81019182559251919290917f405787fa12a823e0f2b7631cc41b3ba8828b3321ca811111fa75cd3aa3bb5acf9091019061058c9082610a6b565b50604082015160029182018054606085015160809095015160ff908116600160a81b0260ff60a81b196001600160a01b03909716610100026001600160a81b03199093169190941617179390931617909155546000906105ee90600190610b40565b3360009081526004602090815260408083208490556005909152812080549293509061061983610b59565b90915550503360009081526003602052604090819020805460ff19166001179055517fd86dca2e2544318fbca4769e2f7ea2bba8eeb0f445dd717aef0d3c84670baa419061066c90839086908690610b72565b60405180910390a150505050565b6106826106b8565b6001600160a01b0381166106ac57604051631e4fbdf760e01b815260006004820152602401610195565b6106b5816106e5565b50565b6000546001600160a01b031633146103a95760405163118cdaa760e01b8152336004820152602401610195565b600080546001600160a01b038381166001600160a01b0319831681178455604051919092169283917f8be0079c531659141344cd1fd0a4f28419497f9722a3daafe3b4186f6b6457e09190a35050565b634e487b7160e01b600052604160045260246000fd5b600082601f83011261075c57600080fd5b813567ffffffffffffffff81111561077657610776610735565b604051601f8201601f19908116603f0116810167ffffffffffffffff811182821017156107a5576107a5610735565b6040528181528382016020018510156107bd57600080fd5b816020850160208301376000918101602001919091529392505050565b803560ff811681146107eb57600080fd5b919050565b6000806040838503121561080357600080fd5b823567ffffffffffffffff81111561081a57600080fd5b6108268582860161074b565b925050610835602084016107da565b90509250929050565b60006020828403121561085057600080fd5b5035919050565b6000815180845260005b8181101561087d57602081850181015186830182015201610861565b506000602082860101526020601f19601f83011685010191505092915050565b85815260a0602082015260006108b660a0830187610857565b60ff95861660408401526001600160a01b0394909416606083015250921660809092019190915292915050565b6060815260006108f66060830186610857565b60ff949094166020830152506001600160a01b0391909116604090910152919050565b60006020828403121561092b57600080fd5b81356001600160a01b038116811461094257600080fd5b9392505050565b60008060006060848603121561095e57600080fd5b83359250602084013567ffffffffffffffff81111561097c57600080fd5b6109888682870161074b565b925050610997604085016107da565b90509250925092565b60208082526022908201527f596f7520616c7265616479206861766520612070617469656e742070726f66696040820152616c6560f01b606082015260800190565b600181811c908216806109f657607f821691505b602082108103610a1657634e487b7160e01b600052602260045260246000fd5b50919050565b601f821115610a6657806000526020600020601f840160051c81016020851015610a435750805b601f840160051c820191505b81811015610a635760008155600101610a4f565b50505b505050565b815167ffffffffffffffff811115610a8557610a85610735565b610a9981610a9384546109e2565b84610a1c565b6020601f821160018114610acd5760008315610ab55750848201515b600019600385901b1c1916600184901b178455610a63565b600084815260208120601f198516915b82811015610afd5787850151825560209485019460019092019101610add565b5084821015610b1b5786840151600019600387901b60f8161c191681555b50505050600190811b01905550565b634e487b7160e01b600052601160045260246000fd5b81810381811115610b5357610b53610b2a565b92915050565b600060018201610b6b57610b6b610b2a565b5060010190565b838152606060208201526000610b8b6060830185610857565b905060ff8316604083015294935050505056fea2646970667358221220f35133e76b4b8e192dc56debe155641e9bdd9215039ecd5bfca895e6780f672c64736f6c634300081a0033","linkReferences":{}},"methodIdentifiers":{"createProfileDoctor(uint256,string,uint8)":"b8735101","createProfilePatient(string,uint8)":"1ccdfc32","doctors(uint256)":"6efb1b84","owner()":"8da5cb5b","patients(uint256)":"93119a83","profileToOwner(address)":"9ad8180f","renounceOwnership()":"715018a6","transferOwnership(address)":"f2fde38b"},"id":3}