{"abi":[{"type":"constructor","inputs":[],"stateMutability":"nonpayable"},{"type":"fallback","stateMutability":"payable"},{"type":"receive","stateMutability":"payable"},{"type":"function","name":"createCrowd","inputs":[{"name":"_nameCrowd","type":"string","internalType":"string"},{"name":"_target","type":"uint256","internalType":"uint256"},{"name":"_endTime","type":"uint32","internalType":"uint32"},{"name":"_scriptCrowd","type":"string","internalType":"string"}],"outputs":[],"stateMutability":"nonpayable"},{"type":"function","name":"createProfileDoctor","inputs":[{"name":"_idDoctor","type":"uint256","internalType":"uint256"},{"name":"_name","type":"string","internalType":"string"},{"name":"_age","type":"uint8","internalType":"uint8"}],"outputs":[],"stateMutability":"nonpayable"},{"type":"function","name":"createProfilePatient","inputs":[{"name":"_name","type":"string","internalType":"string"},{"name":"_age","type":"uint8","internalType":"uint8"}],"outputs":[],"stateMutability":"nonpayable"},{"type":"function","name":"crowdToOwner","inputs":[{"name":"","type":"uint256","internalType":"uint256"}],"outputs":[{"name":"","type":"address","internalType":"address"}],"stateMutability":"view"},{"type":"function","name":"crowds","inputs":[{"name":"","type":"uint256","internalType":"uint256"}],"outputs":[{"name":"nameCrowd","type":"string","internalType":"string"},{"name":"target","type":"uint256","internalType":"uint256"},{"name":"endTime","type":"uint32","internalType":"uint32"},{"name":"nameHost","type":"string","internalType":"string"},{"name":"adrHost","type":"address","internalType":"address"},{"name":"scriptCrowd","type":"string","internalType":"string"}],"stateMutability":"view"},{"type":"function","name":"doctors","inputs":[{"name":"","type":"uint256","internalType":"uint256"}],"outputs":[{"name":"idDoctor","type":"uint256","internalType":"uint256"},{"name":"name","type":"string","internalType":"string"},{"name":"age","type":"uint8","internalType":"uint8"},{"name":"walletAddress","type":"address","internalType":"address"},{"name":"rating","type":"uint8","internalType":"uint8"}],"stateMutability":"view"},{"type":"function","name":"endCrowdfunding","inputs":[],"outputs":[],"stateMutability":"nonpayable"},{"type":"function","name":"fundToCrowd","inputs":[],"outputs":[],"stateMutability":"payable"},{"type":"function","name":"funderToAmount","inputs":[{"name":"","type":"address","internalType":"address"}],"outputs":[{"name":"","type":"uint256","internalType":"uint256"}],"stateMutability":"view"},{"type":"function","name":"funders","inputs":[{"name":"","type":"uint256","internalType":"uint256"}],"outputs":[{"name":"","type":"address","internalType":"address"}],"stateMutability":"view"},{"type":"function","name":"isFunders","inputs":[{"name":"","type":"address","internalType":"address"}],"outputs":[{"name":"","type":"bool","internalType":"bool"}],"stateMutability":"view"},{"type":"function","name":"owner","inputs":[],"outputs":[{"name":"","type":"address","internalType":"address"}],"stateMutability":"view"},{"type":"function","name":"ownerCrowdCount","inputs":[{"name":"","type":"address","internalType":"address"}],"outputs":[{"name":"","type":"uint256","internalType":"uint256"}],"stateMutability":"view"},{"type":"function","name":"patients","inputs":[{"name":"","type":"uint256","internalType":"uint256"}],"outputs":[{"name":"name","type":"string","internalType":"string"},{"name":"age","type":"uint8","internalType":"uint8"},{"name":"walletAddress","type":"address","internalType":"address"}],"stateMutability":"view"},{"type":"function","name":"profileToOwner","inputs":[{"name":"","type":"address","internalType":"address"}],"outputs":[{"name":"","type":"uint256","internalType":"uint256"}],"stateMutability":"view"},{"type":"function","name":"renounceOwnership","inputs":[],"outputs":[],"stateMutability":"nonpayable"},{"type":"function","name":"setDataTransferAddress","inputs":[{"name":"_address","type":"address","internalType":"address"}],"outputs":[],"stateMutability":"nonpayable"},{"type":"function","name":"transferOwnership","inputs":[{"name":"newOwner","type":"address","internalType":"address"}],"outputs":[],"stateMutability":"nonpayable"},{"type":"function","name":"withDraw","inputs":[],"outputs":[],"stateMutability":"nonpayable"},{"type":"event","name":"HostCrowdFunding","inputs":[{"name":"nameCrowd","type":"string","indexed":false,"internalType":"string"},{"name":"target","type":"uint256","indexed":false,"internalType":"uint256"},{"name":"endTime","type":"uint32","indexed":false,"internalType":"uint32"},{"name":"nameDoctorHost","type":"string","indexed":false,"internalType":"string"}],"anonymous":false},{"type":"event","name":"NewUser","inputs":[{"name":"patientId","type":"uint256","indexed":false,"internalType":"uint256"},{"name":"name","type":"string","indexed":false,"internalType":"string"},{"name":"age","type":"uint256","indexed":false,"internalType":"uint256"}],"anonymous":false},{"type":"event","name":"OwnershipTransferred","inputs":[{"name":"previousOwner","type":"address","indexed":true,"internalType":"address"},{"name":"newOwner","type":"address","indexed":true,"internalType":"address"}],"anonymous":false},{"type":"error","name":"OwnableInvalidOwner","inputs":[{"name":"owner","type":"address","internalType":"address"}]},{"type":"error","name":"OwnableUnauthorizedAccount","inputs":[{"name":"account","type":"address","internalType":"address"}]}],"bytecode":{"object":"0x6080604052348015600f57600080fd5b503380603557604051631e4fbdf760e01b81526000600482015260240160405180910390fd5b603c816041565b506091565b600080546001600160a01b038381166001600160a01b0319831681178455604051919092169283917f8be0079c531659141344cd1fd0a4f28419497f9722a3daafe3b4186f6b6457e09190a35050565b611525806100a06000396000f3fe6080604052600436106101185760003560e01c806392ce1e41116100a0578063cf718fdc11610064578063cf718fdc14610344578063dc0d3dff14610384578063e9fa8814146103a4578063ed32f2b0146103d1578063f2fde38b146103dd57610127565b806392ce1e4114610276578063930b8ef1146102a857806393119a83146102c85780639ad8180f146102f7578063b87351011461032457610127565b80634407e1e8116100e75780634407e1e81461018457806358d3eab0146101c45780636efb1b8414610212578063715018a6146102435780638da5cb5b1461025857610127565b80630fdb1c101461012f578063105fbbc9146101275780631ccdfc32146101445780632f7009551461016457610127565b36610127576101256103fd565b005b6101256103fd565b34801561013b57600080fd5b50610125610497565b34801561015057600080fd5b5061012561015f366004610fe8565b6104a1565b34801561017057600080fd5b5061012561017f366004611036565b6105f2565b34801561019057600080fd5b506101b161019f366004611036565b60086020526000908152604090205481565b6040519081526020015b60405180910390f35b3480156101d057600080fd5b506101fa6101df366004611066565b600b602052600090815260409020546001600160a01b031681565b6040516001600160a01b0390911681526020016101bb565b34801561021e57600080fd5b5061023261022d366004611066565b61061c565b6040516101bb9594939291906110c5565b34801561024f57600080fd5b506101256106f8565b34801561026457600080fd5b506000546001600160a01b03166101fa565b34801561028257600080fd5b50610296610291366004611066565b61070a565b6040516101bb9695949392919061110b565b3480156102b457600080fd5b506101256102c3366004611172565b610908565b3480156102d457600080fd5b506102e86102e3366004611066565b610b7c565b6040516101bb93929190611200565b34801561030357600080fd5b506101b1610312366004611036565b60056020526000908152604090205481565b34801561033057600080fd5b5061012561033f366004611236565b610c4c565b34801561035057600080fd5b5061037461035f366004611036565b60076020526000908152604090205460ff1681565b60405190151581526020016101bb565b34801561039057600080fd5b506101fa61039f366004611066565b610e4b565b3480156103b057600080fd5b506101b16103bf366004611036565b600c6020526000908152604090205481565b34801561012557600080fd5b3480156103e957600080fd5b506101256103f8366004611036565b610e75565b336000908152600860205260408120805434929061041c9084906112a3565b90915550503360009081526007602052604090205460ff1680610494576009805460018181019092557f6e1540171b6c0c960b71a7020d9f60077f6af931a8bbf590da0223dacf75c7af0180546001600160a01b031916339081179091556000908152600760205260409020805460ff191690911790555b50565b61049f610eb0565b565b33600090815260066020526040902054156104d75760405162461bcd60e51b81526004016104ce906112bc565b60405180910390fd5b6040805160608101825283815260ff831660208201523391810191909152600280546001810182556000829052825191027f405787fa12a823e0f2b7631cc41b3ba8828b3321ca811111fa75cd3aa3bb5ace019081906105379082611387565b506020820151600191820180546040909401516001600160a01b0316610100026001600160a81b031990941660ff909216919091179290921790915560025460009161058291611446565b336000908152600560209081526040808320849055600690915281208054929350906105ad83611459565b91905055507fd86dca2e2544318fbca4769e2f7ea2bba8eeb0f445dd717aef0d3c84670baa418184846040516105e593929190611472565b60405180910390a1505050565b6105fa610eb0565b600180546001600160a01b0319166001600160a01b0392909216919091179055565b6003818154811061062c57600080fd5b60009182526020909120600390910201805460018201805491935090610651906112fe565b80601f016020809104026020016040519081016040528092919081815260200182805461067d906112fe565b80156106ca5780601f1061069f576101008083540402835291602001916106ca565b820191906000526020600020905b8154815290600101906020018083116106ad57829003601f168201915b5050506002909301549192505060ff808216916001600160a01b0361010082041691600160a81b9091041685565b610700610eb0565b61049f6000610edd565b600a818154811061071a57600080fd5b906000526020600020906006020160009150905080600001805461073d906112fe565b80601f0160208091040260200160405190810160405280929190818152602001828054610769906112fe565b80156107b65780601f1061078b576101008083540402835291602001916107b6565b820191906000526020600020905b81548152906001019060200180831161079957829003601f168201915b50505050600183015460028401546003850180549495929463ffffffff9092169350906107e2906112fe565b80601f016020809104026020016040519081016040528092919081815260200182805461080e906112fe565b801561085b5780601f106108305761010080835404028352916020019161085b565b820191906000526020600020905b81548152906001019060200180831161083e57829003601f168201915b505050600484015460058501805494956001600160a01b03909216949193509150610885906112fe565b80601f01602080910402602001604051908101604052809291908181526020018280546108b1906112fe565b80156108fe5780601f106108d3576101008083540402835291602001916108fe565b820191906000526020600020905b8154815290600101906020018083116108e157829003601f168201915b5050505050905086565b3360009081526004602052604090205460ff166109735760405162461bcd60e51b815260206004820152602360248201527f6f6e6c7920646f63746f72732063616e2063616c6c20746869732066756e637460448201526234b7b760e91b60648201526084016104ce565b336000908152600c6020526040902054600210156109d35760405162461bcd60e51b815260206004820152601960248201527f4f6e6c79203220686f737420666f72203120646f63746f72210000000000000060448201526064016104ce565b6040805160c081018252858152602080820186905263ffffffff85168284015282518084019093526008835267446f63746f72204b60c01b90830152606081019190915233608082015260a08101829052600a8054600181018255600091909152815160069091027fc65a7bb8d6351c1cf70c95a316cc6a92839c986682d98bc35f958f4883f9d2a801908190610a6a9082611387565b5060208201516001820155604082015160028201805463ffffffff191663ffffffff90921691909117905560608201516003820190610aa99082611387565b5060808201516004820180546001600160a01b0319166001600160a01b0390921691909117905560a08201516005820190610ae49082611387565b5050600a5460009150610af990600190611446565b6000818152600b6020908152604080832080546001600160a01b031916339081179091558352600c9091528120805492935090610b3583611459565b91905055507f69e156612586a9b6531cb151ff6ab9fa7b57cccd6dda6e25654707eb055ce667858585604051610b6d9392919061149e565b60405180910390a15050505050565b60028181548110610b8c57600080fd5b9060005260206000209060020201600091509050806000018054610baf906112fe565b80601f0160208091040260200160405190810160405280929190818152602001828054610bdb906112fe565b8015610c285780601f10610bfd57610100808354040283529160200191610c28565b820191906000526020600020905b815481529060010190602001808311610c0b57829003601f168201915b5050506001909301549192505060ff8116906001600160a01b036101009091041683565b3360009081526006602052604090205415610c795760405162461bcd60e51b81526004016104ce906112bc565b6127108311610cc15760405162461bcd60e51b815260206004820152601460248201527315185ad9481a5908199bdc9b481a1bdc1a5d185b60621b60448201526064016104ce565b6040805160a0810182528481526020810184815260ff8416928201929092523360608201526000608082018190526003805460018101825591819052825191027fc2575a0e9e593c00f959f8c92f12db2869c3395a3b0502d05e2516446f71f85b81019182559251919290917fc2575a0e9e593c00f959f8c92f12db2869c3395a3b0502d05e2516446f71f85c90910190610d5c9082611387565b50604082015160029091018054606084015160809094015160ff908116600160a81b0260ff60a81b196001600160a01b03909616610100026001600160a81b031990931691909416171792909216179055600354600090610dbf90600190611446565b33600090815260056020908152604080832084905560069091528120805492935090610dea83611459565b90915550503360009081526004602052604090819020805460ff19166001179055517fd86dca2e2544318fbca4769e2f7ea2bba8eeb0f445dd717aef0d3c84670baa4190610e3d90839086908690611472565b60405180910390a150505050565b60098181548110610e5b57600080fd5b6000918252602090912001546001600160a01b0316905081565b610e7d610eb0565b6001600160a01b038116610ea757604051631e4fbdf760e01b8152600060048201526024016104ce565b61049481610edd565b6000546001600160a01b0316331461049f5760405163118cdaa760e01b81523360048201526024016104ce565b600080546001600160a01b038381166001600160a01b0319831681178455604051919092169283917f8be0079c531659141344cd1fd0a4f28419497f9722a3daafe3b4186f6b6457e09190a35050565b634e487b7160e01b600052604160045260246000fd5b600082601f830112610f5457600080fd5b813567ffffffffffffffff811115610f6e57610f6e610f2d565b604051601f8201601f19908116603f0116810167ffffffffffffffff81118282101715610f9d57610f9d610f2d565b604052818152838201602001851015610fb557600080fd5b816020850160208301376000918101602001919091529392505050565b803560ff81168114610fe357600080fd5b919050565b60008060408385031215610ffb57600080fd5b823567ffffffffffffffff81111561101257600080fd5b61101e85828601610f43565b92505061102d60208401610fd2565b90509250929050565b60006020828403121561104857600080fd5b81356001600160a01b038116811461105f57600080fd5b9392505050565b60006020828403121561107857600080fd5b5035919050565b6000815180845260005b818110156110a557602081850181015186830182015201611089565b506000602082860101526020601f19601f83011685010191505092915050565b85815260a0602082015260006110de60a083018761107f565b60ff95861660408401526001600160a01b0394909416606083015250921660809092019190915292915050565b60c08152600061111e60c083018961107f565b87602084015263ffffffff871660408401528281036060840152611142818761107f565b6001600160a01b038616608085015283810360a08501529050611165818561107f565b9998505050505050505050565b6000806000806080858703121561118857600080fd5b843567ffffffffffffffff81111561119f57600080fd5b6111ab87828801610f43565b94505060208501359250604085013563ffffffff811681146111cc57600080fd5b9150606085013567ffffffffffffffff8111156111e857600080fd5b6111f487828801610f43565b91505092959194509250565b606081526000611213606083018661107f565b60ff949094166020830152506001600160a01b0391909116604090910152919050565b60008060006060848603121561124b57600080fd5b83359250602084013567ffffffffffffffff81111561126957600080fd5b61127586828701610f43565b92505061128460408501610fd2565b90509250925092565b634e487b7160e01b600052601160045260246000fd5b808201808211156112b6576112b661128d565b92915050565b60208082526022908201527f596f7520616c7265616479206861766520612070617469656e742070726f66696040820152616c6560f01b606082015260800190565b600181811c9082168061131257607f821691505b60208210810361133257634e487b7160e01b600052602260045260246000fd5b50919050565b601f82111561138257806000526020600020601f840160051c8101602085101561135f5750805b601f840160051c820191505b8181101561137f576000815560010161136b565b50505b505050565b815167ffffffffffffffff8111156113a1576113a1610f2d565b6113b5816113af84546112fe565b84611338565b6020601f8211600181146113e957600083156113d15750848201515b600019600385901b1c1916600184901b17845561137f565b600084815260208120601f198516915b8281101561141957878501518255602094850194600190920191016113f9565b50848210156114375786840151600019600387901b60f8161c191681555b50505050600190811b01905550565b818103818111156112b6576112b661128d565b60006001820161146b5761146b61128d565b5060010190565b83815260606020820152600061148b606083018561107f565b905060ff83166040830152949350505050565b6080815260006114b1608083018661107f565b84602084015263ffffffff8416604084015282810360608401526008815267446f63746f72204b60c01b60208201526040810191505094935050505056fea26469706673582212201c6c43c8a16f3a470eb1038f57acb5d06db9e8a3ef38c763a5498327f68e070664736f6c634300081a0033","linkReferences":{}},"methodIdentifiers":{"createCrowd(string,uint256,uint32,string)":"930b8ef1","createProfileDoctor(uint256,string,uint8)":"b8735101","createProfilePatient(string,uint8)":"1ccdfc32","crowdToOwner(uint256)":"58d3eab0","crowds(uint256)":"92ce1e41","doctors(uint256)":"6efb1b84","endCrowdfunding()":"ed32f2b0","fundToCrowd()":"105fbbc9","funderToAmount(address)":"4407e1e8","funders(uint256)":"dc0d3dff","isFunders(address)":"cf718fdc","owner()":"8da5cb5b","ownerCrowdCount(address)":"e9fa8814","patients(uint256)":"93119a83","profileToOwner(address)":"9ad8180f","renounceOwnership()":"715018a6","setDataTransferAddress(address)":"2f700955","transferOwnership(address)":"f2fde38b","withDraw()":"0fdb1c10"},"id":2}