{"abi":[{"type":"constructor","inputs":[],"stateMutability":"nonpayable"},{"type":"fallback","stateMutability":"payable"},{"type":"receive","stateMutability":"payable"},{"type":"function","name":"createCrowd","inputs":[{"name":"_nameCrowd","type":"string","internalType":"string"},{"name":"_target","type":"uint256","internalType":"uint256"},{"name":"_endTime","type":"uint32","internalType":"uint32"}],"outputs":[],"stateMutability":"nonpayable"},{"type":"function","name":"createProfileDoctor","inputs":[{"name":"_idDoctor","type":"uint256","internalType":"uint256"},{"name":"_name","type":"string","internalType":"string"},{"name":"_age","type":"uint8","internalType":"uint8"}],"outputs":[],"stateMutability":"nonpayable"},{"type":"function","name":"createProfilePatient","inputs":[{"name":"_name","type":"string","internalType":"string"},{"name":"_age","type":"uint8","internalType":"uint8"}],"outputs":[],"stateMutability":"nonpayable"},{"type":"function","name":"crowdToOwner","inputs":[{"name":"","type":"uint256","internalType":"uint256"}],"outputs":[{"name":"","type":"address","internalType":"address"}],"stateMutability":"view"},{"type":"function","name":"crowds","inputs":[{"name":"","type":"uint256","internalType":"uint256"}],"outputs":[{"name":"nameCrowd","type":"string","internalType":"string"},{"name":"target","type":"uint256","internalType":"uint256"},{"name":"endTime","type":"uint32","internalType":"uint32"},{"name":"nameHost","type":"string","internalType":"string"},{"name":"adrHost","type":"address","internalType":"address"}],"stateMutability":"view"},{"type":"function","name":"doctors","inputs":[{"name":"","type":"uint256","internalType":"uint256"}],"outputs":[{"name":"idDoctor","type":"uint256","internalType":"uint256"},{"name":"name","type":"string","internalType":"string"},{"name":"age","type":"uint8","internalType":"uint8"},{"name":"walletAddress","type":"address","internalType":"address"},{"name":"rating","type":"uint8","internalType":"uint8"}],"stateMutability":"view"},{"type":"function","name":"fundToCrowd","inputs":[],"outputs":[],"stateMutability":"payable"},{"type":"function","name":"funderToAmount","inputs":[{"name":"","type":"address","internalType":"address"}],"outputs":[{"name":"","type":"uint256","internalType":"uint256"}],"stateMutability":"view"},{"type":"function","name":"funders","inputs":[{"name":"","type":"uint256","internalType":"uint256"}],"outputs":[{"name":"","type":"address","internalType":"address"}],"stateMutability":"view"},{"type":"function","name":"isFunders","inputs":[{"name":"","type":"address","internalType":"address"}],"outputs":[{"name":"","type":"bool","internalType":"bool"}],"stateMutability":"view"},{"type":"function","name":"owner","inputs":[],"outputs":[{"name":"","type":"address","internalType":"address"}],"stateMutability":"view"},{"type":"function","name":"ownerCrowdCount","inputs":[{"name":"","type":"address","internalType":"address"}],"outputs":[{"name":"","type":"uint256","internalType":"uint256"}],"stateMutability":"view"},{"type":"function","name":"patients","inputs":[{"name":"","type":"uint256","internalType":"uint256"}],"outputs":[{"name":"name","type":"string","internalType":"string"},{"name":"age","type":"uint8","internalType":"uint8"},{"name":"walletAddress","type":"address","internalType":"address"}],"stateMutability":"view"},{"type":"function","name":"profileToOwner","inputs":[{"name":"","type":"uint256","internalType":"uint256"}],"outputs":[{"name":"","type":"address","internalType":"address"}],"stateMutability":"view"},{"type":"function","name":"renounceOwnership","inputs":[],"outputs":[],"stateMutability":"nonpayable"},{"type":"function","name":"transferOwnership","inputs":[{"name":"newOwner","type":"address","internalType":"address"}],"outputs":[],"stateMutability":"nonpayable"},{"type":"function","name":"withDraw","inputs":[],"outputs":[],"stateMutability":"nonpayable"},{"type":"event","name":"HostCrowdFunding","inputs":[{"name":"nameCrowd","type":"string","indexed":false,"internalType":"string"},{"name":"target","type":"uint256","indexed":false,"internalType":"uint256"},{"name":"endTime","type":"uint32","indexed":false,"internalType":"uint32"},{"name":"nameDoctorHost","type":"string","indexed":false,"internalType":"string"}],"anonymous":false},{"type":"event","name":"NewUser","inputs":[{"name":"patientId","type":"uint256","indexed":false,"internalType":"uint256"},{"name":"name","type":"string","indexed":false,"internalType":"string"},{"name":"age","type":"uint256","indexed":false,"internalType":"uint256"}],"anonymous":false},{"type":"event","name":"OwnershipTransferred","inputs":[{"name":"previousOwner","type":"address","indexed":true,"internalType":"address"},{"name":"newOwner","type":"address","indexed":true,"internalType":"address"}],"anonymous":false},{"type":"error","name":"OwnableInvalidOwner","inputs":[{"name":"owner","type":"address","internalType":"address"}]},{"type":"error","name":"OwnableUnauthorizedAccount","inputs":[{"name":"account","type":"address","internalType":"address"}]}],"bytecode":{"object":"0x6080604052348015600f57600080fd5b503380603557604051631e4fbdf760e01b81526000600482015260240160405180910390fd5b603c816041565b506091565b600080546001600160a01b038381166001600160a01b0319831681178455604051919092169283917f8be0079c531659141344cd1fd0a4f28419497f9722a3daafe3b4186f6b6457e09190a35050565b611364806100a06000396000f3fe6080604052600436106101025760003560e01c80637574331d11610095578063b873510111610064578063b8735101146102f6578063cf718fdc14610316578063dc0d3dff14610356578063e9fa881414610376578063f2fde38b146103a357610111565b80637574331d146102585780638da5cb5b1461027857806392ce1e411461029657806393119a83146102c757610111565b806358d3eab0116100d157806358d3eab01461018e578063621ac371146101dc5780636efb1b8414610212578063715018a61461024357610111565b80630fdb1c1014610119578063105fbbc9146101115780631ccdfc321461012e5780634407e1e81461014e57610111565b366101115761010f6103c3565b005b61010f6103c3565b34801561012557600080fd5b5061010f61045d565b34801561013a57600080fd5b5061010f610149366004610e66565b610467565b34801561015a57600080fd5b5061017b610169366004610eb4565b60066020526000908152604090205481565b6040519081526020015b60405180910390f35b34801561019a57600080fd5b506101c46101a9366004610ee4565b6009602052600090815260409020546001600160a01b031681565b6040516001600160a01b039091168152602001610185565b3480156101e857600080fd5b506101c46101f7366004610ee4565b6003602052600090815260409020546001600160a01b031681565b34801561021e57600080fd5b5061023261022d366004610ee4565b6105cb565b604051610185959493929190610f43565b34801561024f57600080fd5b5061010f6106a7565b34801561026457600080fd5b5061010f610273366004610f89565b6106b9565b34801561028457600080fd5b506000546001600160a01b03166101c4565b3480156102a257600080fd5b506102b66102b1366004610ee4565b6108a8565b604051610185959493929190610fed565b3480156102d357600080fd5b506102e76102e2366004610ee4565b610a12565b6040516101859392919061103f565b34801561030257600080fd5b5061010f610311366004611075565b610ae2565b34801561032257600080fd5b50610346610331366004610eb4565b60056020526000908152604090205460ff1681565b6040519015158152602001610185565b34801561036257600080fd5b506101c4610371366004610ee4565b610cc9565b34801561038257600080fd5b5061017b610391366004610eb4565b600a6020526000908152604090205481565b3480156103af57600080fd5b5061010f6103be366004610eb4565b610cf3565b33600090815260066020526040812080543492906103e29084906110e2565b90915550503360009081526005602052604090205460ff168061045a576007805460018181019092557fa66cc928b5edb82af9bd49922954155ab7b0942694bea4ce44661d9a8736c6880180546001600160a01b031916339081179091556000908152600560205260409020805460ff191690911790555b50565b610465610d2e565b565b336000908152600460205260409020541561049d5760405162461bcd60e51b8152600401610494906110fb565b60405180910390fd5b6040805160608101825283815260ff831660208201523391810191909152600180548082018255600091909152815160029091027fb10e2d527612073b26eecdfd717e6a320cf44b4afac2b0732d9fcbe2b7fa0cf60190819061050090826111c6565b506020820151600191820180546040909401516001600160a01b0316610100026001600160a81b031990941660ff9092169190911792909217909155805460009161054a91611285565b600081815260036020908152604080832080546001600160a01b0319163390811790915583526004909152812080549293509061058683611298565b91905055507fd86dca2e2544318fbca4769e2f7ea2bba8eeb0f445dd717aef0d3c84670baa418184846040516105be939291906112b1565b60405180910390a1505050565b600281815481106105db57600080fd5b600091825260209091206003909102018054600182018054919350906106009061113d565b80601f016020809104026020016040519081016040528092919081815260200182805461062c9061113d565b80156106795780601f1061064e57610100808354040283529160200191610679565b820191906000526020600020905b81548152906001019060200180831161065c57829003601f168201915b5050506002909301549192505060ff808216916001600160a01b0361010082041691600160a81b9091041685565b6106af610d2e565b6104656000610d5b565b336000908152600a6020526040902054600210156107195760405162461bcd60e51b815260206004820152601960248201527f4f6e6c79203220686f737420666f72203120646f63746f7221000000000000006044820152606401610494565b6040805160a081018252848152602080820185905263ffffffff8416828401528251808401909352600880845267446f63746f72204b60c01b9184019190915260608201929092523360808201528154600181018355600092909252805190916005027ff3f7a9fe364faab93b216da50a3214154f22a0a2b415b23a84c8169e8b636ee3019081906107ab90826111c6565b5060208201516001820155604082015160028201805463ffffffff191663ffffffff909216919091179055606082015160038201906107ea90826111c6565b5060809190910151600490910180546001600160a01b0319166001600160a01b0390921691909117905560085460009061082690600190611285565b600081815260096020908152604080832080546001600160a01b031916339081179091558352600a909152812080549293509061086283611298565b91905055507f69e156612586a9b6531cb151ff6ab9fa7b57cccd6dda6e25654707eb055ce66784848460405161089a939291906112dd565b60405180910390a150505050565b600881815481106108b857600080fd5b90600052602060002090600502016000915090508060000180546108db9061113d565b80601f01602080910402602001604051908101604052809291908181526020018280546109079061113d565b80156109545780601f1061092957610100808354040283529160200191610954565b820191906000526020600020905b81548152906001019060200180831161093757829003601f168201915b50505050600183015460028401546003850180549495929463ffffffff9092169350906109809061113d565b80601f01602080910402602001604051908101604052809291908181526020018280546109ac9061113d565b80156109f95780601f106109ce576101008083540402835291602001916109f9565b820191906000526020600020905b8154815290600101906020018083116109dc57829003601f168201915b505050600490930154919250506001600160a01b031685565b60018181548110610a2257600080fd5b9060005260206000209060020201600091509050806000018054610a459061113d565b80601f0160208091040260200160405190810160405280929190818152602001828054610a719061113d565b8015610abe5780601f10610a9357610100808354040283529160200191610abe565b820191906000526020600020905b815481529060010190602001808311610aa157829003601f168201915b5050506001909301549192505060ff8116906001600160a01b036101009091041683565b3360009081526004602052604090205415610b0f5760405162461bcd60e51b8152600401610494906110fb565b6127108311610b575760405162461bcd60e51b815260206004820152601460248201527315185ad9481a5908199bdc9b481a1bdc1a5d185b60621b6044820152606401610494565b6040805160a0810182528481526020810184815260ff841692820192909252336060820152600060808201819052600280546001810182559152815160039091027f405787fa12a823e0f2b7631cc41b3ba8828b3321ca811111fa75cd3aa3bb5ace81019182559251919290917f405787fa12a823e0f2b7631cc41b3ba8828b3321ca811111fa75cd3aa3bb5acf90910190610bf390826111c6565b50604082015160029182018054606085015160809095015160ff908116600160a81b0260ff60a81b196001600160a01b03909716610100026001600160a81b0319909316919094161717939093161790915554600090610c5590600190611285565b600081815260036020908152604080832080546001600160a01b03191633908117909155835260049091528120805492935090610c9183611298565b91905055507fd86dca2e2544318fbca4769e2f7ea2bba8eeb0f445dd717aef0d3c84670baa4181848460405161089a939291906112b1565b60078181548110610cd957600080fd5b6000918252602090912001546001600160a01b0316905081565b610cfb610d2e565b6001600160a01b038116610d2557604051631e4fbdf760e01b815260006004820152602401610494565b61045a81610d5b565b6000546001600160a01b031633146104655760405163118cdaa760e01b8152336004820152602401610494565b600080546001600160a01b038381166001600160a01b0319831681178455604051919092169283917f8be0079c531659141344cd1fd0a4f28419497f9722a3daafe3b4186f6b6457e09190a35050565b634e487b7160e01b600052604160045260246000fd5b600082601f830112610dd257600080fd5b813567ffffffffffffffff811115610dec57610dec610dab565b604051601f8201601f19908116603f0116810167ffffffffffffffff81118282101715610e1b57610e1b610dab565b604052818152838201602001851015610e3357600080fd5b816020850160208301376000918101602001919091529392505050565b803560ff81168114610e6157600080fd5b919050565b60008060408385031215610e7957600080fd5b823567ffffffffffffffff811115610e9057600080fd5b610e9c85828601610dc1565b925050610eab60208401610e50565b90509250929050565b600060208284031215610ec657600080fd5b81356001600160a01b0381168114610edd57600080fd5b9392505050565b600060208284031215610ef657600080fd5b5035919050565b6000815180845260005b81811015610f2357602081850181015186830182015201610f07565b506000602082860101526020601f19601f83011685010191505092915050565b85815260a060208201526000610f5c60a0830187610efd565b60ff95861660408401526001600160a01b0394909416606083015250921660809092019190915292915050565b600080600060608486031215610f9e57600080fd5b833567ffffffffffffffff811115610fb557600080fd5b610fc186828701610dc1565b93505060208401359150604084013563ffffffff81168114610fe257600080fd5b809150509250925092565b60a08152600061100060a0830188610efd565b86602084015263ffffffff8616604084015282810360608401526110248186610efd565b91505060018060a01b03831660808301529695505050505050565b6060815260006110526060830186610efd565b60ff949094166020830152506001600160a01b0391909116604090910152919050565b60008060006060848603121561108a57600080fd5b83359250602084013567ffffffffffffffff8111156110a857600080fd5b6110b486828701610dc1565b9250506110c360408501610e50565b90509250925092565b634e487b7160e01b600052601160045260246000fd5b808201808211156110f5576110f56110cc565b92915050565b60208082526022908201527f596f7520616c7265616479206861766520612070617469656e742070726f66696040820152616c6560f01b606082015260800190565b600181811c9082168061115157607f821691505b60208210810361117157634e487b7160e01b600052602260045260246000fd5b50919050565b601f8211156111c157806000526020600020601f840160051c8101602085101561119e5750805b601f840160051c820191505b818110156111be57600081556001016111aa565b50505b505050565b815167ffffffffffffffff8111156111e0576111e0610dab565b6111f4816111ee845461113d565b84611177565b6020601f82116001811461122857600083156112105750848201515b600019600385901b1c1916600184901b1784556111be565b600084815260208120601f198516915b828110156112585787850151825560209485019460019092019101611238565b50848210156112765786840151600019600387901b60f8161c191681555b50505050600190811b01905550565b818103818111156110f5576110f56110cc565b6000600182016112aa576112aa6110cc565b5060010190565b8381526060602082015260006112ca6060830185610efd565b905060ff83166040830152949350505050565b6080815260006112f06080830186610efd565b84602084015263ffffffff8416604084015282810360608401526008815267446f63746f72204b60c01b60208201526040810191505094935050505056fea2646970667358221220f02855c86083e43a7523d9025e944e1b232a333bae515abc2d0cc080a7e76f0964736f6c634300081a0033","linkReferences":{}},"methodIdentifiers":{"createCrowd(string,uint256,uint32)":"7574331d","createProfileDoctor(uint256,string,uint8)":"b8735101","createProfilePatient(string,uint8)":"1ccdfc32","crowdToOwner(uint256)":"58d3eab0","crowds(uint256)":"92ce1e41","doctors(uint256)":"6efb1b84","fundToCrowd()":"105fbbc9","funderToAmount(address)":"4407e1e8","funders(uint256)":"dc0d3dff","isFunders(address)":"cf718fdc","owner()":"8da5cb5b","ownerCrowdCount(address)":"e9fa8814","patients(uint256)":"93119a83","profileToOwner(uint256)":"621ac371","renounceOwnership()":"715018a6","transferOwnership(address)":"f2fde38b","withDraw()":"0fdb1c10"},"id":2}