{"abi":[{"type":"constructor","inputs":[{"name":"_owner","type":"address","internalType":"address"}],"stateMutability":"nonpayable"},{"type":"fallback","stateMutability":"payable"},{"type":"receive","stateMutability":"payable"},{"type":"function","name":"createCrowd","inputs":[{"name":"_nameCrowd","type":"string","internalType":"string"},{"name":"_target","type":"uint256","internalType":"uint256"},{"name":"_endTime","type":"uint32","internalType":"uint32"},{"name":"_scriptCrowd","type":"string","internalType":"string"}],"outputs":[],"stateMutability":"nonpayable"},{"type":"function","name":"createProfileDoctor","inputs":[{"name":"_idDoctor","type":"uint256","internalType":"uint256"},{"name":"_name","type":"string","internalType":"string"},{"name":"_age","type":"uint8","internalType":"uint8"}],"outputs":[],"stateMutability":"nonpayable"},{"type":"function","name":"createProfilePatient","inputs":[{"name":"_name","type":"string","internalType":"string"},{"name":"_age","type":"uint8","internalType":"uint8"}],"outputs":[],"stateMutability":"nonpayable"},{"type":"function","name":"crowdToOwner","inputs":[{"name":"","type":"uint256","internalType":"uint256"}],"outputs":[{"name":"","type":"address","internalType":"address"}],"stateMutability":"view"},{"type":"function","name":"crowds","inputs":[{"name":"","type":"uint256","internalType":"uint256"}],"outputs":[{"name":"nameCrowd","type":"string","internalType":"string"},{"name":"target","type":"uint256","internalType":"uint256"},{"name":"endTime","type":"uint32","internalType":"uint32"},{"name":"nameHost","type":"string","internalType":"string"},{"name":"adrHost","type":"address","internalType":"address"},{"name":"scriptCrowd","type":"string","internalType":"string"}],"stateMutability":"view"},{"type":"function","name":"dataTransfer","inputs":[],"outputs":[{"name":"","type":"address","internalType":"contract IDataTransfer"}],"stateMutability":"view"},{"type":"function","name":"doctors","inputs":[{"name":"","type":"uint256","internalType":"uint256"}],"outputs":[{"name":"idDoctor","type":"uint256","internalType":"uint256"},{"name":"name","type":"string","internalType":"string"},{"name":"age","type":"uint8","internalType":"uint8"},{"name":"walletAddress","type":"address","internalType":"address"},{"name":"rating","type":"uint8","internalType":"uint8"}],"stateMutability":"view"},{"type":"function","name":"endCrowdfunding","inputs":[],"outputs":[],"stateMutability":"nonpayable"},{"type":"function","name":"fundToCrowd","inputs":[],"outputs":[],"stateMutability":"payable"},{"type":"function","name":"funderToAmount","inputs":[{"name":"","type":"address","internalType":"address"}],"outputs":[{"name":"","type":"uint256","internalType":"uint256"}],"stateMutability":"view"},{"type":"function","name":"funders","inputs":[{"name":"","type":"uint256","internalType":"uint256"}],"outputs":[{"name":"","type":"address","internalType":"address"}],"stateMutability":"view"},{"type":"function","name":"getRecord","inputs":[{"name":"patient","type":"address","internalType":"address"}],"outputs":[{"name":"","type":"string","internalType":"string"}],"stateMutability":"view"},{"type":"function","name":"grantAccess","inputs":[{"name":"doctor","type":"address","internalType":"address"}],"outputs":[],"stateMutability":"nonpayable"},{"type":"function","name":"isFunders","inputs":[{"name":"","type":"address","internalType":"address"}],"outputs":[{"name":"","type":"bool","internalType":"bool"}],"stateMutability":"view"},{"type":"function","name":"owner","inputs":[],"outputs":[{"name":"","type":"address","internalType":"address"}],"stateMutability":"view"},{"type":"function","name":"ownerCrowdCount","inputs":[{"name":"","type":"address","internalType":"address"}],"outputs":[{"name":"","type":"uint256","internalType":"uint256"}],"stateMutability":"view"},{"type":"function","name":"patients","inputs":[{"name":"","type":"uint256","internalType":"uint256"}],"outputs":[{"name":"name","type":"string","internalType":"string"},{"name":"age","type":"uint8","internalType":"uint8"},{"name":"walletAddress","type":"address","internalType":"address"}],"stateMutability":"view"},{"type":"function","name":"profileToOwner","inputs":[{"name":"","type":"address","internalType":"address"}],"outputs":[{"name":"","type":"uint256","internalType":"uint256"}],"stateMutability":"view"},{"type":"function","name":"renounceOwnership","inputs":[],"outputs":[],"stateMutability":"nonpayable"},{"type":"function","name":"revokeAccess","inputs":[{"name":"doctor","type":"address","internalType":"address"}],"outputs":[],"stateMutability":"nonpayable"},{"type":"function","name":"setDataTransferAddress","inputs":[{"name":"_address","type":"address","internalType":"address"}],"outputs":[],"stateMutability":"nonpayable"},{"type":"function","name":"storeRecord","inputs":[{"name":"_id","type":"uint256","internalType":"uint256"},{"name":"ipfsHash","type":"string","internalType":"string"}],"outputs":[],"stateMutability":"nonpayable"},{"type":"function","name":"transferOwnership","inputs":[{"name":"newOwner","type":"address","internalType":"address"}],"outputs":[],"stateMutability":"nonpayable"},{"type":"function","name":"withDraw","inputs":[],"outputs":[],"stateMutability":"nonpayable"},{"type":"event","name":"AccessGranted","inputs":[{"name":"patient","type":"address","indexed":true,"internalType":"address"},{"name":"doctor","type":"address","indexed":true,"internalType":"address"}],"anonymous":false},{"type":"event","name":"AccessRevoked","inputs":[{"name":"patient","type":"address","indexed":true,"internalType":"address"},{"name":"doctor","type":"address","indexed":true,"internalType":"address"}],"anonymous":false},{"type":"event","name":"HostCrowdFunding","inputs":[{"name":"nameCrowd","type":"string","indexed":false,"internalType":"string"},{"name":"target","type":"uint256","indexed":false,"internalType":"uint256"},{"name":"endTime","type":"uint32","indexed":false,"internalType":"uint32"},{"name":"nameDoctorHost","type":"string","indexed":false,"internalType":"string"}],"anonymous":false},{"type":"event","name":"NewUser","inputs":[{"name":"patientId","type":"uint256","indexed":false,"internalType":"uint256"},{"name":"name","type":"string","indexed":false,"internalType":"string"},{"name":"age","type":"uint256","indexed":false,"internalType":"uint256"}],"anonymous":false},{"type":"event","name":"OwnershipTransferred","inputs":[{"name":"previousOwner","type":"address","indexed":true,"internalType":"address"},{"name":"newOwner","type":"address","indexed":true,"internalType":"address"}],"anonymous":false},{"type":"event","name":"RecordStored","inputs":[{"name":"patient","type":"address","indexed":true,"internalType":"address"},{"name":"ipfsHash","type":"string","indexed":false,"internalType":"string"}],"anonymous":false},{"type":"error","name":"OwnableInvalidOwner","inputs":[{"name":"owner","type":"address","internalType":"address"}]},{"type":"error","name":"OwnableUnauthorizedAccount","inputs":[{"name":"account","type":"address","internalType":"address"}]}],"bytecode":{"object":"0x6080604052348015600f57600080fd5b50604051611b74380380611b74833981016040819052602c9160b0565b803380605257604051631e4fbdf760e01b81526000600482015260240160405180910390fd5b6059816060565b50505060de565b600080546001600160a01b038381166001600160a01b0319831681178455604051919092169283917f8be0079c531659141344cd1fd0a4f28419497f9722a3daafe3b4186f6b6457e09190a35050565b60006020828403121560c157600080fd5b81516001600160a01b038116811460d757600080fd5b9392505050565b611a87806100ed6000396000f3fe60806040526004361061014f5760003560e01c806392ce1e41116100b6578063cde2d23b1161006f578063cde2d23b14610425578063cf718fdc14610445578063dc0d3dff14610485578063e9fa8814146104a5578063ed32f2b0146104d2578063f2fde38b146104de5761015e565b806392ce1e4114610337578063930b8ef11461036957806393119a83146103895780639ad8180f146103b8578063b8735101146103e5578063c88bde70146104055761015e565b806358d3eab01161010857806358d3eab014610238578063617fba04146102865780636efb1b84146102b3578063715018a6146102e457806385e68531146102f95780638da5cb5b146103195761015e565b80630ae5e739146101665780630fdb1c1014610186578063105fbbc91461015e5780631ccdfc321461019b5780632f700955146101bb5780634407e1e8146101f85761015e565b3661015e5761015c6104fe565b005b61015c6104fe565b34801561017257600080fd5b5061015c610181366004611379565b610598565b34801561019257600080fd5b5061015c610698565b3480156101a757600080fd5b5061015c6101b6366004611484565b6106a2565b3480156101c757600080fd5b5061015c6101d6366004611379565b600180546001600160a01b0319166001600160a01b0392909216919091179055565b34801561020457600080fd5b50610225610213366004611379565b60086020526000908152604090205481565b6040519081526020015b60405180910390f35b34801561024457600080fd5b5061026e6102533660046114d2565b600b602052600090815260409020546001600160a01b031681565b6040516001600160a01b03909116815260200161022f565b34801561029257600080fd5b506102a66102a1366004611379565b6107ea565b60405161022f919061153b565b3480156102bf57600080fd5b506102d36102ce3660046114d2565b6108c4565b60405161022f95949392919061154e565b3480156102f057600080fd5b5061015c6109a0565b34801561030557600080fd5b5061015c610314366004611379565b6109b2565b34801561032557600080fd5b506000546001600160a01b031661026e565b34801561034357600080fd5b506103576103523660046114d2565b610aad565b60405161022f96959493929190611594565b34801561037557600080fd5b5061015c6103843660046115fb565b610cab565b34801561039557600080fd5b506103a96103a43660046114d2565b610f1f565b60405161022f93929190611689565b3480156103c457600080fd5b506102256103d3366004611379565b60056020526000908152604090205481565b3480156103f157600080fd5b5061015c6104003660046116bf565b610fef565b34801561041157600080fd5b5060015461026e906001600160a01b031681565b34801561043157600080fd5b5061015c610440366004611716565b6111ee565b34801561045157600080fd5b50610475610460366004611379565b60076020526000908152604090205460ff1681565b604051901515815260200161022f565b34801561049157600080fd5b5061026e6104a03660046114d2565b611297565b3480156104b157600080fd5b506102256104c0366004611379565b600c6020526000908152604090205481565b34801561015c57600080fd5b3480156104ea57600080fd5b5061015c6104f9366004611379565b6112c1565b336000908152600860205260408120805434929061051d908490611773565b90915550503360009081526007602052604090205460ff1680610595576009805460018181019092557f6e1540171b6c0c960b71a7020d9f60077f6af931a8bbf590da0223dacf75c7af0180546001600160a01b031916339081179091556000908152600760205260409020805460ff191690911790555b50565b6001600160a01b03811660009081526004602052604090205460ff166106005760405162461bcd60e51b815260206004820152601860248201527720b2323932b9b99034b9903737ba1030903237b1ba37b91760411b60448201526064015b60405180910390fd5b600154604051630ae5e73960e01b81526001600160a01b03838116600483015290911690630ae5e73990602401600060405180830381600087803b15801561064757600080fd5b505af115801561065b573d6000803e3d6000fd5b50506040516001600160a01b03841692503391507f9f520b3bfc56d06f7065d10b4683b3f57ac8895d5026cd176dee95ce1454cb8d90600090a350565b6106a06112fc565b565b33600090815260066020526040902054156106cf5760405162461bcd60e51b81526004016105f790611786565b6040805160608101825283815260ff831660208201523391810191909152600280546001810182556000829052825191027f405787fa12a823e0f2b7631cc41b3ba8828b3321ca811111fa75cd3aa3bb5ace0190819061072f9082611851565b506020820151600191820180546040909401516001600160a01b0316610100026001600160a81b031990941660ff909216919091179290921790915560025460009161077a91611910565b336000908152600560209081526040808320849055600690915281208054929350906107a583611923565b91905055507fd86dca2e2544318fbca4769e2f7ea2bba8eeb0f445dd717aef0d3c84670baa418184846040516107dd9392919061193c565b60405180910390a1505050565b3360009081526004602052604090205460609060ff1661084c5760405162461bcd60e51b815260206004820152601e60248201527f4f6e6c7920646f63746f72732063616e2076696577207265636f7264732e000060448201526064016105f7565b60015460405163185fee8160e21b81526001600160a01b0384811660048301529091169063617fba0490602401600060405180830381865afa158015610896573d6000803e3d6000fd5b505050506040513d6000823e601f3d908101601f191682016040526108be9190810190611968565b92915050565b600381815481106108d457600080fd5b600091825260209091206003909102018054600182018054919350906108f9906117c8565b80601f0160208091040260200160405190810160405280929190818152602001828054610925906117c8565b80156109725780601f1061094757610100808354040283529160200191610972565b820191906000526020600020905b81548152906001019060200180831161095557829003601f168201915b5050506002909301549192505060ff808216916001600160a01b0361010082041691600160a81b9091041685565b6109a86112fc565b6106a06000611329565b6001600160a01b03811660009081526004602052604090205460ff16610a155760405162461bcd60e51b815260206004820152601860248201527720b2323932b9b99034b9903737ba1030903237b1ba37b91760411b60448201526064016105f7565b6001546040516385e6853160e01b81526001600160a01b038381166004830152909116906385e6853190602401600060405180830381600087803b158015610a5c57600080fd5b505af1158015610a70573d6000803e3d6000fd5b50506040516001600160a01b03841692503391507f825c8be24eb0df19500f63e86c29e7d0d951e73056b889b891d85e40938d9b6e90600090a350565b600a8181548110610abd57600080fd5b9060005260206000209060060201600091509050806000018054610ae0906117c8565b80601f0160208091040260200160405190810160405280929190818152602001828054610b0c906117c8565b8015610b595780601f10610b2e57610100808354040283529160200191610b59565b820191906000526020600020905b815481529060010190602001808311610b3c57829003601f168201915b50505050600183015460028401546003850180549495929463ffffffff909216935090610b85906117c8565b80601f0160208091040260200160405190810160405280929190818152602001828054610bb1906117c8565b8015610bfe5780601f10610bd357610100808354040283529160200191610bfe565b820191906000526020600020905b815481529060010190602001808311610be157829003601f168201915b505050600484015460058501805494956001600160a01b03909216949193509150610c28906117c8565b80601f0160208091040260200160405190810160405280929190818152602001828054610c54906117c8565b8015610ca15780601f10610c7657610100808354040283529160200191610ca1565b820191906000526020600020905b815481529060010190602001808311610c8457829003601f168201915b5050505050905086565b3360009081526004602052604090205460ff16610d165760405162461bcd60e51b815260206004820152602360248201527f6f6e6c7920646f63746f72732063616e2063616c6c20746869732066756e637460448201526234b7b760e91b60648201526084016105f7565b336000908152600c602052604090205460021015610d765760405162461bcd60e51b815260206004820152601960248201527f4f6e6c79203220686f737420666f72203120646f63746f72210000000000000060448201526064016105f7565b6040805160c081018252858152602080820186905263ffffffff85168284015282518084019093526008835267446f63746f72204b60c01b90830152606081019190915233608082015260a08101829052600a8054600181018255600091909152815160069091027fc65a7bb8d6351c1cf70c95a316cc6a92839c986682d98bc35f958f4883f9d2a801908190610e0d9082611851565b5060208201516001820155604082015160028201805463ffffffff191663ffffffff90921691909117905560608201516003820190610e4c9082611851565b5060808201516004820180546001600160a01b0319166001600160a01b0390921691909117905560a08201516005820190610e879082611851565b5050600a5460009150610e9c90600190611910565b6000818152600b6020908152604080832080546001600160a01b031916339081179091558352600c9091528120805492935090610ed883611923565b91905055507f69e156612586a9b6531cb151ff6ab9fa7b57cccd6dda6e25654707eb055ce667858585604051610f10939291906119df565b60405180910390a15050505050565b60028181548110610f2f57600080fd5b9060005260206000209060020201600091509050806000018054610f52906117c8565b80601f0160208091040260200160405190810160405280929190818152602001828054610f7e906117c8565b8015610fcb5780601f10610fa057610100808354040283529160200191610fcb565b820191906000526020600020905b815481529060010190602001808311610fae57829003601f168201915b5050506001909301549192505060ff8116906001600160a01b036101009091041683565b336000908152600660205260409020541561101c5760405162461bcd60e51b81526004016105f790611786565b61271083116110645760405162461bcd60e51b815260206004820152601460248201527315185ad9481a5908199bdc9b481a1bdc1a5d185b60621b60448201526064016105f7565b6040805160a0810182528481526020810184815260ff8416928201929092523360608201526000608082018190526003805460018101825591819052825191027fc2575a0e9e593c00f959f8c92f12db2869c3395a3b0502d05e2516446f71f85b81019182559251919290917fc2575a0e9e593c00f959f8c92f12db2869c3395a3b0502d05e2516446f71f85c909101906110ff9082611851565b50604082015160029091018054606084015160809094015160ff908116600160a81b0260ff60a81b196001600160a01b03909616610100026001600160a81b03199093169190941617179290921617905560035460009061116290600190611910565b3360009081526005602090815260408083208490556006909152812080549293509061118d83611923565b90915550503360009081526004602052604090819020805460ff19166001179055517fd86dca2e2544318fbca4769e2f7ea2bba8eeb0f445dd717aef0d3c84670baa41906111e09083908690869061193c565b60405180910390a150505050565b60015460405163cde2d23b60e01b81526001600160a01b039091169063cde2d23b906112209085908590600401611a30565b600060405180830381600087803b15801561123a57600080fd5b505af115801561124e573d6000803e3d6000fd5b50505050336001600160a01b03167f9030e73d33af80bdf3d4bb5ed5de0b053a3e66e0560332ff6b5b975cf3464f438260405161128b919061153b565b60405180910390a25050565b600981815481106112a757600080fd5b6000918252602090912001546001600160a01b0316905081565b6112c96112fc565b6001600160a01b0381166112f357604051631e4fbdf760e01b8152600060048201526024016105f7565b61059581611329565b6000546001600160a01b031633146106a05760405163118cdaa760e01b81523360048201526024016105f7565b600080546001600160a01b038381166001600160a01b0319831681178455604051919092169283917f8be0079c531659141344cd1fd0a4f28419497f9722a3daafe3b4186f6b6457e09190a35050565b60006020828403121561138b57600080fd5b81356001600160a01b03811681146113a257600080fd5b9392505050565b634e487b7160e01b600052604160045260246000fd5b604051601f8201601f1916810167ffffffffffffffff811182821017156113e8576113e86113a9565b604052919050565b600067ffffffffffffffff82111561140a5761140a6113a9565b50601f01601f191660200190565b600082601f83011261142957600080fd5b813561143c611437826113f0565b6113bf565b81815284602083860101111561145157600080fd5b816020850160208301376000918101602001919091529392505050565b803560ff8116811461147f57600080fd5b919050565b6000806040838503121561149757600080fd5b823567ffffffffffffffff8111156114ae57600080fd5b6114ba85828601611418565b9250506114c96020840161146e565b90509250929050565b6000602082840312156114e457600080fd5b5035919050565b60005b838110156115065781810151838201526020016114ee565b50506000910152565b600081518084526115278160208601602086016114eb565b601f01601f19169290920160200192915050565b6020815260006113a2602083018461150f565b85815260a06020820152600061156760a083018761150f565b60ff95861660408401526001600160a01b0394909416606083015250921660809092019190915292915050565b60c0815260006115a760c083018961150f565b87602084015263ffffffff8716604084015282810360608401526115cb818761150f565b6001600160a01b038616608085015283810360a085015290506115ee818561150f565b9998505050505050505050565b6000806000806080858703121561161157600080fd5b843567ffffffffffffffff81111561162857600080fd5b61163487828801611418565b94505060208501359250604085013563ffffffff8116811461165557600080fd5b9150606085013567ffffffffffffffff81111561167157600080fd5b61167d87828801611418565b91505092959194509250565b60608152600061169c606083018661150f565b60ff949094166020830152506001600160a01b0391909116604090910152919050565b6000806000606084860312156116d457600080fd5b83359250602084013567ffffffffffffffff8111156116f257600080fd5b6116fe86828701611418565b92505061170d6040850161146e565b90509250925092565b6000806040838503121561172957600080fd5b82359150602083013567ffffffffffffffff81111561174757600080fd5b61175385828601611418565b9150509250929050565b634e487b7160e01b600052601160045260246000fd5b808201808211156108be576108be61175d565b60208082526022908201527f596f7520616c7265616479206861766520612070617469656e742070726f66696040820152616c6560f01b606082015260800190565b600181811c908216806117dc57607f821691505b6020821081036117fc57634e487b7160e01b600052602260045260246000fd5b50919050565b601f82111561184c57806000526020600020601f840160051c810160208510156118295750805b601f840160051c820191505b818110156118495760008155600101611835565b50505b505050565b815167ffffffffffffffff81111561186b5761186b6113a9565b61187f8161187984546117c8565b84611802565b6020601f8211600181146118b3576000831561189b5750848201515b600019600385901b1c1916600184901b178455611849565b600084815260208120601f198516915b828110156118e357878501518255602094850194600190920191016118c3565b50848210156119015786840151600019600387901b60f8161c191681555b50505050600190811b01905550565b818103818111156108be576108be61175d565b6000600182016119355761193561175d565b5060010190565b838152606060208201526000611955606083018561150f565b905060ff83166040830152949350505050565b60006020828403121561197a57600080fd5b815167ffffffffffffffff81111561199157600080fd5b8201601f810184136119a257600080fd5b80516119b0611437826113f0565b8181528560208385010111156119c557600080fd5b6119d68260208301602086016114eb565b95945050505050565b6080815260006119f2608083018661150f565b84602084015263ffffffff8416604084015282810360608401526008815267446f63746f72204b60c01b602082015260408101915050949350505050565b828152604060208201526000611a49604083018461150f565b94935050505056fea2646970667358221220ee436eeee9428af8b6f287e5dc72d5a9b7d009bd20e301ee53dd5a45d3aecad764736f6c634300081a0033","linkReferences":{}},"methodIdentifiers":{"createCrowd(string,uint256,uint32,string)":"930b8ef1","createProfileDoctor(uint256,string,uint8)":"b8735101","createProfilePatient(string,uint8)":"1ccdfc32","crowdToOwner(uint256)":"58d3eab0","crowds(uint256)":"92ce1e41","dataTransfer()":"c88bde70","doctors(uint256)":"6efb1b84","endCrowdfunding()":"ed32f2b0","fundToCrowd()":"105fbbc9","funderToAmount(address)":"4407e1e8","funders(uint256)":"dc0d3dff","getRecord(address)":"617fba04","grantAccess(address)":"0ae5e739","isFunders(address)":"cf718fdc","owner()":"8da5cb5b","ownerCrowdCount(address)":"e9fa8814","patients(uint256)":"93119a83","profileToOwner(address)":"9ad8180f","renounceOwnership()":"715018a6","revokeAccess(address)":"85e68531","setDataTransferAddress(address)":"2f700955","storeRecord(uint256,string)":"cde2d23b","transferOwnership(address)":"f2fde38b","withDraw()":"0fdb1c10"},"id":28}