{"abi":[{"type":"constructor","inputs":[{"name":"_owner","type":"address","internalType":"address"}],"stateMutability":"nonpayable"},{"type":"fallback","stateMutability":"payable"},{"type":"receive","stateMutability":"payable"},{"type":"function","name":"createCrowd","inputs":[{"name":"_nameCrowd","type":"string","internalType":"string"},{"name":"_target","type":"uint256","internalType":"uint256"},{"name":"_endTime","type":"uint32","internalType":"uint32"},{"name":"_nameHost","type":"string","internalType":"string"},{"name":"_scriptCrowd","type":"string","internalType":"string"}],"outputs":[],"stateMutability":"nonpayable"},{"type":"function","name":"createProfileDoctor","inputs":[{"name":"_idDoctor","type":"uint256","internalType":"uint256"},{"name":"_name","type":"string","internalType":"string"},{"name":"_age","type":"uint8","internalType":"uint8"}],"outputs":[],"stateMutability":"nonpayable"},{"type":"function","name":"createProfilePatient","inputs":[{"name":"_name","type":"string","internalType":"string"},{"name":"_age","type":"uint8","internalType":"uint8"}],"outputs":[],"stateMutability":"nonpayable"},{"type":"function","name":"crowdToOwner","inputs":[{"name":"","type":"uint256","internalType":"uint256"}],"outputs":[{"name":"","type":"address","internalType":"address"}],"stateMutability":"view"},{"type":"function","name":"crowds","inputs":[{"name":"","type":"uint256","internalType":"uint256"}],"outputs":[{"name":"nameCrowd","type":"string","internalType":"string"},{"name":"target","type":"uint256","internalType":"uint256"},{"name":"endTime","type":"uint32","internalType":"uint32"},{"name":"nameHost","type":"string","internalType":"string"},{"name":"adrHost","type":"address","internalType":"address"},{"name":"scriptCrowd","type":"string","internalType":"string"}],"stateMutability":"view"},{"type":"function","name":"dataTransfer","inputs":[],"outputs":[{"name":"","type":"address","internalType":"contract IDataTransfer"}],"stateMutability":"view"},{"type":"function","name":"doctorPatientRecords","inputs":[{"name":"","type":"address","internalType":"address"},{"name":"","type":"address","internalType":"address"}],"outputs":[{"name":"","type":"bool","internalType":"bool"}],"stateMutability":"view"},{"type":"function","name":"doctorRatings","inputs":[{"name":"","type":"address","internalType":"address"}],"outputs":[{"name":"totalRating","type":"uint8","internalType":"uint8"},{"name":"numberOfRatings","type":"uint8","internalType":"uint8"}],"stateMutability":"view"},{"type":"function","name":"doctors","inputs":[{"name":"","type":"uint256","internalType":"uint256"}],"outputs":[{"name":"idDoctor","type":"uint256","internalType":"uint256"},{"name":"name","type":"string","internalType":"string"},{"name":"age","type":"uint8","internalType":"uint8"},{"name":"walletAddress","type":"address","internalType":"address"},{"name":"rating","type":"uint8","internalType":"uint8"}],"stateMutability":"view"},{"type":"function","name":"endCrowdfunding","inputs":[],"outputs":[],"stateMutability":"nonpayable"},{"type":"function","name":"fundToCrowd","inputs":[],"outputs":[],"stateMutability":"payable"},{"type":"function","name":"funderToAmount","inputs":[{"name":"","type":"address","internalType":"address"}],"outputs":[{"name":"","type":"uint256","internalType":"uint256"}],"stateMutability":"view"},{"type":"function","name":"funders","inputs":[{"name":"","type":"uint256","internalType":"uint256"}],"outputs":[{"name":"","type":"address","internalType":"address"}],"stateMutability":"view"},{"type":"function","name":"getIpfsHash","inputs":[{"name":"patient","type":"address","internalType":"address"}],"outputs":[{"name":"","type":"string","internalType":"string"}],"stateMutability":"view"},{"type":"function","name":"grantAccess","inputs":[{"name":"doctor","type":"address","internalType":"address"}],"outputs":[],"stateMutability":"nonpayable"},{"type":"function","name":"isFunders","inputs":[{"name":"","type":"address","internalType":"address"}],"outputs":[{"name":"","type":"bool","internalType":"bool"}],"stateMutability":"view"},{"type":"function","name":"owner","inputs":[],"outputs":[{"name":"","type":"address","internalType":"address"}],"stateMutability":"view"},{"type":"function","name":"ownerCrowdCount","inputs":[{"name":"","type":"address","internalType":"address"}],"outputs":[{"name":"","type":"uint256","internalType":"uint256"}],"stateMutability":"view"},{"type":"function","name":"patients","inputs":[{"name":"","type":"uint256","internalType":"uint256"}],"outputs":[{"name":"name","type":"string","internalType":"string"},{"name":"age","type":"uint8","internalType":"uint8"},{"name":"walletAddress","type":"address","internalType":"address"}],"stateMutability":"view"},{"type":"function","name":"profileToOwner","inputs":[{"name":"","type":"address","internalType":"address"}],"outputs":[{"name":"","type":"uint256","internalType":"uint256"}],"stateMutability":"view"},{"type":"function","name":"ratingDoctor","inputs":[{"name":"_walletAddressDoctor","type":"address","internalType":"address"},{"name":"_rating","type":"uint8","internalType":"uint8"}],"outputs":[],"stateMutability":"nonpayable"},{"type":"function","name":"renounceOwnership","inputs":[],"outputs":[],"stateMutability":"nonpayable"},{"type":"function","name":"revokeAccess","inputs":[{"name":"doctor","type":"address","internalType":"address"}],"outputs":[],"stateMutability":"nonpayable"},{"type":"function","name":"setDataTransferAddress","inputs":[{"name":"_address","type":"address","internalType":"address"}],"outputs":[],"stateMutability":"nonpayable"},{"type":"function","name":"storeRecord","inputs":[{"name":"_id","type":"uint256","internalType":"uint256"},{"name":"ipfsHash","type":"string","internalType":"string"}],"outputs":[],"stateMutability":"nonpayable"},{"type":"function","name":"transferOwnership","inputs":[{"name":"newOwner","type":"address","internalType":"address"}],"outputs":[],"stateMutability":"nonpayable"},{"type":"function","name":"withDraw","inputs":[],"outputs":[],"stateMutability":"nonpayable"},{"type":"event","name":"AccessGranted","inputs":[{"name":"patient","type":"address","indexed":true,"internalType":"address"},{"name":"doctor","type":"address","indexed":true,"internalType":"address"}],"anonymous":false},{"type":"event","name":"AccessRevoked","inputs":[{"name":"patient","type":"address","indexed":true,"internalType":"address"},{"name":"doctor","type":"address","indexed":true,"internalType":"address"}],"anonymous":false},{"type":"event","name":"HostCrowdFunding","inputs":[{"name":"nameCrowd","type":"string","indexed":false,"internalType":"string"},{"name":"target","type":"uint256","indexed":false,"internalType":"uint256"},{"name":"endTime","type":"uint32","indexed":false,"internalType":"uint32"},{"name":"nameDoctorHost","type":"string","indexed":false,"internalType":"string"}],"anonymous":false},{"type":"event","name":"NewUser","inputs":[{"name":"patientId","type":"uint256","indexed":false,"internalType":"uint256"},{"name":"name","type":"string","indexed":false,"internalType":"string"},{"name":"age","type":"uint256","indexed":false,"internalType":"uint256"}],"anonymous":false},{"type":"event","name":"OwnershipTransferred","inputs":[{"name":"previousOwner","type":"address","indexed":true,"internalType":"address"},{"name":"newOwner","type":"address","indexed":true,"internalType":"address"}],"anonymous":false},{"type":"event","name":"RecordStored","inputs":[{"name":"patient","type":"address","indexed":true,"internalType":"address"},{"name":"ipfsHash","type":"string","indexed":false,"internalType":"string"}],"anonymous":false},{"type":"error","name":"OwnableInvalidOwner","inputs":[{"name":"owner","type":"address","internalType":"address"}]},{"type":"error","name":"OwnableUnauthorizedAccount","inputs":[{"name":"account","type":"address","internalType":"address"}]}],"bytecode":{"object":"0x6080604052348015600f57600080fd5b5060405161203e38038061203e833981016040819052602c9160b0565b803380605257604051631e4fbdf760e01b81526000600482015260240160405180910390fd5b6059816060565b50505060de565b600080546001600160a01b038381166001600160a01b0319831681178455604051919092169283917f8be0079c531659141344cd1fd0a4f28419497f9722a3daafe3b4186f6b6457e09190a35050565b60006020828403121560c157600080fd5b81516001600160a01b038116811460d757600080fd5b9392505050565b611f51806100ed6000396000f3fe6080604052600436106101a05760003560e01c80638da5cb5b116100ec578063cde2d23b1161008a578063dc0d3dff11610064578063dc0d3dff14610584578063e9fa8814146105a4578063ed32f2b0146105d1578063f2fde38b146105dd576101af565b8063cde2d23b14610507578063cf718fdc14610527578063d8da2fa814610557576101af565b80639ad8180f116100c65780639ad8180f14610447578063b800686214610474578063b8735101146104c7578063c88bde70146104e7576101af565b80638da5cb5b146103c857806392ce1e41146103e657806393119a8314610418576101af565b80634407e1e811610159578063715018a611610133578063715018a614610353578063782dbac81461036857806385e68531146103885780638a7d2a0c146103a8576101af565b80634407e1e81461029957806358d3eab0146102d45780636efb1b8414610322576101af565b80630ae5e739146101b75780630fdb1c10146101d7578063105fbbc9146101af57806317a4ad81146101ec5780631ccdfc321461023c5780632f7009551461025c576101af565b366101af576101ad6105fd565b005b6101ad6105fd565b3480156101c357600080fd5b506101ad6101d2366004611786565b610697565b3480156101e357600080fd5b506101ad610814565b3480156101f857600080fd5b506102276102073660046117a8565b600860209081526000928352604080842090915290825290205460ff1681565b60405190151581526020015b60405180910390f35b34801561024857600080fd5b506101ad6102573660046118b1565b61081e565b34801561026857600080fd5b506101ad610277366004611786565b600180546001600160a01b0319166001600160a01b0392909216919091179055565b3480156102a557600080fd5b506102c66102b4366004611786565b600a6020526000908152604090205481565b604051908152602001610233565b3480156102e057600080fd5b5061030a6102ef3660046118f6565b600d602052600090815260409020546001600160a01b031681565b6040516001600160a01b039091168152602001610233565b34801561032e57600080fd5b5061034261033d3660046118f6565b610966565b60405161023395949392919061195f565b34801561035f57600080fd5b506101ad610a42565b34801561037457600080fd5b506101ad6103833660046119a5565b610a54565b34801561039457600080fd5b506101ad6103a3366004611786565b610cb0565b3480156103b457600080fd5b506101ad6103c3366004611a5f565b610dab565b3480156103d457600080fd5b506000546001600160a01b031661030a565b3480156103f257600080fd5b506104066104013660046118f6565b610fce565b60405161023396959493929190611a89565b34801561042457600080fd5b506104386104333660046118f6565b6111cc565b60405161023393929190611af0565b34801561045357600080fd5b506102c6610462366004611786565b60056020526000908152604090205481565b34801561048057600080fd5b506104ad61048f366004611786565b60076020526000908152604090205460ff8082169161010090041682565b6040805160ff938416815292909116602083015201610233565b3480156104d357600080fd5b506101ad6104e2366004611b26565b61129c565b3480156104f357600080fd5b5060015461030a906001600160a01b031681565b34801561051357600080fd5b506101ad610522366004611b7d565b61149b565b34801561053357600080fd5b50610227610542366004611786565b60096020526000908152604090205460ff1681565b34801561056357600080fd5b50610577610572366004611786565b6115ae565b6040516102339190611bc4565b34801561059057600080fd5b5061030a61059f3660046118f6565b611688565b3480156105b057600080fd5b506102c66105bf366004611786565b600e6020526000908152604090205481565b3480156101ad57600080fd5b3480156105e957600080fd5b506101ad6105f8366004611786565b6116b2565b336000908152600a60205260408120805434929061061c908490611bed565b90915550503360009081526009602052604090205460ff168061069457600b805460018181019092557f0175b7a638427703f0dbe7bb9bbf987a2551717b34e79f33b5b1008d1fa01db90180546001600160a01b031916339081179091556000908152600960205260409020805460ff191690911790555b50565b6001600160a01b03811660009081526004602052604090205460ff166106ff5760405162461bcd60e51b815260206004820152601860248201527720b2323932b9b99034b9903737ba1030903237b1ba37b91760411b60448201526064015b60405180910390fd5b600154604051630ae5e73960e01b81526001600160a01b03838116600483015290911690630ae5e73990602401600060405180830381600087803b15801561074657600080fd5b505af115801561075a573d6000803e3d6000fd5b50506040516001600160a01b03841692503391507f9f520b3bfc56d06f7065d10b4683b3f57ac8895d5026cd176dee95ce1454cb8d90600090a36001600160a01b0381166107e35760405162461bcd60e51b8152602060048201526016602482015275496e76616c696420646f63746f72206164647265737360501b60448201526064016106f6565b3360009081526008602090815260408083206001600160a01b0394909416835292905220805460ff19166001179055565b61081c6116ed565b565b336000908152600660205260409020541561084b5760405162461bcd60e51b81526004016106f690611c00565b6040805160608101825283815260ff831660208201523391810191909152600280546001810182556000829052825191027f405787fa12a823e0f2b7631cc41b3ba8828b3321ca811111fa75cd3aa3bb5ace019081906108ab9082611ccb565b506020820151600191820180546040909401516001600160a01b0316610100026001600160a81b031990941660ff90921691909117929092179091556002546000916108f691611d8a565b3360009081526005602090815260408083208490556006909152812080549293509061092183611d9d565b91905055507fd86dca2e2544318fbca4769e2f7ea2bba8eeb0f445dd717aef0d3c84670baa4181848460405161095993929190611db6565b60405180910390a1505050565b6003818154811061097657600080fd5b6000918252602090912060039091020180546001820180549193509061099b90611c42565b80601f01602080910402602001604051908101604052809291908181526020018280546109c790611c42565b8015610a145780601f106109e957610100808354040283529160200191610a14565b820191906000526020600020905b8154815290600101906020018083116109f757829003601f168201915b5050506002909301549192505060ff808216916001600160a01b0361010082041691600160a81b9091041685565b610a4a6116ed565b61081c600061171a565b3360009081526004602052604090205460ff16610abf5760405162461bcd60e51b815260206004820152602360248201527f6f6e6c7920646f63746f72732063616e2063616c6c20746869732066756e637460448201526234b7b760e91b60648201526084016106f6565b336000908152600e602052604090205460021015610b1f5760405162461bcd60e51b815260206004820152601960248201527f4f6e6c79203220686f737420666f72203120646f63746f72210000000000000060448201526064016106f6565b6040805160c0810182528681526020810186905263ffffffff8516918101919091526060810183905233608082015260a08101829052600c8054600181018255600091909152815160069091027fdf6966c971051c3d54ec59162606531493a51404a002842f56009d7e5cf4a8c701908190610b9b9082611ccb565b5060208201516001820155604082015160028201805463ffffffff191663ffffffff90921691909117905560608201516003820190610bda9082611ccb565b5060808201516004820180546001600160a01b0319166001600160a01b0390921691909117905560a08201516005820190610c159082611ccb565b5050600c5460009150610c2a90600190611d8a565b6000818152600d6020908152604080832080546001600160a01b031916339081179091558352600e9091528120805492935090610c6683611d9d565b91905055507f69e156612586a9b6531cb151ff6ab9fa7b57cccd6dda6e25654707eb055ce66786868686604051610ca09493929190611de2565b60405180910390a1505050505050565b6001600160a01b03811660009081526004602052604090205460ff16610d135760405162461bcd60e51b815260206004820152601860248201527720b2323932b9b99034b9903737ba1030903237b1ba37b91760411b60448201526064016106f6565b6001546040516385e6853160e01b81526001600160a01b038381166004830152909116906385e6853190602401600060405180830381600087803b158015610d5a57600080fd5b505af1158015610d6e573d6000803e3d6000fd5b50506040516001600160a01b03841692503391507f825c8be24eb0df19500f63e86c29e7d0d951e73056b889b891d85e40938d9b6e90600090a350565b60018160ff1610158015610dc3575060058160ff1611155b610e075760405162461bcd60e51b81526020600482015260156024820152744f6e6c7920726174652066726f6d203120746f203560581b60448201526064016106f6565b3360009081526008602090815260408083206001600160a01b038616845290915290205460ff16610e8a5760405162461bcd60e51b815260206004820152602760248201527f596f7520686176656e2774206265656e20747265617465642062792074686973604482015266103237b1ba37b960c91b60648201526084016106f6565b6001600160a01b03821660009081526007602052604081208054839290610eb590849060ff16611e24565b825460ff91821661010093840a90810290830219909116179092556001600160a01b038516600090815260076020526040902080546001945090928492610f0192849291900416611e24565b825460ff91821661010093840a90810290830219909116179092553360009081526008602090815260408083206001600160a01b03891684528252808320805460ff191690556005825280832054600783529281902081518083019092525480861682529390930490931692820183905292509015610fc85760208101518151610f8b9190611e3d565b60038381548110610f9e57610f9e611e6d565b906000526020600020906003020160020160156101000a81548160ff021916908360ff1602179055505b50505050565b600c8181548110610fde57600080fd5b906000526020600020906006020160009150905080600001805461100190611c42565b80601f016020809104026020016040519081016040528092919081815260200182805461102d90611c42565b801561107a5780601f1061104f5761010080835404028352916020019161107a565b820191906000526020600020905b81548152906001019060200180831161105d57829003601f168201915b50505050600183015460028401546003850180549495929463ffffffff9092169350906110a690611c42565b80601f01602080910402602001604051908101604052809291908181526020018280546110d290611c42565b801561111f5780601f106110f45761010080835404028352916020019161111f565b820191906000526020600020905b81548152906001019060200180831161110257829003601f168201915b505050600484015460058501805494956001600160a01b0390921694919350915061114990611c42565b80601f016020809104026020016040519081016040528092919081815260200182805461117590611c42565b80156111c25780601f10611197576101008083540402835291602001916111c2565b820191906000526020600020905b8154815290600101906020018083116111a557829003601f168201915b5050505050905086565b600281815481106111dc57600080fd5b90600052602060002090600202016000915090508060000180546111ff90611c42565b80601f016020809104026020016040519081016040528092919081815260200182805461122b90611c42565b80156112785780601f1061124d57610100808354040283529160200191611278565b820191906000526020600020905b81548152906001019060200180831161125b57829003601f168201915b5050506001909301549192505060ff8116906001600160a01b036101009091041683565b33600090815260066020526040902054156112c95760405162461bcd60e51b81526004016106f690611c00565b61271083116113115760405162461bcd60e51b815260206004820152601460248201527315185ad9481a5908199bdc9b481a1bdc1a5d185b60621b60448201526064016106f6565b6040805160a0810182528481526020810184815260ff8416928201929092523360608201526000608082018190526003805460018101825591819052825191027fc2575a0e9e593c00f959f8c92f12db2869c3395a3b0502d05e2516446f71f85b81019182559251919290917fc2575a0e9e593c00f959f8c92f12db2869c3395a3b0502d05e2516446f71f85c909101906113ac9082611ccb565b50604082015160029091018054606084015160809094015160ff908116600160a81b0260ff60a81b196001600160a01b03909616610100026001600160a81b03199093169190941617179290921617905560035460009061140f90600190611d8a565b3360009081526005602090815260408083208490556006909152812080549293509061143a83611d9d565b90915550503360009081526004602052604090819020805460ff19166001179055517fd86dca2e2544318fbca4769e2f7ea2bba8eeb0f445dd717aef0d3c84670baa419061148d90839086908690611db6565b60405180910390a150505050565b60025433600090815260056020526040902054106115055760405162461bcd60e51b815260206004820152602160248201527f596f7520617265206e6f74206120726567697374657265642070617469656e746044820152601760f91b60648201526084016106f6565b60015460405163cde2d23b60e01b81526001600160a01b039091169063cde2d23b906115379085908590600401611e83565b600060405180830381600087803b15801561155157600080fd5b505af1158015611565573d6000803e3d6000fd5b50505050336001600160a01b03167f9030e73d33af80bdf3d4bb5ed5de0b053a3e66e0560332ff6b5b975cf3464f43826040516115a29190611bc4565b60405180910390a25050565b3360009081526004602052604090205460609060ff166116105760405162461bcd60e51b815260206004820152601e60248201527f4f6e6c7920646f63746f72732063616e2076696577207265636f7264732e000060448201526064016106f6565b600154604051631b1b45f560e31b81526001600160a01b0384811660048301529091169063d8da2fa890602401600060405180830381865afa15801561165a573d6000803e3d6000fd5b505050506040513d6000823e601f3d908101601f191682016040526116829190810190611ea4565b92915050565b600b818154811061169857600080fd5b6000918252602090912001546001600160a01b0316905081565b6116ba6116ed565b6001600160a01b0381166116e457604051631e4fbdf760e01b8152600060048201526024016106f6565b6106948161171a565b6000546001600160a01b0316331461081c5760405163118cdaa760e01b81523360048201526024016106f6565b600080546001600160a01b038381166001600160a01b0319831681178455604051919092169283917f8be0079c531659141344cd1fd0a4f28419497f9722a3daafe3b4186f6b6457e09190a35050565b80356001600160a01b038116811461178157600080fd5b919050565b60006020828403121561179857600080fd5b6117a18261176a565b9392505050565b600080604083850312156117bb57600080fd5b6117c48361176a565b91506117d26020840161176a565b90509250929050565b634e487b7160e01b600052604160045260246000fd5b604051601f8201601f1916810167ffffffffffffffff8111828210171561181a5761181a6117db565b604052919050565b600067ffffffffffffffff82111561183c5761183c6117db565b50601f01601f191660200190565b600082601f83011261185b57600080fd5b813561186e61186982611822565b6117f1565b81815284602083860101111561188357600080fd5b816020850160208301376000918101602001919091529392505050565b803560ff8116811461178157600080fd5b600080604083850312156118c457600080fd5b823567ffffffffffffffff8111156118db57600080fd5b6118e78582860161184a565b9250506117d2602084016118a0565b60006020828403121561190857600080fd5b5035919050565b60005b8381101561192a578181015183820152602001611912565b50506000910152565b6000815180845261194b81602086016020860161190f565b601f01601f19169290920160200192915050565b85815260a06020820152600061197860a0830187611933565b60ff95861660408401526001600160a01b0394909416606083015250921660809092019190915292915050565b600080600080600060a086880312156119bd57600080fd5b853567ffffffffffffffff8111156119d457600080fd5b6119e08882890161184a565b95505060208601359350604086013563ffffffff81168114611a0157600080fd5b9250606086013567ffffffffffffffff811115611a1d57600080fd5b611a298882890161184a565b925050608086013567ffffffffffffffff811115611a4657600080fd5b611a528882890161184a565b9150509295509295909350565b60008060408385031215611a7257600080fd5b611a7b8361176a565b91506117d2602084016118a0565b60c081526000611a9c60c0830189611933565b87602084015263ffffffff871660408401528281036060840152611ac08187611933565b6001600160a01b038616608085015283810360a08501529050611ae38185611933565b9998505050505050505050565b606081526000611b036060830186611933565b60ff949094166020830152506001600160a01b0391909116604090910152919050565b600080600060608486031215611b3b57600080fd5b83359250602084013567ffffffffffffffff811115611b5957600080fd5b611b658682870161184a565b925050611b74604085016118a0565b90509250925092565b60008060408385031215611b9057600080fd5b82359150602083013567ffffffffffffffff811115611bae57600080fd5b611bba8582860161184a565b9150509250929050565b6020815260006117a16020830184611933565b634e487b7160e01b600052601160045260246000fd5b8082018082111561168257611682611bd7565b60208082526022908201527f596f7520616c7265616479206861766520612070617469656e742070726f66696040820152616c6560f01b606082015260800190565b600181811c90821680611c5657607f821691505b602082108103611c7657634e487b7160e01b600052602260045260246000fd5b50919050565b601f821115611cc657806000526020600020601f840160051c81016020851015611ca35750805b601f840160051c820191505b81811015611cc35760008155600101611caf565b50505b505050565b815167ffffffffffffffff811115611ce557611ce56117db565b611cf981611cf38454611c42565b84611c7c565b6020601f821160018114611d2d5760008315611d155750848201515b600019600385901b1c1916600184901b178455611cc3565b600084815260208120601f198516915b82811015611d5d5787850151825560209485019460019092019101611d3d565b5084821015611d7b5786840151600019600387901b60f8161c191681555b50505050600190811b01905550565b8181038181111561168257611682611bd7565b600060018201611daf57611daf611bd7565b5060010190565b838152606060208201526000611dcf6060830185611933565b905060ff83166040830152949350505050565b608081526000611df56080830187611933565b85602084015263ffffffff851660408401528281036060840152611e198185611933565b979650505050505050565b60ff818116838216019081111561168257611682611bd7565b600060ff831680611e5e57634e487b7160e01b600052601260045260246000fd5b8060ff84160491505092915050565b634e487b7160e01b600052603260045260246000fd5b828152604060208201526000611e9c6040830184611933565b949350505050565b600060208284031215611eb657600080fd5b815167ffffffffffffffff811115611ecd57600080fd5b8201601f81018413611ede57600080fd5b8051611eec61186982611822565b818152856020838501011115611f0157600080fd5b611f1282602083016020860161190f565b9594505050505056fea264697066735822122044407f5be1f130d91b16e95f0b275475c5512a9fea510d40a337b2598cc7a06064736f6c634300081a0033","linkReferences":{}},"methodIdentifiers":{"createCrowd(string,uint256,uint32,string,string)":"782dbac8","createProfileDoctor(uint256,string,uint8)":"b8735101","createProfilePatient(string,uint8)":"1ccdfc32","crowdToOwner(uint256)":"58d3eab0","crowds(uint256)":"92ce1e41","dataTransfer()":"c88bde70","doctorPatientRecords(address,address)":"17a4ad81","doctorRatings(address)":"b8006862","doctors(uint256)":"6efb1b84","endCrowdfunding()":"ed32f2b0","fundToCrowd()":"105fbbc9","funderToAmount(address)":"4407e1e8","funders(uint256)":"dc0d3dff","getIpfsHash(address)":"d8da2fa8","grantAccess(address)":"0ae5e739","isFunders(address)":"cf718fdc","owner()":"8da5cb5b","ownerCrowdCount(address)":"e9fa8814","patients(uint256)":"93119a83","profileToOwner(address)":"9ad8180f","ratingDoctor(address,uint8)":"8a7d2a0c","renounceOwnership()":"715018a6","revokeAccess(address)":"85e68531","setDataTransferAddress(address)":"2f700955","storeRecord(uint256,string)":"cde2d23b","transferOwnership(address)":"f2fde38b","withDraw()":"0fdb1c10"},"id":28}