{"abi":[{"type":"constructor","inputs":[],"stateMutability":"nonpayable"},{"type":"fallback","stateMutability":"payable"},{"type":"receive","stateMutability":"payable"},{"type":"function","name":"createCrowd","inputs":[{"name":"_nameCrowd","type":"string","internalType":"string"},{"name":"_target","type":"uint256","internalType":"uint256"},{"name":"_endTime","type":"uint32","internalType":"uint32"},{"name":"_scriptCrowd","type":"string","internalType":"string"}],"outputs":[],"stateMutability":"nonpayable"},{"type":"function","name":"createProfileDoctor","inputs":[{"name":"_idDoctor","type":"uint256","internalType":"uint256"},{"name":"_name","type":"string","internalType":"string"},{"name":"_age","type":"uint8","internalType":"uint8"}],"outputs":[],"stateMutability":"nonpayable"},{"type":"function","name":"createProfilePatient","inputs":[{"name":"_name","type":"string","internalType":"string"},{"name":"_age","type":"uint8","internalType":"uint8"}],"outputs":[],"stateMutability":"nonpayable"},{"type":"function","name":"crowdToOwner","inputs":[{"name":"","type":"uint256","internalType":"uint256"}],"outputs":[{"name":"","type":"address","internalType":"address"}],"stateMutability":"view"},{"type":"function","name":"crowds","inputs":[{"name":"","type":"uint256","internalType":"uint256"}],"outputs":[{"name":"nameCrowd","type":"string","internalType":"string"},{"name":"target","type":"uint256","internalType":"uint256"},{"name":"endTime","type":"uint32","internalType":"uint32"},{"name":"nameHost","type":"string","internalType":"string"},{"name":"adrHost","type":"address","internalType":"address"},{"name":"scriptCrowd","type":"string","internalType":"string"}],"stateMutability":"view"},{"type":"function","name":"doctors","inputs":[{"name":"","type":"uint256","internalType":"uint256"}],"outputs":[{"name":"idDoctor","type":"uint256","internalType":"uint256"},{"name":"name","type":"string","internalType":"string"},{"name":"age","type":"uint8","internalType":"uint8"},{"name":"walletAddress","type":"address","internalType":"address"},{"name":"rating","type":"uint8","internalType":"uint8"}],"stateMutability":"view"},{"type":"function","name":"endCrowdfunding","inputs":[],"outputs":[],"stateMutability":"nonpayable"},{"type":"function","name":"fundToCrowd","inputs":[],"outputs":[],"stateMutability":"payable"},{"type":"function","name":"funderToAmount","inputs":[{"name":"","type":"address","internalType":"address"}],"outputs":[{"name":"","type":"uint256","internalType":"uint256"}],"stateMutability":"view"},{"type":"function","name":"funders","inputs":[{"name":"","type":"uint256","internalType":"uint256"}],"outputs":[{"name":"","type":"address","internalType":"address"}],"stateMutability":"view"},{"type":"function","name":"isFunders","inputs":[{"name":"","type":"address","internalType":"address"}],"outputs":[{"name":"","type":"bool","internalType":"bool"}],"stateMutability":"view"},{"type":"function","name":"owner","inputs":[],"outputs":[{"name":"","type":"address","internalType":"address"}],"stateMutability":"view"},{"type":"function","name":"ownerCrowdCount","inputs":[{"name":"","type":"address","internalType":"address"}],"outputs":[{"name":"","type":"uint256","internalType":"uint256"}],"stateMutability":"view"},{"type":"function","name":"patients","inputs":[{"name":"","type":"uint256","internalType":"uint256"}],"outputs":[{"name":"name","type":"string","internalType":"string"},{"name":"age","type":"uint8","internalType":"uint8"},{"name":"walletAddress","type":"address","internalType":"address"}],"stateMutability":"view"},{"type":"function","name":"profileToOwner","inputs":[{"name":"","type":"address","internalType":"address"}],"outputs":[{"name":"","type":"uint256","internalType":"uint256"}],"stateMutability":"view"},{"type":"function","name":"renounceOwnership","inputs":[],"outputs":[],"stateMutability":"nonpayable"},{"type":"function","name":"transferOwnership","inputs":[{"name":"newOwner","type":"address","internalType":"address"}],"outputs":[],"stateMutability":"nonpayable"},{"type":"function","name":"withDraw","inputs":[],"outputs":[],"stateMutability":"nonpayable"},{"type":"event","name":"HostCrowdFunding","inputs":[{"name":"nameCrowd","type":"string","indexed":false,"internalType":"string"},{"name":"target","type":"uint256","indexed":false,"internalType":"uint256"},{"name":"endTime","type":"uint32","indexed":false,"internalType":"uint32"},{"name":"nameDoctorHost","type":"string","indexed":false,"internalType":"string"}],"anonymous":false},{"type":"event","name":"NewUser","inputs":[{"name":"patientId","type":"uint256","indexed":false,"internalType":"uint256"},{"name":"name","type":"string","indexed":false,"internalType":"string"},{"name":"age","type":"uint256","indexed":false,"internalType":"uint256"}],"anonymous":false},{"type":"event","name":"OwnershipTransferred","inputs":[{"name":"previousOwner","type":"address","indexed":true,"internalType":"address"},{"name":"newOwner","type":"address","indexed":true,"internalType":"address"}],"anonymous":false},{"type":"error","name":"OwnableInvalidOwner","inputs":[{"name":"owner","type":"address","internalType":"address"}]},{"type":"error","name":"OwnableUnauthorizedAccount","inputs":[{"name":"account","type":"address","internalType":"address"}]}],"bytecode":{"object":"0x6080604052348015600f57600080fd5b503380603557604051631e4fbdf760e01b81526000600482015260240160405180910390fd5b603c816041565b506091565b600080546001600160a01b038381166001600160a01b0319831681178455604051919092169283917f8be0079c531659141344cd1fd0a4f28419497f9722a3daafe3b4186f6b6457e09190a35050565b6114d2806100a06000396000f3fe60806040526004361061010d5760003560e01c8063930b8ef111610095578063cf718fdc11610064578063cf718fdc14610319578063dc0d3dff14610359578063e9fa881414610379578063ed32f2b0146103a6578063f2fde38b146103b25761011c565b8063930b8ef11461027d57806393119a831461029d5780639ad8180f146102cc578063b8735101146102f95761011c565b806358d3eab0116100dc57806358d3eab0146101995780636efb1b84146101e7578063715018a6146102185780638da5cb5b1461022d57806392ce1e411461024b5761011c565b80630fdb1c1014610124578063105fbbc91461011c5780631ccdfc32146101395780634407e1e8146101595761011c565b3661011c5761011a6103d2565b005b61011a6103d2565b34801561013057600080fd5b5061011a61046c565b34801561014557600080fd5b5061011a610154366004610f95565b610476565b34801561016557600080fd5b50610186610174366004610fe3565b60076020526000908152604090205481565b6040519081526020015b60405180910390f35b3480156101a557600080fd5b506101cf6101b4366004611013565b600a602052600090815260409020546001600160a01b031681565b6040516001600160a01b039091168152602001610190565b3480156101f357600080fd5b50610207610202366004611013565b6105c9565b604051610190959493929190611072565b34801561022457600080fd5b5061011a6106a5565b34801561023957600080fd5b506000546001600160a01b03166101cf565b34801561025757600080fd5b5061026b610266366004611013565b6106b7565b604051610190969594939291906110b8565b34801561028957600080fd5b5061011a61029836600461111f565b6108b5565b3480156102a957600080fd5b506102bd6102b8366004611013565b610b29565b604051610190939291906111ad565b3480156102d857600080fd5b506101866102e7366004610fe3565b60046020526000908152604090205481565b34801561030557600080fd5b5061011a6103143660046111e3565b610bf9565b34801561032557600080fd5b50610349610334366004610fe3565b60066020526000908152604090205460ff1681565b6040519015158152602001610190565b34801561036557600080fd5b506101cf610374366004611013565b610df8565b34801561038557600080fd5b50610186610394366004610fe3565b600b6020526000908152604090205481565b34801561011a57600080fd5b3480156103be57600080fd5b5061011a6103cd366004610fe3565b610e22565b33600090815260076020526040812080543492906103f1908490611250565b90915550503360009081526006602052604090205460ff1680610469576008805460018181019092557ff3f7a9fe364faab93b216da50a3214154f22a0a2b415b23a84c8169e8b636ee30180546001600160a01b031916339081179091556000908152600660205260409020805460ff191690911790555b50565b610474610e5d565b565b33600090815260056020526040902054156104ac5760405162461bcd60e51b81526004016104a390611269565b60405180910390fd5b6040805160608101825283815260ff831660208201523391810191909152600180548082018255600091909152815160029091027fb10e2d527612073b26eecdfd717e6a320cf44b4afac2b0732d9fcbe2b7fa0cf60190819061050f9082611334565b506020820151600191820180546040909401516001600160a01b0316610100026001600160a81b031990941660ff90921691909117929092179091558054600091610559916113f3565b3360009081526004602090815260408083208490556005909152812080549293509061058483611406565b91905055507fd86dca2e2544318fbca4769e2f7ea2bba8eeb0f445dd717aef0d3c84670baa418184846040516105bc9392919061141f565b60405180910390a1505050565b600281815481106105d957600080fd5b600091825260209091206003909102018054600182018054919350906105fe906112ab565b80601f016020809104026020016040519081016040528092919081815260200182805461062a906112ab565b80156106775780601f1061064c57610100808354040283529160200191610677565b820191906000526020600020905b81548152906001019060200180831161065a57829003601f168201915b5050506002909301549192505060ff808216916001600160a01b0361010082041691600160a81b9091041685565b6106ad610e5d565b6104746000610e8a565b600981815481106106c757600080fd5b90600052602060002090600602016000915090508060000180546106ea906112ab565b80601f0160208091040260200160405190810160405280929190818152602001828054610716906112ab565b80156107635780601f1061073857610100808354040283529160200191610763565b820191906000526020600020905b81548152906001019060200180831161074657829003601f168201915b50505050600183015460028401546003850180549495929463ffffffff90921693509061078f906112ab565b80601f01602080910402602001604051908101604052809291908181526020018280546107bb906112ab565b80156108085780601f106107dd57610100808354040283529160200191610808565b820191906000526020600020905b8154815290600101906020018083116107eb57829003601f168201915b505050600484015460058501805494956001600160a01b03909216949193509150610832906112ab565b80601f016020809104026020016040519081016040528092919081815260200182805461085e906112ab565b80156108ab5780601f10610880576101008083540402835291602001916108ab565b820191906000526020600020905b81548152906001019060200180831161088e57829003601f168201915b5050505050905086565b3360009081526003602052604090205460ff166109205760405162461bcd60e51b815260206004820152602360248201527f6f6e6c7920646f63746f72732063616e2063616c6c20746869732066756e637460448201526234b7b760e91b60648201526084016104a3565b336000908152600b6020526040902054600210156109805760405162461bcd60e51b815260206004820152601960248201527f4f6e6c79203220686f737420666f72203120646f63746f72210000000000000060448201526064016104a3565b6040805160c081018252858152602080820186905263ffffffff85168284015282518084019093526008835267446f63746f72204b60c01b90830152606081019190915233608082015260a0810182905260098054600181018255600091909152815160069091027f6e1540171b6c0c960b71a7020d9f60077f6af931a8bbf590da0223dacf75c7af01908190610a179082611334565b5060208201516001820155604082015160028201805463ffffffff191663ffffffff90921691909117905560608201516003820190610a569082611334565b5060808201516004820180546001600160a01b0319166001600160a01b0390921691909117905560a08201516005820190610a919082611334565b505060095460009150610aa6906001906113f3565b6000818152600a6020908152604080832080546001600160a01b031916339081179091558352600b9091528120805492935090610ae283611406565b91905055507f69e156612586a9b6531cb151ff6ab9fa7b57cccd6dda6e25654707eb055ce667858585604051610b1a9392919061144b565b60405180910390a15050505050565b60018181548110610b3957600080fd5b9060005260206000209060020201600091509050806000018054610b5c906112ab565b80601f0160208091040260200160405190810160405280929190818152602001828054610b88906112ab565b8015610bd55780601f10610baa57610100808354040283529160200191610bd5565b820191906000526020600020905b815481529060010190602001808311610bb857829003601f168201915b5050506001909301549192505060ff8116906001600160a01b036101009091041683565b3360009081526005602052604090205415610c265760405162461bcd60e51b81526004016104a390611269565b6127108311610c6e5760405162461bcd60e51b815260206004820152601460248201527315185ad9481a5908199bdc9b481a1bdc1a5d185b60621b60448201526064016104a3565b6040805160a0810182528481526020810184815260ff841692820192909252336060820152600060808201819052600280546001810182559152815160039091027f405787fa12a823e0f2b7631cc41b3ba8828b3321ca811111fa75cd3aa3bb5ace81019182559251919290917f405787fa12a823e0f2b7631cc41b3ba8828b3321ca811111fa75cd3aa3bb5acf90910190610d0a9082611334565b50604082015160029182018054606085015160809095015160ff908116600160a81b0260ff60a81b196001600160a01b03909716610100026001600160a81b0319909316919094161717939093161790915554600090610d6c906001906113f3565b33600090815260046020908152604080832084905560059091528120805492935090610d9783611406565b90915550503360009081526003602052604090819020805460ff19166001179055517fd86dca2e2544318fbca4769e2f7ea2bba8eeb0f445dd717aef0d3c84670baa4190610dea9083908690869061141f565b60405180910390a150505050565b60088181548110610e0857600080fd5b6000918252602090912001546001600160a01b0316905081565b610e2a610e5d565b6001600160a01b038116610e5457604051631e4fbdf760e01b8152600060048201526024016104a3565b61046981610e8a565b6000546001600160a01b031633146104745760405163118cdaa760e01b81523360048201526024016104a3565b600080546001600160a01b038381166001600160a01b0319831681178455604051919092169283917f8be0079c531659141344cd1fd0a4f28419497f9722a3daafe3b4186f6b6457e09190a35050565b634e487b7160e01b600052604160045260246000fd5b600082601f830112610f0157600080fd5b813567ffffffffffffffff811115610f1b57610f1b610eda565b604051601f8201601f19908116603f0116810167ffffffffffffffff81118282101715610f4a57610f4a610eda565b604052818152838201602001851015610f6257600080fd5b816020850160208301376000918101602001919091529392505050565b803560ff81168114610f9057600080fd5b919050565b60008060408385031215610fa857600080fd5b823567ffffffffffffffff811115610fbf57600080fd5b610fcb85828601610ef0565b925050610fda60208401610f7f565b90509250929050565b600060208284031215610ff557600080fd5b81356001600160a01b038116811461100c57600080fd5b9392505050565b60006020828403121561102557600080fd5b5035919050565b6000815180845260005b8181101561105257602081850181015186830182015201611036565b506000602082860101526020601f19601f83011685010191505092915050565b85815260a06020820152600061108b60a083018761102c565b60ff95861660408401526001600160a01b0394909416606083015250921660809092019190915292915050565b60c0815260006110cb60c083018961102c565b87602084015263ffffffff8716604084015282810360608401526110ef818761102c565b6001600160a01b038616608085015283810360a08501529050611112818561102c565b9998505050505050505050565b6000806000806080858703121561113557600080fd5b843567ffffffffffffffff81111561114c57600080fd5b61115887828801610ef0565b94505060208501359250604085013563ffffffff8116811461117957600080fd5b9150606085013567ffffffffffffffff81111561119557600080fd5b6111a187828801610ef0565b91505092959194509250565b6060815260006111c0606083018661102c565b60ff949094166020830152506001600160a01b0391909116604090910152919050565b6000806000606084860312156111f857600080fd5b83359250602084013567ffffffffffffffff81111561121657600080fd5b61122286828701610ef0565b92505061123160408501610f7f565b90509250925092565b634e487b7160e01b600052601160045260246000fd5b808201808211156112635761126361123a565b92915050565b60208082526022908201527f596f7520616c7265616479206861766520612070617469656e742070726f66696040820152616c6560f01b606082015260800190565b600181811c908216806112bf57607f821691505b6020821081036112df57634e487b7160e01b600052602260045260246000fd5b50919050565b601f82111561132f57806000526020600020601f840160051c8101602085101561130c5750805b601f840160051c820191505b8181101561132c5760008155600101611318565b50505b505050565b815167ffffffffffffffff81111561134e5761134e610eda565b6113628161135c84546112ab565b846112e5565b6020601f821160018114611396576000831561137e5750848201515b600019600385901b1c1916600184901b17845561132c565b600084815260208120601f198516915b828110156113c657878501518255602094850194600190920191016113a6565b50848210156113e45786840151600019600387901b60f8161c191681555b50505050600190811b01905550565b818103818111156112635761126361123a565b6000600182016114185761141861123a565b5060010190565b838152606060208201526000611438606083018561102c565b905060ff83166040830152949350505050565b60808152600061145e608083018661102c565b84602084015263ffffffff8416604084015282810360608401526008815267446f63746f72204b60c01b60208201526040810191505094935050505056fea26469706673582212206d6a4b40e2c4d6e39069509b9d50f65958ce64cec9f2e775e1ed9cf24772738164736f6c634300081a0033","linkReferences":{}},"methodIdentifiers":{"createCrowd(string,uint256,uint32,string)":"930b8ef1","createProfileDoctor(uint256,string,uint8)":"b8735101","createProfilePatient(string,uint8)":"1ccdfc32","crowdToOwner(uint256)":"58d3eab0","crowds(uint256)":"92ce1e41","doctors(uint256)":"6efb1b84","endCrowdfunding()":"ed32f2b0","fundToCrowd()":"105fbbc9","funderToAmount(address)":"4407e1e8","funders(uint256)":"dc0d3dff","isFunders(address)":"cf718fdc","owner()":"8da5cb5b","ownerCrowdCount(address)":"e9fa8814","patients(uint256)":"93119a83","profileToOwner(address)":"9ad8180f","renounceOwnership()":"715018a6","transferOwnership(address)":"f2fde38b","withDraw()":"0fdb1c10"},"id":2}