{"abi":[{"type":"constructor","inputs":[],"stateMutability":"nonpayable"},{"type":"fallback","stateMutability":"payable"},{"type":"receive","stateMutability":"payable"},{"type":"function","name":"createCrowd","inputs":[{"name":"_nameCrowd","type":"string","internalType":"string"},{"name":"_target","type":"uint256","internalType":"uint256"},{"name":"_endTime","type":"uint32","internalType":"uint32"},{"name":"_scriptCrowd","type":"string","internalType":"string"}],"outputs":[],"stateMutability":"nonpayable"},{"type":"function","name":"createProfileDoctor","inputs":[{"name":"_idDoctor","type":"uint256","internalType":"uint256"},{"name":"_name","type":"string","internalType":"string"},{"name":"_age","type":"uint8","internalType":"uint8"}],"outputs":[],"stateMutability":"nonpayable"},{"type":"function","name":"createProfilePatient","inputs":[{"name":"_name","type":"string","internalType":"string"},{"name":"_age","type":"uint8","internalType":"uint8"}],"outputs":[],"stateMutability":"nonpayable"},{"type":"function","name":"crowdToOwner","inputs":[{"name":"","type":"uint256","internalType":"uint256"}],"outputs":[{"name":"","type":"address","internalType":"address"}],"stateMutability":"view"},{"type":"function","name":"crowds","inputs":[{"name":"","type":"uint256","internalType":"uint256"}],"outputs":[{"name":"nameCrowd","type":"string","internalType":"string"},{"name":"target","type":"uint256","internalType":"uint256"},{"name":"endTime","type":"uint32","internalType":"uint32"},{"name":"nameHost","type":"string","internalType":"string"},{"name":"adrHost","type":"address","internalType":"address"},{"name":"scriptCrowd","type":"string","internalType":"string"}],"stateMutability":"view"},{"type":"function","name":"doctors","inputs":[{"name":"","type":"uint256","internalType":"uint256"}],"outputs":[{"name":"idDoctor","type":"uint256","internalType":"uint256"},{"name":"name","type":"string","internalType":"string"},{"name":"age","type":"uint8","internalType":"uint8"},{"name":"walletAddress","type":"address","internalType":"address"},{"name":"rating","type":"uint8","internalType":"uint8"}],"stateMutability":"view"},{"type":"function","name":"endCrowdfunding","inputs":[],"outputs":[],"stateMutability":"nonpayable"},{"type":"function","name":"fundToCrowd","inputs":[],"outputs":[],"stateMutability":"payable"},{"type":"function","name":"funderToAmount","inputs":[{"name":"","type":"address","internalType":"address"}],"outputs":[{"name":"","type":"uint256","internalType":"uint256"}],"stateMutability":"view"},{"type":"function","name":"funders","inputs":[{"name":"","type":"uint256","internalType":"uint256"}],"outputs":[{"name":"","type":"address","internalType":"address"}],"stateMutability":"view"},{"type":"function","name":"getRecord","inputs":[{"name":"patient","type":"address","internalType":"address"}],"outputs":[{"name":"","type":"string","internalType":"string"}],"stateMutability":"view"},{"type":"function","name":"grantAccess","inputs":[{"name":"doctor","type":"address","internalType":"address"}],"outputs":[],"stateMutability":"nonpayable"},{"type":"function","name":"isFunders","inputs":[{"name":"","type":"address","internalType":"address"}],"outputs":[{"name":"","type":"bool","internalType":"bool"}],"stateMutability":"view"},{"type":"function","name":"owner","inputs":[],"outputs":[{"name":"","type":"address","internalType":"address"}],"stateMutability":"view"},{"type":"function","name":"ownerCrowdCount","inputs":[{"name":"","type":"address","internalType":"address"}],"outputs":[{"name":"","type":"uint256","internalType":"uint256"}],"stateMutability":"view"},{"type":"function","name":"patients","inputs":[{"name":"","type":"uint256","internalType":"uint256"}],"outputs":[{"name":"name","type":"string","internalType":"string"},{"name":"age","type":"uint8","internalType":"uint8"},{"name":"walletAddress","type":"address","internalType":"address"}],"stateMutability":"view"},{"type":"function","name":"profileToOwner","inputs":[{"name":"","type":"address","internalType":"address"}],"outputs":[{"name":"","type":"uint256","internalType":"uint256"}],"stateMutability":"view"},{"type":"function","name":"renounceOwnership","inputs":[],"outputs":[],"stateMutability":"nonpayable"},{"type":"function","name":"revokeAccess","inputs":[{"name":"doctor","type":"address","internalType":"address"}],"outputs":[],"stateMutability":"nonpayable"},{"type":"function","name":"setDataTransferAddress","inputs":[{"name":"_address","type":"address","internalType":"address"}],"outputs":[],"stateMutability":"nonpayable"},{"type":"function","name":"storeRecord","inputs":[{"name":"ipfsHash","type":"string","internalType":"string"}],"outputs":[],"stateMutability":"nonpayable"},{"type":"function","name":"transferOwnership","inputs":[{"name":"newOwner","type":"address","internalType":"address"}],"outputs":[],"stateMutability":"nonpayable"},{"type":"function","name":"withDraw","inputs":[],"outputs":[],"stateMutability":"nonpayable"},{"type":"event","name":"AccessGranted","inputs":[{"name":"patient","type":"address","indexed":true,"internalType":"address"},{"name":"doctor","type":"address","indexed":true,"internalType":"address"}],"anonymous":false},{"type":"event","name":"AccessRevoked","inputs":[{"name":"patient","type":"address","indexed":true,"internalType":"address"},{"name":"doctor","type":"address","indexed":true,"internalType":"address"}],"anonymous":false},{"type":"event","name":"HostCrowdFunding","inputs":[{"name":"nameCrowd","type":"string","indexed":false,"internalType":"string"},{"name":"target","type":"uint256","indexed":false,"internalType":"uint256"},{"name":"endTime","type":"uint32","indexed":false,"internalType":"uint32"},{"name":"nameDoctorHost","type":"string","indexed":false,"internalType":"string"}],"anonymous":false},{"type":"event","name":"NewUser","inputs":[{"name":"patientId","type":"uint256","indexed":false,"internalType":"uint256"},{"name":"name","type":"string","indexed":false,"internalType":"string"},{"name":"age","type":"uint256","indexed":false,"internalType":"uint256"}],"anonymous":false},{"type":"event","name":"OwnershipTransferred","inputs":[{"name":"previousOwner","type":"address","indexed":true,"internalType":"address"},{"name":"newOwner","type":"address","indexed":true,"internalType":"address"}],"anonymous":false},{"type":"event","name":"RecordStored","inputs":[{"name":"patient","type":"address","indexed":true,"internalType":"address"},{"name":"ipfsHash","type":"string","indexed":false,"internalType":"string"}],"anonymous":false},{"type":"error","name":"OwnableInvalidOwner","inputs":[{"name":"owner","type":"address","internalType":"address"}]},{"type":"error","name":"OwnableUnauthorizedAccount","inputs":[{"name":"account","type":"address","internalType":"address"}]}],"bytecode":{"object":"0x6080604052348015600f57600080fd5b503380603557604051631e4fbdf760e01b81526000600482015260240160405180910390fd5b603c816041565b506091565b600080546001600160a01b038381166001600160a01b0319831681178455604051919092169283917f8be0079c531659141344cd1fd0a4f28419497f9722a3daafe3b4186f6b6457e09190a35050565b611aa5806100a06000396000f3fe6080604052600436106101445760003560e01c806385e68531116100b6578063b87351011161006f578063b8735101146103dd578063cf718fdc146103fd578063dc0d3dff1461043d578063e9fa88141461045d578063ed32f2b01461048a578063f2fde38b1461049657610153565b806385e68531146102f15780638da5cb5b1461031157806392ce1e411461032f578063930b8ef11461036157806393119a83146103815780639ad8180f146103b057610153565b80634407e1e8116101085780634407e1e8146101d057806358d3eab014610210578063617fba041461025e5780636efb1b841461028b578063715018a6146102bc57806376d91d08146102d157610153565b80630ae5e7391461015b5780630fdb1c101461017b578063105fbbc9146101535780631ccdfc32146101905780632f700955146101b057610153565b36610153576101516104b6565b005b6101516104b6565b34801561016757600080fd5b506101516101763660046113c2565b610550565b34801561018757600080fd5b50610151610650565b34801561019c57600080fd5b506101516101ab3660046114cd565b61065a565b3480156101bc57600080fd5b506101516101cb3660046113c2565b6107a2565b3480156101dc57600080fd5b506101fd6101eb3660046113c2565b60086020526000908152604090205481565b6040519081526020015b60405180910390f35b34801561021c57600080fd5b5061024661022b36600461151b565b600b602052600090815260409020546001600160a01b031681565b6040516001600160a01b039091168152602001610207565b34801561026a57600080fd5b5061027e6102793660046113c2565b6107cc565b6040516102079190611584565b34801561029757600080fd5b506102ab6102a636600461151b565b6108a6565b604051610207959493929190611597565b3480156102c857600080fd5b50610151610982565b3480156102dd57600080fd5b506101516102ec3660046115dd565b610994565b3480156102fd57600080fd5b5061015161030c3660046113c2565b610aa4565b34801561031d57600080fd5b506000546001600160a01b0316610246565b34801561033b57600080fd5b5061034f61034a36600461151b565b610b9f565b6040516102079695949392919061161a565b34801561036d57600080fd5b5061015161037c366004611681565b610d9d565b34801561038d57600080fd5b506103a161039c36600461151b565b611011565b6040516102079392919061170f565b3480156103bc57600080fd5b506101fd6103cb3660046113c2565b60056020526000908152604090205481565b3480156103e957600080fd5b506101516103f8366004611745565b6110e1565b34801561040957600080fd5b5061042d6104183660046113c2565b60076020526000908152604090205460ff1681565b6040519015158152602001610207565b34801561044957600080fd5b5061024661045836600461151b565b6112e0565b34801561046957600080fd5b506101fd6104783660046113c2565b600c6020526000908152604090205481565b34801561015157600080fd5b3480156104a257600080fd5b506101516104b13660046113c2565b61130a565b33600090815260086020526040812080543492906104d59084906117b2565b90915550503360009081526007602052604090205460ff168061054d576009805460018181019092557f6e1540171b6c0c960b71a7020d9f60077f6af931a8bbf590da0223dacf75c7af0180546001600160a01b031916339081179091556000908152600760205260409020805460ff191690911790555b50565b6001600160a01b03811660009081526004602052604090205460ff166105b85760405162461bcd60e51b815260206004820152601860248201527720b2323932b9b99034b9903737ba1030903237b1ba37b91760411b60448201526064015b60405180910390fd5b600154604051630ae5e73960e01b81526001600160a01b03838116600483015290911690630ae5e73990602401600060405180830381600087803b1580156105ff57600080fd5b505af1158015610613573d6000803e3d6000fd5b50506040516001600160a01b03841692503391507f9f520b3bfc56d06f7065d10b4683b3f57ac8895d5026cd176dee95ce1454cb8d90600090a350565b610658611345565b565b33600090815260066020526040902054156106875760405162461bcd60e51b81526004016105af906117c5565b6040805160608101825283815260ff831660208201523391810191909152600280546001810182556000829052825191027f405787fa12a823e0f2b7631cc41b3ba8828b3321ca811111fa75cd3aa3bb5ace019081906106e79082611890565b506020820151600191820180546040909401516001600160a01b0316610100026001600160a81b031990941660ff90921691909117929092179091556002546000916107329161194f565b3360009081526005602090815260408083208490556006909152812080549293509061075d83611962565b91905055507fd86dca2e2544318fbca4769e2f7ea2bba8eeb0f445dd717aef0d3c84670baa418184846040516107959392919061197b565b60405180910390a1505050565b6107aa611345565b600180546001600160a01b0319166001600160a01b0392909216919091179055565b3360009081526004602052604090205460609060ff1661082e5760405162461bcd60e51b815260206004820152601e60248201527f4f6e6c7920646f63746f72732063616e2076696577207265636f7264732e000060448201526064016105af565b60015460405163185fee8160e21b81526001600160a01b0384811660048301529091169063617fba0490602401600060405180830381865afa158015610878573d6000803e3d6000fd5b505050506040513d6000823e601f3d908101601f191682016040526108a091908101906119a7565b92915050565b600381815481106108b657600080fd5b600091825260209091206003909102018054600182018054919350906108db90611807565b80601f016020809104026020016040519081016040528092919081815260200182805461090790611807565b80156109545780601f1061092957610100808354040283529160200191610954565b820191906000526020600020905b81548152906001019060200180831161093757829003601f168201915b5050506002909301549192505060ff808216916001600160a01b0361010082041691600160a81b9091041685565b61098a611345565b6106586000611372565b60025433600090815260056020526040902054106109fe5760405162461bcd60e51b815260206004820152602160248201527f596f7520617265206e6f74206120726567697374657265642070617469656e746044820152601760f91b60648201526084016105af565b600154604051630edb23a160e31b81526001600160a01b03909116906376d91d0890610a2e908490600401611584565b600060405180830381600087803b158015610a4857600080fd5b505af1158015610a5c573d6000803e3d6000fd5b50505050336001600160a01b03167f9030e73d33af80bdf3d4bb5ed5de0b053a3e66e0560332ff6b5b975cf3464f4382604051610a999190611584565b60405180910390a250565b6001600160a01b03811660009081526004602052604090205460ff16610b075760405162461bcd60e51b815260206004820152601860248201527720b2323932b9b99034b9903737ba1030903237b1ba37b91760411b60448201526064016105af565b6001546040516385e6853160e01b81526001600160a01b038381166004830152909116906385e6853190602401600060405180830381600087803b158015610b4e57600080fd5b505af1158015610b62573d6000803e3d6000fd5b50506040516001600160a01b03841692503391507f825c8be24eb0df19500f63e86c29e7d0d951e73056b889b891d85e40938d9b6e90600090a350565b600a8181548110610baf57600080fd5b9060005260206000209060060201600091509050806000018054610bd290611807565b80601f0160208091040260200160405190810160405280929190818152602001828054610bfe90611807565b8015610c4b5780601f10610c2057610100808354040283529160200191610c4b565b820191906000526020600020905b815481529060010190602001808311610c2e57829003601f168201915b50505050600183015460028401546003850180549495929463ffffffff909216935090610c7790611807565b80601f0160208091040260200160405190810160405280929190818152602001828054610ca390611807565b8015610cf05780601f10610cc557610100808354040283529160200191610cf0565b820191906000526020600020905b815481529060010190602001808311610cd357829003601f168201915b505050600484015460058501805494956001600160a01b03909216949193509150610d1a90611807565b80601f0160208091040260200160405190810160405280929190818152602001828054610d4690611807565b8015610d935780601f10610d6857610100808354040283529160200191610d93565b820191906000526020600020905b815481529060010190602001808311610d7657829003601f168201915b5050505050905086565b3360009081526004602052604090205460ff16610e085760405162461bcd60e51b815260206004820152602360248201527f6f6e6c7920646f63746f72732063616e2063616c6c20746869732066756e637460448201526234b7b760e91b60648201526084016105af565b336000908152600c602052604090205460021015610e685760405162461bcd60e51b815260206004820152601960248201527f4f6e6c79203220686f737420666f72203120646f63746f72210000000000000060448201526064016105af565b6040805160c081018252858152602080820186905263ffffffff85168284015282518084019093526008835267446f63746f72204b60c01b90830152606081019190915233608082015260a08101829052600a8054600181018255600091909152815160069091027fc65a7bb8d6351c1cf70c95a316cc6a92839c986682d98bc35f958f4883f9d2a801908190610eff9082611890565b5060208201516001820155604082015160028201805463ffffffff191663ffffffff90921691909117905560608201516003820190610f3e9082611890565b5060808201516004820180546001600160a01b0319166001600160a01b0390921691909117905560a08201516005820190610f799082611890565b5050600a5460009150610f8e9060019061194f565b6000818152600b6020908152604080832080546001600160a01b031916339081179091558352600c9091528120805492935090610fca83611962565b91905055507f69e156612586a9b6531cb151ff6ab9fa7b57cccd6dda6e25654707eb055ce66785858560405161100293929190611a1e565b60405180910390a15050505050565b6002818154811061102157600080fd5b906000526020600020906002020160009150905080600001805461104490611807565b80601f016020809104026020016040519081016040528092919081815260200182805461107090611807565b80156110bd5780601f10611092576101008083540402835291602001916110bd565b820191906000526020600020905b8154815290600101906020018083116110a057829003601f168201915b5050506001909301549192505060ff8116906001600160a01b036101009091041683565b336000908152600660205260409020541561110e5760405162461bcd60e51b81526004016105af906117c5565b61271083116111565760405162461bcd60e51b815260206004820152601460248201527315185ad9481a5908199bdc9b481a1bdc1a5d185b60621b60448201526064016105af565b6040805160a0810182528481526020810184815260ff8416928201929092523360608201526000608082018190526003805460018101825591819052825191027fc2575a0e9e593c00f959f8c92f12db2869c3395a3b0502d05e2516446f71f85b81019182559251919290917fc2575a0e9e593c00f959f8c92f12db2869c3395a3b0502d05e2516446f71f85c909101906111f19082611890565b50604082015160029091018054606084015160809094015160ff908116600160a81b0260ff60a81b196001600160a01b03909616610100026001600160a81b0319909316919094161717929092161790556003546000906112549060019061194f565b3360009081526005602090815260408083208490556006909152812080549293509061127f83611962565b90915550503360009081526004602052604090819020805460ff19166001179055517fd86dca2e2544318fbca4769e2f7ea2bba8eeb0f445dd717aef0d3c84670baa41906112d29083908690869061197b565b60405180910390a150505050565b600981815481106112f057600080fd5b6000918252602090912001546001600160a01b0316905081565b611312611345565b6001600160a01b03811661133c57604051631e4fbdf760e01b8152600060048201526024016105af565b61054d81611372565b6000546001600160a01b031633146106585760405163118cdaa760e01b81523360048201526024016105af565b600080546001600160a01b038381166001600160a01b0319831681178455604051919092169283917f8be0079c531659141344cd1fd0a4f28419497f9722a3daafe3b4186f6b6457e09190a35050565b6000602082840312156113d457600080fd5b81356001600160a01b03811681146113eb57600080fd5b9392505050565b634e487b7160e01b600052604160045260246000fd5b604051601f8201601f1916810167ffffffffffffffff81118282101715611431576114316113f2565b604052919050565b600067ffffffffffffffff821115611453576114536113f2565b50601f01601f191660200190565b600082601f83011261147257600080fd5b813561148561148082611439565b611408565b81815284602083860101111561149a57600080fd5b816020850160208301376000918101602001919091529392505050565b803560ff811681146114c857600080fd5b919050565b600080604083850312156114e057600080fd5b823567ffffffffffffffff8111156114f757600080fd5b61150385828601611461565b925050611512602084016114b7565b90509250929050565b60006020828403121561152d57600080fd5b5035919050565b60005b8381101561154f578181015183820152602001611537565b50506000910152565b60008151808452611570816020860160208601611534565b601f01601f19169290920160200192915050565b6020815260006113eb6020830184611558565b85815260a0602082015260006115b060a0830187611558565b60ff95861660408401526001600160a01b0394909416606083015250921660809092019190915292915050565b6000602082840312156115ef57600080fd5b813567ffffffffffffffff81111561160657600080fd5b61161284828501611461565b949350505050565b60c08152600061162d60c0830189611558565b87602084015263ffffffff8716604084015282810360608401526116518187611558565b6001600160a01b038616608085015283810360a085015290506116748185611558565b9998505050505050505050565b6000806000806080858703121561169757600080fd5b843567ffffffffffffffff8111156116ae57600080fd5b6116ba87828801611461565b94505060208501359250604085013563ffffffff811681146116db57600080fd5b9150606085013567ffffffffffffffff8111156116f757600080fd5b61170387828801611461565b91505092959194509250565b6060815260006117226060830186611558565b60ff949094166020830152506001600160a01b0391909116604090910152919050565b60008060006060848603121561175a57600080fd5b83359250602084013567ffffffffffffffff81111561177857600080fd5b61178486828701611461565b925050611793604085016114b7565b90509250925092565b634e487b7160e01b600052601160045260246000fd5b808201808211156108a0576108a061179c565b60208082526022908201527f596f7520616c7265616479206861766520612070617469656e742070726f66696040820152616c6560f01b606082015260800190565b600181811c9082168061181b57607f821691505b60208210810361183b57634e487b7160e01b600052602260045260246000fd5b50919050565b601f82111561188b57806000526020600020601f840160051c810160208510156118685750805b601f840160051c820191505b818110156118885760008155600101611874565b50505b505050565b815167ffffffffffffffff8111156118aa576118aa6113f2565b6118be816118b88454611807565b84611841565b6020601f8211600181146118f257600083156118da5750848201515b600019600385901b1c1916600184901b178455611888565b600084815260208120601f198516915b828110156119225787850151825560209485019460019092019101611902565b50848210156119405786840151600019600387901b60f8161c191681555b50505050600190811b01905550565b818103818111156108a0576108a061179c565b6000600182016119745761197461179c565b5060010190565b8381526060602082015260006119946060830185611558565b905060ff83166040830152949350505050565b6000602082840312156119b957600080fd5b815167ffffffffffffffff8111156119d057600080fd5b8201601f810184136119e157600080fd5b80516119ef61148082611439565b818152856020838501011115611a0457600080fd5b611a15826020830160208601611534565b95945050505050565b608081526000611a316080830186611558565b84602084015263ffffffff8416604084015282810360608401526008815267446f63746f72204b60c01b60208201526040810191505094935050505056fea264697066735822122027baa6ca76072f85ee721058c1fa678a8232fe8c6c1eaae30895e4d21dce16fb64736f6c634300081a0033","linkReferences":{}},"methodIdentifiers":{"createCrowd(string,uint256,uint32,string)":"930b8ef1","createProfileDoctor(uint256,string,uint8)":"b8735101","createProfilePatient(string,uint8)":"1ccdfc32","crowdToOwner(uint256)":"58d3eab0","crowds(uint256)":"92ce1e41","doctors(uint256)":"6efb1b84","endCrowdfunding()":"ed32f2b0","fundToCrowd()":"105fbbc9","funderToAmount(address)":"4407e1e8","funders(uint256)":"dc0d3dff","getRecord(address)":"617fba04","grantAccess(address)":"0ae5e739","isFunders(address)":"cf718fdc","owner()":"8da5cb5b","ownerCrowdCount(address)":"e9fa8814","patients(uint256)":"93119a83","profileToOwner(address)":"9ad8180f","renounceOwnership()":"715018a6","revokeAccess(address)":"85e68531","setDataTransferAddress(address)":"2f700955","storeRecord(string)":"76d91d08","transferOwnership(address)":"f2fde38b","withDraw()":"0fdb1c10"},"id":2}