{"abi":[{"type":"constructor","inputs":[{"name":"_owner","type":"address","internalType":"address"}],"stateMutability":"nonpayable"},{"type":"fallback","stateMutability":"payable"},{"type":"receive","stateMutability":"payable"},{"type":"function","name":"createCrowd","inputs":[{"name":"_nameCrowd","type":"string","internalType":"string"},{"name":"_target","type":"uint256","internalType":"uint256"},{"name":"_endTime","type":"uint32","internalType":"uint32"},{"name":"_scriptCrowd","type":"string","internalType":"string"}],"outputs":[],"stateMutability":"nonpayable"},{"type":"function","name":"createProfileDoctor","inputs":[{"name":"_idDoctor","type":"uint256","internalType":"uint256"},{"name":"_name","type":"string","internalType":"string"},{"name":"_age","type":"uint8","internalType":"uint8"}],"outputs":[],"stateMutability":"nonpayable"},{"type":"function","name":"createProfilePatient","inputs":[{"name":"_name","type":"string","internalType":"string"},{"name":"_age","type":"uint8","internalType":"uint8"}],"outputs":[],"stateMutability":"nonpayable"},{"type":"function","name":"crowdToOwner","inputs":[{"name":"","type":"uint256","internalType":"uint256"}],"outputs":[{"name":"","type":"address","internalType":"address"}],"stateMutability":"view"},{"type":"function","name":"crowds","inputs":[{"name":"","type":"uint256","internalType":"uint256"}],"outputs":[{"name":"nameCrowd","type":"string","internalType":"string"},{"name":"target","type":"uint256","internalType":"uint256"},{"name":"endTime","type":"uint32","internalType":"uint32"},{"name":"nameHost","type":"string","internalType":"string"},{"name":"adrHost","type":"address","internalType":"address"},{"name":"scriptCrowd","type":"string","internalType":"string"}],"stateMutability":"view"},{"type":"function","name":"dataTransfer","inputs":[],"outputs":[{"name":"","type":"address","internalType":"contract IDataTransfer"}],"stateMutability":"view"},{"type":"function","name":"doctors","inputs":[{"name":"","type":"uint256","internalType":"uint256"}],"outputs":[{"name":"idDoctor","type":"uint256","internalType":"uint256"},{"name":"name","type":"string","internalType":"string"},{"name":"age","type":"uint8","internalType":"uint8"},{"name":"walletAddress","type":"address","internalType":"address"},{"name":"rating","type":"uint8","internalType":"uint8"}],"stateMutability":"view"},{"type":"function","name":"endCrowdfunding","inputs":[],"outputs":[],"stateMutability":"nonpayable"},{"type":"function","name":"fundToCrowd","inputs":[],"outputs":[],"stateMutability":"payable"},{"type":"function","name":"funderToAmount","inputs":[{"name":"","type":"address","internalType":"address"}],"outputs":[{"name":"","type":"uint256","internalType":"uint256"}],"stateMutability":"view"},{"type":"function","name":"funders","inputs":[{"name":"","type":"uint256","internalType":"uint256"}],"outputs":[{"name":"","type":"address","internalType":"address"}],"stateMutability":"view"},{"type":"function","name":"getIpfsHash","inputs":[{"name":"patient","type":"address","internalType":"address"}],"outputs":[{"name":"","type":"string","internalType":"string"}],"stateMutability":"view"},{"type":"function","name":"grantAccess","inputs":[{"name":"doctor","type":"address","internalType":"address"}],"outputs":[],"stateMutability":"nonpayable"},{"type":"function","name":"isFunders","inputs":[{"name":"","type":"address","internalType":"address"}],"outputs":[{"name":"","type":"bool","internalType":"bool"}],"stateMutability":"view"},{"type":"function","name":"owner","inputs":[],"outputs":[{"name":"","type":"address","internalType":"address"}],"stateMutability":"view"},{"type":"function","name":"ownerCrowdCount","inputs":[{"name":"","type":"address","internalType":"address"}],"outputs":[{"name":"","type":"uint256","internalType":"uint256"}],"stateMutability":"view"},{"type":"function","name":"patients","inputs":[{"name":"","type":"uint256","internalType":"uint256"}],"outputs":[{"name":"name","type":"string","internalType":"string"},{"name":"age","type":"uint8","internalType":"uint8"},{"name":"walletAddress","type":"address","internalType":"address"}],"stateMutability":"view"},{"type":"function","name":"profileToOwner","inputs":[{"name":"","type":"address","internalType":"address"}],"outputs":[{"name":"","type":"uint256","internalType":"uint256"}],"stateMutability":"view"},{"type":"function","name":"renounceOwnership","inputs":[],"outputs":[],"stateMutability":"nonpayable"},{"type":"function","name":"revokeAccess","inputs":[{"name":"doctor","type":"address","internalType":"address"}],"outputs":[],"stateMutability":"nonpayable"},{"type":"function","name":"setDataTransferAddress","inputs":[{"name":"_address","type":"address","internalType":"address"}],"outputs":[],"stateMutability":"nonpayable"},{"type":"function","name":"storeRecord","inputs":[{"name":"_id","type":"uint256","internalType":"uint256"},{"name":"ipfsHash","type":"string","internalType":"string"}],"outputs":[],"stateMutability":"nonpayable"},{"type":"function","name":"transferOwnership","inputs":[{"name":"newOwner","type":"address","internalType":"address"}],"outputs":[],"stateMutability":"nonpayable"},{"type":"function","name":"withDraw","inputs":[],"outputs":[],"stateMutability":"nonpayable"},{"type":"event","name":"AccessGranted","inputs":[{"name":"patient","type":"address","indexed":true,"internalType":"address"},{"name":"doctor","type":"address","indexed":true,"internalType":"address"}],"anonymous":false},{"type":"event","name":"AccessRevoked","inputs":[{"name":"patient","type":"address","indexed":true,"internalType":"address"},{"name":"doctor","type":"address","indexed":true,"internalType":"address"}],"anonymous":false},{"type":"event","name":"HostCrowdFunding","inputs":[{"name":"nameCrowd","type":"string","indexed":false,"internalType":"string"},{"name":"target","type":"uint256","indexed":false,"internalType":"uint256"},{"name":"endTime","type":"uint32","indexed":false,"internalType":"uint32"},{"name":"nameDoctorHost","type":"string","indexed":false,"internalType":"string"}],"anonymous":false},{"type":"event","name":"NewUser","inputs":[{"name":"patientId","type":"uint256","indexed":false,"internalType":"uint256"},{"name":"name","type":"string","indexed":false,"internalType":"string"},{"name":"age","type":"uint256","indexed":false,"internalType":"uint256"}],"anonymous":false},{"type":"event","name":"OwnershipTransferred","inputs":[{"name":"previousOwner","type":"address","indexed":true,"internalType":"address"},{"name":"newOwner","type":"address","indexed":true,"internalType":"address"}],"anonymous":false},{"type":"event","name":"RecordStored","inputs":[{"name":"patient","type":"address","indexed":true,"internalType":"address"},{"name":"ipfsHash","type":"string","indexed":false,"internalType":"string"}],"anonymous":false},{"type":"error","name":"OwnableInvalidOwner","inputs":[{"name":"owner","type":"address","internalType":"address"}]},{"type":"error","name":"OwnableUnauthorizedAccount","inputs":[{"name":"account","type":"address","internalType":"address"}]}],"bytecode":{"object":"0x6080604052348015600f57600080fd5b50604051611b1a380380611b1a833981016040819052602c9160b0565b803380605257604051631e4fbdf760e01b81526000600482015260240160405180910390fd5b6059816060565b50505060de565b600080546001600160a01b038381166001600160a01b0319831681178455604051919092169283917f8be0079c531659141344cd1fd0a4f28419497f9722a3daafe3b4186f6b6457e09190a35050565b60006020828403121560c157600080fd5b81516001600160a01b038116811460d757600080fd5b9392505050565b611a2d806100ed6000396000f3fe60806040526004361061014f5760003560e01c8063930b8ef1116100b6578063cf718fdc1161006f578063cf718fdc14610418578063d8da2fa814610458578063dc0d3dff14610485578063e9fa8814146104a5578063ed32f2b0146104d2578063f2fde38b146104de5761015e565b8063930b8ef11461033c57806393119a831461035c5780639ad8180f1461038b578063b8735101146103b8578063c88bde70146103d8578063cde2d23b146103f85761015e565b806358d3eab01161010857806358d3eab0146102385780636efb1b8414610286578063715018a6146102b757806385e68531146102cc5780638da5cb5b146102ec57806392ce1e411461030a5761015e565b80630ae5e739146101665780630fdb1c1014610186578063105fbbc91461015e5780631ccdfc321461019b5780632f700955146101bb5780634407e1e8146101f85761015e565b3661015e5761015c6104fe565b005b61015c6104fe565b34801561017257600080fd5b5061015c61018136600461131f565b610598565b34801561019257600080fd5b5061015c610630565b3480156101a757600080fd5b5061015c6101b636600461142a565b61063a565b3480156101c757600080fd5b5061015c6101d636600461131f565b600180546001600160a01b0319166001600160a01b0392909216919091179055565b34801561020457600080fd5b5061022561021336600461131f565b60086020526000908152604090205481565b6040519081526020015b60405180910390f35b34801561024457600080fd5b5061026e610253366004611478565b600b602052600090815260409020546001600160a01b031681565b6040516001600160a01b03909116815260200161022f565b34801561029257600080fd5b506102a66102a1366004611478565b61078b565b60405161022f9594939291906114e1565b3480156102c357600080fd5b5061015c610867565b3480156102d857600080fd5b5061015c6102e736600461131f565b610879565b3480156102f857600080fd5b506000546001600160a01b031661026e565b34801561031657600080fd5b5061032a610325366004611478565b610979565b60405161022f96959493929190611527565b34801561034857600080fd5b5061015c61035736600461158e565b610b77565b34801561036857600080fd5b5061037c610377366004611478565b610deb565b60405161022f9392919061161c565b34801561039757600080fd5b506102256103a636600461131f565b60056020526000908152604090205481565b3480156103c457600080fd5b5061015c6103d3366004611652565b610ebb565b3480156103e457600080fd5b5060015461026e906001600160a01b031681565b34801561040457600080fd5b5061015c6104133660046116a9565b6110ba565b34801561042457600080fd5b5061044861043336600461131f565b60076020526000908152604090205460ff1681565b604051901515815260200161022f565b34801561046457600080fd5b5061047861047336600461131f565b611163565b60405161022f91906116f0565b34801561049157600080fd5b5061026e6104a0366004611478565b61123d565b3480156104b157600080fd5b506102256104c036600461131f565b600c6020526000908152604090205481565b34801561015c57600080fd5b3480156104ea57600080fd5b5061015c6104f936600461131f565b611267565b336000908152600860205260408120805434929061051d908490611719565b90915550503360009081526007602052604090205460ff1680610595576009805460018181019092557f6e1540171b6c0c960b71a7020d9f60077f6af931a8bbf590da0223dacf75c7af0180546001600160a01b031916339081179091556000908152600760205260409020805460ff191690911790555b50565b600154604051630ae5e73960e01b81526001600160a01b03838116600483015290911690630ae5e73990602401600060405180830381600087803b1580156105df57600080fd5b505af11580156105f3573d6000803e3d6000fd5b50506040516001600160a01b03841692503391507f9f520b3bfc56d06f7065d10b4683b3f57ac8895d5026cd176dee95ce1454cb8d90600090a350565b6106386112a2565b565b33600090815260066020526040902054156106705760405162461bcd60e51b81526004016106679061172c565b60405180910390fd5b6040805160608101825283815260ff831660208201523391810191909152600280546001810182556000829052825191027f405787fa12a823e0f2b7631cc41b3ba8828b3321ca811111fa75cd3aa3bb5ace019081906106d090826117f7565b506020820151600191820180546040909401516001600160a01b0316610100026001600160a81b031990941660ff909216919091179290921790915560025460009161071b916118b6565b33600090815260056020908152604080832084905560069091528120805492935090610746836118c9565b91905055507fd86dca2e2544318fbca4769e2f7ea2bba8eeb0f445dd717aef0d3c84670baa4181848460405161077e939291906118e2565b60405180910390a1505050565b6003818154811061079b57600080fd5b600091825260209091206003909102018054600182018054919350906107c09061176e565b80601f01602080910402602001604051908101604052809291908181526020018280546107ec9061176e565b80156108395780601f1061080e57610100808354040283529160200191610839565b820191906000526020600020905b81548152906001019060200180831161081c57829003601f168201915b5050506002909301549192505060ff808216916001600160a01b0361010082041691600160a81b9091041685565b61086f6112a2565b61063860006112cf565b6001600160a01b03811660009081526004602052604090205460ff166108e15760405162461bcd60e51b815260206004820152601860248201527f41646472657373206973206e6f74206120646f63746f722e00000000000000006044820152606401610667565b6001546040516385e6853160e01b81526001600160a01b038381166004830152909116906385e6853190602401600060405180830381600087803b15801561092857600080fd5b505af115801561093c573d6000803e3d6000fd5b50506040516001600160a01b03841692503391507f825c8be24eb0df19500f63e86c29e7d0d951e73056b889b891d85e40938d9b6e90600090a350565b600a818154811061098957600080fd5b90600052602060002090600602016000915090508060000180546109ac9061176e565b80601f01602080910402602001604051908101604052809291908181526020018280546109d89061176e565b8015610a255780601f106109fa57610100808354040283529160200191610a25565b820191906000526020600020905b815481529060010190602001808311610a0857829003601f168201915b50505050600183015460028401546003850180549495929463ffffffff909216935090610a519061176e565b80601f0160208091040260200160405190810160405280929190818152602001828054610a7d9061176e565b8015610aca5780601f10610a9f57610100808354040283529160200191610aca565b820191906000526020600020905b815481529060010190602001808311610aad57829003601f168201915b505050600484015460058501805494956001600160a01b03909216949193509150610af49061176e565b80601f0160208091040260200160405190810160405280929190818152602001828054610b209061176e565b8015610b6d5780601f10610b4257610100808354040283529160200191610b6d565b820191906000526020600020905b815481529060010190602001808311610b5057829003601f168201915b5050505050905086565b3360009081526004602052604090205460ff16610be25760405162461bcd60e51b815260206004820152602360248201527f6f6e6c7920646f63746f72732063616e2063616c6c20746869732066756e637460448201526234b7b760e91b6064820152608401610667565b336000908152600c602052604090205460021015610c425760405162461bcd60e51b815260206004820152601960248201527f4f6e6c79203220686f737420666f72203120646f63746f7221000000000000006044820152606401610667565b6040805160c081018252858152602080820186905263ffffffff85168284015282518084019093526008835267446f63746f72204b60c01b90830152606081019190915233608082015260a08101829052600a8054600181018255600091909152815160069091027fc65a7bb8d6351c1cf70c95a316cc6a92839c986682d98bc35f958f4883f9d2a801908190610cd990826117f7565b5060208201516001820155604082015160028201805463ffffffff191663ffffffff90921691909117905560608201516003820190610d1890826117f7565b5060808201516004820180546001600160a01b0319166001600160a01b0390921691909117905560a08201516005820190610d5390826117f7565b5050600a5460009150610d68906001906118b6565b6000818152600b6020908152604080832080546001600160a01b031916339081179091558352600c9091528120805492935090610da4836118c9565b91905055507f69e156612586a9b6531cb151ff6ab9fa7b57cccd6dda6e25654707eb055ce667858585604051610ddc9392919061190e565b60405180910390a15050505050565b60028181548110610dfb57600080fd5b9060005260206000209060020201600091509050806000018054610e1e9061176e565b80601f0160208091040260200160405190810160405280929190818152602001828054610e4a9061176e565b8015610e975780601f10610e6c57610100808354040283529160200191610e97565b820191906000526020600020905b815481529060010190602001808311610e7a57829003601f168201915b5050506001909301549192505060ff8116906001600160a01b036101009091041683565b3360009081526006602052604090205415610ee85760405162461bcd60e51b81526004016106679061172c565b6127108311610f305760405162461bcd60e51b815260206004820152601460248201527315185ad9481a5908199bdc9b481a1bdc1a5d185b60621b6044820152606401610667565b6040805160a0810182528481526020810184815260ff8416928201929092523360608201526000608082018190526003805460018101825591819052825191027fc2575a0e9e593c00f959f8c92f12db2869c3395a3b0502d05e2516446f71f85b81019182559251919290917fc2575a0e9e593c00f959f8c92f12db2869c3395a3b0502d05e2516446f71f85c90910190610fcb90826117f7565b50604082015160029091018054606084015160809094015160ff908116600160a81b0260ff60a81b196001600160a01b03909616610100026001600160a81b03199093169190941617179290921617905560035460009061102e906001906118b6565b33600090815260056020908152604080832084905560069091528120805492935090611059836118c9565b90915550503360009081526004602052604090819020805460ff19166001179055517fd86dca2e2544318fbca4769e2f7ea2bba8eeb0f445dd717aef0d3c84670baa41906110ac908390869086906118e2565b60405180910390a150505050565b60015460405163cde2d23b60e01b81526001600160a01b039091169063cde2d23b906110ec908590859060040161195f565b600060405180830381600087803b15801561110657600080fd5b505af115801561111a573d6000803e3d6000fd5b50505050336001600160a01b03167f9030e73d33af80bdf3d4bb5ed5de0b053a3e66e0560332ff6b5b975cf3464f438260405161115791906116f0565b60405180910390a25050565b3360009081526004602052604090205460609060ff166111c55760405162461bcd60e51b815260206004820152601e60248201527f4f6e6c7920646f63746f72732063616e2076696577207265636f7264732e00006044820152606401610667565b600154604051631b1b45f560e31b81526001600160a01b0384811660048301529091169063d8da2fa890602401600060405180830381865afa15801561120f573d6000803e3d6000fd5b505050506040513d6000823e601f3d908101601f191682016040526112379190810190611980565b92915050565b6009818154811061124d57600080fd5b6000918252602090912001546001600160a01b0316905081565b61126f6112a2565b6001600160a01b03811661129957604051631e4fbdf760e01b815260006004820152602401610667565b610595816112cf565b6000546001600160a01b031633146106385760405163118cdaa760e01b8152336004820152602401610667565b600080546001600160a01b038381166001600160a01b0319831681178455604051919092169283917f8be0079c531659141344cd1fd0a4f28419497f9722a3daafe3b4186f6b6457e09190a35050565b60006020828403121561133157600080fd5b81356001600160a01b038116811461134857600080fd5b9392505050565b634e487b7160e01b600052604160045260246000fd5b604051601f8201601f1916810167ffffffffffffffff8111828210171561138e5761138e61134f565b604052919050565b600067ffffffffffffffff8211156113b0576113b061134f565b50601f01601f191660200190565b600082601f8301126113cf57600080fd5b81356113e26113dd82611396565b611365565b8181528460208386010111156113f757600080fd5b816020850160208301376000918101602001919091529392505050565b803560ff8116811461142557600080fd5b919050565b6000806040838503121561143d57600080fd5b823567ffffffffffffffff81111561145457600080fd5b611460858286016113be565b92505061146f60208401611414565b90509250929050565b60006020828403121561148a57600080fd5b5035919050565b60005b838110156114ac578181015183820152602001611494565b50506000910152565b600081518084526114cd816020860160208601611491565b601f01601f19169290920160200192915050565b85815260a0602082015260006114fa60a08301876114b5565b60ff95861660408401526001600160a01b0394909416606083015250921660809092019190915292915050565b60c08152600061153a60c08301896114b5565b87602084015263ffffffff87166040840152828103606084015261155e81876114b5565b6001600160a01b038616608085015283810360a0850152905061158181856114b5565b9998505050505050505050565b600080600080608085870312156115a457600080fd5b843567ffffffffffffffff8111156115bb57600080fd5b6115c7878288016113be565b94505060208501359250604085013563ffffffff811681146115e857600080fd5b9150606085013567ffffffffffffffff81111561160457600080fd5b611610878288016113be565b91505092959194509250565b60608152600061162f60608301866114b5565b60ff949094166020830152506001600160a01b0391909116604090910152919050565b60008060006060848603121561166757600080fd5b83359250602084013567ffffffffffffffff81111561168557600080fd5b611691868287016113be565b9250506116a060408501611414565b90509250925092565b600080604083850312156116bc57600080fd5b82359150602083013567ffffffffffffffff8111156116da57600080fd5b6116e6858286016113be565b9150509250929050565b60208152600061134860208301846114b5565b634e487b7160e01b600052601160045260246000fd5b8082018082111561123757611237611703565b60208082526022908201527f596f7520616c7265616479206861766520612070617469656e742070726f66696040820152616c6560f01b606082015260800190565b600181811c9082168061178257607f821691505b6020821081036117a257634e487b7160e01b600052602260045260246000fd5b50919050565b601f8211156117f257806000526020600020601f840160051c810160208510156117cf5750805b601f840160051c820191505b818110156117ef57600081556001016117db565b50505b505050565b815167ffffffffffffffff8111156118115761181161134f565b6118258161181f845461176e565b846117a8565b6020601f82116001811461185957600083156118415750848201515b600019600385901b1c1916600184901b1784556117ef565b600084815260208120601f198516915b828110156118895787850151825560209485019460019092019101611869565b50848210156118a75786840151600019600387901b60f8161c191681555b50505050600190811b01905550565b8181038181111561123757611237611703565b6000600182016118db576118db611703565b5060010190565b8381526060602082015260006118fb60608301856114b5565b905060ff83166040830152949350505050565b60808152600061192160808301866114b5565b84602084015263ffffffff8416604084015282810360608401526008815267446f63746f72204b60c01b602082015260408101915050949350505050565b82815260406020820152600061197860408301846114b5565b949350505050565b60006020828403121561199257600080fd5b815167ffffffffffffffff8111156119a957600080fd5b8201601f810184136119ba57600080fd5b80516119c86113dd82611396565b8181528560208385010111156119dd57600080fd5b6119ee826020830160208601611491565b9594505050505056fea2646970667358221220ae66bdf12bbd26e04d09b0f65ec423a60f796ca521b7211230a5197beaccace864736f6c634300081a0033","linkReferences":{}},"methodIdentifiers":{"createCrowd(string,uint256,uint32,string)":"930b8ef1","createProfileDoctor(uint256,string,uint8)":"b8735101","createProfilePatient(string,uint8)":"1ccdfc32","crowdToOwner(uint256)":"58d3eab0","crowds(uint256)":"92ce1e41","dataTransfer()":"c88bde70","doctors(uint256)":"6efb1b84","endCrowdfunding()":"ed32f2b0","fundToCrowd()":"105fbbc9","funderToAmount(address)":"4407e1e8","funders(uint256)":"dc0d3dff","getIpfsHash(address)":"d8da2fa8","grantAccess(address)":"0ae5e739","isFunders(address)":"cf718fdc","owner()":"8da5cb5b","ownerCrowdCount(address)":"e9fa8814","patients(uint256)":"93119a83","profileToOwner(address)":"9ad8180f","renounceOwnership()":"715018a6","revokeAccess(address)":"85e68531","setDataTransferAddress(address)":"2f700955","storeRecord(uint256,string)":"cde2d23b","transferOwnership(address)":"f2fde38b","withDraw()":"0fdb1c10"},"id":28}