{"abi":[{"type":"function","name":"getRecord","inputs":[{"name":"patient","type":"address","internalType":"address"}],"outputs":[{"name":"","type":"string","internalType":"string"}],"stateMutability":"view"},{"type":"function","name":"grantAccess","inputs":[{"name":"doctor","type":"address","internalType":"address"}],"outputs":[],"stateMutability":"nonpayable"},{"type":"function","name":"records","inputs":[{"name":"","type":"address","internalType":"address"}],"outputs":[{"name":"id","type":"uint256","internalType":"uint256"},{"name":"ipfsHash","type":"string","internalType":"string"}],"stateMutability":"view"},{"type":"function","name":"revokeAccess","inputs":[{"name":"doctor","type":"address","internalType":"address"}],"outputs":[],"stateMutability":"nonpayable"},{"type":"function","name":"storeRecord","inputs":[{"name":"_id","type":"uint256","internalType":"uint256"},{"name":"ipfsHash","type":"string","internalType":"string"}],"outputs":[],"stateMutability":"nonpayable"}],"bytecode":{"object":"0x6080604052348015600f57600080fd5b506107a58061001f6000396000f3fe608060405234801561001057600080fd5b50600436106100575760003560e01c80630ae5e7391461005c578063469e906714610071578063617fba041461009b57806385e68531146100bb578063cde2d23b146100ce575b600080fd5b61006f61006a366004610452565b6100e1565b005b61008461007f366004610452565b610175565b6040516100929291906104c8565b60405180910390f35b6100ae6100a9366004610452565b61021a565b60405161009291906104e9565b61006f6100c9366004610452565b6102c9565b61006f6100dc366004610512565b610433565b6001600160a01b0381166101355760405162461bcd60e51b8152602060048201526016602482015275496e76616c696420646f63746f72206164647265737360501b60448201526064015b60405180910390fd5b336000908152602081815260408220600201805460018101825590835291200180546001600160a01b0319166001600160a01b0392909216919091179055565b60006020819052908152604090208054600182018054919291610197906105d5565b80601f01602080910402602001604051908101604052809291908181526020018280546101c3906105d5565b80156102105780601f106101e557610100808354040283529160200191610210565b820191906000526020600020905b8154815290600101906020018083116101f357829003601f168201915b5050505050905082565b6001600160a01b0381166000908152602081905260409020600101805460609190610244906105d5565b80601f0160208091040260200160405190810160405280929190818152602001828054610270906105d5565b80156102bd5780601f10610292576101008083540402835291602001916102bd565b820191906000526020600020905b8154815290600101906020018083116102a057829003601f168201915b50505050509050919050565b6001600160a01b0381166103185760405162461bcd60e51b8152602060048201526016602482015275496e76616c696420646f63746f72206164647265737360501b604482015260640161012c565b336000908152602081905260408120905b600282015481101561042e57826001600160a01b03168260020182815481106103545761035461060f565b6000918252602090912001546001600160a01b0316036104265760028201805461038090600190610625565b815481106103905761039061060f565b6000918252602090912001546002830180546001600160a01b0390921691839081106103be576103be61060f565b9060005260206000200160006101000a8154816001600160a01b0302191690836001600160a01b03160217905550816002018054806103ff576103ff61064c565b600082815260209020810160001990810180546001600160a01b0319169055019055505050565b600101610329565b505050565b33600090815260208190526040902082815560010161042e82826106b0565b60006020828403121561046457600080fd5b81356001600160a01b038116811461047b57600080fd5b9392505050565b6000815180845260005b818110156104a85760208185018101518683018201520161048c565b506000602082860101526020601f19601f83011685010191505092915050565b8281526040602082015260006104e16040830184610482565b949350505050565b60208152600061047b6020830184610482565b634e487b7160e01b600052604160045260246000fd5b6000806040838503121561052557600080fd5b82359150602083013567ffffffffffffffff81111561054357600080fd5b8301601f8101851361055457600080fd5b803567ffffffffffffffff81111561056e5761056e6104fc565b604051601f8201601f19908116603f0116810167ffffffffffffffff8111828210171561059d5761059d6104fc565b6040528181528282016020018710156105b557600080fd5b816020840160208301376000602083830101528093505050509250929050565b600181811c908216806105e957607f821691505b60208210810361060957634e487b7160e01b600052602260045260246000fd5b50919050565b634e487b7160e01b600052603260045260246000fd5b8181038181111561064657634e487b7160e01b600052601160045260246000fd5b92915050565b634e487b7160e01b600052603160045260246000fd5b601f82111561042e57806000526020600020601f840160051c810160208510156106895750805b601f840160051c820191505b818110156106a95760008155600101610695565b5050505050565b815167ffffffffffffffff8111156106ca576106ca6104fc565b6106de816106d884546105d5565b84610662565b6020601f82116001811461071257600083156106fa5750848201515b600019600385901b1c1916600184901b1784556106a9565b600084815260208120601f198516915b828110156107425787850151825560209485019460019092019101610722565b50848210156107605786840151600019600387901b60f8161c191681555b50505050600190811b0190555056fea2646970667358221220eb6cff85c0abd1615d24dff2acc1aa19e0745c96a11ed56e24413e4c45223e5e64736f6c634300081a0033","linkReferences":{}},"methodIdentifiers":{"getRecord(address)":"617fba04","grantAccess(address)":"0ae5e739","records(address)":"469e9067","revokeAccess(address)":"85e68531","storeRecord(uint256,string)":"cde2d23b"},"id":0}