{"abi":[{"type":"function","name":"getId","inputs":[{"name":"patient","type":"address","internalType":"address"}],"outputs":[{"name":"","type":"uint256","internalType":"uint256"}],"stateMutability":"view"},{"type":"function","name":"getRecord","inputs":[{"name":"patient","type":"address","internalType":"address"}],"outputs":[{"name":"","type":"string","internalType":"string"}],"stateMutability":"view"},{"type":"function","name":"records","inputs":[{"name":"","type":"address","internalType":"address"}],"outputs":[{"name":"id","type":"uint256","internalType":"uint256"},{"name":"ipfsHash","type":"string","internalType":"string"}],"stateMutability":"view"},{"type":"function","name":"recordsArray","inputs":[{"name":"","type":"uint256","internalType":"uint256"}],"outputs":[{"name":"id","type":"uint256","internalType":"uint256"},{"name":"ipfsHash","type":"string","internalType":"string"}],"stateMutability":"view"},{"type":"function","name":"storeRecord","inputs":[{"name":"_id","type":"uint256","internalType":"uint256"},{"name":"ipfsHash","type":"string","internalType":"string"}],"outputs":[],"stateMutability":"nonpayable"}],"bytecode":{"object":"0x6080604052348015600f57600080fd5b506106508061001f6000396000f3fe608060405234801561001057600080fd5b50600436106100575760003560e01c8063469e90671461005c578063617fba041461008657806365f68c89146100a6578063ca94a719146100dd578063cde2d23b146100f0575b600080fd5b61006f61006a366004610337565b610105565b60405161007d9291906103ad565b60405180910390f35b610099610094366004610337565b6101aa565b60405161007d91906103ce565b6100cf6100b4366004610337565b6001600160a01b031660009081526020819052604090205490565b60405190815260200161007d565b61006f6100eb3660046103e1565b610259565b6101036100fe366004610410565b61028e565b005b60006020819052908152604090208054600182018054919291610127906104d3565b80601f0160208091040260200160405190810160405280929190818152602001828054610153906104d3565b80156101a05780601f10610175576101008083540402835291602001916101a0565b820191906000526020600020905b81548152906001019060200180831161018357829003601f168201915b5050505050905082565b6001600160a01b03811660009081526020819052604090206001018054606091906101d4906104d3565b80601f0160208091040260200160405190810160405280929190818152602001828054610200906104d3565b801561024d5780601f106102225761010080835404028352916020019161024d565b820191906000526020600020905b81548152906001019060200180831161023057829003601f168201915b50505050509050919050565b6001818154811061026957600080fd5b60009182526020909120600290910201805460018201805491935090610127906104d3565b6040805180820190915282815260208101828152600180548082018255600091909152825160029091027fb10e2d527612073b26eecdfd717e6a320cf44b4afac2b0732d9fcbe2b7fa0cf68101918255915190917fb10e2d527612073b26eecdfd717e6a320cf44b4afac2b0732d9fcbe2b7fa0cf7019061030f908261055b565b50503360009081526020819052604090208381556001019050610332828261055b565b505050565b60006020828403121561034957600080fd5b81356001600160a01b038116811461036057600080fd5b9392505050565b6000815180845260005b8181101561038d57602081850181015186830182015201610371565b506000602082860101526020601f19601f83011685010191505092915050565b8281526040602082015260006103c66040830184610367565b949350505050565b6020815260006103606020830184610367565b6000602082840312156103f357600080fd5b5035919050565b634e487b7160e01b600052604160045260246000fd5b6000806040838503121561042357600080fd5b82359150602083013567ffffffffffffffff81111561044157600080fd5b8301601f8101851361045257600080fd5b803567ffffffffffffffff81111561046c5761046c6103fa565b604051601f8201601f19908116603f0116810167ffffffffffffffff8111828210171561049b5761049b6103fa565b6040528181528282016020018710156104b357600080fd5b816020840160208301376000602083830101528093505050509250929050565b600181811c908216806104e757607f821691505b60208210810361050757634e487b7160e01b600052602260045260246000fd5b50919050565b601f82111561033257806000526020600020601f840160051c810160208510156105345750805b601f840160051c820191505b818110156105545760008155600101610540565b5050505050565b815167ffffffffffffffff811115610575576105756103fa565b6105898161058384546104d3565b8461050d565b6020601f8211600181146105bd57600083156105a55750848201515b600019600385901b1c1916600184901b178455610554565b600084815260208120601f198516915b828110156105ed57878501518255602094850194600190920191016105cd565b508482101561060b5786840151600019600387901b60f8161c191681555b50505050600190811b0190555056fea2646970667358221220e2be6b4b3581170e1b544db901c8628f5923eea00f407f6f9eb04720c6bd05f064736f6c634300081a0033","linkReferences":{}},"methodIdentifiers":{"getId(address)":"65f68c89","getRecord(address)":"617fba04","records(address)":"469e9067","recordsArray(uint256)":"ca94a719","storeRecord(uint256,string)":"cde2d23b"},"id":30}