{"abi":[{"type":"function","name":"grantAccess","inputs":[{"name":"doctor","type":"address","internalType":"address"}],"outputs":[],"stateMutability":"nonpayable"},{"type":"function","name":"hasAccess","inputs":[{"name":"patient","type":"address","internalType":"address"},{"name":"doctor","type":"address","internalType":"address"}],"outputs":[{"name":"","type":"bool","internalType":"bool"}],"stateMutability":"view"},{"type":"function","name":"records","inputs":[{"name":"","type":"uint256","internalType":"uint256"}],"outputs":[{"name":"id","type":"uint256","internalType":"uint256"},{"name":"ipfsHash","type":"string","internalType":"string"},{"name":"authorizedDoctor","type":"address","internalType":"address"},{"name":"owner","type":"address","internalType":"address"}],"stateMutability":"view"},{"type":"function","name":"revokeAccess","inputs":[],"outputs":[],"stateMutability":"nonpayable"},{"type":"function","name":"storeRecord","inputs":[{"name":"_id","type":"uint256","internalType":"uint256"},{"name":"ipfsHash","type":"string","internalType":"string"}],"outputs":[],"stateMutability":"nonpayable"}],"bytecode":{"object":"0x6080604052348015600f57600080fd5b5061090d8061001f6000396000f3fe608060405234801561001057600080fd5b50600436106100575760003560e01c80630ae5e7391461005c5780631709ef071461007157806334461067146100995780634e4c7d9b146100bc578063cde2d23b146100c4575b600080fd5b61006f61006a3660046105b4565b6100d7565b005b61008461007f3660046105d6565b610208565b60405190151581526020015b60405180910390f35b6100ac6100a7366004610609565b6102d0565b6040516100909493929190610622565b61006f6103a1565b61006f6100d23660046106b6565b610441565b6001600160a01b03811661012b5760405162461bcd60e51b8152602060048201526016602482015275496e76616c696420646f63746f72206164647265737360501b60448201526064015b60405180910390fd5b60005b6000548110156101cc57336001600160a01b03166000828154811061015557610155610779565b60009182526020909120600360049092020101546001600160a01b0316036101c457816000828154811061018b5761018b610779565b906000526020600020906004020160020160006101000a8154816001600160a01b0302191690836001600160a01b031602179055505050565b60010161012e565b5060405162461bcd60e51b815260206004820152601060248201526f149958dbdc99081b9bdd08199bdd5b9960821b6044820152606401610122565b6000805b6000548110156102c457836001600160a01b03166000828154811061023357610233610779565b60009182526020909120600360049092020101546001600160a01b0316036102bc57826001600160a01b0316846001600160a01b0316036102785760019150506102ca565b826001600160a01b03166000828154811061029557610295610779565b60009182526020909120600260049092020101546001600160a01b03161491506102ca9050565b60010161020c565b50600090505b92915050565b600081815481106102e057600080fd5b600091825260209091206004909102018054600182018054919350906103059061078f565b80601f01602080910402602001604051908101604052809291908181526020018280546103319061078f565b801561037e5780601f106103535761010080835404028352916020019161037e565b820191906000526020600020905b81548152906001019060200180831161036157829003601f168201915b50505050600283015460039093015491926001600160a01b039081169216905084565b60005b6000548110156101cc57336001600160a01b0316600082815481106103cb576103cb610779565b60009182526020909120600360049092020101546001600160a01b03160361043957600080828154811061040157610401610779565b906000526020600020906004020160020160006101000a8154816001600160a01b0302191690836001600160a01b0316021790555050565b6001016103a4565b600082116104855760405162461bcd60e51b8152602060048201526011602482015270125b9d985b1a59081c9958dbdc99081251607a1b6044820152606401610122565b60008151116104ca5760405162461bcd60e51b8152602060048201526011602482015270092dcecc2d8d2c84092a08ca640d0c2e6d607b1b6044820152606401610122565b604080516080810182528381526020810183815260009282018390523360608301528254600181018455928052815160049093027f290decd9548b62a8d60345a988386fc84ba6bc95484008f6362f93160ef3e563810193845590519192917f290decd9548b62a8d60345a988386fc84ba6bc95484008f6362f93160ef3e564909101906105589082610818565b5060408201516002820180546001600160a01b03199081166001600160a01b03938416179091556060909301516003909201805490931691161790555050565b80356001600160a01b03811681146105af57600080fd5b919050565b6000602082840312156105c657600080fd5b6105cf82610598565b9392505050565b600080604083850312156105e957600080fd5b6105f283610598565b915061060060208401610598565b90509250929050565b60006020828403121561061b57600080fd5b5035919050565b848152608060208201526000845180608084015260005b8181101561065657602081880181015160a0868401015201610639565b50600083820160a0908101919091526001600160a01b0386166040850152601f909101601f1916830101905061069760608301846001600160a01b03169052565b95945050505050565b634e487b7160e01b600052604160045260246000fd5b600080604083850312156106c957600080fd5b82359150602083013567ffffffffffffffff8111156106e757600080fd5b8301601f810185136106f857600080fd5b803567ffffffffffffffff811115610712576107126106a0565b604051601f8201601f19908116603f0116810167ffffffffffffffff81118282101715610741576107416106a0565b60405281815282820160200187101561075957600080fd5b816020840160208301376000602083830101528093505050509250929050565b634e487b7160e01b600052603260045260246000fd5b600181811c908216806107a357607f821691505b6020821081036107c357634e487b7160e01b600052602260045260246000fd5b50919050565b601f82111561081357806000526020600020601f840160051c810160208510156107f05750805b601f840160051c820191505b8181101561081057600081556001016107fc565b50505b505050565b815167ffffffffffffffff811115610832576108326106a0565b61084681610840845461078f565b846107c9565b6020601f82116001811461087a57600083156108625750848201515b600019600385901b1c1916600184901b178455610810565b600084815260208120601f198516915b828110156108aa578785015182556020948501946001909201910161088a565b50848210156108c85786840151600019600387901b60f8161c191681555b50505050600190811b0190555056fea264697066735822122065553f388b7a00e67b7286f6ebebeb3dd303fc1b22aad4d5922a5b1a54bfbace64736f6c634300081a0033","linkReferences":{}},"methodIdentifiers":{"grantAccess(address)":"0ae5e739","hasAccess(address,address)":"1709ef07","records(uint256)":"34461067","revokeAccess()":"4e4c7d9b","storeRecord(uint256,string)":"cde2d23b"},"id":30}