{"abi":[{"type":"function","name":"getIpfsHash","inputs":[{"name":"patient","type":"address","internalType":"address"}],"outputs":[{"name":"","type":"string","internalType":"string"}],"stateMutability":"view"},{"type":"function","name":"grantAccess","inputs":[{"name":"doctor","type":"address","internalType":"address"}],"outputs":[],"stateMutability":"nonpayable"},{"type":"function","name":"hasAccess","inputs":[{"name":"patient","type":"address","internalType":"address"},{"name":"doctor","type":"address","internalType":"address"}],"outputs":[{"name":"","type":"bool","internalType":"bool"}],"stateMutability":"view"},{"type":"function","name":"records","inputs":[{"name":"","type":"uint256","internalType":"uint256"}],"outputs":[{"name":"id","type":"uint256","internalType":"uint256"},{"name":"ipfsHash","type":"string","internalType":"string"},{"name":"authorizedDoctor","type":"address","internalType":"address"},{"name":"owner","type":"address","internalType":"address"}],"stateMutability":"view"},{"type":"function","name":"revokeAccess","inputs":[],"outputs":[],"stateMutability":"nonpayable"},{"type":"function","name":"storeRecord","inputs":[{"name":"_id","type":"uint256","internalType":"uint256"},{"name":"ipfsHash","type":"string","internalType":"string"}],"outputs":[],"stateMutability":"nonpayable"}],"bytecode":{"object":"0x6080604052348015600f57600080fd5b50610b1a8061001f6000396000f3fe608060405234801561001057600080fd5b50600436106100625760003560e01c80630ae5e739146100675780631709ef071461007c57806334461067146100a45780634e4c7d9b146100c7578063cde2d23b146100cf578063d8da2fa8146100e2575b600080fd5b61007a6100753660046107ac565b610102565b005b61008f61008a3660046107ce565b610233565b60405190151581526020015b60405180910390f35b6100b76100b2366004610801565b6102fb565b60405161009b9493929190610860565b61007a6103cc565b61007a6100dd3660046108b0565b61046c565b6100f56100f03660046107ac565b6105c3565b60405161009b9190610973565b6001600160a01b0381166101565760405162461bcd60e51b8152602060048201526016602482015275496e76616c696420646f63746f72206164647265737360501b60448201526064015b60405180910390fd5b60005b6000548110156101f757336001600160a01b03166000828154811061018057610180610986565b60009182526020909120600360049092020101546001600160a01b0316036101ef5781600082815481106101b6576101b6610986565b906000526020600020906004020160020160006101000a8154816001600160a01b0302191690836001600160a01b031602179055505050565b600101610159565b5060405162461bcd60e51b815260206004820152601060248201526f149958dbdc99081b9bdd08199bdd5b9960821b604482015260640161014d565b6000805b6000548110156102ef57836001600160a01b03166000828154811061025e5761025e610986565b60009182526020909120600360049092020101546001600160a01b0316036102e757826001600160a01b0316846001600160a01b0316036102a35760019150506102f5565b826001600160a01b0316600082815481106102c0576102c0610986565b60009182526020909120600260049092020101546001600160a01b03161491506102f59050565b600101610237565b50600090505b92915050565b6000818154811061030b57600080fd5b600091825260209091206004909102018054600182018054919350906103309061099c565b80601f016020809104026020016040519081016040528092919081815260200182805461035c9061099c565b80156103a95780601f1061037e576101008083540402835291602001916103a9565b820191906000526020600020905b81548152906001019060200180831161038c57829003601f168201915b50505050600283015460039093015491926001600160a01b039081169216905084565b60005b6000548110156101f757336001600160a01b0316600082815481106103f6576103f6610986565b60009182526020909120600360049092020101546001600160a01b03160361046457600080828154811061042c5761042c610986565b906000526020600020906004020160020160006101000a8154816001600160a01b0302191690836001600160a01b0316021790555050565b6001016103cf565b600082116104b05760405162461bcd60e51b8152602060048201526011602482015270125b9d985b1a59081c9958dbdc99081251607a1b604482015260640161014d565b60008151116104f55760405162461bcd60e51b8152602060048201526011602482015270092dcecc2d8d2c84092a08ca640d0c2e6d607b1b604482015260640161014d565b604080516080810182528381526020810183815260009282018390523360608301528254600181018455928052815160049093027f290decd9548b62a8d60345a988386fc84ba6bc95484008f6362f93160ef3e563810193845590519192917f290decd9548b62a8d60345a988386fc84ba6bc95484008f6362f93160ef3e564909101906105839082610a25565b5060408201516002820180546001600160a01b03199081166001600160a01b03938416179091556060909301516003909201805490931691161790555050565b60606105cf8233610233565b61062f5760405162461bcd60e51b815260206004820152602b60248201527f556e617574686f72697a65643a204e6f2061636365737320746f20706174696560448201526a1b9d09dcc81c9958dbdc9960aa1b606482015260840161014d565b60005b60005481101561073857826001600160a01b03166000828154811061065957610659610986565b60009182526020909120600360049092020101546001600160a01b031603610730576000818154811061068e5761068e610986565b906000526020600020906004020160010180546106aa9061099c565b80601f01602080910402602001604051908101604052809291908181526020018280546106d69061099c565b80156107235780601f106106f857610100808354040283529160200191610723565b820191906000526020600020905b81548152906001019060200180831161070657829003601f168201915b5050505050915050919050565b600101610632565b5060405162461bcd60e51b815260206004820152602660248201527f5265636f7264206e6f7420666f756e6420666f722074686520676976656e2070604482015265185d1a595b9d60d21b606482015260840161014d565b80356001600160a01b03811681146107a757600080fd5b919050565b6000602082840312156107be57600080fd5b6107c782610790565b9392505050565b600080604083850312156107e157600080fd5b6107ea83610790565b91506107f860208401610790565b90509250929050565b60006020828403121561081357600080fd5b5035919050565b6000815180845260005b8181101561084057602081850181015186830182015201610824565b506000602082860101526020601f19601f83011685010191505092915050565b848152608060208201526000610879608083018661081a565b6001600160a01b039485166040840152929093166060909101529392505050565b634e487b7160e01b600052604160045260246000fd5b600080604083850312156108c357600080fd5b82359150602083013567ffffffffffffffff8111156108e157600080fd5b8301601f810185136108f257600080fd5b803567ffffffffffffffff81111561090c5761090c61089a565b604051601f8201601f19908116603f0116810167ffffffffffffffff8111828210171561093b5761093b61089a565b60405281815282820160200187101561095357600080fd5b816020840160208301376000602083830101528093505050509250929050565b6020815260006107c7602083018461081a565b634e487b7160e01b600052603260045260246000fd5b600181811c908216806109b057607f821691505b6020821081036109d057634e487b7160e01b600052602260045260246000fd5b50919050565b601f821115610a2057806000526020600020601f840160051c810160208510156109fd5750805b601f840160051c820191505b81811015610a1d5760008155600101610a09565b50505b505050565b815167ffffffffffffffff811115610a3f57610a3f61089a565b610a5381610a4d845461099c565b846109d6565b6020601f821160018114610a875760008315610a6f5750848201515b600019600385901b1c1916600184901b178455610a1d565b600084815260208120601f198516915b82811015610ab75787850151825560209485019460019092019101610a97565b5084821015610ad55786840151600019600387901b60f8161c191681555b50505050600190811b0190555056fea2646970667358221220272739dd8917c6c5eddcc54c2aa67c6c14f67c85a4deb17b29a7e94c652b56ea64736f6c634300081a0033","linkReferences":{}},"methodIdentifiers":{"getIpfsHash(address)":"d8da2fa8","grantAccess(address)":"0ae5e739","hasAccess(address,address)":"1709ef07","records(uint256)":"34461067","revokeAccess()":"4e4c7d9b","storeRecord(uint256,string)":"cde2d23b"},"id":32}