{"abi":[{"type":"function","name":"getRecord","inputs":[{"name":"patient","type":"address","internalType":"address"}],"outputs":[{"name":"","type":"string","internalType":"string"}],"stateMutability":"view"},{"type":"function","name":"grantAccess","inputs":[{"name":"doctor","type":"address","internalType":"address"}],"outputs":[],"stateMutability":"nonpayable"},{"type":"function","name":"revokeAccess","inputs":[{"name":"doctor","type":"address","internalType":"address"}],"outputs":[],"stateMutability":"nonpayable"},{"type":"function","name":"storeRecord","inputs":[{"name":"ipfsHash","type":"string","internalType":"string"}],"outputs":[],"stateMutability":"nonpayable"}],"bytecode":{"object":"0x6080604052348015600f57600080fd5b506107928061001f6000396000f3fe608060405234801561001057600080fd5b506004361061004c5760003560e01c80630ae5e73914610051578063617fba041461006657806376d91d081461008f57806385e68531146100a2575b600080fd5b61006461005f36600461047b565b6100b5565b005b61007961007436600461047b565b610149565b60405161008691906104ab565b60405180910390f35b61006461009d36600461050f565b61025c565b6100646100b036600461047b565b610279565b6001600160a01b0381166101095760405162461bcd60e51b8152602060048201526016602482015275496e76616c696420646f63746f72206164647265737360501b60448201526064015b60405180910390fd5b336000908152602081815260408220600190810180549182018155835291200180546001600160a01b0319166001600160a01b0392909216919091179055565b606061015582336103e3565b6101b45760405162461bcd60e51b815260206004820152602a60248201527f596f7520617265206e6f7420617574686f72697a656420746f207669657720746044820152691a1a5cc81c9958dbdc9960b21b6064820152608401610100565b6001600160a01b038216600090815260208190526040902080546101d7906105c8565b80601f0160208091040260200160405190810160405280929190818152602001828054610203906105c8565b80156102505780601f1061022557610100808354040283529160200191610250565b820191906000526020600020905b81548152906001019060200180831161023357829003601f168201915b50505050509050919050565b3360009081526020819052604090206102758282610650565b5050565b6001600160a01b0381166102c85760405162461bcd60e51b8152602060048201526016602482015275496e76616c696420646f63746f72206164647265737360501b6044820152606401610100565b336000908152602081905260408120905b60018201548110156103de57826001600160a01b03168260010182815481106103045761030461070f565b6000918252602090912001546001600160a01b0316036103d65760018083018054909161033091610725565b815481106103405761034061070f565b6000918252602090912001546001830180546001600160a01b03909216918390811061036e5761036e61070f565b9060005260206000200160006101000a8154816001600160a01b0302191690836001600160a01b03160217905550816001018054806103af576103af610746565b600082815260209020810160001990810180546001600160a01b0319169055019055505050565b6001016102d9565b505050565b6001600160a01b038083166000818152602081905260408120909290919084169003610413576001915050610475565b60005b600182015481101561046e57836001600160a01b03168260010182815481106104415761044161070f565b6000918252602090912001546001600160a01b03160361046657600192505050610475565b600101610416565b5060009150505b92915050565b60006020828403121561048d57600080fd5b81356001600160a01b03811681146104a457600080fd5b9392505050565b602081526000825180602084015260005b818110156104d957602081860181015160408684010152016104bc565b506000604082850101526040601f19601f83011684010191505092915050565b634e487b7160e01b600052604160045260246000fd5b60006020828403121561052157600080fd5b813567ffffffffffffffff81111561053857600080fd5b8201601f8101841361054957600080fd5b803567ffffffffffffffff811115610563576105636104f9565b604051601f8201601f19908116603f0116810167ffffffffffffffff81118282101715610592576105926104f9565b6040528181528282016020018610156105aa57600080fd5b81602084016020830137600091810160200191909152949350505050565b600181811c908216806105dc57607f821691505b6020821081036105fc57634e487b7160e01b600052602260045260246000fd5b50919050565b601f8211156103de57806000526020600020601f840160051c810160208510156106295750805b601f840160051c820191505b818110156106495760008155600101610635565b5050505050565b815167ffffffffffffffff81111561066a5761066a6104f9565b61067e8161067884546105c8565b84610602565b6020601f8211600181146106b2576000831561069a5750848201515b600019600385901b1c1916600184901b178455610649565b600084815260208120601f198516915b828110156106e257878501518255602094850194600190920191016106c2565b50848210156107005786840151600019600387901b60f8161c191681555b50505050600190811b01905550565b634e487b7160e01b600052603260045260246000fd5b8181038181111561047557634e487b7160e01b600052601160045260246000fd5b634e487b7160e01b600052603160045260246000fdfea2646970667358221220abf989dea7034d8f62c9b242bb7732678ef3f5dd70da98664205f6b34bcc368f64736f6c634300081a0033","linkReferences":{}},"methodIdentifiers":{"getRecord(address)":"617fba04","grantAccess(address)":"0ae5e739","revokeAccess(address)":"85e68531","storeRecord(string)":"76d91d08"},"id":1}