{"abi":[{"type":"constructor","inputs":[],"stateMutability":"nonpayable"},{"type":"function","name":"addPatient","inputs":[{"name":"_patient","type":"address","internalType":"address"},{"name":"_id","type":"uint256","internalType":"uint256"}],"outputs":[{"name":"","type":"bool","internalType":"bool"}],"stateMutability":"nonpayable"},{"type":"function","name":"getPatientId","inputs":[{"name":"_patient","type":"address","internalType":"address"}],"outputs":[{"name":"","type":"uint256","internalType":"uint256"}],"stateMutability":"view"},{"type":"function","name":"s_owner","inputs":[],"outputs":[{"name":"","type":"address","internalType":"address"}],"stateMutability":"view"}],"bytecode":{"object":"0x6080604052348015600f57600080fd5b50600080546001600160a01b031916331790556101f1806100316000396000f3fe608060405234801561001057600080fd5b50600436106100415760003560e01c80632604fa7b14610046578063bfbe4f221461006c578063e39782401461008f575b600080fd5b61005961005436600461016f565b6100ba565b6040519081526020015b60405180910390f35b61007f61007a366004610191565b6100ee565b6040519015158152602001610063565b6000546100a2906001600160a01b031681565b6040516001600160a01b039091168152602001610063565b600080546001600160a01b031633146100d257600080fd5b506001600160a01b031660009081526001602052604090205490565b600080546001600160a01b0316331461010657600080fd5b6001600160a01b038316600090815260016020526040812054900361014957506001600160a01b038216600090815260016020819052604090912082905561014d565b5060005b92915050565b80356001600160a01b038116811461016a57600080fd5b919050565b60006020828403121561018157600080fd5b61018a82610153565b9392505050565b600080604083850312156101a457600080fd5b6101ad83610153565b94602093909301359350505056fea2646970667358221220753f3d0f668cf6137692c59e9887f80795d1269dfd8e3a842afa898b160116e564736f6c634300081a0033","linkReferences":{}},"methodIdentifiers":{"addPatient(address,uint256)":"bfbe4f22","getPatientId(address)":"2604fa7b","s_owner()":"e3978240"},"id":14}