{"abi":[{"type":"constructor","inputs":[],"stateMutability":"nonpayable"},{"type":"fallback","stateMutability":"payable"},{"type":"receive","stateMutability":"payable"},{"type":"function","name":"createCrowd","inputs":[{"name":"_nameCrowd","type":"string","internalType":"string"},{"name":"_target","type":"uint256","internalType":"uint256"},{"name":"_endTime","type":"uint32","internalType":"uint32"},{"name":"_scriptCrowd","type":"string","internalType":"string"}],"outputs":[],"stateMutability":"nonpayable"},{"type":"function","name":"createProfileDoctor","inputs":[{"name":"_idDoctor","type":"uint256","internalType":"uint256"},{"name":"_name","type":"string","internalType":"string"},{"name":"_age","type":"uint8","internalType":"uint8"}],"outputs":[],"stateMutability":"nonpayable"},{"type":"function","name":"createProfilePatient","inputs":[{"name":"_name","type":"string","internalType":"string"},{"name":"_age","type":"uint8","internalType":"uint8"}],"outputs":[],"stateMutability":"nonpayable"},{"type":"function","name":"crowdToOwner","inputs":[{"name":"","type":"uint256","internalType":"uint256"}],"outputs":[{"name":"","type":"address","internalType":"address"}],"stateMutability":"view"},{"type":"function","name":"crowds","inputs":[{"name":"","type":"uint256","internalType":"uint256"}],"outputs":[{"name":"nameCrowd","type":"string","internalType":"string"},{"name":"target","type":"uint256","internalType":"uint256"},{"name":"endTime","type":"uint32","internalType":"uint32"},{"name":"nameHost","type":"string","internalType":"string"},{"name":"adrHost","type":"address","internalType":"address"},{"name":"scriptCrowd","type":"string","internalType":"string"}],"stateMutability":"view"},{"type":"function","name":"diagnose","inputs":[{"name":"_walletAddressDoctor","type":"address","internalType":"address"}],"outputs":[],"stateMutability":"nonpayable"},{"type":"function","name":"doctorPatientRecords","inputs":[{"name":"","type":"address","internalType":"address"},{"name":"","type":"address","internalType":"address"}],"outputs":[{"name":"","type":"bool","internalType":"bool"}],"stateMutability":"view"},{"type":"function","name":"doctorRatings","inputs":[{"name":"","type":"address","internalType":"address"}],"outputs":[{"name":"totalRating","type":"uint8","internalType":"uint8"},{"name":"numberOfRatings","type":"uint8","internalType":"uint8"}],"stateMutability":"view"},{"type":"function","name":"doctors","inputs":[{"name":"","type":"uint256","internalType":"uint256"}],"outputs":[{"name":"idDoctor","type":"uint256","internalType":"uint256"},{"name":"name","type":"string","internalType":"string"},{"name":"age","type":"uint8","internalType":"uint8"},{"name":"walletAddress","type":"address","internalType":"address"},{"name":"rating","type":"uint8","internalType":"uint8"}],"stateMutability":"view"},{"type":"function","name":"endCrowdfunding","inputs":[],"outputs":[],"stateMutability":"nonpayable"},{"type":"function","name":"fundToCrowd","inputs":[],"outputs":[],"stateMutability":"payable"},{"type":"function","name":"funderToAmount","inputs":[{"name":"","type":"address","internalType":"address"}],"outputs":[{"name":"","type":"uint256","internalType":"uint256"}],"stateMutability":"view"},{"type":"function","name":"funders","inputs":[{"name":"","type":"uint256","internalType":"uint256"}],"outputs":[{"name":"","type":"address","internalType":"address"}],"stateMutability":"view"},{"type":"function","name":"isFunders","inputs":[{"name":"","type":"address","internalType":"address"}],"outputs":[{"name":"","type":"bool","internalType":"bool"}],"stateMutability":"view"},{"type":"function","name":"owner","inputs":[],"outputs":[{"name":"","type":"address","internalType":"address"}],"stateMutability":"view"},{"type":"function","name":"ownerCrowdCount","inputs":[{"name":"","type":"address","internalType":"address"}],"outputs":[{"name":"","type":"uint256","internalType":"uint256"}],"stateMutability":"view"},{"type":"function","name":"patients","inputs":[{"name":"","type":"uint256","internalType":"uint256"}],"outputs":[{"name":"name","type":"string","internalType":"string"},{"name":"age","type":"uint8","internalType":"uint8"},{"name":"walletAddress","type":"address","internalType":"address"}],"stateMutability":"view"},{"type":"function","name":"profileToOwner","inputs":[{"name":"","type":"address","internalType":"address"}],"outputs":[{"name":"","type":"uint256","internalType":"uint256"}],"stateMutability":"view"},{"type":"function","name":"ratingDoctor","inputs":[{"name":"_walletAddressDoctor","type":"address","internalType":"address"},{"name":"_rating","type":"uint8","internalType":"uint8"}],"outputs":[],"stateMutability":"nonpayable"},{"type":"function","name":"renounceOwnership","inputs":[],"outputs":[],"stateMutability":"nonpayable"},{"type":"function","name":"transferOwnership","inputs":[{"name":"newOwner","type":"address","internalType":"address"}],"outputs":[],"stateMutability":"nonpayable"},{"type":"function","name":"withDraw","inputs":[],"outputs":[],"stateMutability":"nonpayable"},{"type":"event","name":"HostCrowdFunding","inputs":[{"name":"nameCrowd","type":"string","indexed":false,"internalType":"string"},{"name":"target","type":"uint256","indexed":false,"internalType":"uint256"},{"name":"endTime","type":"uint32","indexed":false,"internalType":"uint32"},{"name":"nameDoctorHost","type":"string","indexed":false,"internalType":"string"}],"anonymous":false},{"type":"event","name":"NewUser","inputs":[{"name":"patientId","type":"uint256","indexed":false,"internalType":"uint256"},{"name":"name","type":"string","indexed":false,"internalType":"string"},{"name":"age","type":"uint256","indexed":false,"internalType":"uint256"}],"anonymous":false},{"type":"event","name":"OwnershipTransferred","inputs":[{"name":"previousOwner","type":"address","indexed":true,"internalType":"address"},{"name":"newOwner","type":"address","indexed":true,"internalType":"address"}],"anonymous":false},{"type":"error","name":"OwnableInvalidOwner","inputs":[{"name":"owner","type":"address","internalType":"address"}]},{"type":"error","name":"OwnableUnauthorizedAccount","inputs":[{"name":"account","type":"address","internalType":"address"}]}],"bytecode":{"object":"0x6080604052348015600f57600080fd5b503380603557604051631e4fbdf760e01b81526000600482015260240160405180910390fd5b603c816041565b506091565b600080546001600160a01b038381166001600160a01b0319831681178455604051919092169283917f8be0079c531659141344cd1fd0a4f28419497f9722a3daafe3b4186f6b6457e09190a35050565b61192f806100a06000396000f3fe6080604052600436106101395760003560e01c8063930b8ef1116100ab578063b87351011161006f578063b873510114610403578063cf718fdc14610423578063dc0d3dff14610453578063e9fa881414610473578063ed32f2b0146104a0578063f2fde38b146104ac57610148565b8063930b8ef11461031457806393119a83146103345780639ad8180f14610363578063a1e3285c14610390578063b8006862146103b057610148565b806358d3eab0116100fd57806358d3eab0146102105780636efb1b841461025e578063715018a61461028f5780638a7d2a0c146102a45780638da5cb5b146102c457806392ce1e41146102e257610148565b80630fdb1c1014610150578063105fbbc91461014857806317a4ad81146101655780631ccdfc32146101b55780634407e1e8146101d557610148565b36610148576101466104cc565b005b6101466104cc565b34801561015c57600080fd5b50610146610566565b34801561017157600080fd5b506101a0610180366004611297565b600d60209081526000928352604080842090915290825290205460ff1681565b60405190151581526020015b60405180910390f35b3480156101c157600080fd5b506101466101d0366004611380565b610570565b3480156101e157600080fd5b506102026101f03660046113c5565b60076020526000908152604090205481565b6040519081526020016101ac565b34801561021c57600080fd5b5061024661022b3660046113e7565b600a602052600090815260409020546001600160a01b031681565b6040516001600160a01b0390911681526020016101ac565b34801561026a57600080fd5b5061027e6102793660046113e7565b6106c3565b6040516101ac959493929190611446565b34801561029b57600080fd5b5061014661079f565b3480156102b057600080fd5b506101466102bf36600461148c565b6107b1565b3480156102d057600080fd5b506000546001600160a01b0316610246565b3480156102ee57600080fd5b506103026102fd3660046113e7565b6109d8565b6040516101ac969594939291906114b6565b34801561032057600080fd5b5061014661032f36600461151d565b610bd6565b34801561034057600080fd5b5061035461034f3660046113e7565b610e4a565b6040516101ac939291906115ab565b34801561036f57600080fd5b5061020261037e3660046113c5565b60046020526000908152604090205481565b34801561039c57600080fd5b506101466103ab3660046113c5565b610f1a565b3480156103bc57600080fd5b506103e96103cb3660046113c5565b600c6020526000908152604090205460ff8082169161010090041682565b6040805160ff9384168152929091166020830152016101ac565b34801561040f57600080fd5b5061014661041e3660046115e1565b610f9a565b34801561042f57600080fd5b506101a061043e3660046113c5565b60066020526000908152604090205460ff1681565b34801561045f57600080fd5b5061024661046e3660046113e7565b611199565b34801561047f57600080fd5b5061020261048e3660046113c5565b600b6020526000908152604090205481565b34801561014657600080fd5b3480156104b857600080fd5b506101466104c73660046113c5565b6111c3565b33600090815260076020526040812080543492906104eb90849061164e565b90915550503360009081526006602052604090205460ff1680610563576008805460018181019092557ff3f7a9fe364faab93b216da50a3214154f22a0a2b415b23a84c8169e8b636ee30180546001600160a01b031916339081179091556000908152600660205260409020805460ff191690911790555b50565b61056e6111fe565b565b33600090815260056020526040902054156105a65760405162461bcd60e51b815260040161059d90611667565b60405180910390fd5b6040805160608101825283815260ff831660208201523391810191909152600180548082018255600091909152815160029091027fb10e2d527612073b26eecdfd717e6a320cf44b4afac2b0732d9fcbe2b7fa0cf6019081906106099082611732565b506020820151600191820180546040909401516001600160a01b0316610100026001600160a81b031990941660ff90921691909117929092179091558054600091610653916117f1565b3360009081526004602090815260408083208490556005909152812080549293509061067e83611804565b91905055507fd86dca2e2544318fbca4769e2f7ea2bba8eeb0f445dd717aef0d3c84670baa418184846040516106b69392919061181d565b60405180910390a1505050565b600281815481106106d357600080fd5b600091825260209091206003909102018054600182018054919350906106f8906116a9565b80601f0160208091040260200160405190810160405280929190818152602001828054610724906116a9565b80156107715780601f1061074657610100808354040283529160200191610771565b820191906000526020600020905b81548152906001019060200180831161075457829003601f168201915b5050506002909301549192505060ff808216916001600160a01b0361010082041691600160a81b9091041685565b6107a76111fe565b61056e600061122b565b60018160ff16101580156107c9575060058160ff1611155b61080d5760405162461bcd60e51b81526020600482015260156024820152744f6e6c7920726174652066726f6d203120746f203560581b604482015260640161059d565b336000908152600d602090815260408083206001600160a01b038616845290915290205460ff166108905760405162461bcd60e51b815260206004820152602760248201527f596f7520686176656e2774206265656e20747265617465642062792074686973604482015266103237b1ba37b960c91b606482015260840161059d565b6001600160a01b0382166000908152600c6020526040812080548392906108bb90849060ff16611849565b825460ff91821661010093840a90810290830219909116179092556001600160a01b0385166000908152600c602052604090208054600194509092849261090792849291900416611849565b825460ff91821661010093840a9081029083021990911617909255336000908152600d602090815260408083206001600160a01b03891684528252808320805460ff191690556004825280832054600c8352928190208151808301909252548086168252939093049093169282018390529250901561098557600080fd5b602081015181516109969190611862565b600283815481106109a9576109a9611892565b906000526020600020906003020160020160156101000a81548160ff021916908360ff16021790555050505050565b600981815481106109e857600080fd5b9060005260206000209060060201600091509050806000018054610a0b906116a9565b80601f0160208091040260200160405190810160405280929190818152602001828054610a37906116a9565b8015610a845780601f10610a5957610100808354040283529160200191610a84565b820191906000526020600020905b815481529060010190602001808311610a6757829003601f168201915b50505050600183015460028401546003850180549495929463ffffffff909216935090610ab0906116a9565b80601f0160208091040260200160405190810160405280929190818152602001828054610adc906116a9565b8015610b295780601f10610afe57610100808354040283529160200191610b29565b820191906000526020600020905b815481529060010190602001808311610b0c57829003601f168201915b505050600484015460058501805494956001600160a01b03909216949193509150610b53906116a9565b80601f0160208091040260200160405190810160405280929190818152602001828054610b7f906116a9565b8015610bcc5780601f10610ba157610100808354040283529160200191610bcc565b820191906000526020600020905b815481529060010190602001808311610baf57829003601f168201915b5050505050905086565b3360009081526003602052604090205460ff16610c415760405162461bcd60e51b815260206004820152602360248201527f6f6e6c7920646f63746f72732063616e2063616c6c20746869732066756e637460448201526234b7b760e91b606482015260840161059d565b336000908152600b602052604090205460021015610ca15760405162461bcd60e51b815260206004820152601960248201527f4f6e6c79203220686f737420666f72203120646f63746f722100000000000000604482015260640161059d565b6040805160c081018252858152602080820186905263ffffffff85168284015282518084019093526008835267446f63746f72204b60c01b90830152606081019190915233608082015260a0810182905260098054600181018255600091909152815160069091027f6e1540171b6c0c960b71a7020d9f60077f6af931a8bbf590da0223dacf75c7af01908190610d389082611732565b5060208201516001820155604082015160028201805463ffffffff191663ffffffff90921691909117905560608201516003820190610d779082611732565b5060808201516004820180546001600160a01b0319166001600160a01b0390921691909117905560a08201516005820190610db29082611732565b505060095460009150610dc7906001906117f1565b6000818152600a6020908152604080832080546001600160a01b031916339081179091558352600b9091528120805492935090610e0383611804565b91905055507f69e156612586a9b6531cb151ff6ab9fa7b57cccd6dda6e25654707eb055ce667858585604051610e3b939291906118a8565b60405180910390a15050505050565b60018181548110610e5a57600080fd5b9060005260206000209060020201600091509050806000018054610e7d906116a9565b80601f0160208091040260200160405190810160405280929190818152602001828054610ea9906116a9565b8015610ef65780601f10610ecb57610100808354040283529160200191610ef6565b820191906000526020600020905b815481529060010190602001808311610ed957829003601f168201915b5050506001909301549192505060ff8116906001600160a01b036101009091041683565b6001600160a01b038116610f695760405162461bcd60e51b8152602060048201526016602482015275496e76616c696420646f63746f72206164647265737360501b604482015260640161059d565b336000908152600d602090815260408083206001600160a01b0394909416835292905220805460ff19166001179055565b3360009081526005602052604090205415610fc75760405162461bcd60e51b815260040161059d90611667565b612710831161100f5760405162461bcd60e51b815260206004820152601460248201527315185ad9481a5908199bdc9b481a1bdc1a5d185b60621b604482015260640161059d565b6040805160a0810182528481526020810184815260ff841692820192909252336060820152600060808201819052600280546001810182559152815160039091027f405787fa12a823e0f2b7631cc41b3ba8828b3321ca811111fa75cd3aa3bb5ace81019182559251919290917f405787fa12a823e0f2b7631cc41b3ba8828b3321ca811111fa75cd3aa3bb5acf909101906110ab9082611732565b50604082015160029182018054606085015160809095015160ff908116600160a81b0260ff60a81b196001600160a01b03909716610100026001600160a81b031990931691909416171793909316179091555460009061110d906001906117f1565b3360009081526004602090815260408083208490556005909152812080549293509061113883611804565b90915550503360009081526003602052604090819020805460ff19166001179055517fd86dca2e2544318fbca4769e2f7ea2bba8eeb0f445dd717aef0d3c84670baa419061118b9083908690869061181d565b60405180910390a150505050565b600881815481106111a957600080fd5b6000918252602090912001546001600160a01b0316905081565b6111cb6111fe565b6001600160a01b0381166111f557604051631e4fbdf760e01b81526000600482015260240161059d565b6105638161122b565b6000546001600160a01b0316331461056e5760405163118cdaa760e01b815233600482015260240161059d565b600080546001600160a01b038381166001600160a01b0319831681178455604051919092169283917f8be0079c531659141344cd1fd0a4f28419497f9722a3daafe3b4186f6b6457e09190a35050565b80356001600160a01b038116811461129257600080fd5b919050565b600080604083850312156112aa57600080fd5b6112b38361127b565b91506112c16020840161127b565b90509250929050565b634e487b7160e01b600052604160045260246000fd5b600082601f8301126112f157600080fd5b813567ffffffffffffffff81111561130b5761130b6112ca565b604051601f8201601f19908116603f0116810167ffffffffffffffff8111828210171561133a5761133a6112ca565b60405281815283820160200185101561135257600080fd5b816020850160208301376000918101602001919091529392505050565b803560ff8116811461129257600080fd5b6000806040838503121561139357600080fd5b823567ffffffffffffffff8111156113aa57600080fd5b6113b6858286016112e0565b9250506112c16020840161136f565b6000602082840312156113d757600080fd5b6113e08261127b565b9392505050565b6000602082840312156113f957600080fd5b5035919050565b6000815180845260005b818110156114265760208185018101518683018201520161140a565b506000602082860101526020601f19601f83011685010191505092915050565b85815260a06020820152600061145f60a0830187611400565b60ff95861660408401526001600160a01b0394909416606083015250921660809092019190915292915050565b6000806040838503121561149f57600080fd5b6114a88361127b565b91506112c16020840161136f565b60c0815260006114c960c0830189611400565b87602084015263ffffffff8716604084015282810360608401526114ed8187611400565b6001600160a01b038616608085015283810360a085015290506115108185611400565b9998505050505050505050565b6000806000806080858703121561153357600080fd5b843567ffffffffffffffff81111561154a57600080fd5b611556878288016112e0565b94505060208501359250604085013563ffffffff8116811461157757600080fd5b9150606085013567ffffffffffffffff81111561159357600080fd5b61159f878288016112e0565b91505092959194509250565b6060815260006115be6060830186611400565b60ff949094166020830152506001600160a01b0391909116604090910152919050565b6000806000606084860312156115f657600080fd5b83359250602084013567ffffffffffffffff81111561161457600080fd5b611620868287016112e0565b92505061162f6040850161136f565b90509250925092565b634e487b7160e01b600052601160045260246000fd5b8082018082111561166157611661611638565b92915050565b60208082526022908201527f596f7520616c7265616479206861766520612070617469656e742070726f66696040820152616c6560f01b606082015260800190565b600181811c908216806116bd57607f821691505b6020821081036116dd57634e487b7160e01b600052602260045260246000fd5b50919050565b601f82111561172d57806000526020600020601f840160051c8101602085101561170a5750805b601f840160051c820191505b8181101561172a5760008155600101611716565b50505b505050565b815167ffffffffffffffff81111561174c5761174c6112ca565b6117608161175a84546116a9565b846116e3565b6020601f821160018114611794576000831561177c5750848201515b600019600385901b1c1916600184901b17845561172a565b600084815260208120601f198516915b828110156117c457878501518255602094850194600190920191016117a4565b50848210156117e25786840151600019600387901b60f8161c191681555b50505050600190811b01905550565b8181038181111561166157611661611638565b60006001820161181657611816611638565b5060010190565b8381526060602082015260006118366060830185611400565b905060ff83166040830152949350505050565b60ff818116838216019081111561166157611661611638565b600060ff83168061188357634e487b7160e01b600052601260045260246000fd5b8060ff84160491505092915050565b634e487b7160e01b600052603260045260246000fd5b6080815260006118bb6080830186611400565b84602084015263ffffffff8416604084015282810360608401526008815267446f63746f72204b60c01b60208201526040810191505094935050505056fea264697066735822122037169b7d6bc33a775ae7afec0c57fe2938e6cb62e8069d66fed4656f90f5963d64736f6c634300081a0033","linkReferences":{}},"methodIdentifiers":{"createCrowd(string,uint256,uint32,string)":"930b8ef1","createProfileDoctor(uint256,string,uint8)":"b8735101","createProfilePatient(string,uint8)":"1ccdfc32","crowdToOwner(uint256)":"58d3eab0","crowds(uint256)":"92ce1e41","diagnose(address)":"a1e3285c","doctorPatientRecords(address,address)":"17a4ad81","doctorRatings(address)":"b8006862","doctors(uint256)":"6efb1b84","endCrowdfunding()":"ed32f2b0","fundToCrowd()":"105fbbc9","funderToAmount(address)":"4407e1e8","funders(uint256)":"dc0d3dff","isFunders(address)":"cf718fdc","owner()":"8da5cb5b","ownerCrowdCount(address)":"e9fa8814","patients(uint256)":"93119a83","profileToOwner(address)":"9ad8180f","ratingDoctor(address,uint8)":"8a7d2a0c","renounceOwnership()":"715018a6","transferOwnership(address)":"f2fde38b","withDraw()":"0fdb1c10"},"id":4}