{"abi":[{"type":"constructor","inputs":[{"name":"_owner","type":"address","internalType":"address"}],"stateMutability":"nonpayable"},{"type":"fallback","stateMutability":"payable"},{"type":"receive","stateMutability":"payable"},{"type":"function","name":"createCrowd","inputs":[{"name":"_nameCrowd","type":"string","internalType":"string"},{"name":"_target","type":"uint256","internalType":"uint256"},{"name":"_endTime","type":"uint32","internalType":"uint32"},{"name":"_nameHost","type":"string","internalType":"string"},{"name":"_scriptCrowd","type":"string","internalType":"string"}],"outputs":[],"stateMutability":"nonpayable"},{"type":"function","name":"createProfileDoctor","inputs":[{"name":"_idDoctor","type":"uint256","internalType":"uint256"},{"name":"_name","type":"string","internalType":"string"},{"name":"_age","type":"uint8","internalType":"uint8"}],"outputs":[],"stateMutability":"nonpayable"},{"type":"function","name":"createProfilePatient","inputs":[{"name":"_name","type":"string","internalType":"string"},{"name":"_age","type":"uint8","internalType":"uint8"}],"outputs":[],"stateMutability":"nonpayable"},{"type":"function","name":"crowdToOwner","inputs":[{"name":"","type":"uint256","internalType":"uint256"}],"outputs":[{"name":"","type":"address","internalType":"address"}],"stateMutability":"view"},{"type":"function","name":"crowds","inputs":[{"name":"","type":"uint256","internalType":"uint256"}],"outputs":[{"name":"nameCrowd","type":"string","internalType":"string"},{"name":"target","type":"uint256","internalType":"uint256"},{"name":"endTime","type":"uint32","internalType":"uint32"},{"name":"nameHost","type":"string","internalType":"string"},{"name":"adrHost","type":"address","internalType":"address"},{"name":"scriptCrowd","type":"string","internalType":"string"}],"stateMutability":"view"},{"type":"function","name":"dataTransfer","inputs":[],"outputs":[{"name":"","type":"address","internalType":"contract IDataTransfer"}],"stateMutability":"view"},{"type":"function","name":"diagnose","inputs":[{"name":"_walletAddressDoctor","type":"address","internalType":"address"}],"outputs":[],"stateMutability":"nonpayable"},{"type":"function","name":"doctorPatientRecords","inputs":[{"name":"","type":"address","internalType":"address"},{"name":"","type":"address","internalType":"address"}],"outputs":[{"name":"","type":"bool","internalType":"bool"}],"stateMutability":"view"},{"type":"function","name":"doctorRatings","inputs":[{"name":"","type":"address","internalType":"address"}],"outputs":[{"name":"totalRating","type":"uint8","internalType":"uint8"},{"name":"numberOfRatings","type":"uint8","internalType":"uint8"}],"stateMutability":"view"},{"type":"function","name":"doctors","inputs":[{"name":"","type":"uint256","internalType":"uint256"}],"outputs":[{"name":"idDoctor","type":"uint256","internalType":"uint256"},{"name":"name","type":"string","internalType":"string"},{"name":"age","type":"uint8","internalType":"uint8"},{"name":"walletAddress","type":"address","internalType":"address"},{"name":"rating","type":"uint8","internalType":"uint8"}],"stateMutability":"view"},{"type":"function","name":"endCrowdfunding","inputs":[],"outputs":[],"stateMutability":"nonpayable"},{"type":"function","name":"fundToCrowd","inputs":[],"outputs":[],"stateMutability":"payable"},{"type":"function","name":"funderToAmount","inputs":[{"name":"","type":"address","internalType":"address"}],"outputs":[{"name":"","type":"uint256","internalType":"uint256"}],"stateMutability":"view"},{"type":"function","name":"funders","inputs":[{"name":"","type":"uint256","internalType":"uint256"}],"outputs":[{"name":"","type":"address","internalType":"address"}],"stateMutability":"view"},{"type":"function","name":"getIpfsHash","inputs":[{"name":"patient","type":"address","internalType":"address"}],"outputs":[{"name":"","type":"string","internalType":"string"}],"stateMutability":"view"},{"type":"function","name":"grantAccess","inputs":[{"name":"doctor","type":"address","internalType":"address"}],"outputs":[],"stateMutability":"nonpayable"},{"type":"function","name":"isFunders","inputs":[{"name":"","type":"address","internalType":"address"}],"outputs":[{"name":"","type":"bool","internalType":"bool"}],"stateMutability":"view"},{"type":"function","name":"owner","inputs":[],"outputs":[{"name":"","type":"address","internalType":"address"}],"stateMutability":"view"},{"type":"function","name":"ownerCrowdCount","inputs":[{"name":"","type":"address","internalType":"address"}],"outputs":[{"name":"","type":"uint256","internalType":"uint256"}],"stateMutability":"view"},{"type":"function","name":"patients","inputs":[{"name":"","type":"uint256","internalType":"uint256"}],"outputs":[{"name":"name","type":"string","internalType":"string"},{"name":"age","type":"uint8","internalType":"uint8"},{"name":"walletAddress","type":"address","internalType":"address"}],"stateMutability":"view"},{"type":"function","name":"profileToOwner","inputs":[{"name":"","type":"address","internalType":"address"}],"outputs":[{"name":"","type":"uint256","internalType":"uint256"}],"stateMutability":"view"},{"type":"function","name":"ratingDoctor","inputs":[{"name":"_walletAddressDoctor","type":"address","internalType":"address"},{"name":"_rating","type":"uint8","internalType":"uint8"}],"outputs":[],"stateMutability":"nonpayable"},{"type":"function","name":"renounceOwnership","inputs":[],"outputs":[],"stateMutability":"nonpayable"},{"type":"function","name":"revokeAccess","inputs":[{"name":"doctor","type":"address","internalType":"address"}],"outputs":[],"stateMutability":"nonpayable"},{"type":"function","name":"setDataTransferAddress","inputs":[{"name":"_address","type":"address","internalType":"address"}],"outputs":[],"stateMutability":"nonpayable"},{"type":"function","name":"storeRecord","inputs":[{"name":"_id","type":"uint256","internalType":"uint256"},{"name":"ipfsHash","type":"string","internalType":"string"}],"outputs":[],"stateMutability":"nonpayable"},{"type":"function","name":"transferOwnership","inputs":[{"name":"newOwner","type":"address","internalType":"address"}],"outputs":[],"stateMutability":"nonpayable"},{"type":"function","name":"withDraw","inputs":[],"outputs":[],"stateMutability":"nonpayable"},{"type":"event","name":"AccessGranted","inputs":[{"name":"patient","type":"address","indexed":true,"internalType":"address"},{"name":"doctor","type":"address","indexed":true,"internalType":"address"}],"anonymous":false},{"type":"event","name":"AccessRevoked","inputs":[{"name":"patient","type":"address","indexed":true,"internalType":"address"},{"name":"doctor","type":"address","indexed":true,"internalType":"address"}],"anonymous":false},{"type":"event","name":"HostCrowdFunding","inputs":[{"name":"nameCrowd","type":"string","indexed":false,"internalType":"string"},{"name":"target","type":"uint256","indexed":false,"internalType":"uint256"},{"name":"endTime","type":"uint32","indexed":false,"internalType":"uint32"},{"name":"nameDoctorHost","type":"string","indexed":false,"internalType":"string"}],"anonymous":false},{"type":"event","name":"NewUser","inputs":[{"name":"patientId","type":"uint256","indexed":false,"internalType":"uint256"},{"name":"name","type":"string","indexed":false,"internalType":"string"},{"name":"age","type":"uint256","indexed":false,"internalType":"uint256"}],"anonymous":false},{"type":"event","name":"OwnershipTransferred","inputs":[{"name":"previousOwner","type":"address","indexed":true,"internalType":"address"},{"name":"newOwner","type":"address","indexed":true,"internalType":"address"}],"anonymous":false},{"type":"event","name":"RecordStored","inputs":[{"name":"patient","type":"address","indexed":true,"internalType":"address"},{"name":"ipfsHash","type":"string","indexed":false,"internalType":"string"}],"anonymous":false},{"type":"error","name":"OwnableInvalidOwner","inputs":[{"name":"owner","type":"address","internalType":"address"}]},{"type":"error","name":"OwnableUnauthorizedAccount","inputs":[{"name":"account","type":"address","internalType":"address"}]}],"bytecode":{"object":"0x6080604052348015600f57600080fd5b50604051612082380380612082833981016040819052602c9160b2565b80803380605357604051631e4fbdf760e01b81526000600482015260240160405180910390fd5b605a816062565b5050505060e0565b600080546001600160a01b038381166001600160a01b0319831681178455604051919092169283917f8be0079c531659141344cd1fd0a4f28419497f9722a3daafe3b4186f6b6457e09190a35050565b60006020828403121560c357600080fd5b81516001600160a01b038116811460d957600080fd5b9392505050565b611f93806100ef6000396000f3fe6080604052600436106101bb5760003560e01c806392ce1e41116100ec578063cde2d23b1161008a578063dc0d3dff11610064578063dc0d3dff146105bf578063e9fa8814146105df578063ed32f2b01461060c578063f2fde38b14610618576101ca565b8063cde2d23b14610542578063cf718fdc14610562578063d8da2fa814610592576101ca565b8063a1e3285c116100c6578063a1e3285c1461048f578063b8006862146104af578063b873510114610502578063c88bde7014610522576101ca565b806392ce1e411461040157806393119a83146104335780639ad8180f14610462576101ca565b806358d3eab011610159578063782dbac811610133578063782dbac81461038357806385e68531146103a35780638a7d2a0c146103c35780638da5cb5b146103e3576101ca565b806358d3eab0146102ef5780636efb1b841461033d578063715018a61461036e576101ca565b806317a4ad811161019557806317a4ad81146102075780631ccdfc32146102575780632f700955146102775780634407e1e8146102b4576101ca565b80630ae5e739146101d25780630fdb1c10146101f2578063105fbbc9146101ca576101ca565b366101ca576101c8610638565b005b6101c8610638565b3480156101de57600080fd5b506101c86101ed3660046117c8565b6106d2565b3480156101fe57600080fd5b506101c86107d2565b34801561021357600080fd5b506102426102223660046117ea565b600e60209081526000928352604080842090915290825290205460ff1681565b60405190151581526020015b60405180910390f35b34801561026357600080fd5b506101c86102723660046118f3565b6107dc565b34801561028357600080fd5b506101c86102923660046117c8565b600180546001600160a01b0319166001600160a01b0392909216919091179055565b3480156102c057600080fd5b506102e16102cf3660046117c8565b60086020526000908152604090205481565b60405190815260200161024e565b3480156102fb57600080fd5b5061032561030a366004611938565b600b602052600090815260409020546001600160a01b031681565b6040516001600160a01b03909116815260200161024e565b34801561034957600080fd5b5061035d610358366004611938565b610924565b60405161024e9594939291906119a1565b34801561037a57600080fd5b506101c8610a00565b34801561038f57600080fd5b506101c861039e3660046119e7565b610a12565b3480156103af57600080fd5b506101c86103be3660046117c8565b610c6e565b3480156103cf57600080fd5b506101c86103de366004611aa1565b610d69565b3480156103ef57600080fd5b506000546001600160a01b0316610325565b34801561040d57600080fd5b5061042161041c366004611938565b610f90565b60405161024e96959493929190611acb565b34801561043f57600080fd5b5061045361044e366004611938565b61118e565b60405161024e93929190611b32565b34801561046e57600080fd5b506102e161047d3660046117c8565b60056020526000908152604090205481565b34801561049b57600080fd5b506101c86104aa3660046117c8565b61125e565b3480156104bb57600080fd5b506104e86104ca3660046117c8565b600d6020526000908152604090205460ff8082169161010090041682565b6040805160ff93841681529290911660208301520161024e565b34801561050e57600080fd5b506101c861051d366004611b68565b6112de565b34801561052e57600080fd5b50600154610325906001600160a01b031681565b34801561054e57600080fd5b506101c861055d366004611bbf565b6114dd565b34801561056e57600080fd5b5061024261057d3660046117c8565b60076020526000908152604090205460ff1681565b34801561059e57600080fd5b506105b26105ad3660046117c8565b6115f0565b60405161024e9190611c06565b3480156105cb57600080fd5b506103256105da366004611938565b6116ca565b3480156105eb57600080fd5b506102e16105fa3660046117c8565b600c6020526000908152604090205481565b3480156101c857600080fd5b34801561062457600080fd5b506101c86106333660046117c8565b6116f4565b3360009081526008602052604081208054349290610657908490611c2f565b90915550503360009081526007602052604090205460ff16806106cf576009805460018181019092557f6e1540171b6c0c960b71a7020d9f60077f6af931a8bbf590da0223dacf75c7af0180546001600160a01b031916339081179091556000908152600760205260409020805460ff191690911790555b50565b6001600160a01b03811660009081526004602052604090205460ff1661073a5760405162461bcd60e51b815260206004820152601860248201527720b2323932b9b99034b9903737ba1030903237b1ba37b91760411b60448201526064015b60405180910390fd5b600154604051630ae5e73960e01b81526001600160a01b03838116600483015290911690630ae5e73990602401600060405180830381600087803b15801561078157600080fd5b505af1158015610795573d6000803e3d6000fd5b50506040516001600160a01b03841692503391507f9f520b3bfc56d06f7065d10b4683b3f57ac8895d5026cd176dee95ce1454cb8d90600090a350565b6107da61172f565b565b33600090815260066020526040902054156108095760405162461bcd60e51b815260040161073190611c42565b6040805160608101825283815260ff831660208201523391810191909152600280546001810182556000829052825191027f405787fa12a823e0f2b7631cc41b3ba8828b3321ca811111fa75cd3aa3bb5ace019081906108699082611d0d565b506020820151600191820180546040909401516001600160a01b0316610100026001600160a81b031990941660ff90921691909117929092179091556002546000916108b491611dcc565b336000908152600560209081526040808320849055600690915281208054929350906108df83611ddf565b91905055507fd86dca2e2544318fbca4769e2f7ea2bba8eeb0f445dd717aef0d3c84670baa4181848460405161091793929190611df8565b60405180910390a1505050565b6003818154811061093457600080fd5b6000918252602090912060039091020180546001820180549193509061095990611c84565b80601f016020809104026020016040519081016040528092919081815260200182805461098590611c84565b80156109d25780601f106109a7576101008083540402835291602001916109d2565b820191906000526020600020905b8154815290600101906020018083116109b557829003601f168201915b5050506002909301549192505060ff808216916001600160a01b0361010082041691600160a81b9091041685565b610a0861172f565b6107da600061175c565b3360009081526004602052604090205460ff16610a7d5760405162461bcd60e51b815260206004820152602360248201527f6f6e6c7920646f63746f72732063616e2063616c6c20746869732066756e637460448201526234b7b760e91b6064820152608401610731565b336000908152600c602052604090205460021015610add5760405162461bcd60e51b815260206004820152601960248201527f4f6e6c79203220686f737420666f72203120646f63746f7221000000000000006044820152606401610731565b6040805160c0810182528681526020810186905263ffffffff8516918101919091526060810183905233608082015260a08101829052600a8054600181018255600091909152815160069091027fc65a7bb8d6351c1cf70c95a316cc6a92839c986682d98bc35f958f4883f9d2a801908190610b599082611d0d565b5060208201516001820155604082015160028201805463ffffffff191663ffffffff90921691909117905560608201516003820190610b989082611d0d565b5060808201516004820180546001600160a01b0319166001600160a01b0390921691909117905560a08201516005820190610bd39082611d0d565b5050600a5460009150610be890600190611dcc565b6000818152600b6020908152604080832080546001600160a01b031916339081179091558352600c9091528120805492935090610c2483611ddf565b91905055507f69e156612586a9b6531cb151ff6ab9fa7b57cccd6dda6e25654707eb055ce66786868686604051610c5e9493929190611e24565b60405180910390a1505050505050565b6001600160a01b03811660009081526004602052604090205460ff16610cd15760405162461bcd60e51b815260206004820152601860248201527720b2323932b9b99034b9903737ba1030903237b1ba37b91760411b6044820152606401610731565b6001546040516385e6853160e01b81526001600160a01b038381166004830152909116906385e6853190602401600060405180830381600087803b158015610d1857600080fd5b505af1158015610d2c573d6000803e3d6000fd5b50506040516001600160a01b03841692503391507f825c8be24eb0df19500f63e86c29e7d0d951e73056b889b891d85e40938d9b6e90600090a350565b60018160ff1610158015610d81575060058160ff1611155b610dc55760405162461bcd60e51b81526020600482015260156024820152744f6e6c7920726174652066726f6d203120746f203560581b6044820152606401610731565b336000908152600e602090815260408083206001600160a01b038616845290915290205460ff16610e485760405162461bcd60e51b815260206004820152602760248201527f596f7520686176656e2774206265656e20747265617465642062792074686973604482015266103237b1ba37b960c91b6064820152608401610731565b6001600160a01b0382166000908152600d602052604081208054839290610e7390849060ff16611e66565b825460ff91821661010093840a90810290830219909116179092556001600160a01b0385166000908152600d6020526040902080546001945090928492610ebf92849291900416611e66565b825460ff91821661010093840a9081029083021990911617909255336000908152600e602090815260408083206001600160a01b03891684528252808320805460ff191690556005825280832054600d83529281902081518083019092525480861682529390930490931692820183905292509015610f3d57600080fd5b60208101518151610f4e9190611e7f565b60038381548110610f6157610f61611eaf565b906000526020600020906003020160020160156101000a81548160ff021916908360ff16021790555050505050565b600a8181548110610fa057600080fd5b9060005260206000209060060201600091509050806000018054610fc390611c84565b80601f0160208091040260200160405190810160405280929190818152602001828054610fef90611c84565b801561103c5780601f106110115761010080835404028352916020019161103c565b820191906000526020600020905b81548152906001019060200180831161101f57829003601f168201915b50505050600183015460028401546003850180549495929463ffffffff90921693509061106890611c84565b80601f016020809104026020016040519081016040528092919081815260200182805461109490611c84565b80156110e15780601f106110b6576101008083540402835291602001916110e1565b820191906000526020600020905b8154815290600101906020018083116110c457829003601f168201915b505050600484015460058501805494956001600160a01b0390921694919350915061110b90611c84565b80601f016020809104026020016040519081016040528092919081815260200182805461113790611c84565b80156111845780601f1061115957610100808354040283529160200191611184565b820191906000526020600020905b81548152906001019060200180831161116757829003601f168201915b5050505050905086565b6002818154811061119e57600080fd5b90600052602060002090600202016000915090508060000180546111c190611c84565b80601f01602080910402602001604051908101604052809291908181526020018280546111ed90611c84565b801561123a5780601f1061120f5761010080835404028352916020019161123a565b820191906000526020600020905b81548152906001019060200180831161121d57829003601f168201915b5050506001909301549192505060ff8116906001600160a01b036101009091041683565b6001600160a01b0381166112ad5760405162461bcd60e51b8152602060048201526016602482015275496e76616c696420646f63746f72206164647265737360501b6044820152606401610731565b336000908152600e602090815260408083206001600160a01b0394909416835292905220805460ff19166001179055565b336000908152600660205260409020541561130b5760405162461bcd60e51b815260040161073190611c42565b61271083116113535760405162461bcd60e51b815260206004820152601460248201527315185ad9481a5908199bdc9b481a1bdc1a5d185b60621b6044820152606401610731565b6040805160a0810182528481526020810184815260ff8416928201929092523360608201526000608082018190526003805460018101825591819052825191027fc2575a0e9e593c00f959f8c92f12db2869c3395a3b0502d05e2516446f71f85b81019182559251919290917fc2575a0e9e593c00f959f8c92f12db2869c3395a3b0502d05e2516446f71f85c909101906113ee9082611d0d565b50604082015160029091018054606084015160809094015160ff908116600160a81b0260ff60a81b196001600160a01b03909616610100026001600160a81b03199093169190941617179290921617905560035460009061145190600190611dcc565b3360009081526005602090815260408083208490556006909152812080549293509061147c83611ddf565b90915550503360009081526004602052604090819020805460ff19166001179055517fd86dca2e2544318fbca4769e2f7ea2bba8eeb0f445dd717aef0d3c84670baa41906114cf90839086908690611df8565b60405180910390a150505050565b60025433600090815260056020526040902054106115475760405162461bcd60e51b815260206004820152602160248201527f596f7520617265206e6f74206120726567697374657265642070617469656e746044820152601760f91b6064820152608401610731565b60015460405163cde2d23b60e01b81526001600160a01b039091169063cde2d23b906115799085908590600401611ec5565b600060405180830381600087803b15801561159357600080fd5b505af11580156115a7573d6000803e3d6000fd5b50505050336001600160a01b03167f9030e73d33af80bdf3d4bb5ed5de0b053a3e66e0560332ff6b5b975cf3464f43826040516115e49190611c06565b60405180910390a25050565b3360009081526004602052604090205460609060ff166116525760405162461bcd60e51b815260206004820152601e60248201527f4f6e6c7920646f63746f72732063616e2076696577207265636f7264732e00006044820152606401610731565b600154604051631b1b45f560e31b81526001600160a01b0384811660048301529091169063d8da2fa890602401600060405180830381865afa15801561169c573d6000803e3d6000fd5b505050506040513d6000823e601f3d908101601f191682016040526116c49190810190611ee6565b92915050565b600981815481106116da57600080fd5b6000918252602090912001546001600160a01b0316905081565b6116fc61172f565b6001600160a01b03811661172657604051631e4fbdf760e01b815260006004820152602401610731565b6106cf8161175c565b6000546001600160a01b031633146107da5760405163118cdaa760e01b8152336004820152602401610731565b600080546001600160a01b038381166001600160a01b0319831681178455604051919092169283917f8be0079c531659141344cd1fd0a4f28419497f9722a3daafe3b4186f6b6457e09190a35050565b80356001600160a01b03811681146117c357600080fd5b919050565b6000602082840312156117da57600080fd5b6117e3826117ac565b9392505050565b600080604083850312156117fd57600080fd5b611806836117ac565b9150611814602084016117ac565b90509250929050565b634e487b7160e01b600052604160045260246000fd5b604051601f8201601f1916810167ffffffffffffffff8111828210171561185c5761185c61181d565b604052919050565b600067ffffffffffffffff82111561187e5761187e61181d565b50601f01601f191660200190565b600082601f83011261189d57600080fd5b81356118b06118ab82611864565b611833565b8181528460208386010111156118c557600080fd5b816020850160208301376000918101602001919091529392505050565b803560ff811681146117c357600080fd5b6000806040838503121561190657600080fd5b823567ffffffffffffffff81111561191d57600080fd5b6119298582860161188c565b925050611814602084016118e2565b60006020828403121561194a57600080fd5b5035919050565b60005b8381101561196c578181015183820152602001611954565b50506000910152565b6000815180845261198d816020860160208601611951565b601f01601f19169290920160200192915050565b85815260a0602082015260006119ba60a0830187611975565b60ff95861660408401526001600160a01b0394909416606083015250921660809092019190915292915050565b600080600080600060a086880312156119ff57600080fd5b853567ffffffffffffffff811115611a1657600080fd5b611a228882890161188c565b95505060208601359350604086013563ffffffff81168114611a4357600080fd5b9250606086013567ffffffffffffffff811115611a5f57600080fd5b611a6b8882890161188c565b925050608086013567ffffffffffffffff811115611a8857600080fd5b611a948882890161188c565b9150509295509295909350565b60008060408385031215611ab457600080fd5b611abd836117ac565b9150611814602084016118e2565b60c081526000611ade60c0830189611975565b87602084015263ffffffff871660408401528281036060840152611b028187611975565b6001600160a01b038616608085015283810360a08501529050611b258185611975565b9998505050505050505050565b606081526000611b456060830186611975565b60ff949094166020830152506001600160a01b0391909116604090910152919050565b600080600060608486031215611b7d57600080fd5b83359250602084013567ffffffffffffffff811115611b9b57600080fd5b611ba78682870161188c565b925050611bb6604085016118e2565b90509250925092565b60008060408385031215611bd257600080fd5b82359150602083013567ffffffffffffffff811115611bf057600080fd5b611bfc8582860161188c565b9150509250929050565b6020815260006117e36020830184611975565b634e487b7160e01b600052601160045260246000fd5b808201808211156116c4576116c4611c19565b60208082526022908201527f596f7520616c7265616479206861766520612070617469656e742070726f66696040820152616c6560f01b606082015260800190565b600181811c90821680611c9857607f821691505b602082108103611cb857634e487b7160e01b600052602260045260246000fd5b50919050565b601f821115611d0857806000526020600020601f840160051c81016020851015611ce55750805b601f840160051c820191505b81811015611d055760008155600101611cf1565b50505b505050565b815167ffffffffffffffff811115611d2757611d2761181d565b611d3b81611d358454611c84565b84611cbe565b6020601f821160018114611d6f5760008315611d575750848201515b600019600385901b1c1916600184901b178455611d05565b600084815260208120601f198516915b82811015611d9f5787850151825560209485019460019092019101611d7f565b5084821015611dbd5786840151600019600387901b60f8161c191681555b50505050600190811b01905550565b818103818111156116c4576116c4611c19565b600060018201611df157611df1611c19565b5060010190565b838152606060208201526000611e116060830185611975565b905060ff83166040830152949350505050565b608081526000611e376080830187611975565b85602084015263ffffffff851660408401528281036060840152611e5b8185611975565b979650505050505050565b60ff81811683821601908111156116c4576116c4611c19565b600060ff831680611ea057634e487b7160e01b600052601260045260246000fd5b8060ff84160491505092915050565b634e487b7160e01b600052603260045260246000fd5b828152604060208201526000611ede6040830184611975565b949350505050565b600060208284031215611ef857600080fd5b815167ffffffffffffffff811115611f0f57600080fd5b8201601f81018413611f2057600080fd5b8051611f2e6118ab82611864565b818152856020838501011115611f4357600080fd5b611f54826020830160208601611951565b9594505050505056fea2646970667358221220157bf64dcb15e30a0822068fd94476232dc44c5bd05cc3aca475b1d154c0161b64736f6c634300081a0033","linkReferences":{}},"methodIdentifiers":{"createCrowd(string,uint256,uint32,string,string)":"782dbac8","createProfileDoctor(uint256,string,uint8)":"b8735101","createProfilePatient(string,uint8)":"1ccdfc32","crowdToOwner(uint256)":"58d3eab0","crowds(uint256)":"92ce1e41","dataTransfer()":"c88bde70","diagnose(address)":"a1e3285c","doctorPatientRecords(address,address)":"17a4ad81","doctorRatings(address)":"b8006862","doctors(uint256)":"6efb1b84","endCrowdfunding()":"ed32f2b0","fundToCrowd()":"105fbbc9","funderToAmount(address)":"4407e1e8","funders(uint256)":"dc0d3dff","getIpfsHash(address)":"d8da2fa8","grantAccess(address)":"0ae5e739","isFunders(address)":"cf718fdc","owner()":"8da5cb5b","ownerCrowdCount(address)":"e9fa8814","patients(uint256)":"93119a83","profileToOwner(address)":"9ad8180f","ratingDoctor(address,uint8)":"8a7d2a0c","renounceOwnership()":"715018a6","revokeAccess(address)":"85e68531","setDataTransferAddress(address)":"2f700955","storeRecord(uint256,string)":"cde2d23b","transferOwnership(address)":"f2fde38b","withDraw()":"0fdb1c10"},"id":4}