{"abi":[{"type":"constructor","inputs":[],"stateMutability":"nonpayable"},{"type":"fallback","stateMutability":"payable"},{"type":"receive","stateMutability":"payable"},{"type":"function","name":"createCrowd","inputs":[{"name":"_nameCrowd","type":"string","internalType":"string"},{"name":"_target","type":"uint256","internalType":"uint256"},{"name":"_endTime","type":"uint32","internalType":"uint32"},{"name":"_scriptCrowd","type":"string","internalType":"string"}],"outputs":[],"stateMutability":"nonpayable"},{"type":"function","name":"createProfileDoctor","inputs":[{"name":"_idDoctor","type":"uint256","internalType":"uint256"},{"name":"_name","type":"string","internalType":"string"},{"name":"_age","type":"uint8","internalType":"uint8"}],"outputs":[],"stateMutability":"nonpayable"},{"type":"function","name":"createProfilePatient","inputs":[{"name":"_name","type":"string","internalType":"string"},{"name":"_age","type":"uint8","internalType":"uint8"}],"outputs":[],"stateMutability":"nonpayable"},{"type":"function","name":"crowdToOwner","inputs":[{"name":"","type":"uint256","internalType":"uint256"}],"outputs":[{"name":"","type":"address","internalType":"address"}],"stateMutability":"view"},{"type":"function","name":"crowds","inputs":[{"name":"","type":"uint256","internalType":"uint256"}],"outputs":[{"name":"nameCrowd","type":"string","internalType":"string"},{"name":"target","type":"uint256","internalType":"uint256"},{"name":"endTime","type":"uint32","internalType":"uint32"},{"name":"nameHost","type":"string","internalType":"string"},{"name":"adrHost","type":"address","internalType":"address"},{"name":"scriptCrowd","type":"string","internalType":"string"}],"stateMutability":"view"},{"type":"function","name":"diagnose","inputs":[{"name":"_walletAddressDoctor","type":"address","internalType":"address"}],"outputs":[],"stateMutability":"nonpayable"},{"type":"function","name":"doctorPatientRecords","inputs":[{"name":"","type":"address","internalType":"address"},{"name":"","type":"address","internalType":"address"}],"outputs":[{"name":"","type":"bool","internalType":"bool"}],"stateMutability":"view"},{"type":"function","name":"doctorRatings","inputs":[{"name":"","type":"address","internalType":"address"}],"outputs":[{"name":"totalRating","type":"uint8","internalType":"uint8"},{"name":"numberOfRatings","type":"uint8","internalType":"uint8"}],"stateMutability":"view"},{"type":"function","name":"doctors","inputs":[{"name":"","type":"uint256","internalType":"uint256"}],"outputs":[{"name":"idDoctor","type":"uint256","internalType":"uint256"},{"name":"name","type":"string","internalType":"string"},{"name":"age","type":"uint8","internalType":"uint8"},{"name":"walletAddress","type":"address","internalType":"address"},{"name":"rating","type":"uint8","internalType":"uint8"}],"stateMutability":"view"},{"type":"function","name":"endCrowdfunding","inputs":[],"outputs":[],"stateMutability":"nonpayable"},{"type":"function","name":"fundToCrowd","inputs":[],"outputs":[],"stateMutability":"payable"},{"type":"function","name":"funderToAmount","inputs":[{"name":"","type":"address","internalType":"address"}],"outputs":[{"name":"","type":"uint256","internalType":"uint256"}],"stateMutability":"view"},{"type":"function","name":"funders","inputs":[{"name":"","type":"uint256","internalType":"uint256"}],"outputs":[{"name":"","type":"address","internalType":"address"}],"stateMutability":"view"},{"type":"function","name":"getRecord","inputs":[{"name":"patient","type":"address","internalType":"address"}],"outputs":[{"name":"","type":"string","internalType":"string"}],"stateMutability":"view"},{"type":"function","name":"grantAccess","inputs":[{"name":"doctor","type":"address","internalType":"address"}],"outputs":[],"stateMutability":"nonpayable"},{"type":"function","name":"isFunders","inputs":[{"name":"","type":"address","internalType":"address"}],"outputs":[{"name":"","type":"bool","internalType":"bool"}],"stateMutability":"view"},{"type":"function","name":"owner","inputs":[],"outputs":[{"name":"","type":"address","internalType":"address"}],"stateMutability":"view"},{"type":"function","name":"ownerCrowdCount","inputs":[{"name":"","type":"address","internalType":"address"}],"outputs":[{"name":"","type":"uint256","internalType":"uint256"}],"stateMutability":"view"},{"type":"function","name":"patients","inputs":[{"name":"","type":"uint256","internalType":"uint256"}],"outputs":[{"name":"name","type":"string","internalType":"string"},{"name":"age","type":"uint8","internalType":"uint8"},{"name":"walletAddress","type":"address","internalType":"address"}],"stateMutability":"view"},{"type":"function","name":"profileToOwner","inputs":[{"name":"","type":"address","internalType":"address"}],"outputs":[{"name":"","type":"uint256","internalType":"uint256"}],"stateMutability":"view"},{"type":"function","name":"ratingDoctor","inputs":[{"name":"_walletAddressDoctor","type":"address","internalType":"address"},{"name":"_rating","type":"uint8","internalType":"uint8"}],"outputs":[],"stateMutability":"nonpayable"},{"type":"function","name":"renounceOwnership","inputs":[],"outputs":[],"stateMutability":"nonpayable"},{"type":"function","name":"revokeAccess","inputs":[{"name":"doctor","type":"address","internalType":"address"}],"outputs":[],"stateMutability":"nonpayable"},{"type":"function","name":"setDataTransferAddress","inputs":[{"name":"_address","type":"address","internalType":"address"}],"outputs":[],"stateMutability":"nonpayable"},{"type":"function","name":"storeRecord","inputs":[{"name":"_id","type":"uint256","internalType":"uint256"},{"name":"ipfsHash","type":"string","internalType":"string"}],"outputs":[],"stateMutability":"nonpayable"},{"type":"function","name":"transferOwnership","inputs":[{"name":"newOwner","type":"address","internalType":"address"}],"outputs":[],"stateMutability":"nonpayable"},{"type":"function","name":"withDraw","inputs":[],"outputs":[],"stateMutability":"nonpayable"},{"type":"event","name":"AccessGranted","inputs":[{"name":"patient","type":"address","indexed":true,"internalType":"address"},{"name":"doctor","type":"address","indexed":true,"internalType":"address"}],"anonymous":false},{"type":"event","name":"AccessRevoked","inputs":[{"name":"patient","type":"address","indexed":true,"internalType":"address"},{"name":"doctor","type":"address","indexed":true,"internalType":"address"}],"anonymous":false},{"type":"event","name":"HostCrowdFunding","inputs":[{"name":"nameCrowd","type":"string","indexed":false,"internalType":"string"},{"name":"target","type":"uint256","indexed":false,"internalType":"uint256"},{"name":"endTime","type":"uint32","indexed":false,"internalType":"uint32"},{"name":"nameDoctorHost","type":"string","indexed":false,"internalType":"string"}],"anonymous":false},{"type":"event","name":"NewUser","inputs":[{"name":"patientId","type":"uint256","indexed":false,"internalType":"uint256"},{"name":"name","type":"string","indexed":false,"internalType":"string"},{"name":"age","type":"uint256","indexed":false,"internalType":"uint256"}],"anonymous":false},{"type":"event","name":"OwnershipTransferred","inputs":[{"name":"previousOwner","type":"address","indexed":true,"internalType":"address"},{"name":"newOwner","type":"address","indexed":true,"internalType":"address"}],"anonymous":false},{"type":"event","name":"RecordStored","inputs":[{"name":"patient","type":"address","indexed":true,"internalType":"address"},{"name":"ipfsHash","type":"string","indexed":false,"internalType":"string"}],"anonymous":false},{"type":"error","name":"OwnableInvalidOwner","inputs":[{"name":"owner","type":"address","internalType":"address"}]},{"type":"error","name":"OwnableUnauthorizedAccount","inputs":[{"name":"account","type":"address","internalType":"address"}]}],"bytecode":{"object":"0x6080604052348015600f57600080fd5b503380603557604051631e4fbdf760e01b81526000600482015260240160405180910390fd5b603c816041565b506091565b600080546001600160a01b038381166001600160a01b0319831681178455604051919092169283917f8be0079c531659141344cd1fd0a4f28419497f9722a3daafe3b4186f6b6457e09190a35050565b611f60806100a06000396000f3fe6080604052600436106101a05760003560e01c80638da5cb5b116100ec578063b87351011161008a578063dc0d3dff11610064578063dc0d3dff14610567578063e9fa881414610587578063ed32f2b0146105b4578063f2fde38b146105c0576101af565b8063b8735101146104f7578063cde2d23b14610517578063cf718fdc14610537576101af565b806393119a83116100c657806393119a83146104285780639ad8180f14610457578063a1e3285c14610484578063b8006862146104a4576101af565b80638da5cb5b146103b857806392ce1e41146103d6578063930b8ef114610408576101af565b80634407e1e8116101595780636efb1b84116101335780636efb1b8414610332578063715018a61461036357806385e68531146103785780638a7d2a0c14610398576101af565b80634407e1e81461027c57806358d3eab0146102b7578063617fba0414610305576101af565b80630ae5e739146101b75780630fdb1c10146101d7578063105fbbc9146101af57806317a4ad81146101ec5780631ccdfc321461023c5780632f7009551461025c576101af565b366101af576101ad6105e0565b005b6101ad6105e0565b3480156101c357600080fd5b506101ad6101d23660046117b2565b61067a565b3480156101e357600080fd5b506101ad61077a565b3480156101f857600080fd5b506102276102073660046117d4565b600e60209081526000928352604080842090915290825290205460ff1681565b60405190151581526020015b60405180910390f35b34801561024857600080fd5b506101ad6102573660046118dd565b610784565b34801561026857600080fd5b506101ad6102773660046117b2565b6108cc565b34801561028857600080fd5b506102a96102973660046117b2565b60086020526000908152604090205481565b604051908152602001610233565b3480156102c357600080fd5b506102ed6102d2366004611922565b600b602052600090815260409020546001600160a01b031681565b6040516001600160a01b039091168152602001610233565b34801561031157600080fd5b506103256103203660046117b2565b6108f6565b604051610233919061198b565b34801561033e57600080fd5b5061035261034d366004611922565b6109d0565b60405161023395949392919061199e565b34801561036f57600080fd5b506101ad610aac565b34801561038457600080fd5b506101ad6103933660046117b2565b610abe565b3480156103a457600080fd5b506101ad6103b33660046119e4565b610bb9565b3480156103c457600080fd5b506000546001600160a01b03166102ed565b3480156103e257600080fd5b506103f66103f1366004611922565b610de0565b60405161023396959493929190611a0e565b34801561041457600080fd5b506101ad610423366004611a75565b610fde565b34801561043457600080fd5b50610448610443366004611922565b611252565b60405161023393929190611b03565b34801561046357600080fd5b506102a96104723660046117b2565b60056020526000908152604090205481565b34801561049057600080fd5b506101ad61049f3660046117b2565b611322565b3480156104b057600080fd5b506104dd6104bf3660046117b2565b600d6020526000908152604090205460ff8082169161010090041682565b6040805160ff938416815292909116602083015201610233565b34801561050357600080fd5b506101ad610512366004611b39565b6113a2565b34801561052357600080fd5b506101ad610532366004611b90565b6115a1565b34801561054357600080fd5b506102276105523660046117b2565b60076020526000908152604090205460ff1681565b34801561057357600080fd5b506102ed610582366004611922565b6116b4565b34801561059357600080fd5b506102a96105a23660046117b2565b600c6020526000908152604090205481565b3480156101ad57600080fd5b3480156105cc57600080fd5b506101ad6105db3660046117b2565b6116de565b33600090815260086020526040812080543492906105ff908490611bed565b90915550503360009081526007602052604090205460ff1680610677576009805460018181019092557f6e1540171b6c0c960b71a7020d9f60077f6af931a8bbf590da0223dacf75c7af0180546001600160a01b031916339081179091556000908152600760205260409020805460ff191690911790555b50565b6001600160a01b03811660009081526004602052604090205460ff166106e25760405162461bcd60e51b815260206004820152601860248201527720b2323932b9b99034b9903737ba1030903237b1ba37b91760411b60448201526064015b60405180910390fd5b600154604051630ae5e73960e01b81526001600160a01b03838116600483015290911690630ae5e73990602401600060405180830381600087803b15801561072957600080fd5b505af115801561073d573d6000803e3d6000fd5b50506040516001600160a01b03841692503391507f9f520b3bfc56d06f7065d10b4683b3f57ac8895d5026cd176dee95ce1454cb8d90600090a350565b610782611719565b565b33600090815260066020526040902054156107b15760405162461bcd60e51b81526004016106d990611c00565b6040805160608101825283815260ff831660208201523391810191909152600280546001810182556000829052825191027f405787fa12a823e0f2b7631cc41b3ba8828b3321ca811111fa75cd3aa3bb5ace019081906108119082611ccb565b506020820151600191820180546040909401516001600160a01b0316610100026001600160a81b031990941660ff909216919091179290921790915560025460009161085c91611d8a565b3360009081526005602090815260408083208490556006909152812080549293509061088783611d9d565b91905055507fd86dca2e2544318fbca4769e2f7ea2bba8eeb0f445dd717aef0d3c84670baa418184846040516108bf93929190611db6565b60405180910390a1505050565b6108d4611719565b600180546001600160a01b0319166001600160a01b0392909216919091179055565b3360009081526004602052604090205460609060ff166109585760405162461bcd60e51b815260206004820152601e60248201527f4f6e6c7920646f63746f72732063616e2076696577207265636f7264732e000060448201526064016106d9565b60015460405163185fee8160e21b81526001600160a01b0384811660048301529091169063617fba0490602401600060405180830381865afa1580156109a2573d6000803e3d6000fd5b505050506040513d6000823e601f3d908101601f191682016040526109ca9190810190611de2565b92915050565b600381815481106109e057600080fd5b60009182526020909120600390910201805460018201805491935090610a0590611c42565b80601f0160208091040260200160405190810160405280929190818152602001828054610a3190611c42565b8015610a7e5780601f10610a5357610100808354040283529160200191610a7e565b820191906000526020600020905b815481529060010190602001808311610a6157829003601f168201915b5050506002909301549192505060ff808216916001600160a01b0361010082041691600160a81b9091041685565b610ab4611719565b6107826000611746565b6001600160a01b03811660009081526004602052604090205460ff16610b215760405162461bcd60e51b815260206004820152601860248201527720b2323932b9b99034b9903737ba1030903237b1ba37b91760411b60448201526064016106d9565b6001546040516385e6853160e01b81526001600160a01b038381166004830152909116906385e6853190602401600060405180830381600087803b158015610b6857600080fd5b505af1158015610b7c573d6000803e3d6000fd5b50506040516001600160a01b03841692503391507f825c8be24eb0df19500f63e86c29e7d0d951e73056b889b891d85e40938d9b6e90600090a350565b60018160ff1610158015610bd1575060058160ff1611155b610c155760405162461bcd60e51b81526020600482015260156024820152744f6e6c7920726174652066726f6d203120746f203560581b60448201526064016106d9565b336000908152600e602090815260408083206001600160a01b038616845290915290205460ff16610c985760405162461bcd60e51b815260206004820152602760248201527f596f7520686176656e2774206265656e20747265617465642062792074686973604482015266103237b1ba37b960c91b60648201526084016106d9565b6001600160a01b0382166000908152600d602052604081208054839290610cc390849060ff16611e59565b825460ff91821661010093840a90810290830219909116179092556001600160a01b0385166000908152600d6020526040902080546001945090928492610d0f92849291900416611e59565b825460ff91821661010093840a9081029083021990911617909255336000908152600e602090815260408083206001600160a01b03891684528252808320805460ff191690556005825280832054600d83529281902081518083019092525480861682529390930490931692820183905292509015610d8d57600080fd5b60208101518151610d9e9190611e72565b60038381548110610db157610db1611ea2565b906000526020600020906003020160020160156101000a81548160ff021916908360ff16021790555050505050565b600a8181548110610df057600080fd5b9060005260206000209060060201600091509050806000018054610e1390611c42565b80601f0160208091040260200160405190810160405280929190818152602001828054610e3f90611c42565b8015610e8c5780601f10610e6157610100808354040283529160200191610e8c565b820191906000526020600020905b815481529060010190602001808311610e6f57829003601f168201915b50505050600183015460028401546003850180549495929463ffffffff909216935090610eb890611c42565b80601f0160208091040260200160405190810160405280929190818152602001828054610ee490611c42565b8015610f315780601f10610f0657610100808354040283529160200191610f31565b820191906000526020600020905b815481529060010190602001808311610f1457829003601f168201915b505050600484015460058501805494956001600160a01b03909216949193509150610f5b90611c42565b80601f0160208091040260200160405190810160405280929190818152602001828054610f8790611c42565b8015610fd45780601f10610fa957610100808354040283529160200191610fd4565b820191906000526020600020905b815481529060010190602001808311610fb757829003601f168201915b5050505050905086565b3360009081526004602052604090205460ff166110495760405162461bcd60e51b815260206004820152602360248201527f6f6e6c7920646f63746f72732063616e2063616c6c20746869732066756e637460448201526234b7b760e91b60648201526084016106d9565b336000908152600c6020526040902054600210156110a95760405162461bcd60e51b815260206004820152601960248201527f4f6e6c79203220686f737420666f72203120646f63746f72210000000000000060448201526064016106d9565b6040805160c081018252858152602080820186905263ffffffff85168284015282518084019093526008835267446f63746f72204b60c01b90830152606081019190915233608082015260a08101829052600a8054600181018255600091909152815160069091027fc65a7bb8d6351c1cf70c95a316cc6a92839c986682d98bc35f958f4883f9d2a8019081906111409082611ccb565b5060208201516001820155604082015160028201805463ffffffff191663ffffffff9092169190911790556060820151600382019061117f9082611ccb565b5060808201516004820180546001600160a01b0319166001600160a01b0390921691909117905560a082015160058201906111ba9082611ccb565b5050600a54600091506111cf90600190611d8a565b6000818152600b6020908152604080832080546001600160a01b031916339081179091558352600c909152812080549293509061120b83611d9d565b91905055507f69e156612586a9b6531cb151ff6ab9fa7b57cccd6dda6e25654707eb055ce66785858560405161124393929190611eb8565b60405180910390a15050505050565b6002818154811061126257600080fd5b906000526020600020906002020160009150905080600001805461128590611c42565b80601f01602080910402602001604051908101604052809291908181526020018280546112b190611c42565b80156112fe5780601f106112d3576101008083540402835291602001916112fe565b820191906000526020600020905b8154815290600101906020018083116112e157829003601f168201915b5050506001909301549192505060ff8116906001600160a01b036101009091041683565b6001600160a01b0381166113715760405162461bcd60e51b8152602060048201526016602482015275496e76616c696420646f63746f72206164647265737360501b60448201526064016106d9565b336000908152600e602090815260408083206001600160a01b0394909416835292905220805460ff19166001179055565b33600090815260066020526040902054156113cf5760405162461bcd60e51b81526004016106d990611c00565b61271083116114175760405162461bcd60e51b815260206004820152601460248201527315185ad9481a5908199bdc9b481a1bdc1a5d185b60621b60448201526064016106d9565b6040805160a0810182528481526020810184815260ff8416928201929092523360608201526000608082018190526003805460018101825591819052825191027fc2575a0e9e593c00f959f8c92f12db2869c3395a3b0502d05e2516446f71f85b81019182559251919290917fc2575a0e9e593c00f959f8c92f12db2869c3395a3b0502d05e2516446f71f85c909101906114b29082611ccb565b50604082015160029091018054606084015160809094015160ff908116600160a81b0260ff60a81b196001600160a01b03909616610100026001600160a81b03199093169190941617179290921617905560035460009061151590600190611d8a565b3360009081526005602090815260408083208490556006909152812080549293509061154083611d9d565b90915550503360009081526004602052604090819020805460ff19166001179055517fd86dca2e2544318fbca4769e2f7ea2bba8eeb0f445dd717aef0d3c84670baa419061159390839086908690611db6565b60405180910390a150505050565b600254336000908152600560205260409020541061160b5760405162461bcd60e51b815260206004820152602160248201527f596f7520617265206e6f74206120726567697374657265642070617469656e746044820152601760f91b60648201526084016106d9565b60015460405163cde2d23b60e01b81526001600160a01b039091169063cde2d23b9061163d9085908590600401611f09565b600060405180830381600087803b15801561165757600080fd5b505af115801561166b573d6000803e3d6000fd5b50505050336001600160a01b03167f9030e73d33af80bdf3d4bb5ed5de0b053a3e66e0560332ff6b5b975cf3464f43826040516116a8919061198b565b60405180910390a25050565b600981815481106116c457600080fd5b6000918252602090912001546001600160a01b0316905081565b6116e6611719565b6001600160a01b03811661171057604051631e4fbdf760e01b8152600060048201526024016106d9565b61067781611746565b6000546001600160a01b031633146107825760405163118cdaa760e01b81523360048201526024016106d9565b600080546001600160a01b038381166001600160a01b0319831681178455604051919092169283917f8be0079c531659141344cd1fd0a4f28419497f9722a3daafe3b4186f6b6457e09190a35050565b80356001600160a01b03811681146117ad57600080fd5b919050565b6000602082840312156117c457600080fd5b6117cd82611796565b9392505050565b600080604083850312156117e757600080fd5b6117f083611796565b91506117fe60208401611796565b90509250929050565b634e487b7160e01b600052604160045260246000fd5b604051601f8201601f1916810167ffffffffffffffff8111828210171561184657611846611807565b604052919050565b600067ffffffffffffffff82111561186857611868611807565b50601f01601f191660200190565b600082601f83011261188757600080fd5b813561189a6118958261184e565b61181d565b8181528460208386010111156118af57600080fd5b816020850160208301376000918101602001919091529392505050565b803560ff811681146117ad57600080fd5b600080604083850312156118f057600080fd5b823567ffffffffffffffff81111561190757600080fd5b61191385828601611876565b9250506117fe602084016118cc565b60006020828403121561193457600080fd5b5035919050565b60005b8381101561195657818101518382015260200161193e565b50506000910152565b6000815180845261197781602086016020860161193b565b601f01601f19169290920160200192915050565b6020815260006117cd602083018461195f565b85815260a0602082015260006119b760a083018761195f565b60ff95861660408401526001600160a01b0394909416606083015250921660809092019190915292915050565b600080604083850312156119f757600080fd5b611a0083611796565b91506117fe602084016118cc565b60c081526000611a2160c083018961195f565b87602084015263ffffffff871660408401528281036060840152611a45818761195f565b6001600160a01b038616608085015283810360a08501529050611a68818561195f565b9998505050505050505050565b60008060008060808587031215611a8b57600080fd5b843567ffffffffffffffff811115611aa257600080fd5b611aae87828801611876565b94505060208501359250604085013563ffffffff81168114611acf57600080fd5b9150606085013567ffffffffffffffff811115611aeb57600080fd5b611af787828801611876565b91505092959194509250565b606081526000611b16606083018661195f565b60ff949094166020830152506001600160a01b0391909116604090910152919050565b600080600060608486031215611b4e57600080fd5b83359250602084013567ffffffffffffffff811115611b6c57600080fd5b611b7886828701611876565b925050611b87604085016118cc565b90509250925092565b60008060408385031215611ba357600080fd5b82359150602083013567ffffffffffffffff811115611bc157600080fd5b611bcd85828601611876565b9150509250929050565b634e487b7160e01b600052601160045260246000fd5b808201808211156109ca576109ca611bd7565b60208082526022908201527f596f7520616c7265616479206861766520612070617469656e742070726f66696040820152616c6560f01b606082015260800190565b600181811c90821680611c5657607f821691505b602082108103611c7657634e487b7160e01b600052602260045260246000fd5b50919050565b601f821115611cc657806000526020600020601f840160051c81016020851015611ca35750805b601f840160051c820191505b81811015611cc35760008155600101611caf565b50505b505050565b815167ffffffffffffffff811115611ce557611ce5611807565b611cf981611cf38454611c42565b84611c7c565b6020601f821160018114611d2d5760008315611d155750848201515b600019600385901b1c1916600184901b178455611cc3565b600084815260208120601f198516915b82811015611d5d5787850151825560209485019460019092019101611d3d565b5084821015611d7b5786840151600019600387901b60f8161c191681555b50505050600190811b01905550565b818103818111156109ca576109ca611bd7565b600060018201611daf57611daf611bd7565b5060010190565b838152606060208201526000611dcf606083018561195f565b905060ff83166040830152949350505050565b600060208284031215611df457600080fd5b815167ffffffffffffffff811115611e0b57600080fd5b8201601f81018413611e1c57600080fd5b8051611e2a6118958261184e565b818152856020838501011115611e3f57600080fd5b611e5082602083016020860161193b565b95945050505050565b60ff81811683821601908111156109ca576109ca611bd7565b600060ff831680611e9357634e487b7160e01b600052601260045260246000fd5b8060ff84160491505092915050565b634e487b7160e01b600052603260045260246000fd5b608081526000611ecb608083018661195f565b84602084015263ffffffff8416604084015282810360608401526008815267446f63746f72204b60c01b602082015260408101915050949350505050565b828152604060208201526000611f22604083018461195f565b94935050505056fea26469706673582212209bdc88b6e8902d3128c09c99218b36751e4304148fea905a946007a2dd1a48a564736f6c634300081a0033","linkReferences":{}},"methodIdentifiers":{"createCrowd(string,uint256,uint32,string)":"930b8ef1","createProfileDoctor(uint256,string,uint8)":"b8735101","createProfilePatient(string,uint8)":"1ccdfc32","crowdToOwner(uint256)":"58d3eab0","crowds(uint256)":"92ce1e41","diagnose(address)":"a1e3285c","doctorPatientRecords(address,address)":"17a4ad81","doctorRatings(address)":"b8006862","doctors(uint256)":"6efb1b84","endCrowdfunding()":"ed32f2b0","fundToCrowd()":"105fbbc9","funderToAmount(address)":"4407e1e8","funders(uint256)":"dc0d3dff","getRecord(address)":"617fba04","grantAccess(address)":"0ae5e739","isFunders(address)":"cf718fdc","owner()":"8da5cb5b","ownerCrowdCount(address)":"e9fa8814","patients(uint256)":"93119a83","profileToOwner(address)":"9ad8180f","ratingDoctor(address,uint8)":"8a7d2a0c","renounceOwnership()":"715018a6","revokeAccess(address)":"85e68531","setDataTransferAddress(address)":"2f700955","storeRecord(uint256,string)":"cde2d23b","transferOwnership(address)":"f2fde38b","withDraw()":"0fdb1c10"},"id":24}