{"abi":[{"type":"constructor","inputs":[{"name":"_owner","type":"address","internalType":"address"}],"stateMutability":"nonpayable"},{"type":"fallback","stateMutability":"payable"},{"type":"receive","stateMutability":"payable"},{"type":"function","name":"createCrowd","inputs":[{"name":"_nameCrowd","type":"string","internalType":"string"},{"name":"_target","type":"uint256","internalType":"uint256"},{"name":"_endTime","type":"uint32","internalType":"uint32"},{"name":"_scriptCrowd","type":"string","internalType":"string"}],"outputs":[],"stateMutability":"nonpayable"},{"type":"function","name":"createProfileDoctor","inputs":[{"name":"_idDoctor","type":"uint256","internalType":"uint256"},{"name":"_name","type":"string","internalType":"string"},{"name":"_age","type":"uint8","internalType":"uint8"}],"outputs":[],"stateMutability":"nonpayable"},{"type":"function","name":"createProfilePatient","inputs":[{"name":"_name","type":"string","internalType":"string"},{"name":"_age","type":"uint8","internalType":"uint8"}],"outputs":[],"stateMutability":"nonpayable"},{"type":"function","name":"crowdToOwner","inputs":[{"name":"","type":"uint256","internalType":"uint256"}],"outputs":[{"name":"","type":"address","internalType":"address"}],"stateMutability":"view"},{"type":"function","name":"crowds","inputs":[{"name":"","type":"uint256","internalType":"uint256"}],"outputs":[{"name":"nameCrowd","type":"string","internalType":"string"},{"name":"target","type":"uint256","internalType":"uint256"},{"name":"endTime","type":"uint32","internalType":"uint32"},{"name":"nameHost","type":"string","internalType":"string"},{"name":"adrHost","type":"address","internalType":"address"},{"name":"scriptCrowd","type":"string","internalType":"string"}],"stateMutability":"view"},{"type":"function","name":"dataTransfer","inputs":[],"outputs":[{"name":"","type":"address","internalType":"contract IDataTransfer"}],"stateMutability":"view"},{"type":"function","name":"diagnose","inputs":[{"name":"_walletAddressDoctor","type":"address","internalType":"address"}],"outputs":[],"stateMutability":"nonpayable"},{"type":"function","name":"doctorPatientRecords","inputs":[{"name":"","type":"address","internalType":"address"},{"name":"","type":"address","internalType":"address"}],"outputs":[{"name":"","type":"bool","internalType":"bool"}],"stateMutability":"view"},{"type":"function","name":"doctorRatings","inputs":[{"name":"","type":"address","internalType":"address"}],"outputs":[{"name":"totalRating","type":"uint8","internalType":"uint8"},{"name":"numberOfRatings","type":"uint8","internalType":"uint8"}],"stateMutability":"view"},{"type":"function","name":"doctors","inputs":[{"name":"","type":"uint256","internalType":"uint256"}],"outputs":[{"name":"idDoctor","type":"uint256","internalType":"uint256"},{"name":"name","type":"string","internalType":"string"},{"name":"age","type":"uint8","internalType":"uint8"},{"name":"walletAddress","type":"address","internalType":"address"},{"name":"rating","type":"uint8","internalType":"uint8"}],"stateMutability":"view"},{"type":"function","name":"endCrowdfunding","inputs":[],"outputs":[],"stateMutability":"nonpayable"},{"type":"function","name":"fundToCrowd","inputs":[],"outputs":[],"stateMutability":"payable"},{"type":"function","name":"funderToAmount","inputs":[{"name":"","type":"address","internalType":"address"}],"outputs":[{"name":"","type":"uint256","internalType":"uint256"}],"stateMutability":"view"},{"type":"function","name":"funders","inputs":[{"name":"","type":"uint256","internalType":"uint256"}],"outputs":[{"name":"","type":"address","internalType":"address"}],"stateMutability":"view"},{"type":"function","name":"getIpfsHash","inputs":[{"name":"patient","type":"address","internalType":"address"}],"outputs":[{"name":"","type":"string","internalType":"string"}],"stateMutability":"view"},{"type":"function","name":"grantAccess","inputs":[{"name":"doctor","type":"address","internalType":"address"}],"outputs":[],"stateMutability":"nonpayable"},{"type":"function","name":"isFunders","inputs":[{"name":"","type":"address","internalType":"address"}],"outputs":[{"name":"","type":"bool","internalType":"bool"}],"stateMutability":"view"},{"type":"function","name":"owner","inputs":[],"outputs":[{"name":"","type":"address","internalType":"address"}],"stateMutability":"view"},{"type":"function","name":"ownerCrowdCount","inputs":[{"name":"","type":"address","internalType":"address"}],"outputs":[{"name":"","type":"uint256","internalType":"uint256"}],"stateMutability":"view"},{"type":"function","name":"patients","inputs":[{"name":"","type":"uint256","internalType":"uint256"}],"outputs":[{"name":"name","type":"string","internalType":"string"},{"name":"age","type":"uint8","internalType":"uint8"},{"name":"walletAddress","type":"address","internalType":"address"}],"stateMutability":"view"},{"type":"function","name":"profileToOwner","inputs":[{"name":"","type":"address","internalType":"address"}],"outputs":[{"name":"","type":"uint256","internalType":"uint256"}],"stateMutability":"view"},{"type":"function","name":"ratingDoctor","inputs":[{"name":"_walletAddressDoctor","type":"address","internalType":"address"},{"name":"_rating","type":"uint8","internalType":"uint8"}],"outputs":[],"stateMutability":"nonpayable"},{"type":"function","name":"renounceOwnership","inputs":[],"outputs":[],"stateMutability":"nonpayable"},{"type":"function","name":"revokeAccess","inputs":[{"name":"doctor","type":"address","internalType":"address"}],"outputs":[],"stateMutability":"nonpayable"},{"type":"function","name":"setDataTransferAddress","inputs":[{"name":"_address","type":"address","internalType":"address"}],"outputs":[],"stateMutability":"nonpayable"},{"type":"function","name":"storeRecord","inputs":[{"name":"_id","type":"uint256","internalType":"uint256"},{"name":"ipfsHash","type":"string","internalType":"string"}],"outputs":[],"stateMutability":"nonpayable"},{"type":"function","name":"transferOwnership","inputs":[{"name":"newOwner","type":"address","internalType":"address"}],"outputs":[],"stateMutability":"nonpayable"},{"type":"function","name":"withDraw","inputs":[],"outputs":[],"stateMutability":"nonpayable"},{"type":"event","name":"AccessGranted","inputs":[{"name":"patient","type":"address","indexed":true,"internalType":"address"},{"name":"doctor","type":"address","indexed":true,"internalType":"address"}],"anonymous":false},{"type":"event","name":"AccessRevoked","inputs":[{"name":"patient","type":"address","indexed":true,"internalType":"address"},{"name":"doctor","type":"address","indexed":true,"internalType":"address"}],"anonymous":false},{"type":"event","name":"HostCrowdFunding","inputs":[{"name":"nameCrowd","type":"string","indexed":false,"internalType":"string"},{"name":"target","type":"uint256","indexed":false,"internalType":"uint256"},{"name":"endTime","type":"uint32","indexed":false,"internalType":"uint32"},{"name":"nameDoctorHost","type":"string","indexed":false,"internalType":"string"}],"anonymous":false},{"type":"event","name":"NewUser","inputs":[{"name":"patientId","type":"uint256","indexed":false,"internalType":"uint256"},{"name":"name","type":"string","indexed":false,"internalType":"string"},{"name":"age","type":"uint256","indexed":false,"internalType":"uint256"}],"anonymous":false},{"type":"event","name":"OwnershipTransferred","inputs":[{"name":"previousOwner","type":"address","indexed":true,"internalType":"address"},{"name":"newOwner","type":"address","indexed":true,"internalType":"address"}],"anonymous":false},{"type":"event","name":"RecordStored","inputs":[{"name":"patient","type":"address","indexed":true,"internalType":"address"},{"name":"ipfsHash","type":"string","indexed":false,"internalType":"string"}],"anonymous":false},{"type":"error","name":"OwnableInvalidOwner","inputs":[{"name":"owner","type":"address","internalType":"address"}]},{"type":"error","name":"OwnableUnauthorizedAccount","inputs":[{"name":"account","type":"address","internalType":"address"}]}],"bytecode":{"object":"0x6080604052348015600f57600080fd5b50604051611fb9380380611fb9833981016040819052602c9160b2565b80803380605357604051631e4fbdf760e01b81526000600482015260240160405180910390fd5b605a816062565b5050505060e0565b600080546001600160a01b038381166001600160a01b0319831681178455604051919092169283917f8be0079c531659141344cd1fd0a4f28419497f9722a3daafe3b4186f6b6457e09190a35050565b60006020828403121560c357600080fd5b81516001600160a01b038116811460d957600080fd5b9392505050565b611eca806100ef6000396000f3fe6080604052600436106101bb5760003560e01c8063930b8ef1116100ec578063cde2d23b1161008a578063dc0d3dff11610064578063dc0d3dff146105bf578063e9fa8814146105df578063ed32f2b01461060c578063f2fde38b14610618576101ca565b8063cde2d23b14610542578063cf718fdc14610562578063d8da2fa814610592576101ca565b8063a1e3285c116100c6578063a1e3285c1461048f578063b8006862146104af578063b873510114610502578063c88bde7014610522576101ca565b8063930b8ef11461041357806393119a83146104335780639ad8180f14610462576101ca565b806358d3eab01161015957806385e685311161013357806385e68531146103835780638a7d2a0c146103a35780638da5cb5b146103c357806392ce1e41146103e1576101ca565b806358d3eab0146102ef5780636efb1b841461033d578063715018a61461036e576101ca565b806317a4ad811161019557806317a4ad81146102075780631ccdfc32146102575780632f700955146102775780634407e1e8146102b4576101ca565b80630ae5e739146101d25780630fdb1c10146101f2578063105fbbc9146101ca576101ca565b366101ca576101c8610638565b005b6101c8610638565b3480156101de57600080fd5b506101c86101ed36600461171c565b6106d2565b3480156101fe57600080fd5b506101c861076a565b34801561021357600080fd5b5061024261022236600461173e565b600e60209081526000928352604080842090915290825290205460ff1681565b60405190151581526020015b60405180910390f35b34801561026357600080fd5b506101c8610272366004611847565b610774565b34801561028357600080fd5b506101c861029236600461171c565b600180546001600160a01b0319166001600160a01b0392909216919091179055565b3480156102c057600080fd5b506102e16102cf36600461171c565b60086020526000908152604090205481565b60405190815260200161024e565b3480156102fb57600080fd5b5061032561030a36600461188c565b600b602052600090815260409020546001600160a01b031681565b6040516001600160a01b03909116815260200161024e565b34801561034957600080fd5b5061035d61035836600461188c565b6108c5565b60405161024e9594939291906118f5565b34801561037a57600080fd5b506101c86109a1565b34801561038f57600080fd5b506101c861039e36600461171c565b6109b3565b3480156103af57600080fd5b506101c86103be36600461193b565b610ab3565b3480156103cf57600080fd5b506000546001600160a01b0316610325565b3480156103ed57600080fd5b506104016103fc36600461188c565b610cda565b60405161024e96959493929190611965565b34801561041f57600080fd5b506101c861042e3660046119cc565b610ed8565b34801561043f57600080fd5b5061045361044e36600461188c565b61114c565b60405161024e93929190611a5a565b34801561046e57600080fd5b506102e161047d36600461171c565b60056020526000908152604090205481565b34801561049b57600080fd5b506101c86104aa36600461171c565b61121c565b3480156104bb57600080fd5b506104e86104ca36600461171c565b600d6020526000908152604090205460ff8082169161010090041682565b6040805160ff93841681529290911660208301520161024e565b34801561050e57600080fd5b506101c861051d366004611a90565b61129c565b34801561052e57600080fd5b50600154610325906001600160a01b031681565b34801561054e57600080fd5b506101c861055d366004611ae7565b61149b565b34801561056e57600080fd5b5061024261057d36600461171c565b60076020526000908152604090205460ff1681565b34801561059e57600080fd5b506105b26105ad36600461171c565b611544565b60405161024e9190611b2e565b3480156105cb57600080fd5b506103256105da36600461188c565b61161e565b3480156105eb57600080fd5b506102e16105fa36600461171c565b600c6020526000908152604090205481565b3480156101c857600080fd5b34801561062457600080fd5b506101c861063336600461171c565b611648565b3360009081526008602052604081208054349290610657908490611b57565b90915550503360009081526007602052604090205460ff16806106cf576009805460018181019092557f6e1540171b6c0c960b71a7020d9f60077f6af931a8bbf590da0223dacf75c7af0180546001600160a01b031916339081179091556000908152600760205260409020805460ff191690911790555b50565b600154604051630ae5e73960e01b81526001600160a01b03838116600483015290911690630ae5e73990602401600060405180830381600087803b15801561071957600080fd5b505af115801561072d573d6000803e3d6000fd5b50506040516001600160a01b03841692503391507f9f520b3bfc56d06f7065d10b4683b3f57ac8895d5026cd176dee95ce1454cb8d90600090a350565b610772611683565b565b33600090815260066020526040902054156107aa5760405162461bcd60e51b81526004016107a190611b6a565b60405180910390fd5b6040805160608101825283815260ff831660208201523391810191909152600280546001810182556000829052825191027f405787fa12a823e0f2b7631cc41b3ba8828b3321ca811111fa75cd3aa3bb5ace0190819061080a9082611c35565b506020820151600191820180546040909401516001600160a01b0316610100026001600160a81b031990941660ff909216919091179290921790915560025460009161085591611cf4565b3360009081526005602090815260408083208490556006909152812080549293509061088083611d07565b91905055507fd86dca2e2544318fbca4769e2f7ea2bba8eeb0f445dd717aef0d3c84670baa418184846040516108b893929190611d20565b60405180910390a1505050565b600381815481106108d557600080fd5b600091825260209091206003909102018054600182018054919350906108fa90611bac565b80601f016020809104026020016040519081016040528092919081815260200182805461092690611bac565b80156109735780601f1061094857610100808354040283529160200191610973565b820191906000526020600020905b81548152906001019060200180831161095657829003601f168201915b5050506002909301549192505060ff808216916001600160a01b0361010082041691600160a81b9091041685565b6109a9611683565b61077260006116b0565b6001600160a01b03811660009081526004602052604090205460ff16610a1b5760405162461bcd60e51b815260206004820152601860248201527f41646472657373206973206e6f74206120646f63746f722e000000000000000060448201526064016107a1565b6001546040516385e6853160e01b81526001600160a01b038381166004830152909116906385e6853190602401600060405180830381600087803b158015610a6257600080fd5b505af1158015610a76573d6000803e3d6000fd5b50506040516001600160a01b03841692503391507f825c8be24eb0df19500f63e86c29e7d0d951e73056b889b891d85e40938d9b6e90600090a350565b60018160ff1610158015610acb575060058160ff1611155b610b0f5760405162461bcd60e51b81526020600482015260156024820152744f6e6c7920726174652066726f6d203120746f203560581b60448201526064016107a1565b336000908152600e602090815260408083206001600160a01b038616845290915290205460ff16610b925760405162461bcd60e51b815260206004820152602760248201527f596f7520686176656e2774206265656e20747265617465642062792074686973604482015266103237b1ba37b960c91b60648201526084016107a1565b6001600160a01b0382166000908152600d602052604081208054839290610bbd90849060ff16611d4c565b825460ff91821661010093840a90810290830219909116179092556001600160a01b0385166000908152600d6020526040902080546001945090928492610c0992849291900416611d4c565b825460ff91821661010093840a9081029083021990911617909255336000908152600e602090815260408083206001600160a01b03891684528252808320805460ff191690556005825280832054600d83529281902081518083019092525480861682529390930490931692820183905292509015610c8757600080fd5b60208101518151610c989190611d65565b60038381548110610cab57610cab611d95565b906000526020600020906003020160020160156101000a81548160ff021916908360ff16021790555050505050565b600a8181548110610cea57600080fd5b9060005260206000209060060201600091509050806000018054610d0d90611bac565b80601f0160208091040260200160405190810160405280929190818152602001828054610d3990611bac565b8015610d865780601f10610d5b57610100808354040283529160200191610d86565b820191906000526020600020905b815481529060010190602001808311610d6957829003601f168201915b50505050600183015460028401546003850180549495929463ffffffff909216935090610db290611bac565b80601f0160208091040260200160405190810160405280929190818152602001828054610dde90611bac565b8015610e2b5780601f10610e0057610100808354040283529160200191610e2b565b820191906000526020600020905b815481529060010190602001808311610e0e57829003601f168201915b505050600484015460058501805494956001600160a01b03909216949193509150610e5590611bac565b80601f0160208091040260200160405190810160405280929190818152602001828054610e8190611bac565b8015610ece5780601f10610ea357610100808354040283529160200191610ece565b820191906000526020600020905b815481529060010190602001808311610eb157829003601f168201915b5050505050905086565b3360009081526004602052604090205460ff16610f435760405162461bcd60e51b815260206004820152602360248201527f6f6e6c7920646f63746f72732063616e2063616c6c20746869732066756e637460448201526234b7b760e91b60648201526084016107a1565b336000908152600c602052604090205460021015610fa35760405162461bcd60e51b815260206004820152601960248201527f4f6e6c79203220686f737420666f72203120646f63746f72210000000000000060448201526064016107a1565b6040805160c081018252858152602080820186905263ffffffff85168284015282518084019093526008835267446f63746f72204b60c01b90830152606081019190915233608082015260a08101829052600a8054600181018255600091909152815160069091027fc65a7bb8d6351c1cf70c95a316cc6a92839c986682d98bc35f958f4883f9d2a80190819061103a9082611c35565b5060208201516001820155604082015160028201805463ffffffff191663ffffffff909216919091179055606082015160038201906110799082611c35565b5060808201516004820180546001600160a01b0319166001600160a01b0390921691909117905560a082015160058201906110b49082611c35565b5050600a54600091506110c990600190611cf4565b6000818152600b6020908152604080832080546001600160a01b031916339081179091558352600c909152812080549293509061110583611d07565b91905055507f69e156612586a9b6531cb151ff6ab9fa7b57cccd6dda6e25654707eb055ce66785858560405161113d93929190611dab565b60405180910390a15050505050565b6002818154811061115c57600080fd5b906000526020600020906002020160009150905080600001805461117f90611bac565b80601f01602080910402602001604051908101604052809291908181526020018280546111ab90611bac565b80156111f85780601f106111cd576101008083540402835291602001916111f8565b820191906000526020600020905b8154815290600101906020018083116111db57829003601f168201915b5050506001909301549192505060ff8116906001600160a01b036101009091041683565b6001600160a01b03811661126b5760405162461bcd60e51b8152602060048201526016602482015275496e76616c696420646f63746f72206164647265737360501b60448201526064016107a1565b336000908152600e602090815260408083206001600160a01b0394909416835292905220805460ff19166001179055565b33600090815260066020526040902054156112c95760405162461bcd60e51b81526004016107a190611b6a565b61271083116113115760405162461bcd60e51b815260206004820152601460248201527315185ad9481a5908199bdc9b481a1bdc1a5d185b60621b60448201526064016107a1565b6040805160a0810182528481526020810184815260ff8416928201929092523360608201526000608082018190526003805460018101825591819052825191027fc2575a0e9e593c00f959f8c92f12db2869c3395a3b0502d05e2516446f71f85b81019182559251919290917fc2575a0e9e593c00f959f8c92f12db2869c3395a3b0502d05e2516446f71f85c909101906113ac9082611c35565b50604082015160029091018054606084015160809094015160ff908116600160a81b0260ff60a81b196001600160a01b03909616610100026001600160a81b03199093169190941617179290921617905560035460009061140f90600190611cf4565b3360009081526005602090815260408083208490556006909152812080549293509061143a83611d07565b90915550503360009081526004602052604090819020805460ff19166001179055517fd86dca2e2544318fbca4769e2f7ea2bba8eeb0f445dd717aef0d3c84670baa419061148d90839086908690611d20565b60405180910390a150505050565b60015460405163cde2d23b60e01b81526001600160a01b039091169063cde2d23b906114cd9085908590600401611dfc565b600060405180830381600087803b1580156114e757600080fd5b505af11580156114fb573d6000803e3d6000fd5b50505050336001600160a01b03167f9030e73d33af80bdf3d4bb5ed5de0b053a3e66e0560332ff6b5b975cf3464f43826040516115389190611b2e565b60405180910390a25050565b3360009081526004602052604090205460609060ff166115a65760405162461bcd60e51b815260206004820152601e60248201527f4f6e6c7920646f63746f72732063616e2076696577207265636f7264732e000060448201526064016107a1565b600154604051631b1b45f560e31b81526001600160a01b0384811660048301529091169063d8da2fa890602401600060405180830381865afa1580156115f0573d6000803e3d6000fd5b505050506040513d6000823e601f3d908101601f191682016040526116189190810190611e1d565b92915050565b6009818154811061162e57600080fd5b6000918252602090912001546001600160a01b0316905081565b611650611683565b6001600160a01b03811661167a57604051631e4fbdf760e01b8152600060048201526024016107a1565b6106cf816116b0565b6000546001600160a01b031633146107725760405163118cdaa760e01b81523360048201526024016107a1565b600080546001600160a01b038381166001600160a01b0319831681178455604051919092169283917f8be0079c531659141344cd1fd0a4f28419497f9722a3daafe3b4186f6b6457e09190a35050565b80356001600160a01b038116811461171757600080fd5b919050565b60006020828403121561172e57600080fd5b61173782611700565b9392505050565b6000806040838503121561175157600080fd5b61175a83611700565b915061176860208401611700565b90509250929050565b634e487b7160e01b600052604160045260246000fd5b604051601f8201601f1916810167ffffffffffffffff811182821017156117b0576117b0611771565b604052919050565b600067ffffffffffffffff8211156117d2576117d2611771565b50601f01601f191660200190565b600082601f8301126117f157600080fd5b81356118046117ff826117b8565b611787565b81815284602083860101111561181957600080fd5b816020850160208301376000918101602001919091529392505050565b803560ff8116811461171757600080fd5b6000806040838503121561185a57600080fd5b823567ffffffffffffffff81111561187157600080fd5b61187d858286016117e0565b92505061176860208401611836565b60006020828403121561189e57600080fd5b5035919050565b60005b838110156118c05781810151838201526020016118a8565b50506000910152565b600081518084526118e18160208601602086016118a5565b601f01601f19169290920160200192915050565b85815260a06020820152600061190e60a08301876118c9565b60ff95861660408401526001600160a01b0394909416606083015250921660809092019190915292915050565b6000806040838503121561194e57600080fd5b61195783611700565b915061176860208401611836565b60c08152600061197860c08301896118c9565b87602084015263ffffffff87166040840152828103606084015261199c81876118c9565b6001600160a01b038616608085015283810360a085015290506119bf81856118c9565b9998505050505050505050565b600080600080608085870312156119e257600080fd5b843567ffffffffffffffff8111156119f957600080fd5b611a05878288016117e0565b94505060208501359250604085013563ffffffff81168114611a2657600080fd5b9150606085013567ffffffffffffffff811115611a4257600080fd5b611a4e878288016117e0565b91505092959194509250565b606081526000611a6d60608301866118c9565b60ff949094166020830152506001600160a01b0391909116604090910152919050565b600080600060608486031215611aa557600080fd5b83359250602084013567ffffffffffffffff811115611ac357600080fd5b611acf868287016117e0565b925050611ade60408501611836565b90509250925092565b60008060408385031215611afa57600080fd5b82359150602083013567ffffffffffffffff811115611b1857600080fd5b611b24858286016117e0565b9150509250929050565b60208152600061173760208301846118c9565b634e487b7160e01b600052601160045260246000fd5b8082018082111561161857611618611b41565b60208082526022908201527f596f7520616c7265616479206861766520612070617469656e742070726f66696040820152616c6560f01b606082015260800190565b600181811c90821680611bc057607f821691505b602082108103611be057634e487b7160e01b600052602260045260246000fd5b50919050565b601f821115611c3057806000526020600020601f840160051c81016020851015611c0d5750805b601f840160051c820191505b81811015611c2d5760008155600101611c19565b50505b505050565b815167ffffffffffffffff811115611c4f57611c4f611771565b611c6381611c5d8454611bac565b84611be6565b6020601f821160018114611c975760008315611c7f5750848201515b600019600385901b1c1916600184901b178455611c2d565b600084815260208120601f198516915b82811015611cc75787850151825560209485019460019092019101611ca7565b5084821015611ce55786840151600019600387901b60f8161c191681555b50505050600190811b01905550565b8181038181111561161857611618611b41565b600060018201611d1957611d19611b41565b5060010190565b838152606060208201526000611d3960608301856118c9565b905060ff83166040830152949350505050565b60ff818116838216019081111561161857611618611b41565b600060ff831680611d8657634e487b7160e01b600052601260045260246000fd5b8060ff84160491505092915050565b634e487b7160e01b600052603260045260246000fd5b608081526000611dbe60808301866118c9565b84602084015263ffffffff8416604084015282810360608401526008815267446f63746f72204b60c01b602082015260408101915050949350505050565b828152604060208201526000611e1560408301846118c9565b949350505050565b600060208284031215611e2f57600080fd5b815167ffffffffffffffff811115611e4657600080fd5b8201601f81018413611e5757600080fd5b8051611e656117ff826117b8565b818152856020838501011115611e7a57600080fd5b611e8b8260208301602086016118a5565b9594505050505056fea2646970667358221220f4321fcbb2276a49a9c7e1abe76bc94e82d6fbf2ea6f434da7a44cb2b4c861f164736f6c634300081a0033","linkReferences":{}},"methodIdentifiers":{"createCrowd(string,uint256,uint32,string)":"930b8ef1","createProfileDoctor(uint256,string,uint8)":"b8735101","createProfilePatient(string,uint8)":"1ccdfc32","crowdToOwner(uint256)":"58d3eab0","crowds(uint256)":"92ce1e41","dataTransfer()":"c88bde70","diagnose(address)":"a1e3285c","doctorPatientRecords(address,address)":"17a4ad81","doctorRatings(address)":"b8006862","doctors(uint256)":"6efb1b84","endCrowdfunding()":"ed32f2b0","fundToCrowd()":"105fbbc9","funderToAmount(address)":"4407e1e8","funders(uint256)":"dc0d3dff","getIpfsHash(address)":"d8da2fa8","grantAccess(address)":"0ae5e739","isFunders(address)":"cf718fdc","owner()":"8da5cb5b","ownerCrowdCount(address)":"e9fa8814","patients(uint256)":"93119a83","profileToOwner(address)":"9ad8180f","ratingDoctor(address,uint8)":"8a7d2a0c","renounceOwnership()":"715018a6","revokeAccess(address)":"85e68531","setDataTransferAddress(address)":"2f700955","storeRecord(uint256,string)":"cde2d23b","transferOwnership(address)":"f2fde38b","withDraw()":"0fdb1c10"},"id":30}