{"abi":[{"type":"constructor","inputs":[],"stateMutability":"nonpayable"},{"type":"fallback","stateMutability":"payable"},{"type":"receive","stateMutability":"payable"},{"type":"function","name":"createCrowd","inputs":[{"name":"_nameCrowd","type":"string","internalType":"string"},{"name":"_target","type":"uint256","internalType":"uint256"},{"name":"_endTime","type":"uint32","internalType":"uint32"},{"name":"_scriptCrowd","type":"string","internalType":"string"}],"outputs":[],"stateMutability":"nonpayable"},{"type":"function","name":"createProfileDoctor","inputs":[{"name":"_idDoctor","type":"uint256","internalType":"uint256"},{"name":"_name","type":"string","internalType":"string"},{"name":"_age","type":"uint8","internalType":"uint8"}],"outputs":[],"stateMutability":"nonpayable"},{"type":"function","name":"createProfilePatient","inputs":[{"name":"_name","type":"string","internalType":"string"},{"name":"_age","type":"uint8","internalType":"uint8"}],"outputs":[],"stateMutability":"nonpayable"},{"type":"function","name":"crowdToOwner","inputs":[{"name":"","type":"uint256","internalType":"uint256"}],"outputs":[{"name":"","type":"address","internalType":"address"}],"stateMutability":"view"},{"type":"function","name":"crowds","inputs":[{"name":"","type":"uint256","internalType":"uint256"}],"outputs":[{"name":"nameCrowd","type":"string","internalType":"string"},{"name":"target","type":"uint256","internalType":"uint256"},{"name":"endTime","type":"uint32","internalType":"uint32"},{"name":"nameHost","type":"string","internalType":"string"},{"name":"adrHost","type":"address","internalType":"address"},{"name":"scriptCrowd","type":"string","internalType":"string"}],"stateMutability":"view"},{"type":"function","name":"diagnose","inputs":[{"name":"_walletAddressDoctor","type":"address","internalType":"address"}],"outputs":[],"stateMutability":"nonpayable"},{"type":"function","name":"doctorPatientRecords","inputs":[{"name":"","type":"address","internalType":"address"},{"name":"","type":"address","internalType":"address"}],"outputs":[{"name":"","type":"bool","internalType":"bool"}],"stateMutability":"view"},{"type":"function","name":"doctorRatings","inputs":[{"name":"","type":"address","internalType":"address"}],"outputs":[{"name":"totalRating","type":"uint8","internalType":"uint8"},{"name":"numberOfRatings","type":"uint8","internalType":"uint8"}],"stateMutability":"view"},{"type":"function","name":"doctors","inputs":[{"name":"","type":"uint256","internalType":"uint256"}],"outputs":[{"name":"idDoctor","type":"uint256","internalType":"uint256"},{"name":"name","type":"string","internalType":"string"},{"name":"age","type":"uint8","internalType":"uint8"},{"name":"walletAddress","type":"address","internalType":"address"},{"name":"rating","type":"uint8","internalType":"uint8"}],"stateMutability":"view"},{"type":"function","name":"endCrowdfunding","inputs":[],"outputs":[],"stateMutability":"nonpayable"},{"type":"function","name":"fundToCrowd","inputs":[],"outputs":[],"stateMutability":"payable"},{"type":"function","name":"funderToAmount","inputs":[{"name":"","type":"address","internalType":"address"}],"outputs":[{"name":"","type":"uint256","internalType":"uint256"}],"stateMutability":"view"},{"type":"function","name":"funders","inputs":[{"name":"","type":"uint256","internalType":"uint256"}],"outputs":[{"name":"","type":"address","internalType":"address"}],"stateMutability":"view"},{"type":"function","name":"isFunders","inputs":[{"name":"","type":"address","internalType":"address"}],"outputs":[{"name":"","type":"bool","internalType":"bool"}],"stateMutability":"view"},{"type":"function","name":"owner","inputs":[],"outputs":[{"name":"","type":"address","internalType":"address"}],"stateMutability":"view"},{"type":"function","name":"ownerCrowdCount","inputs":[{"name":"","type":"address","internalType":"address"}],"outputs":[{"name":"","type":"uint256","internalType":"uint256"}],"stateMutability":"view"},{"type":"function","name":"patients","inputs":[{"name":"","type":"uint256","internalType":"uint256"}],"outputs":[{"name":"name","type":"string","internalType":"string"},{"name":"age","type":"uint8","internalType":"uint8"},{"name":"walletAddress","type":"address","internalType":"address"}],"stateMutability":"view"},{"type":"function","name":"profileToOwner","inputs":[{"name":"","type":"address","internalType":"address"}],"outputs":[{"name":"","type":"uint256","internalType":"uint256"}],"stateMutability":"view"},{"type":"function","name":"ratingDoctor","inputs":[{"name":"_walletAddressDoctor","type":"address","internalType":"address"},{"name":"_rating","type":"uint8","internalType":"uint8"}],"outputs":[],"stateMutability":"nonpayable"},{"type":"function","name":"renounceOwnership","inputs":[],"outputs":[],"stateMutability":"nonpayable"},{"type":"function","name":"setDataTransferAddress","inputs":[{"name":"_address","type":"address","internalType":"address"}],"outputs":[],"stateMutability":"nonpayable"},{"type":"function","name":"transferOwnership","inputs":[{"name":"newOwner","type":"address","internalType":"address"}],"outputs":[],"stateMutability":"nonpayable"},{"type":"function","name":"withDraw","inputs":[],"outputs":[],"stateMutability":"nonpayable"},{"type":"event","name":"HostCrowdFunding","inputs":[{"name":"nameCrowd","type":"string","indexed":false,"internalType":"string"},{"name":"target","type":"uint256","indexed":false,"internalType":"uint256"},{"name":"endTime","type":"uint32","indexed":false,"internalType":"uint32"},{"name":"nameDoctorHost","type":"string","indexed":false,"internalType":"string"}],"anonymous":false},{"type":"event","name":"NewUser","inputs":[{"name":"patientId","type":"uint256","indexed":false,"internalType":"uint256"},{"name":"name","type":"string","indexed":false,"internalType":"string"},{"name":"age","type":"uint256","indexed":false,"internalType":"uint256"}],"anonymous":false},{"type":"event","name":"OwnershipTransferred","inputs":[{"name":"previousOwner","type":"address","indexed":true,"internalType":"address"},{"name":"newOwner","type":"address","indexed":true,"internalType":"address"}],"anonymous":false},{"type":"error","name":"OwnableInvalidOwner","inputs":[{"name":"owner","type":"address","internalType":"address"}]},{"type":"error","name":"OwnableUnauthorizedAccount","inputs":[{"name":"account","type":"address","internalType":"address"}]}],"bytecode":{"object":"0x6080604052348015600f57600080fd5b503380603557604051631e4fbdf760e01b81526000600482015260240160405180910390fd5b603c816041565b506091565b600080546001600160a01b038381166001600160a01b0319831681178455604051919092169283917f8be0079c531659141344cd1fd0a4f28419497f9722a3daafe3b4186f6b6457e09190a35050565b611982806100a06000396000f3fe6080604052600436106101445760003560e01c806392ce1e41116100b6578063b87351011161006f578063b87351011461042e578063cf718fdc1461044e578063dc0d3dff1461047e578063e9fa88141461049e578063ed32f2b0146104cb578063f2fde38b146104d757610153565b806392ce1e411461030d578063930b8ef11461033f57806393119a831461035f5780639ad8180f1461038e578063a1e3285c146103bb578063b8006862146103db57610153565b80634407e1e8116101085780634407e1e81461020057806358d3eab01461023b5780636efb1b8414610289578063715018a6146102ba5780638a7d2a0c146102cf5780638da5cb5b146102ef57610153565b80630fdb1c101461015b578063105fbbc91461015357806317a4ad81146101705780631ccdfc32146101c05780632f700955146101e057610153565b36610153576101516104f7565b005b6101516104f7565b34801561016757600080fd5b50610151610591565b34801561017c57600080fd5b506101ab61018b3660046112ea565b600e60209081526000928352604080842090915290825290205460ff1681565b60405190151581526020015b60405180910390f35b3480156101cc57600080fd5b506101516101db3660046113d3565b61059b565b3480156101ec57600080fd5b506101516101fb366004611418565b6106ec565b34801561020c57600080fd5b5061022d61021b366004611418565b60086020526000908152604090205481565b6040519081526020016101b7565b34801561024757600080fd5b5061027161025636600461143a565b600b602052600090815260409020546001600160a01b031681565b6040516001600160a01b0390911681526020016101b7565b34801561029557600080fd5b506102a96102a436600461143a565b610716565b6040516101b7959493929190611499565b3480156102c657600080fd5b506101516107f2565b3480156102db57600080fd5b506101516102ea3660046114df565b610804565b3480156102fb57600080fd5b506000546001600160a01b0316610271565b34801561031957600080fd5b5061032d61032836600461143a565b610a2b565b6040516101b796959493929190611509565b34801561034b57600080fd5b5061015161035a366004611570565b610c29565b34801561036b57600080fd5b5061037f61037a36600461143a565b610e9d565b6040516101b7939291906115fe565b34801561039a57600080fd5b5061022d6103a9366004611418565b60056020526000908152604090205481565b3480156103c757600080fd5b506101516103d6366004611418565b610f6d565b3480156103e757600080fd5b506104146103f6366004611418565b600d6020526000908152604090205460ff8082169161010090041682565b6040805160ff9384168152929091166020830152016101b7565b34801561043a57600080fd5b50610151610449366004611634565b610fed565b34801561045a57600080fd5b506101ab610469366004611418565b60076020526000908152604090205460ff1681565b34801561048a57600080fd5b5061027161049936600461143a565b6111ec565b3480156104aa57600080fd5b5061022d6104b9366004611418565b600c6020526000908152604090205481565b34801561015157600080fd5b3480156104e357600080fd5b506101516104f2366004611418565b611216565b33600090815260086020526040812080543492906105169084906116a1565b90915550503360009081526007602052604090205460ff168061058e576009805460018181019092557f6e1540171b6c0c960b71a7020d9f60077f6af931a8bbf590da0223dacf75c7af0180546001600160a01b031916339081179091556000908152600760205260409020805460ff191690911790555b50565b610599611251565b565b33600090815260066020526040902054156105d15760405162461bcd60e51b81526004016105c8906116ba565b60405180910390fd5b6040805160608101825283815260ff831660208201523391810191909152600280546001810182556000829052825191027f405787fa12a823e0f2b7631cc41b3ba8828b3321ca811111fa75cd3aa3bb5ace019081906106319082611785565b506020820151600191820180546040909401516001600160a01b0316610100026001600160a81b031990941660ff909216919091179290921790915560025460009161067c91611844565b336000908152600560209081526040808320849055600690915281208054929350906106a783611857565b91905055507fd86dca2e2544318fbca4769e2f7ea2bba8eeb0f445dd717aef0d3c84670baa418184846040516106df93929190611870565b60405180910390a1505050565b6106f4611251565b600180546001600160a01b0319166001600160a01b0392909216919091179055565b6003818154811061072657600080fd5b6000918252602090912060039091020180546001820180549193509061074b906116fc565b80601f0160208091040260200160405190810160405280929190818152602001828054610777906116fc565b80156107c45780601f10610799576101008083540402835291602001916107c4565b820191906000526020600020905b8154815290600101906020018083116107a757829003601f168201915b5050506002909301549192505060ff808216916001600160a01b0361010082041691600160a81b9091041685565b6107fa611251565b610599600061127e565b60018160ff161015801561081c575060058160ff1611155b6108605760405162461bcd60e51b81526020600482015260156024820152744f6e6c7920726174652066726f6d203120746f203560581b60448201526064016105c8565b336000908152600e602090815260408083206001600160a01b038616845290915290205460ff166108e35760405162461bcd60e51b815260206004820152602760248201527f596f7520686176656e2774206265656e20747265617465642062792074686973604482015266103237b1ba37b960c91b60648201526084016105c8565b6001600160a01b0382166000908152600d60205260408120805483929061090e90849060ff1661189c565b825460ff91821661010093840a90810290830219909116179092556001600160a01b0385166000908152600d602052604090208054600194509092849261095a9284929190041661189c565b825460ff91821661010093840a9081029083021990911617909255336000908152600e602090815260408083206001600160a01b03891684528252808320805460ff191690556005825280832054600d835292819020815180830190925254808616825293909304909316928201839052925090156109d857600080fd5b602081015181516109e991906118b5565b600383815481106109fc576109fc6118e5565b906000526020600020906003020160020160156101000a81548160ff021916908360ff16021790555050505050565b600a8181548110610a3b57600080fd5b9060005260206000209060060201600091509050806000018054610a5e906116fc565b80601f0160208091040260200160405190810160405280929190818152602001828054610a8a906116fc565b8015610ad75780601f10610aac57610100808354040283529160200191610ad7565b820191906000526020600020905b815481529060010190602001808311610aba57829003601f168201915b50505050600183015460028401546003850180549495929463ffffffff909216935090610b03906116fc565b80601f0160208091040260200160405190810160405280929190818152602001828054610b2f906116fc565b8015610b7c5780601f10610b5157610100808354040283529160200191610b7c565b820191906000526020600020905b815481529060010190602001808311610b5f57829003601f168201915b505050600484015460058501805494956001600160a01b03909216949193509150610ba6906116fc565b80601f0160208091040260200160405190810160405280929190818152602001828054610bd2906116fc565b8015610c1f5780601f10610bf457610100808354040283529160200191610c1f565b820191906000526020600020905b815481529060010190602001808311610c0257829003601f168201915b5050505050905086565b3360009081526004602052604090205460ff16610c945760405162461bcd60e51b815260206004820152602360248201527f6f6e6c7920646f63746f72732063616e2063616c6c20746869732066756e637460448201526234b7b760e91b60648201526084016105c8565b336000908152600c602052604090205460021015610cf45760405162461bcd60e51b815260206004820152601960248201527f4f6e6c79203220686f737420666f72203120646f63746f72210000000000000060448201526064016105c8565b6040805160c081018252858152602080820186905263ffffffff85168284015282518084019093526008835267446f63746f72204b60c01b90830152606081019190915233608082015260a08101829052600a8054600181018255600091909152815160069091027fc65a7bb8d6351c1cf70c95a316cc6a92839c986682d98bc35f958f4883f9d2a801908190610d8b9082611785565b5060208201516001820155604082015160028201805463ffffffff191663ffffffff90921691909117905560608201516003820190610dca9082611785565b5060808201516004820180546001600160a01b0319166001600160a01b0390921691909117905560a08201516005820190610e059082611785565b5050600a5460009150610e1a90600190611844565b6000818152600b6020908152604080832080546001600160a01b031916339081179091558352600c9091528120805492935090610e5683611857565b91905055507f69e156612586a9b6531cb151ff6ab9fa7b57cccd6dda6e25654707eb055ce667858585604051610e8e939291906118fb565b60405180910390a15050505050565b60028181548110610ead57600080fd5b9060005260206000209060020201600091509050806000018054610ed0906116fc565b80601f0160208091040260200160405190810160405280929190818152602001828054610efc906116fc565b8015610f495780601f10610f1e57610100808354040283529160200191610f49565b820191906000526020600020905b815481529060010190602001808311610f2c57829003601f168201915b5050506001909301549192505060ff8116906001600160a01b036101009091041683565b6001600160a01b038116610fbc5760405162461bcd60e51b8152602060048201526016602482015275496e76616c696420646f63746f72206164647265737360501b60448201526064016105c8565b336000908152600e602090815260408083206001600160a01b0394909416835292905220805460ff19166001179055565b336000908152600660205260409020541561101a5760405162461bcd60e51b81526004016105c8906116ba565b61271083116110625760405162461bcd60e51b815260206004820152601460248201527315185ad9481a5908199bdc9b481a1bdc1a5d185b60621b60448201526064016105c8565b6040805160a0810182528481526020810184815260ff8416928201929092523360608201526000608082018190526003805460018101825591819052825191027fc2575a0e9e593c00f959f8c92f12db2869c3395a3b0502d05e2516446f71f85b81019182559251919290917fc2575a0e9e593c00f959f8c92f12db2869c3395a3b0502d05e2516446f71f85c909101906110fd9082611785565b50604082015160029091018054606084015160809094015160ff908116600160a81b0260ff60a81b196001600160a01b03909616610100026001600160a81b03199093169190941617179290921617905560035460009061116090600190611844565b3360009081526005602090815260408083208490556006909152812080549293509061118b83611857565b90915550503360009081526004602052604090819020805460ff19166001179055517fd86dca2e2544318fbca4769e2f7ea2bba8eeb0f445dd717aef0d3c84670baa41906111de90839086908690611870565b60405180910390a150505050565b600981815481106111fc57600080fd5b6000918252602090912001546001600160a01b0316905081565b61121e611251565b6001600160a01b03811661124857604051631e4fbdf760e01b8152600060048201526024016105c8565b61058e8161127e565b6000546001600160a01b031633146105995760405163118cdaa760e01b81523360048201526024016105c8565b600080546001600160a01b038381166001600160a01b0319831681178455604051919092169283917f8be0079c531659141344cd1fd0a4f28419497f9722a3daafe3b4186f6b6457e09190a35050565b80356001600160a01b03811681146112e557600080fd5b919050565b600080604083850312156112fd57600080fd5b611306836112ce565b9150611314602084016112ce565b90509250929050565b634e487b7160e01b600052604160045260246000fd5b600082601f83011261134457600080fd5b813567ffffffffffffffff81111561135e5761135e61131d565b604051601f8201601f19908116603f0116810167ffffffffffffffff8111828210171561138d5761138d61131d565b6040528181528382016020018510156113a557600080fd5b816020850160208301376000918101602001919091529392505050565b803560ff811681146112e557600080fd5b600080604083850312156113e657600080fd5b823567ffffffffffffffff8111156113fd57600080fd5b61140985828601611333565b925050611314602084016113c2565b60006020828403121561142a57600080fd5b611433826112ce565b9392505050565b60006020828403121561144c57600080fd5b5035919050565b6000815180845260005b818110156114795760208185018101518683018201520161145d565b506000602082860101526020601f19601f83011685010191505092915050565b85815260a0602082015260006114b260a0830187611453565b60ff95861660408401526001600160a01b0394909416606083015250921660809092019190915292915050565b600080604083850312156114f257600080fd5b6114fb836112ce565b9150611314602084016113c2565b60c08152600061151c60c0830189611453565b87602084015263ffffffff8716604084015282810360608401526115408187611453565b6001600160a01b038616608085015283810360a085015290506115638185611453565b9998505050505050505050565b6000806000806080858703121561158657600080fd5b843567ffffffffffffffff81111561159d57600080fd5b6115a987828801611333565b94505060208501359250604085013563ffffffff811681146115ca57600080fd5b9150606085013567ffffffffffffffff8111156115e657600080fd5b6115f287828801611333565b91505092959194509250565b6060815260006116116060830186611453565b60ff949094166020830152506001600160a01b0391909116604090910152919050565b60008060006060848603121561164957600080fd5b83359250602084013567ffffffffffffffff81111561166757600080fd5b61167386828701611333565b925050611682604085016113c2565b90509250925092565b634e487b7160e01b600052601160045260246000fd5b808201808211156116b4576116b461168b565b92915050565b60208082526022908201527f596f7520616c7265616479206861766520612070617469656e742070726f66696040820152616c6560f01b606082015260800190565b600181811c9082168061171057607f821691505b60208210810361173057634e487b7160e01b600052602260045260246000fd5b50919050565b601f82111561178057806000526020600020601f840160051c8101602085101561175d5750805b601f840160051c820191505b8181101561177d5760008155600101611769565b50505b505050565b815167ffffffffffffffff81111561179f5761179f61131d565b6117b3816117ad84546116fc565b84611736565b6020601f8211600181146117e757600083156117cf5750848201515b600019600385901b1c1916600184901b17845561177d565b600084815260208120601f198516915b8281101561181757878501518255602094850194600190920191016117f7565b50848210156118355786840151600019600387901b60f8161c191681555b50505050600190811b01905550565b818103818111156116b4576116b461168b565b6000600182016118695761186961168b565b5060010190565b8381526060602082015260006118896060830185611453565b905060ff83166040830152949350505050565b60ff81811683821601908111156116b4576116b461168b565b600060ff8316806118d657634e487b7160e01b600052601260045260246000fd5b8060ff84160491505092915050565b634e487b7160e01b600052603260045260246000fd5b60808152600061190e6080830186611453565b84602084015263ffffffff8416604084015282810360608401526008815267446f63746f72204b60c01b60208201526040810191505094935050505056fea264697066735822122084f38c45f8a249ac6d291214c2dc1dbe0d8066c693411a16b235c258e8e7a0cf64736f6c634300081a0033","linkReferences":{}},"methodIdentifiers":{"createCrowd(string,uint256,uint32,string)":"930b8ef1","createProfileDoctor(uint256,string,uint8)":"b8735101","createProfilePatient(string,uint8)":"1ccdfc32","crowdToOwner(uint256)":"58d3eab0","crowds(uint256)":"92ce1e41","diagnose(address)":"a1e3285c","doctorPatientRecords(address,address)":"17a4ad81","doctorRatings(address)":"b8006862","doctors(uint256)":"6efb1b84","endCrowdfunding()":"ed32f2b0","fundToCrowd()":"105fbbc9","funderToAmount(address)":"4407e1e8","funders(uint256)":"dc0d3dff","isFunders(address)":"cf718fdc","owner()":"8da5cb5b","ownerCrowdCount(address)":"e9fa8814","patients(uint256)":"93119a83","profileToOwner(address)":"9ad8180f","ratingDoctor(address,uint8)":"8a7d2a0c","renounceOwnership()":"715018a6","setDataTransferAddress(address)":"2f700955","transferOwnership(address)":"f2fde38b","withDraw()":"0fdb1c10"},"id":4}