{"abi":[{"type":"constructor","inputs":[{"name":"_owner","type":"address","internalType":"address"}],"stateMutability":"nonpayable"},{"type":"fallback","stateMutability":"payable"},{"type":"receive","stateMutability":"payable"},{"type":"function","name":"createCrowd","inputs":[{"name":"_nameCrowd","type":"string","internalType":"string"},{"name":"_target","type":"uint256","internalType":"uint256"},{"name":"_endTime","type":"uint32","internalType":"uint32"},{"name":"_scriptCrowd","type":"string","internalType":"string"}],"outputs":[],"stateMutability":"nonpayable"},{"type":"function","name":"createProfileDoctor","inputs":[{"name":"_idDoctor","type":"uint256","internalType":"uint256"},{"name":"_name","type":"string","internalType":"string"},{"name":"_age","type":"uint8","internalType":"uint8"}],"outputs":[],"stateMutability":"nonpayable"},{"type":"function","name":"createProfilePatient","inputs":[{"name":"_name","type":"string","internalType":"string"},{"name":"_age","type":"uint8","internalType":"uint8"}],"outputs":[],"stateMutability":"nonpayable"},{"type":"function","name":"crowdToOwner","inputs":[{"name":"","type":"uint256","internalType":"uint256"}],"outputs":[{"name":"","type":"address","internalType":"address"}],"stateMutability":"view"},{"type":"function","name":"crowds","inputs":[{"name":"","type":"uint256","internalType":"uint256"}],"outputs":[{"name":"nameCrowd","type":"string","internalType":"string"},{"name":"target","type":"uint256","internalType":"uint256"},{"name":"endTime","type":"uint32","internalType":"uint32"},{"name":"nameHost","type":"string","internalType":"string"},{"name":"adrHost","type":"address","internalType":"address"},{"name":"scriptCrowd","type":"string","internalType":"string"}],"stateMutability":"view"},{"type":"function","name":"dataTransfer","inputs":[],"outputs":[{"name":"","type":"address","internalType":"contract IDataTransfer"}],"stateMutability":"view"},{"type":"function","name":"diagnose","inputs":[{"name":"_walletAddressDoctor","type":"address","internalType":"address"}],"outputs":[],"stateMutability":"nonpayable"},{"type":"function","name":"doctorPatientRecords","inputs":[{"name":"","type":"address","internalType":"address"},{"name":"","type":"address","internalType":"address"}],"outputs":[{"name":"","type":"bool","internalType":"bool"}],"stateMutability":"view"},{"type":"function","name":"doctorRatings","inputs":[{"name":"","type":"address","internalType":"address"}],"outputs":[{"name":"totalRating","type":"uint8","internalType":"uint8"},{"name":"numberOfRatings","type":"uint8","internalType":"uint8"}],"stateMutability":"view"},{"type":"function","name":"doctors","inputs":[{"name":"","type":"uint256","internalType":"uint256"}],"outputs":[{"name":"idDoctor","type":"uint256","internalType":"uint256"},{"name":"name","type":"string","internalType":"string"},{"name":"age","type":"uint8","internalType":"uint8"},{"name":"walletAddress","type":"address","internalType":"address"},{"name":"rating","type":"uint8","internalType":"uint8"}],"stateMutability":"view"},{"type":"function","name":"endCrowdfunding","inputs":[],"outputs":[],"stateMutability":"nonpayable"},{"type":"function","name":"fundToCrowd","inputs":[],"outputs":[],"stateMutability":"payable"},{"type":"function","name":"funderToAmount","inputs":[{"name":"","type":"address","internalType":"address"}],"outputs":[{"name":"","type":"uint256","internalType":"uint256"}],"stateMutability":"view"},{"type":"function","name":"funders","inputs":[{"name":"","type":"uint256","internalType":"uint256"}],"outputs":[{"name":"","type":"address","internalType":"address"}],"stateMutability":"view"},{"type":"function","name":"getRecord","inputs":[{"name":"patient","type":"address","internalType":"address"}],"outputs":[{"name":"","type":"string","internalType":"string"}],"stateMutability":"view"},{"type":"function","name":"grantAccess","inputs":[{"name":"doctor","type":"address","internalType":"address"}],"outputs":[],"stateMutability":"nonpayable"},{"type":"function","name":"isFunders","inputs":[{"name":"","type":"address","internalType":"address"}],"outputs":[{"name":"","type":"bool","internalType":"bool"}],"stateMutability":"view"},{"type":"function","name":"owner","inputs":[],"outputs":[{"name":"","type":"address","internalType":"address"}],"stateMutability":"view"},{"type":"function","name":"ownerCrowdCount","inputs":[{"name":"","type":"address","internalType":"address"}],"outputs":[{"name":"","type":"uint256","internalType":"uint256"}],"stateMutability":"view"},{"type":"function","name":"patients","inputs":[{"name":"","type":"uint256","internalType":"uint256"}],"outputs":[{"name":"name","type":"string","internalType":"string"},{"name":"age","type":"uint8","internalType":"uint8"},{"name":"walletAddress","type":"address","internalType":"address"}],"stateMutability":"view"},{"type":"function","name":"profileToOwner","inputs":[{"name":"","type":"address","internalType":"address"}],"outputs":[{"name":"","type":"uint256","internalType":"uint256"}],"stateMutability":"view"},{"type":"function","name":"ratingDoctor","inputs":[{"name":"_walletAddressDoctor","type":"address","internalType":"address"},{"name":"_rating","type":"uint8","internalType":"uint8"}],"outputs":[],"stateMutability":"nonpayable"},{"type":"function","name":"renounceOwnership","inputs":[],"outputs":[],"stateMutability":"nonpayable"},{"type":"function","name":"revokeAccess","inputs":[{"name":"doctor","type":"address","internalType":"address"}],"outputs":[],"stateMutability":"nonpayable"},{"type":"function","name":"setDataTransferAddress","inputs":[{"name":"_address","type":"address","internalType":"address"}],"outputs":[],"stateMutability":"nonpayable"},{"type":"function","name":"storeRecord","inputs":[{"name":"_id","type":"uint256","internalType":"uint256"},{"name":"ipfsHash","type":"string","internalType":"string"}],"outputs":[],"stateMutability":"nonpayable"},{"type":"function","name":"transferOwnership","inputs":[{"name":"newOwner","type":"address","internalType":"address"}],"outputs":[],"stateMutability":"nonpayable"},{"type":"function","name":"withDraw","inputs":[],"outputs":[],"stateMutability":"nonpayable"},{"type":"event","name":"AccessGranted","inputs":[{"name":"patient","type":"address","indexed":true,"internalType":"address"},{"name":"doctor","type":"address","indexed":true,"internalType":"address"}],"anonymous":false},{"type":"event","name":"AccessRevoked","inputs":[{"name":"patient","type":"address","indexed":true,"internalType":"address"},{"name":"doctor","type":"address","indexed":true,"internalType":"address"}],"anonymous":false},{"type":"event","name":"HostCrowdFunding","inputs":[{"name":"nameCrowd","type":"string","indexed":false,"internalType":"string"},{"name":"target","type":"uint256","indexed":false,"internalType":"uint256"},{"name":"endTime","type":"uint32","indexed":false,"internalType":"uint32"},{"name":"nameDoctorHost","type":"string","indexed":false,"internalType":"string"}],"anonymous":false},{"type":"event","name":"NewUser","inputs":[{"name":"patientId","type":"uint256","indexed":false,"internalType":"uint256"},{"name":"name","type":"string","indexed":false,"internalType":"string"},{"name":"age","type":"uint256","indexed":false,"internalType":"uint256"}],"anonymous":false},{"type":"event","name":"OwnershipTransferred","inputs":[{"name":"previousOwner","type":"address","indexed":true,"internalType":"address"},{"name":"newOwner","type":"address","indexed":true,"internalType":"address"}],"anonymous":false},{"type":"event","name":"RecordStored","inputs":[{"name":"patient","type":"address","indexed":true,"internalType":"address"},{"name":"ipfsHash","type":"string","indexed":false,"internalType":"string"}],"anonymous":false},{"type":"error","name":"OwnableInvalidOwner","inputs":[{"name":"owner","type":"address","internalType":"address"}]},{"type":"error","name":"OwnableUnauthorizedAccount","inputs":[{"name":"account","type":"address","internalType":"address"}]}],"bytecode":{"object":"0x6080604052348015600f57600080fd5b50604051612013380380612013833981016040819052602c9160b2565b80803380605357604051631e4fbdf760e01b81526000600482015260240160405180910390fd5b605a816062565b5050505060e0565b600080546001600160a01b038381166001600160a01b0319831681178455604051919092169283917f8be0079c531659141344cd1fd0a4f28419497f9722a3daafe3b4186f6b6457e09190a35050565b60006020828403121560c357600080fd5b81516001600160a01b038116811460d957600080fd5b9392505050565b611f24806100ef6000396000f3fe6080604052600436106101bb5760003560e01c806392ce1e41116100ec578063c88bde701161008a578063dc0d3dff11610064578063dc0d3dff146105bf578063e9fa8814146105df578063ed32f2b01461060c578063f2fde38b14610618576101ca565b8063c88bde701461054f578063cde2d23b1461056f578063cf718fdc1461058f576101ca565b80639ad8180f116100c65780639ad8180f1461048f578063a1e3285c146104bc578063b8006862146104dc578063b87351011461052f576101ca565b806392ce1e411461040e578063930b8ef11461044057806393119a8314610460576101ca565b806358d3eab011610159578063715018a611610133578063715018a61461039b57806385e68531146103b05780638a7d2a0c146103d05780638da5cb5b146103f0576101ca565b806358d3eab0146102ef578063617fba041461033d5780636efb1b841461036a576101ca565b806317a4ad811161019557806317a4ad81146102075780631ccdfc32146102575780632f700955146102775780634407e1e8146102b4576101ca565b80630ae5e739146101d25780630fdb1c10146101f2578063105fbbc9146101ca576101ca565b366101ca576101c8610638565b005b6101c8610638565b3480156101de57600080fd5b506101c86101ed366004611776565b6106d2565b3480156101fe57600080fd5b506101c86107d2565b34801561021357600080fd5b50610242610222366004611798565b600e60209081526000928352604080842090915290825290205460ff1681565b60405190151581526020015b60405180910390f35b34801561026357600080fd5b506101c86102723660046118a1565b6107dc565b34801561028357600080fd5b506101c8610292366004611776565b600180546001600160a01b0319166001600160a01b0392909216919091179055565b3480156102c057600080fd5b506102e16102cf366004611776565b60086020526000908152604090205481565b60405190815260200161024e565b3480156102fb57600080fd5b5061032561030a3660046118e6565b600b602052600090815260409020546001600160a01b031681565b6040516001600160a01b03909116815260200161024e565b34801561034957600080fd5b5061035d610358366004611776565b610924565b60405161024e919061194f565b34801561037657600080fd5b5061038a6103853660046118e6565b6109fe565b60405161024e959493929190611962565b3480156103a757600080fd5b506101c8610ada565b3480156103bc57600080fd5b506101c86103cb366004611776565b610aec565b3480156103dc57600080fd5b506101c86103eb3660046119a8565b610be7565b3480156103fc57600080fd5b506000546001600160a01b0316610325565b34801561041a57600080fd5b5061042e6104293660046118e6565b610e0e565b60405161024e969594939291906119d2565b34801561044c57600080fd5b506101c861045b366004611a39565b61100c565b34801561046c57600080fd5b5061048061047b3660046118e6565b611280565b60405161024e93929190611ac7565b34801561049b57600080fd5b506102e16104aa366004611776565b60056020526000908152604090205481565b3480156104c857600080fd5b506101c86104d7366004611776565b611350565b3480156104e857600080fd5b506105156104f7366004611776565b600d6020526000908152604090205460ff8082169161010090041682565b6040805160ff93841681529290911660208301520161024e565b34801561053b57600080fd5b506101c861054a366004611afd565b6113d0565b34801561055b57600080fd5b50600154610325906001600160a01b031681565b34801561057b57600080fd5b506101c861058a366004611b54565b6115cf565b34801561059b57600080fd5b506102426105aa366004611776565b60076020526000908152604090205460ff1681565b3480156105cb57600080fd5b506103256105da3660046118e6565b611678565b3480156105eb57600080fd5b506102e16105fa366004611776565b600c6020526000908152604090205481565b3480156101c857600080fd5b34801561062457600080fd5b506101c8610633366004611776565b6116a2565b3360009081526008602052604081208054349290610657908490611bb1565b90915550503360009081526007602052604090205460ff16806106cf576009805460018181019092557f6e1540171b6c0c960b71a7020d9f60077f6af931a8bbf590da0223dacf75c7af0180546001600160a01b031916339081179091556000908152600760205260409020805460ff191690911790555b50565b6001600160a01b03811660009081526004602052604090205460ff1661073a5760405162461bcd60e51b815260206004820152601860248201527720b2323932b9b99034b9903737ba1030903237b1ba37b91760411b60448201526064015b60405180910390fd5b600154604051630ae5e73960e01b81526001600160a01b03838116600483015290911690630ae5e73990602401600060405180830381600087803b15801561078157600080fd5b505af1158015610795573d6000803e3d6000fd5b50506040516001600160a01b03841692503391507f9f520b3bfc56d06f7065d10b4683b3f57ac8895d5026cd176dee95ce1454cb8d90600090a350565b6107da6116dd565b565b33600090815260066020526040902054156108095760405162461bcd60e51b815260040161073190611bc4565b6040805160608101825283815260ff831660208201523391810191909152600280546001810182556000829052825191027f405787fa12a823e0f2b7631cc41b3ba8828b3321ca811111fa75cd3aa3bb5ace019081906108699082611c8f565b506020820151600191820180546040909401516001600160a01b0316610100026001600160a81b031990941660ff90921691909117929092179091556002546000916108b491611d4e565b336000908152600560209081526040808320849055600690915281208054929350906108df83611d61565b91905055507fd86dca2e2544318fbca4769e2f7ea2bba8eeb0f445dd717aef0d3c84670baa4181848460405161091793929190611d7a565b60405180910390a1505050565b3360009081526004602052604090205460609060ff166109865760405162461bcd60e51b815260206004820152601e60248201527f4f6e6c7920646f63746f72732063616e2076696577207265636f7264732e00006044820152606401610731565b60015460405163185fee8160e21b81526001600160a01b0384811660048301529091169063617fba0490602401600060405180830381865afa1580156109d0573d6000803e3d6000fd5b505050506040513d6000823e601f3d908101601f191682016040526109f89190810190611da6565b92915050565b60038181548110610a0e57600080fd5b60009182526020909120600390910201805460018201805491935090610a3390611c06565b80601f0160208091040260200160405190810160405280929190818152602001828054610a5f90611c06565b8015610aac5780601f10610a8157610100808354040283529160200191610aac565b820191906000526020600020905b815481529060010190602001808311610a8f57829003601f168201915b5050506002909301549192505060ff808216916001600160a01b0361010082041691600160a81b9091041685565b610ae26116dd565b6107da600061170a565b6001600160a01b03811660009081526004602052604090205460ff16610b4f5760405162461bcd60e51b815260206004820152601860248201527720b2323932b9b99034b9903737ba1030903237b1ba37b91760411b6044820152606401610731565b6001546040516385e6853160e01b81526001600160a01b038381166004830152909116906385e6853190602401600060405180830381600087803b158015610b9657600080fd5b505af1158015610baa573d6000803e3d6000fd5b50506040516001600160a01b03841692503391507f825c8be24eb0df19500f63e86c29e7d0d951e73056b889b891d85e40938d9b6e90600090a350565b60018160ff1610158015610bff575060058160ff1611155b610c435760405162461bcd60e51b81526020600482015260156024820152744f6e6c7920726174652066726f6d203120746f203560581b6044820152606401610731565b336000908152600e602090815260408083206001600160a01b038616845290915290205460ff16610cc65760405162461bcd60e51b815260206004820152602760248201527f596f7520686176656e2774206265656e20747265617465642062792074686973604482015266103237b1ba37b960c91b6064820152608401610731565b6001600160a01b0382166000908152600d602052604081208054839290610cf190849060ff16611e1d565b825460ff91821661010093840a90810290830219909116179092556001600160a01b0385166000908152600d6020526040902080546001945090928492610d3d92849291900416611e1d565b825460ff91821661010093840a9081029083021990911617909255336000908152600e602090815260408083206001600160a01b03891684528252808320805460ff191690556005825280832054600d83529281902081518083019092525480861682529390930490931692820183905292509015610dbb57600080fd5b60208101518151610dcc9190611e36565b60038381548110610ddf57610ddf611e66565b906000526020600020906003020160020160156101000a81548160ff021916908360ff16021790555050505050565b600a8181548110610e1e57600080fd5b9060005260206000209060060201600091509050806000018054610e4190611c06565b80601f0160208091040260200160405190810160405280929190818152602001828054610e6d90611c06565b8015610eba5780601f10610e8f57610100808354040283529160200191610eba565b820191906000526020600020905b815481529060010190602001808311610e9d57829003601f168201915b50505050600183015460028401546003850180549495929463ffffffff909216935090610ee690611c06565b80601f0160208091040260200160405190810160405280929190818152602001828054610f1290611c06565b8015610f5f5780601f10610f3457610100808354040283529160200191610f5f565b820191906000526020600020905b815481529060010190602001808311610f4257829003601f168201915b505050600484015460058501805494956001600160a01b03909216949193509150610f8990611c06565b80601f0160208091040260200160405190810160405280929190818152602001828054610fb590611c06565b80156110025780601f10610fd757610100808354040283529160200191611002565b820191906000526020600020905b815481529060010190602001808311610fe557829003601f168201915b5050505050905086565b3360009081526004602052604090205460ff166110775760405162461bcd60e51b815260206004820152602360248201527f6f6e6c7920646f63746f72732063616e2063616c6c20746869732066756e637460448201526234b7b760e91b6064820152608401610731565b336000908152600c6020526040902054600210156110d75760405162461bcd60e51b815260206004820152601960248201527f4f6e6c79203220686f737420666f72203120646f63746f7221000000000000006044820152606401610731565b6040805160c081018252858152602080820186905263ffffffff85168284015282518084019093526008835267446f63746f72204b60c01b90830152606081019190915233608082015260a08101829052600a8054600181018255600091909152815160069091027fc65a7bb8d6351c1cf70c95a316cc6a92839c986682d98bc35f958f4883f9d2a80190819061116e9082611c8f565b5060208201516001820155604082015160028201805463ffffffff191663ffffffff909216919091179055606082015160038201906111ad9082611c8f565b5060808201516004820180546001600160a01b0319166001600160a01b0390921691909117905560a082015160058201906111e89082611c8f565b5050600a54600091506111fd90600190611d4e565b6000818152600b6020908152604080832080546001600160a01b031916339081179091558352600c909152812080549293509061123983611d61565b91905055507f69e156612586a9b6531cb151ff6ab9fa7b57cccd6dda6e25654707eb055ce66785858560405161127193929190611e7c565b60405180910390a15050505050565b6002818154811061129057600080fd5b90600052602060002090600202016000915090508060000180546112b390611c06565b80601f01602080910402602001604051908101604052809291908181526020018280546112df90611c06565b801561132c5780601f106113015761010080835404028352916020019161132c565b820191906000526020600020905b81548152906001019060200180831161130f57829003601f168201915b5050506001909301549192505060ff8116906001600160a01b036101009091041683565b6001600160a01b03811661139f5760405162461bcd60e51b8152602060048201526016602482015275496e76616c696420646f63746f72206164647265737360501b6044820152606401610731565b336000908152600e602090815260408083206001600160a01b0394909416835292905220805460ff19166001179055565b33600090815260066020526040902054156113fd5760405162461bcd60e51b815260040161073190611bc4565b61271083116114455760405162461bcd60e51b815260206004820152601460248201527315185ad9481a5908199bdc9b481a1bdc1a5d185b60621b6044820152606401610731565b6040805160a0810182528481526020810184815260ff8416928201929092523360608201526000608082018190526003805460018101825591819052825191027fc2575a0e9e593c00f959f8c92f12db2869c3395a3b0502d05e2516446f71f85b81019182559251919290917fc2575a0e9e593c00f959f8c92f12db2869c3395a3b0502d05e2516446f71f85c909101906114e09082611c8f565b50604082015160029091018054606084015160809094015160ff908116600160a81b0260ff60a81b196001600160a01b03909616610100026001600160a81b03199093169190941617179290921617905560035460009061154390600190611d4e565b3360009081526005602090815260408083208490556006909152812080549293509061156e83611d61565b90915550503360009081526004602052604090819020805460ff19166001179055517fd86dca2e2544318fbca4769e2f7ea2bba8eeb0f445dd717aef0d3c84670baa41906115c190839086908690611d7a565b60405180910390a150505050565b60015460405163cde2d23b60e01b81526001600160a01b039091169063cde2d23b906116019085908590600401611ecd565b600060405180830381600087803b15801561161b57600080fd5b505af115801561162f573d6000803e3d6000fd5b50505050336001600160a01b03167f9030e73d33af80bdf3d4bb5ed5de0b053a3e66e0560332ff6b5b975cf3464f438260405161166c919061194f565b60405180910390a25050565b6009818154811061168857600080fd5b6000918252602090912001546001600160a01b0316905081565b6116aa6116dd565b6001600160a01b0381166116d457604051631e4fbdf760e01b815260006004820152602401610731565b6106cf8161170a565b6000546001600160a01b031633146107da5760405163118cdaa760e01b8152336004820152602401610731565b600080546001600160a01b038381166001600160a01b0319831681178455604051919092169283917f8be0079c531659141344cd1fd0a4f28419497f9722a3daafe3b4186f6b6457e09190a35050565b80356001600160a01b038116811461177157600080fd5b919050565b60006020828403121561178857600080fd5b6117918261175a565b9392505050565b600080604083850312156117ab57600080fd5b6117b48361175a565b91506117c26020840161175a565b90509250929050565b634e487b7160e01b600052604160045260246000fd5b604051601f8201601f1916810167ffffffffffffffff8111828210171561180a5761180a6117cb565b604052919050565b600067ffffffffffffffff82111561182c5761182c6117cb565b50601f01601f191660200190565b600082601f83011261184b57600080fd5b813561185e61185982611812565b6117e1565b81815284602083860101111561187357600080fd5b816020850160208301376000918101602001919091529392505050565b803560ff8116811461177157600080fd5b600080604083850312156118b457600080fd5b823567ffffffffffffffff8111156118cb57600080fd5b6118d78582860161183a565b9250506117c260208401611890565b6000602082840312156118f857600080fd5b5035919050565b60005b8381101561191a578181015183820152602001611902565b50506000910152565b6000815180845261193b8160208601602086016118ff565b601f01601f19169290920160200192915050565b6020815260006117916020830184611923565b85815260a06020820152600061197b60a0830187611923565b60ff95861660408401526001600160a01b0394909416606083015250921660809092019190915292915050565b600080604083850312156119bb57600080fd5b6119c48361175a565b91506117c260208401611890565b60c0815260006119e560c0830189611923565b87602084015263ffffffff871660408401528281036060840152611a098187611923565b6001600160a01b038616608085015283810360a08501529050611a2c8185611923565b9998505050505050505050565b60008060008060808587031215611a4f57600080fd5b843567ffffffffffffffff811115611a6657600080fd5b611a728782880161183a565b94505060208501359250604085013563ffffffff81168114611a9357600080fd5b9150606085013567ffffffffffffffff811115611aaf57600080fd5b611abb8782880161183a565b91505092959194509250565b606081526000611ada6060830186611923565b60ff949094166020830152506001600160a01b0391909116604090910152919050565b600080600060608486031215611b1257600080fd5b83359250602084013567ffffffffffffffff811115611b3057600080fd5b611b3c8682870161183a565b925050611b4b60408501611890565b90509250925092565b60008060408385031215611b6757600080fd5b82359150602083013567ffffffffffffffff811115611b8557600080fd5b611b918582860161183a565b9150509250929050565b634e487b7160e01b600052601160045260246000fd5b808201808211156109f8576109f8611b9b565b60208082526022908201527f596f7520616c7265616479206861766520612070617469656e742070726f66696040820152616c6560f01b606082015260800190565b600181811c90821680611c1a57607f821691505b602082108103611c3a57634e487b7160e01b600052602260045260246000fd5b50919050565b601f821115611c8a57806000526020600020601f840160051c81016020851015611c675750805b601f840160051c820191505b81811015611c875760008155600101611c73565b50505b505050565b815167ffffffffffffffff811115611ca957611ca96117cb565b611cbd81611cb78454611c06565b84611c40565b6020601f821160018114611cf15760008315611cd95750848201515b600019600385901b1c1916600184901b178455611c87565b600084815260208120601f198516915b82811015611d215787850151825560209485019460019092019101611d01565b5084821015611d3f5786840151600019600387901b60f8161c191681555b50505050600190811b01905550565b818103818111156109f8576109f8611b9b565b600060018201611d7357611d73611b9b565b5060010190565b838152606060208201526000611d936060830185611923565b905060ff83166040830152949350505050565b600060208284031215611db857600080fd5b815167ffffffffffffffff811115611dcf57600080fd5b8201601f81018413611de057600080fd5b8051611dee61185982611812565b818152856020838501011115611e0357600080fd5b611e148260208301602086016118ff565b95945050505050565b60ff81811683821601908111156109f8576109f8611b9b565b600060ff831680611e5757634e487b7160e01b600052601260045260246000fd5b8060ff84160491505092915050565b634e487b7160e01b600052603260045260246000fd5b608081526000611e8f6080830186611923565b84602084015263ffffffff8416604084015282810360608401526008815267446f63746f72204b60c01b602082015260408101915050949350505050565b828152604060208201526000611ee66040830184611923565b94935050505056fea26469706673582212200275e8a38d49db11035650e2d8eaf7e7d095830bea10e14f459463c100ffada864736f6c634300081a0033","linkReferences":{}},"methodIdentifiers":{"createCrowd(string,uint256,uint32,string)":"930b8ef1","createProfileDoctor(uint256,string,uint8)":"b8735101","createProfilePatient(string,uint8)":"1ccdfc32","crowdToOwner(uint256)":"58d3eab0","crowds(uint256)":"92ce1e41","dataTransfer()":"c88bde70","diagnose(address)":"a1e3285c","doctorPatientRecords(address,address)":"17a4ad81","doctorRatings(address)":"b8006862","doctors(uint256)":"6efb1b84","endCrowdfunding()":"ed32f2b0","fundToCrowd()":"105fbbc9","funderToAmount(address)":"4407e1e8","funders(uint256)":"dc0d3dff","getRecord(address)":"617fba04","grantAccess(address)":"0ae5e739","isFunders(address)":"cf718fdc","owner()":"8da5cb5b","ownerCrowdCount(address)":"e9fa8814","patients(uint256)":"93119a83","profileToOwner(address)":"9ad8180f","ratingDoctor(address,uint8)":"8a7d2a0c","renounceOwnership()":"715018a6","revokeAccess(address)":"85e68531","setDataTransferAddress(address)":"2f700955","storeRecord(uint256,string)":"cde2d23b","transferOwnership(address)":"f2fde38b","withDraw()":"0fdb1c10"},"id":30}