{"abi":[{"type":"constructor","inputs":[{"name":"name","type":"string","internalType":"string"},{"name":"symbol","type":"string","internalType":"string"}],"stateMutability":"nonpayable"},{"type":"function","name":"approve","inputs":[{"name":"to","type":"address","internalType":"address"},{"name":"tokenId","type":"uint256","internalType":"uint256"}],"outputs":[],"stateMutability":"nonpayable"},{"type":"function","name":"balanceOf","inputs":[{"name":"owner","type":"address","internalType":"address"}],"outputs":[{"name":"","type":"uint256","internalType":"uint256"}],"stateMutability":"view"},{"type":"function","name":"createProfilePatient","inputs":[{"name":"patientID","type":"uint256","internalType":"uint256"},{"name":"tokenURI","type":"string","internalType":"string"}],"outputs":[],"stateMutability":"nonpayable"},{"type":"function","name":"getApproved","inputs":[{"name":"tokenId","type":"uint256","internalType":"uint256"}],"outputs":[{"name":"","type":"address","internalType":"address"}],"stateMutability":"view"},{"type":"function","name":"isApprovedForAll","inputs":[{"name":"owner","type":"address","internalType":"address"},{"name":"operator","type":"address","internalType":"address"}],"outputs":[{"name":"","type":"bool","internalType":"bool"}],"stateMutability":"view"},{"type":"function","name":"name","inputs":[],"outputs":[{"name":"","type":"string","internalType":"string"}],"stateMutability":"view"},{"type":"function","name":"ownerOf","inputs":[{"name":"tokenId","type":"uint256","internalType":"uint256"}],"outputs":[{"name":"","type":"address","internalType":"address"}],"stateMutability":"view"},{"type":"function","name":"safeTransferFrom","inputs":[{"name":"from","type":"address","internalType":"address"},{"name":"to","type":"address","internalType":"address"},{"name":"tokenId","type":"uint256","internalType":"uint256"}],"outputs":[],"stateMutability":"nonpayable"},{"type":"function","name":"safeTransferFrom","inputs":[{"name":"from","type":"address","internalType":"address"},{"name":"to","type":"address","internalType":"address"},{"name":"tokenId","type":"uint256","internalType":"uint256"},{"name":"data","type":"bytes","internalType":"bytes"}],"outputs":[],"stateMutability":"nonpayable"},{"type":"function","name":"setApprovalForAll","inputs":[{"name":"operator","type":"address","internalType":"address"},{"name":"approved","type":"bool","internalType":"bool"}],"outputs":[],"stateMutability":"nonpayable"},{"type":"function","name":"supportsInterface","inputs":[{"name":"interfaceId","type":"bytes4","internalType":"bytes4"}],"outputs":[{"name":"","type":"bool","internalType":"bool"}],"stateMutability":"view"},{"type":"function","name":"symbol","inputs":[],"outputs":[{"name":"","type":"string","internalType":"string"}],"stateMutability":"view"},{"type":"function","name":"tokenURI","inputs":[{"name":"tokenId","type":"uint256","internalType":"uint256"}],"outputs":[{"name":"","type":"string","internalType":"string"}],"stateMutability":"view"},{"type":"function","name":"transferFrom","inputs":[{"name":"from","type":"address","internalType":"address"},{"name":"to","type":"address","internalType":"address"},{"name":"tokenId","type":"uint256","internalType":"uint256"}],"outputs":[],"stateMutability":"nonpayable"},{"type":"event","name":"Approval","inputs":[{"name":"owner","type":"address","indexed":true,"internalType":"address"},{"name":"approved","type":"address","indexed":true,"internalType":"address"},{"name":"tokenId","type":"uint256","indexed":true,"internalType":"uint256"}],"anonymous":false},{"type":"event","name":"ApprovalForAll","inputs":[{"name":"owner","type":"address","indexed":true,"internalType":"address"},{"name":"operator","type":"address","indexed":true,"internalType":"address"},{"name":"approved","type":"bool","indexed":false,"internalType":"bool"}],"anonymous":false},{"type":"event","name":"BatchMetadataUpdate","inputs":[{"name":"_fromTokenId","type":"uint256","indexed":false,"internalType":"uint256"},{"name":"_toTokenId","type":"uint256","indexed":false,"internalType":"uint256"}],"anonymous":false},{"type":"event","name":"MetadataUpdate","inputs":[{"name":"_tokenId","type":"uint256","indexed":false,"internalType":"uint256"}],"anonymous":false},{"type":"event","name":"Transfer","inputs":[{"name":"from","type":"address","indexed":true,"internalType":"address"},{"name":"to","type":"address","indexed":true,"internalType":"address"},{"name":"tokenId","type":"uint256","indexed":true,"internalType":"uint256"}],"anonymous":false},{"type":"error","name":"ERC721IncorrectOwner","inputs":[{"name":"sender","type":"address","internalType":"address"},{"name":"tokenId","type":"uint256","internalType":"uint256"},{"name":"owner","type":"address","internalType":"address"}]},{"type":"error","name":"ERC721InsufficientApproval","inputs":[{"name":"operator","type":"address","internalType":"address"},{"name":"tokenId","type":"uint256","internalType":"uint256"}]},{"type":"error","name":"ERC721InvalidApprover","inputs":[{"name":"approver","type":"address","internalType":"address"}]},{"type":"error","name":"ERC721InvalidOperator","inputs":[{"name":"operator","type":"address","internalType":"address"}]},{"type":"error","name":"ERC721InvalidOwner","inputs":[{"name":"owner","type":"address","internalType":"address"}]},{"type":"error","name":"ERC721InvalidReceiver","inputs":[{"name":"receiver","type":"address","internalType":"address"}]},{"type":"error","name":"ERC721InvalidSender","inputs":[{"name":"sender","type":"address","internalType":"address"}]},{"type":"error","name":"ERC721NonexistentToken","inputs":[{"name":"tokenId","type":"uint256","internalType":"uint256"}]}],"bytecode":{"object":"0x608060405234801561001057600080fd5b5060405161158838038061158883398101604081905261002f9161010d565b8181600061003d83826101ff565b50600161004a82826101ff565b50505050506102bd565b634e487b7160e01b600052604160045260246000fd5b600082601f83011261007b57600080fd5b81516001600160401b0381111561009457610094610054565b604051601f8201601f19908116603f011681016001600160401b03811182821017156100c2576100c2610054565b6040528181528382016020018510156100da57600080fd5b60005b828110156100f9576020818601810151838301820152016100dd565b506000918101602001919091529392505050565b6000806040838503121561012057600080fd5b82516001600160401b0381111561013657600080fd5b6101428582860161006a565b602085015190935090506001600160401b0381111561016057600080fd5b61016c8582860161006a565b9150509250929050565b600181811c9082168061018a57607f821691505b6020821081036101aa57634e487b7160e01b600052602260045260246000fd5b50919050565b601f8211156101fa57806000526020600020601f840160051c810160208510156101d75750805b601f840160051c820191505b818110156101f757600081556001016101e3565b50505b505050565b81516001600160401b0381111561021857610218610054565b61022c816102268454610176565b846101b0565b6020601f82116001811461026057600083156102485750848201515b600019600385901b1c1916600184901b1784556101f7565b600084815260208120601f198516915b828110156102905787850151825560209485019460019092019101610270565b50848210156102ae5786840151600019600387901b60f8161c191681555b50505050600190811b01905550565b6112bc806102cc6000396000f3fe608060405234801561001057600080fd5b50600436106100ea5760003560e01c806370a082311161008c578063a22cb46511610066578063a22cb465146101e1578063b88d4fde146101f4578063c87b56dd14610207578063e985e9c51461021a57600080fd5b806370a08231146101a55780637e259a11146101c657806395d89b41146101d957600080fd5b8063095ea7b3116100c8578063095ea7b31461015757806323b872dd1461016c57806342842e0e1461017f5780636352211e1461019257600080fd5b806301ffc9a7146100ef57806306fdde0314610117578063081812fc1461012c575b600080fd5b6101026100fd366004610db0565b61022d565b60405190151581526020015b60405180910390f35b61011f610258565b60405161010e9190610e1d565b61013f61013a366004610e30565b6102ea565b6040516001600160a01b03909116815260200161010e565b61016a610165366004610e65565b610313565b005b61016a61017a366004610e8f565b610322565b61016a61018d366004610e8f565b6103b2565b61013f6101a0366004610e30565b6103d2565b6101b86101b3366004610ecc565b6103dd565b60405190815260200161010e565b61016a6101d4366004610f77565b610425565b61011f610439565b61016a6101ef366004610fd2565b610448565b61016a61020236600461100e565b610453565b61011f610215366004610e30565b61046b565b61010261022836600461108a565b61057c565b60006001600160e01b03198216632483248360e11b14806102525750610252826105aa565b92915050565b606060008054610267906110bd565b80601f0160208091040260200160405190810160405280929190818152602001828054610293906110bd565b80156102e05780601f106102b5576101008083540402835291602001916102e0565b820191906000526020600020905b8154815290600101906020018083116102c357829003601f168201915b5050505050905090565b60006102f5826105fa565b506000828152600460205260409020546001600160a01b0316610252565b61031e828233610633565b5050565b6001600160a01b03821661035157604051633250574960e11b8152600060048201526024015b60405180910390fd5b600061035e838333610640565b9050836001600160a01b0316816001600160a01b0316146103ac576040516364283d7b60e01b81526001600160a01b0380861660048301526024820184905282166044820152606401610348565b50505050565b6103cd83838360405180602001604052806000815250610453565b505050565b6000610252826105fa565b60006001600160a01b038216610409576040516322718ad960e21b815260006004820152602401610348565b506001600160a01b031660009081526003602052604090205490565b61042f3383610739565b61031e8282610753565b606060018054610267906110bd565b61031e3383836107a3565b61045e848484610322565b6103ac3385858585610842565b6060610476826105fa565b5060008281526006602052604081208054610490906110bd565b80601f01602080910402602001604051908101604052809291908181526020018280546104bc906110bd565b80156105095780601f106104de57610100808354040283529160200191610509565b820191906000526020600020905b8154815290600101906020018083116104ec57829003601f168201915b50505050509050600061052760408051602081019091526000815290565b90508051600003610539575092915050565b81511561056b5780826040516020016105539291906110f7565b60405160208183030381529060405292505050919050565b6105748461096d565b949350505050565b6001600160a01b03918216600090815260056020908152604080832093909416825291909152205460ff1690565b60006001600160e01b031982166380ac58cd60e01b14806105db57506001600160e01b03198216635b5e139f60e01b145b8061025257506301ffc9a760e01b6001600160e01b0319831614610252565b6000818152600260205260408120546001600160a01b03168061025257604051637e27328960e01b815260048101849052602401610348565b6103cd83838360016109e2565b6000828152600260205260408120546001600160a01b039081169083161561066d5761066d818486610ae8565b6001600160a01b038116156106ab5761068a6000856000806109e2565b6001600160a01b038116600090815260036020526040902080546000190190555b6001600160a01b038516156106da576001600160a01b0385166000908152600360205260409020805460010190555b60008481526002602052604080822080546001600160a01b0319166001600160a01b0389811691821790925591518793918516917fddf252ad1be2c89b69c2b068fc378daa952ba7f163c4a11628f55a4df523b3ef91a4949350505050565b61031e828260405180602001604052806000815250610b4c565b600082815260066020526040902061076b828261116d565b506040518281527ff8e1a15aba9398e019f0b49df1a4fde98ee17ae345cb5f6b5e2c27f5033e8ce79060200160405180910390a15050565b6001600160a01b0382166107d557604051630b61174360e31b81526001600160a01b0383166004820152602401610348565b6001600160a01b03838116600081815260056020908152604080832094871680845294825291829020805460ff191686151590811790915591519182527f17307eab39ab6107e8899845ad3d59bd9653f200f220920489ca2b5937696c31910160405180910390a3505050565b6001600160a01b0383163b1561096657604051630a85bd0160e11b81526001600160a01b0384169063150b7a029061088490889088908790879060040161122c565b6020604051808303816000875af19250505080156108bf575060408051601f3d908101601f191682019092526108bc91810190611269565b60015b610928573d8080156108ed576040519150601f19603f3d011682016040523d82523d6000602084013e6108f2565b606091505b50805160000361092057604051633250574960e11b81526001600160a01b0385166004820152602401610348565b805181602001fd5b6001600160e01b03198116630a85bd0160e11b1461096457604051633250574960e11b81526001600160a01b0385166004820152602401610348565b505b5050505050565b6060610978826105fa565b50600061099060408051602081019091526000815290565b905060008151116109b057604051806020016040528060008152506109db565b806109ba84610b64565b6040516020016109cb9291906110f7565b6040516020818303038152906040525b9392505050565b80806109f657506001600160a01b03821615155b15610ab8576000610a06846105fa565b90506001600160a01b03831615801590610a325750826001600160a01b0316816001600160a01b031614155b8015610a455750610a43818461057c565b155b15610a6e5760405163a9fbf51f60e01b81526001600160a01b0384166004820152602401610348565b8115610ab65783856001600160a01b0316826001600160a01b03167f8c5be1e5ebec7d5bd14f71427d1e84f3dd0314c0f7b2291e5b200ac8c7c3b92560405160405180910390a45b505b5050600090815260046020526040902080546001600160a01b0319166001600160a01b0392909216919091179055565b610af3838383610bf7565b6103cd576001600160a01b038316610b2157604051637e27328960e01b815260048101829052602401610348565b60405163177e802f60e01b81526001600160a01b038316600482015260248101829052604401610348565b610b568383610c5a565b6103cd336000858585610842565b60606000610b7183610cbf565b600101905060008167ffffffffffffffff811115610b9157610b91610ee7565b6040519080825280601f01601f191660200182016040528015610bbb576020820181803683370190505b5090508181016020015b600019016f181899199a1a9b1b9c1cb0b131b232b360811b600a86061a8153600a8504945084610bc557509392505050565b60006001600160a01b038316158015906105745750826001600160a01b0316846001600160a01b03161480610c315750610c31848461057c565b806105745750506000908152600460205260409020546001600160a01b03908116911614919050565b6001600160a01b038216610c8457604051633250574960e11b815260006004820152602401610348565b6000610c9283836000610640565b90506001600160a01b038116156103cd576040516339e3563760e11b815260006004820152602401610348565b60008072184f03e93ff9f4daa797ed6e38ed64bf6a1f0160401b8310610cfe5772184f03e93ff9f4daa797ed6e38ed64bf6a1f0160401b830492506040015b6d04ee2d6d415b85acef81000000008310610d2a576d04ee2d6d415b85acef8100000000830492506020015b662386f26fc100008310610d4857662386f26fc10000830492506010015b6305f5e1008310610d60576305f5e100830492506008015b6127108310610d7457612710830492506004015b60648310610d86576064830492506002015b600a83106102525760010192915050565b6001600160e01b031981168114610dad57600080fd5b50565b600060208284031215610dc257600080fd5b81356109db81610d97565b60005b83811015610de8578181015183820152602001610dd0565b50506000910152565b60008151808452610e09816020860160208601610dcd565b601f01601f19169290920160200192915050565b6020815260006109db6020830184610df1565b600060208284031215610e4257600080fd5b5035919050565b80356001600160a01b0381168114610e6057600080fd5b919050565b60008060408385031215610e7857600080fd5b610e8183610e49565b946020939093013593505050565b600080600060608486031215610ea457600080fd5b610ead84610e49565b9250610ebb60208501610e49565b929592945050506040919091013590565b600060208284031215610ede57600080fd5b6109db82610e49565b634e487b7160e01b600052604160045260246000fd5b60008067ffffffffffffffff841115610f1857610f18610ee7565b50604051601f19601f85018116603f0116810181811067ffffffffffffffff82111715610f4757610f47610ee7565b604052838152905080828401851015610f5f57600080fd5b83836020830137600060208583010152509392505050565b60008060408385031215610f8a57600080fd5b82359150602083013567ffffffffffffffff811115610fa857600080fd5b8301601f81018513610fb957600080fd5b610fc885823560208401610efd565b9150509250929050565b60008060408385031215610fe557600080fd5b610fee83610e49565b91506020830135801515811461100357600080fd5b809150509250929050565b6000806000806080858703121561102457600080fd5b61102d85610e49565b935061103b60208601610e49565b925060408501359150606085013567ffffffffffffffff81111561105e57600080fd5b8501601f8101871361106f57600080fd5b61107e87823560208401610efd565b91505092959194509250565b6000806040838503121561109d57600080fd5b6110a683610e49565b91506110b460208401610e49565b90509250929050565b600181811c908216806110d157607f821691505b6020821081036110f157634e487b7160e01b600052602260045260246000fd5b50919050565b60008351611109818460208801610dcd565b83519083019061111d818360208801610dcd565b01949350505050565b601f8211156103cd57806000526020600020601f840160051c8101602085101561114d5750805b601f840160051c820191505b818110156109665760008155600101611159565b815167ffffffffffffffff81111561118757611187610ee7565b61119b8161119584546110bd565b84611126565b6020601f8211600181146111cf57600083156111b75750848201515b600019600385901b1c1916600184901b178455610966565b600084815260208120601f198516915b828110156111ff57878501518255602094850194600190920191016111df565b508482101561121d5786840151600019600387901b60f8161c191681555b50505050600190811b01905550565b6001600160a01b038581168252841660208201526040810183905260806060820181905260009061125f90830184610df1565b9695505050505050565b60006020828403121561127b57600080fd5b81516109db81610d9756fea26469706673582212207279261ed1a67bdd143e74ed604ef74f03bfee827138956cd00d979a8294222a64736f6c634300081a0033","linkReferences":{}},"methodIdentifiers":{"approve(address,uint256)":"095ea7b3","balanceOf(address)":"70a08231","createProfilePatient(uint256,string)":"7e259a11","getApproved(uint256)":"081812fc","isApprovedForAll(address,address)":"e985e9c5","name()":"06fdde03","ownerOf(uint256)":"6352211e","safeTransferFrom(address,address,uint256)":"42842e0e","safeTransferFrom(address,address,uint256,bytes)":"b88d4fde","setApprovalForAll(address,bool)":"a22cb465","supportsInterface(bytes4)":"01ffc9a7","symbol()":"95d89b41","tokenURI(uint256)":"c87b56dd","transferFrom(address,address,uint256)":"23b872dd"},"id":18}