{"abi":[{"type":"constructor","inputs":[],"stateMutability":"nonpayable"},{"type":"function","name":"createProfileDoctor","inputs":[{"name":"_idDoctor","type":"uint256","internalType":"uint256"},{"name":"_name","type":"string","internalType":"string"},{"name":"_age","type":"uint8","internalType":"uint8"}],"outputs":[],"stateMutability":"nonpayable"},{"type":"function","name":"createProfilePatient","inputs":[{"name":"_name","type":"string","internalType":"string"},{"name":"_age","type":"uint8","internalType":"uint8"}],"outputs":[],"stateMutability":"nonpayable"},{"type":"function","name":"doctors","inputs":[{"name":"","type":"uint256","internalType":"uint256"}],"outputs":[{"name":"idDoctor","type":"uint256","internalType":"uint256"},{"name":"name","type":"string","internalType":"string"},{"name":"age","type":"uint8","internalType":"uint8"},{"name":"walletAddress","type":"address","internalType":"address"},{"name":"rating","type":"uint8","internalType":"uint8"}],"stateMutability":"view"},{"type":"function","name":"owner","inputs":[],"outputs":[{"name":"","type":"address","internalType":"address"}],"stateMutability":"view"},{"type":"function","name":"patients","inputs":[{"name":"","type":"uint256","internalType":"uint256"}],"outputs":[{"name":"name","type":"string","internalType":"string"},{"name":"age","type":"uint8","internalType":"uint8"},{"name":"walletAddress","type":"address","internalType":"address"}],"stateMutability":"view"},{"type":"function","name":"profileToOwner","inputs":[{"name":"","type":"uint256","internalType":"uint256"}],"outputs":[{"name":"","type":"address","internalType":"address"}],"stateMutability":"view"},{"type":"function","name":"renounceOwnership","inputs":[],"outputs":[],"stateMutability":"nonpayable"},{"type":"function","name":"transferOwnership","inputs":[{"name":"newOwner","type":"address","internalType":"address"}],"outputs":[],"stateMutability":"nonpayable"},{"type":"event","name":"NewUser","inputs":[{"name":"patientId","type":"uint256","indexed":false,"internalType":"uint256"},{"name":"name","type":"string","indexed":false,"internalType":"string"},{"name":"age","type":"uint256","indexed":false,"internalType":"uint256"}],"anonymous":false},{"type":"event","name":"OwnershipTransferred","inputs":[{"name":"previousOwner","type":"address","indexed":true,"internalType":"address"},{"name":"newOwner","type":"address","indexed":true,"internalType":"address"}],"anonymous":false},{"type":"error","name":"OwnableInvalidOwner","inputs":[{"name":"owner","type":"address","internalType":"address"}]},{"type":"error","name":"OwnableUnauthorizedAccount","inputs":[{"name":"account","type":"address","internalType":"address"}]}],"bytecode":{"object":"0x6080604052348015600f57600080fd5b503380603557604051631e4fbdf760e01b81526000600482015260240160405180910390fd5b603c816041565b506091565b600080546001600160a01b038381166001600160a01b0319831681178455604051919092169283917f8be0079c531659141344cd1fd0a4f28419497f9722a3daafe3b4186f6b6457e09190a35050565b610be0806100a06000396000f3fe608060405234801561001057600080fd5b50600436106100885760003560e01c80638da5cb5b1161005b5780638da5cb5b1461011457806393119a8314610125578063b873510114610147578063f2fde38b1461015a57600080fd5b80631ccdfc321461008d578063621ac371146100a25780636efb1b84146100e8578063715018a61461010c575b600080fd5b6100a061009b3660046107fc565b61016d565b005b6100cb6100b036600461084a565b6003602052600090815260409020546001600160a01b031681565b6040516001600160a01b0390911681526020015b60405180910390f35b6100fb6100f636600461084a565b6102d1565b6040516100df9594939291906108a9565b6100a06103ad565b6000546001600160a01b03166100cb565b61013861013336600461084a565b6103c1565b6040516100df939291906108ef565b6100a0610155366004610925565b610491565b6100a061016836600461097c565b610686565b33600090815260046020526040902054156101a35760405162461bcd60e51b815260040161019a906109ac565b60405180910390fd5b6040805160608101825283815260ff831660208201523391810191909152600180548082018255600091909152815160029091027fb10e2d527612073b26eecdfd717e6a320cf44b4afac2b0732d9fcbe2b7fa0cf6019081906102069082610a77565b506020820151600191820180546040909401516001600160a01b0316610100026001600160a81b031990941660ff9092169190911792909217909155805460009161025091610b4c565b600081815260036020908152604080832080546001600160a01b0319163390811790915583526004909152812080549293509061028c83610b65565b91905055507fd86dca2e2544318fbca4769e2f7ea2bba8eeb0f445dd717aef0d3c84670baa418184846040516102c493929190610b7e565b60405180910390a1505050565b600281815481106102e157600080fd5b60009182526020909120600390910201805460018201805491935090610306906109ee565b80601f0160208091040260200160405190810160405280929190818152602001828054610332906109ee565b801561037f5780601f106103545761010080835404028352916020019161037f565b820191906000526020600020905b81548152906001019060200180831161036257829003601f168201915b5050506002909301549192505060ff808216916001600160a01b0361010082041691600160a81b9091041685565b6103b56106c4565b6103bf60006106f1565b565b600181815481106103d157600080fd5b90600052602060002090600202016000915090508060000180546103f4906109ee565b80601f0160208091040260200160405190810160405280929190818152602001828054610420906109ee565b801561046d5780601f106104425761010080835404028352916020019161046d565b820191906000526020600020905b81548152906001019060200180831161045057829003601f168201915b5050506001909301549192505060ff8116906001600160a01b036101009091041683565b33600090815260046020526040902054156104be5760405162461bcd60e51b815260040161019a906109ac565b61271083116105065760405162461bcd60e51b815260206004820152601460248201527315185ad9481a5908199bdc9b481a1bdc1a5d185b60621b604482015260640161019a565b6040805160a0810182528481526020810184815260ff841692820192909252336060820152600060808201819052600280546001810182559152815160039091027f405787fa12a823e0f2b7631cc41b3ba8828b3321ca811111fa75cd3aa3bb5ace81019182559251919290917f405787fa12a823e0f2b7631cc41b3ba8828b3321ca811111fa75cd3aa3bb5acf909101906105a29082610a77565b50604082015160029182018054606085015160809095015160ff908116600160a81b0260ff60a81b196001600160a01b03909716610100026001600160a81b031990931691909416171793909316179091555460009061060490600190610b4c565b600081815260036020908152604080832080546001600160a01b0319163390811790915583526004909152812080549293509061064083610b65565b91905055507fd86dca2e2544318fbca4769e2f7ea2bba8eeb0f445dd717aef0d3c84670baa4181848460405161067893929190610b7e565b60405180910390a150505050565b61068e6106c4565b6001600160a01b0381166106b857604051631e4fbdf760e01b81526000600482015260240161019a565b6106c1816106f1565b50565b6000546001600160a01b031633146103bf5760405163118cdaa760e01b815233600482015260240161019a565b600080546001600160a01b038381166001600160a01b0319831681178455604051919092169283917f8be0079c531659141344cd1fd0a4f28419497f9722a3daafe3b4186f6b6457e09190a35050565b634e487b7160e01b600052604160045260246000fd5b600082601f83011261076857600080fd5b813567ffffffffffffffff81111561078257610782610741565b604051601f8201601f19908116603f0116810167ffffffffffffffff811182821017156107b1576107b1610741565b6040528181528382016020018510156107c957600080fd5b816020850160208301376000918101602001919091529392505050565b803560ff811681146107f757600080fd5b919050565b6000806040838503121561080f57600080fd5b823567ffffffffffffffff81111561082657600080fd5b61083285828601610757565b925050610841602084016107e6565b90509250929050565b60006020828403121561085c57600080fd5b5035919050565b6000815180845260005b818110156108895760208185018101518683018201520161086d565b506000602082860101526020601f19601f83011685010191505092915050565b85815260a0602082015260006108c260a0830187610863565b60ff95861660408401526001600160a01b0394909416606083015250921660809092019190915292915050565b6060815260006109026060830186610863565b60ff949094166020830152506001600160a01b0391909116604090910152919050565b60008060006060848603121561093a57600080fd5b83359250602084013567ffffffffffffffff81111561095857600080fd5b61096486828701610757565b925050610973604085016107e6565b90509250925092565b60006020828403121561098e57600080fd5b81356001600160a01b03811681146109a557600080fd5b9392505050565b60208082526022908201527f596f7520616c7265616479206861766520612070617469656e742070726f66696040820152616c6560f01b606082015260800190565b600181811c90821680610a0257607f821691505b602082108103610a2257634e487b7160e01b600052602260045260246000fd5b50919050565b601f821115610a7257806000526020600020601f840160051c81016020851015610a4f5750805b601f840160051c820191505b81811015610a6f5760008155600101610a5b565b50505b505050565b815167ffffffffffffffff811115610a9157610a91610741565b610aa581610a9f84546109ee565b84610a28565b6020601f821160018114610ad95760008315610ac15750848201515b600019600385901b1c1916600184901b178455610a6f565b600084815260208120601f198516915b82811015610b095787850151825560209485019460019092019101610ae9565b5084821015610b275786840151600019600387901b60f8161c191681555b50505050600190811b01905550565b634e487b7160e01b600052601160045260246000fd5b81810381811115610b5f57610b5f610b36565b92915050565b600060018201610b7757610b77610b36565b5060010190565b838152606060208201526000610b976060830185610863565b905060ff8316604083015294935050505056fea2646970667358221220eee45cc457073f56ccf523efbab3547a121d9618417f033ba6a1a7b3eff8b1b864736f6c634300081a0033","linkReferences":{}},"methodIdentifiers":{"createProfileDoctor(uint256,string,uint8)":"b8735101","createProfilePatient(string,uint8)":"1ccdfc32","doctors(uint256)":"6efb1b84","owner()":"8da5cb5b","patients(uint256)":"93119a83","profileToOwner(uint256)":"621ac371","renounceOwnership()":"715018a6","transferOwnership(address)":"f2fde38b"},"id":25}